{"abi":[{"inputs":[{"internalType":"address","name":"_router","type":"address"},{"internalType":"address","name":"_pair","type":"address"},{"internalType":"address","name":"_routerFork","type":"address"},{"internalType":"address","name":"_pairFork","type":"address"},{"internalType":"address","name":"_bonusToken","type":"address"}],"stateMutability":"nonpayable","type":"constructor"},{"inputs":[],"name":"admin","outputs":[{"internalType":"address","name":"","type":"address"}],"stateMutability":"view","type":"function"},{"inputs":[],"name":"bonusToken","outputs":[{"internalType":"contract BonusToken","name":"","type":"address"}],"stateMutability":"view","type":"function"},{"inputs":[],"name":"claimLpTokens","outputs":[],"stateMutability":"nonpayable","type":"function"},{"inputs":[{"internalType":"uint256","name":"amount","type":"uint256"}],"name":"deposit","outputs":[],"stateMutability":"nonpayable","type":"function"},{"inputs":[],"name":"migrate","outputs":[],"stateMutability":"nonpayable","type":"function"},{"inputs":[],"name":"migrationDone","outputs":[{"internalType":"bool","name":"","type":"bool"}],"stateMutability":"view","type":"function"},{"inputs":[],"name":"pair","outputs":[{"internalType":"contract IUniswapV2Pair","name":"","type":"address"}],"stateMutability":"view","type":"function"},{"inputs":[],"name":"pairFork","outputs":[{"internalType":"contract IUniswapV2Pair","name":"","type":"address"}],"stateMutability":"view","type":"function"},{"inputs":[],"name":"router","outputs":[{"internalType":"contract IUniswapV2Router02","name":"","type":"address"}],"stateMutability":"view","type":"function"},{"inputs":[],"name":"routerFork","outputs":[{"internalType":"contract IUniswapV2Router02","name":"","type":"address"}],"stateMutability":"view","type":"function"},{"inputs":[{"internalType":"address","name":"","type":"address"}],"name":"unclaimedBalances","outputs":[{"internalType":"uint256","name":"","type":"uint256"}],"stateMutability":"view","type":"function"}],"devdoc":{"methods":{}},"evm":{"assembly":"    /* \"Contract\":238:2785  contract LiquidityMigrator {\r... */\n  mstore(0x40, 0x80)\n    /* \"Contract\":576:960  constructor(address _router, address _pair, address _routerFork, address _pairFork, address _bonusToken) public {\r... */\n  callvalue\n    /* \"--CODEGEN--\":5:14   */\n  dup1\n    /* \"--CODEGEN--\":2:4   */\n  iszero\n  tag_1\n  jumpi\n    /* \"--CODEGEN--\":27:28   */\n  0x00\n    /* \"--CODEGEN--\":24:25   */\n  dup1\n    /* \"--CODEGEN--\":17:29   */\n  revert\n    /* \"--CODEGEN--\":2:4   */\ntag_1:\n    /* \"Contract\":576:960  constructor(address _router, address _pair, address _routerFork, address _pairFork, address _bonusToken) public {\r... */\n  pop\n  mload(0x40)\n  sub(codesize, bytecodeSize)\n  dup1\n  bytecodeSize\n  dup4\n  codecopy\n  dup2\n  dup2\n  add\n  0x40\n  mstore\n    /* \"--CODEGEN--\":15:18   */\n  0xa0\n    /* \"--CODEGEN--\":10:13   */\n  dup2\n    /* \"--CODEGEN--\":7:19   */\n  lt\n    /* \"--CODEGEN--\":4:6   */\n  iszero\n  tag_2\n  jumpi\n    /* \"--CODEGEN--\":32:33   */\n  0x00\n    /* \"--CODEGEN--\":29:30   */\n  dup1\n    /* \"--CODEGEN--\":22:34   */\n  revert\n    /* \"--CODEGEN--\":4:6   */\ntag_2:\n  pop\n    /* \"Contract\":576:960  constructor(address _router, address _pair, address _routerFork, address _pairFork, address _bonusToken) public {\r... */\n  dup1\n  mload\n  0x20\n  dup3\n  add\n  mload\n  0x40\n  dup4\n  add\n  mload\n  0x60\n  dup5\n  add\n  mload\n  0x80\n  swap1\n  swap5\n  add\n  mload\n    /* \"Contract\":699:705  router */\n  0x00\n    /* \"Contract\":699:735  router = IUniswapV2Router02(_router) */\n  dup1\n  sload\n  sub(shl(0xa0, 0x01), 0x01)\n  swap6\n  dup7\n  and\n  not(sub(shl(0xa0, 0x01), 0x01))\n  swap2\n  dup3\n  and\n  or\n  swap1\n  swap2\n  sstore\n  0x01\n    /* \"Contract\":746:774  pair = IUniswapV2Pair(_pair) */\n  dup1\n  sload\n  swap5\n  dup7\n  and\n  swap5\n  dup3\n  and\n  swap5\n  swap1\n  swap5\n  or\n  swap1\n  swap4\n  sstore\n    /* \"Contract\":785:795  routerFork */\n  0x02\n    /* \"Contract\":785:829  routerFork = IUniswapV2Router02(_routerFork) */\n  dup1\n  sload\n  swap3\n  dup6\n  and\n  swap3\n  dup5\n  and\n  swap3\n  swap1\n  swap3\n  or\n  swap1\n  swap2\n  sstore\n    /* \"Contract\":840:848  pairFork */\n  0x03\n    /* \"Contract\":840:876  pairFork = IUniswapV2Pair(_pairFork) */\n  dup1\n  sload\n  swap5\n  dup5\n  and\n  swap5\n  dup4\n  and\n  swap5\n  swap1\n  swap5\n  or\n  swap1\n  swap4\n  sstore\n    /* \"Contract\":887:897  bonusToken */\n  0x04\n    /* \"Contract\":887:923  bonusToken = BonusToken(_bonusToken) */\n  dup1\n  sload\n  swap3\n  swap1\n  swap4\n  and\n  swap2\n  dup2\n  and\n  swap2\n  swap1\n  swap2\n  or\n  swap1\n  swap2\n  sstore\n    /* \"Contract\":934:939  admin */\n  0x05\n    /* \"Contract\":934:952  admin = msg.sender */\n  dup1\n  sload\n  swap1\n  swap2\n  and\n    /* \"Contract\":942:952  msg.sender */\n  caller\n    /* \"Contract\":934:952  admin = msg.sender */\n  or\n  swap1\n  sstore\n    /* \"Contract\":238:2785  contract LiquidityMigrator {\r... */\n  dataSize(sub_0)\n  dup1\n  dataOffset(sub_0)\n  0x00\n  codecopy\n  0x00\n  return\nstop\n\nsub_0: assembly {\n        /* \"Contract\":238:2785  contract LiquidityMigrator {\r... */\n      mstore(0x40, 0x80)\n      callvalue\n        /* \"--CODEGEN--\":5:14   */\n      dup1\n        /* \"--CODEGEN--\":2:4   */\n      iszero\n      tag_1\n      jumpi\n        /* \"--CODEGEN--\":27:28   */\n      0x00\n        /* \"--CODEGEN--\":24:25   */\n      dup1\n        /* \"--CODEGEN--\":17:29   */\n      revert\n        /* \"--CODEGEN--\":2:4   */\n    tag_1:\n        /* \"Contract\":238:2785  contract LiquidityMigrator {\r... */\n      pop\n      jumpi(tag_2, lt(calldatasize, 0x04))\n      shr(0xe0, calldataload(0x00))\n      dup1\n      0x8fd3ab80\n      gt\n      tag_14\n      jumpi\n      dup1\n      0x8fd3ab80\n      eq\n      tag_8\n      jumpi\n      dup1\n      0xa8aa1b31\n      eq\n      tag_9\n      jumpi\n      dup1\n      0xb6b55f25\n      eq\n      tag_10\n      jumpi\n      dup1\n      0xc896c18c\n      eq\n      tag_11\n      jumpi\n      dup1\n      0xf851a440\n      eq\n      tag_12\n      jumpi\n      dup1\n      0xf887ea40\n      eq\n      tag_13\n      jumpi\n      jump(tag_2)\n    tag_14:\n      dup1\n      0x0d81a570\n      eq\n      tag_3\n      jumpi\n      dup1\n      0x41d4a1ab\n      eq\n      tag_4\n      jumpi\n      dup1\n      0x59201402\n      eq\n      tag_5\n      jumpi\n      dup1\n      0x766faf36\n      eq\n      tag_6\n      jumpi\n      dup1\n      0x8bf6afaf\n      eq\n      tag_7\n      jumpi\n    tag_2:\n        /* \"--CODEGEN--\":12:13   */\n      0x00\n        /* \"--CODEGEN--\":9:10   */\n      dup1\n        /* \"--CODEGEN--\":2:14   */\n      revert\n        /* \"Contract\":542:567  bool public migrationDone */\n    tag_3:\n      tag_15\n      tag_16\n      jump\t// in\n    tag_15:\n      0x40\n      dup1\n      mload\n      swap2\n      iszero\n      iszero\n      dup3\n      mstore\n      mload\n      swap1\n      dup2\n      swap1\n      sub\n      0x20\n      add\n      swap1\n      return\n        /* \"Contract\":424:452  BonusToken public bonusToken */\n    tag_4:\n      tag_17\n      tag_18\n      jump\t// in\n    tag_17:\n      0x40\n      dup1\n      mload\n      sub(shl(0xa0, 0x01), 0x01)\n      swap1\n      swap3\n      and\n      dup3\n      mstore\n      mload\n      swap1\n      dup2\n      swap1\n      sub\n      0x20\n      add\n      swap1\n      return\n        /* \"Contract\":387:417  IUniswapV2Pair public pairFork */\n    tag_5:\n      tag_17\n      tag_20\n      jump\t// in\n        /* \"Contract\":344:380  IUniswapV2Router02 public routerFork */\n    tag_6:\n      tag_17\n      tag_22\n      jump\t// in\n        /* \"Contract\":486:535  mapping(address => uint) public unclaimedBalances */\n    tag_7:\n      tag_23\n      0x04\n      dup1\n      calldatasize\n      sub\n        /* \"--CODEGEN--\":15:17   */\n      0x20\n        /* \"--CODEGEN--\":10:13   */\n      dup2\n        /* \"--CODEGEN--\":7:18   */\n      lt\n        /* \"--CODEGEN--\":4:6   */\n      iszero\n      tag_24\n      jumpi\n        /* \"--CODEGEN--\":31:32   */\n      0x00\n        /* \"--CODEGEN--\":28:29   */\n      dup1\n        /* \"--CODEGEN--\":21:33   */\n      revert\n        /* \"--CODEGEN--\":4:6   */\n    tag_24:\n      pop\n        /* \"Contract\":486:535  mapping(address => uint) public unclaimedBalances */\n      calldataload\n      sub(shl(0xa0, 0x01), 0x01)\n      and\n      tag_25\n      jump\t// in\n    tag_23:\n      0x40\n      dup1\n      mload\n      swap2\n      dup3\n      mstore\n      mload\n      swap1\n      dup2\n      swap1\n      sub\n      0x20\n      add\n      swap1\n      return\n        /* \"Contract\":1336:2426  function migrate() external {\r... */\n    tag_8:\n      tag_26\n      tag_27\n      jump\t// in\n    tag_26:\n      stop\n        /* \"Contract\":311:337  IUniswapV2Pair public pair */\n    tag_9:\n      tag_17\n      tag_29\n      jump\t// in\n        /* \"Contract\":968:1328  function deposit(uint amount) external {\r... */\n    tag_10:\n      tag_26\n      0x04\n      dup1\n      calldatasize\n      sub\n        /* \"--CODEGEN--\":15:17   */\n      0x20\n        /* \"--CODEGEN--\":10:13   */\n      dup2\n        /* \"--CODEGEN--\":7:18   */\n      lt\n        /* \"--CODEGEN--\":4:6   */\n      iszero\n      tag_31\n      jumpi\n        /* \"--CODEGEN--\":31:32   */\n      0x00\n        /* \"--CODEGEN--\":28:29   */\n      dup1\n        /* \"--CODEGEN--\":21:33   */\n      revert\n        /* \"--CODEGEN--\":4:6   */\n    tag_31:\n      pop\n        /* \"Contract\":968:1328  function deposit(uint amount) external {\r... */\n      calldataload\n      tag_32\n      jump\t// in\n        /* \"Contract\":2434:2780  function claimLpTokens() external {\r... */\n    tag_11:\n      tag_26\n      tag_34\n      jump\t// in\n        /* \"Contract\":459:479  address public admin */\n    tag_12:\n      tag_17\n      tag_36\n      jump\t// in\n        /* \"Contract\":272:304  IUniswapV2Router02 public router */\n    tag_13:\n      tag_17\n      tag_38\n      jump\t// in\n        /* \"Contract\":542:567  bool public migrationDone */\n    tag_16:\n      and(0xff, sload(0x07))\n      dup2\n      jump\t// out\n        /* \"Contract\":424:452  BonusToken public bonusToken */\n    tag_18:\n      and(sub(shl(0xa0, 0x01), 0x01), sload(0x04))\n      dup2\n      jump\t// out\n        /* \"Contract\":387:417  IUniswapV2Pair public pairFork */\n    tag_20:\n      and(sub(shl(0xa0, 0x01), 0x01), sload(0x03))\n      dup2\n      jump\t// out\n        /* \"Contract\":344:380  IUniswapV2Router02 public routerFork */\n    tag_22:\n      and(sub(shl(0xa0, 0x01), 0x01), sload(0x02))\n      dup2\n      jump\t// out\n        /* \"Contract\":486:535  mapping(address => uint) public unclaimedBalances */\n    tag_25:\n      mstore(0x20, 0x06)\n      0x00\n      swap1\n      dup2\n      mstore\n      0x40\n      swap1\n      keccak256\n      sload\n      dup2\n      jump\t// out\n        /* \"Contract\":1336:2426  function migrate() external {\r... */\n    tag_27:\n        /* \"Contract\":1397:1402  admin */\n      and(sub(shl(0xa0, 0x01), 0x01), sload(0x05))\n        /* \"Contract\":1383:1393  msg.sender */\n      caller\n        /* \"Contract\":1383:1402  msg.sender == admin */\n      eq\n        /* \"Contract\":1375:1417  require(msg.sender == admin, \"only admin\") */\n      tag_40\n      jumpi\n      0x40\n      dup1\n      mload\n      shl(0xe5, 0x461bcd)\n      dup2\n      mstore\n      0x20\n      0x04\n      dup3\n      add\n      mstore\n      0x0a\n      0x24\n      dup3\n      add\n      mstore\n      shl(0xb1, 0x37b7363c9030b236b4b7)\n      0x44\n      dup3\n      add\n      mstore\n      swap1\n      mload\n      swap1\n      dup2\n      swap1\n      sub\n      0x64\n      add\n      swap1\n      revert\n    tag_40:\n        /* \"Contract\":1436:1449  migrationDone */\n      and(0xff, sload(0x07))\n        /* \"Contract\":1436:1458  migrationDone == false */\n      iszero\n        /* \"Contract\":1428:1485  require(migrationDone == false, \"migration already done\") */\n      tag_41\n      jumpi\n      0x40\n      dup1\n      mload\n      shl(0xe5, 0x461bcd)\n      dup2\n      mstore\n      0x20\n      0x04\n      dup3\n      add\n      mstore\n      0x16\n      0x24\n      dup3\n      add\n      mstore\n      shl(0x50, 0x6d6967726174696f6e20616c726561647920646f6e65)\n      0x44\n      dup3\n      add\n      mstore\n      swap1\n      mload\n      swap1\n      dup2\n      swap1\n      sub\n      0x64\n      add\n      swap1\n      revert\n    tag_41:\n        /* \"Contract\":1519:1523  pair */\n      sload(0x01)\n        /* \"Contract\":1519:1532  pair.token0() */\n      0x40\n      dup1\n      mload\n      shl(0xe0, 0x0dfe1681)\n      dup2\n      mstore\n      swap1\n      mload\n        /* \"Contract\":1496:1509  IERC20 token0 */\n      0x00\n      swap3\n      sub(shl(0xa0, 0x01), 0x01)\n        /* \"Contract\":1519:1523  pair */\n      and\n      swap2\n        /* \"Contract\":1519:1530  pair.token0 */\n      0x0dfe1681\n      swap2\n        /* \"Contract\":1519:1532  pair.token0() */\n      0x04\n      dup1\n      dup4\n      add\n      swap3\n      0x20\n      swap3\n      swap2\n      swap1\n      dup3\n      swap1\n      sub\n      add\n      dup2\n        /* \"Contract\":1519:1523  pair */\n      dup7\n        /* \"Contract\":1519:1532  pair.token0() */\n      dup1\n      extcodesize\n      iszero\n        /* \"--CODEGEN--\":2:4   */\n      dup1\n      iszero\n      tag_42\n      jumpi\n        /* \"--CODEGEN--\":27:28   */\n      0x00\n        /* \"--CODEGEN--\":24:25   */\n      dup1\n        /* \"--CODEGEN--\":17:29   */\n      revert\n        /* \"--CODEGEN--\":2:4   */\n    tag_42:\n        /* \"Contract\":1519:1532  pair.token0() */\n      pop\n      gas\n      staticcall\n      iszero\n        /* \"--CODEGEN--\":8:17   */\n      dup1\n        /* \"--CODEGEN--\":5:7   */\n      iszero\n      tag_44\n      jumpi\n        /* \"--CODEGEN--\":45:61   */\n      returndatasize\n        /* \"--CODEGEN--\":42:43   */\n      0x00\n        /* \"--CODEGEN--\":39:40   */\n      dup1\n        /* \"--CODEGEN--\":24:62   */\n      returndatacopy\n        /* \"--CODEGEN--\":77:93   */\n      returndatasize\n        /* \"--CODEGEN--\":74:75   */\n      0x00\n        /* \"--CODEGEN--\":67:94   */\n      revert\n        /* \"--CODEGEN--\":5:7   */\n    tag_44:\n        /* \"Contract\":1519:1532  pair.token0() */\n      pop\n      pop\n      pop\n      pop\n      mload(0x40)\n      returndatasize\n        /* \"--CODEGEN--\":15:17   */\n      0x20\n        /* \"--CODEGEN--\":10:13   */\n      dup2\n        /* \"--CODEGEN--\":7:18   */\n      lt\n        /* \"--CODEGEN--\":4:6   */\n      iszero\n      tag_45\n      jumpi\n        /* \"--CODEGEN--\":31:32   */\n      0x00\n        /* \"--CODEGEN--\":28:29   */\n      dup1\n        /* \"--CODEGEN--\":21:33   */\n      revert\n        /* \"--CODEGEN--\":4:6   */\n    tag_45:\n      pop\n        /* \"Contract\":1519:1532  pair.token0() */\n      mload\n        /* \"Contract\":1567:1571  pair */\n      sload(0x01)\n        /* \"Contract\":1567:1580  pair.token1() */\n      0x40\n      dup1\n      mload\n      shl(0xe0, 0xd21220a7)\n      dup2\n      mstore\n      swap1\n      mload\n        /* \"Contract\":1519:1532  pair.token0() */\n      swap3\n      swap4\n      pop\n        /* \"Contract\":1544:1557  IERC20 token1 */\n      0x00\n      swap3\n      sub(shl(0xa0, 0x01), 0x01)\n        /* \"Contract\":1567:1571  pair */\n      swap1\n      swap3\n      and\n      swap2\n        /* \"Contract\":1567:1578  pair.token1 */\n      0xd21220a7\n      swap2\n        /* \"Contract\":1567:1580  pair.token1() */\n      0x04\n      dup1\n      dup3\n      add\n      swap3\n        /* \"Contract\":1519:1532  pair.token0() */\n      0x20\n      swap3\n        /* \"Contract\":1567:1580  pair.token1() */\n      swap1\n      swap2\n      swap1\n      dup3\n      swap1\n      sub\n      add\n      dup2\n        /* \"Contract\":1567:1571  pair */\n      dup7\n        /* \"Contract\":1567:1580  pair.token1() */\n      dup1\n      extcodesize\n      iszero\n        /* \"--CODEGEN--\":2:4   */\n      dup1\n      iszero\n      tag_46\n      jumpi\n        /* \"--CODEGEN--\":27:28   */\n      0x00\n        /* \"--CODEGEN--\":24:25   */\n      dup1\n        /* \"--CODEGEN--\":17:29   */\n      revert\n        /* \"--CODEGEN--\":2:4   */\n    tag_46:\n        /* \"Contract\":1567:1580  pair.token1() */\n      pop\n      gas\n      staticcall\n      iszero\n        /* \"--CODEGEN--\":8:17   */\n      dup1\n        /* \"--CODEGEN--\":5:7   */\n      iszero\n      tag_48\n      jumpi\n        /* \"--CODEGEN--\":45:61   */\n      returndatasize\n        /* \"--CODEGEN--\":42:43   */\n      0x00\n        /* \"--CODEGEN--\":39:40   */\n      dup1\n        /* \"--CODEGEN--\":24:62   */\n      returndatacopy\n        /* \"--CODEGEN--\":77:93   */\n      returndatasize\n        /* \"--CODEGEN--\":74:75   */\n      0x00\n        /* \"--CODEGEN--\":67:94   */\n      revert\n        /* \"--CODEGEN--\":5:7   */\n    tag_48:\n        /* \"Contract\":1567:1580  pair.token1() */\n      pop\n      pop\n      pop\n      pop\n      mload(0x40)\n      returndatasize\n        /* \"--CODEGEN--\":15:17   */\n      0x20\n        /* \"--CODEGEN--\":10:13   */\n      dup2\n        /* \"--CODEGEN--\":7:18   */\n      lt\n        /* \"--CODEGEN--\":4:6   */\n      iszero\n      tag_49\n      jumpi\n        /* \"--CODEGEN--\":31:32   */\n      0x00\n        /* \"--CODEGEN--\":28:29   */\n      dup1\n        /* \"--CODEGEN--\":21:33   */\n      revert\n        /* \"--CODEGEN--\":4:6   */\n    tag_49:\n      pop\n        /* \"Contract\":1567:1580  pair.token1() */\n      mload\n        /* \"Contract\":1612:1616  pair */\n      sload(0x01)\n        /* \"Contract\":1612:1641  pair.balanceOf(address(this)) */\n      0x40\n      dup1\n      mload\n      shl(0xe0, 0x70a08231)\n      dup2\n      mstore\n        /* \"Contract\":1635:1639  this */\n      address\n        /* \"Contract\":1612:1641  pair.balanceOf(address(this)) */\n      0x04\n      dup3\n      add\n      mstore\n      swap1\n      mload\n        /* \"Contract\":1567:1580  pair.token1() */\n      swap3\n      swap4\n      pop\n        /* \"Contract\":1592:1609  uint totalBalance */\n      0x00\n      swap3\n      sub(shl(0xa0, 0x01), 0x01)\n        /* \"Contract\":1612:1616  pair */\n      swap1\n      swap3\n      and\n      swap2\n        /* \"Contract\":1612:1626  pair.balanceOf */\n      0x70a08231\n      swap2\n        /* \"Contract\":1612:1641  pair.balanceOf(address(this)) */\n      0x24\n      dup1\n      dup3\n      add\n      swap3\n        /* \"Contract\":1567:1580  pair.token1() */\n      0x20\n      swap3\n        /* \"Contract\":1612:1641  pair.balanceOf(address(this)) */\n      swap1\n      swap2\n      swap1\n      dup3\n      swap1\n      sub\n      add\n      dup2\n        /* \"Contract\":1612:1616  pair */\n      dup7\n        /* \"Contract\":1612:1641  pair.balanceOf(address(this)) */\n      dup1\n      extcodesize\n      iszero\n        /* \"--CODEGEN--\":2:4   */\n      dup1\n      iszero\n      tag_50\n      jumpi\n        /* \"--CODEGEN--\":27:28   */\n      0x00\n        /* \"--CODEGEN--\":24:25   */\n      dup1\n        /* \"--CODEGEN--\":17:29   */\n      revert\n        /* \"--CODEGEN--\":2:4   */\n    tag_50:\n        /* \"Contract\":1612:1641  pair.balanceOf(address(this)) */\n      pop\n      gas\n      staticcall\n      iszero\n        /* \"--CODEGEN--\":8:17   */\n      dup1\n        /* \"--CODEGEN--\":5:7   */\n      iszero\n      tag_52\n      jumpi\n        /* \"--CODEGEN--\":45:61   */\n      returndatasize\n        /* \"--CODEGEN--\":42:43   */\n      0x00\n        /* \"--CODEGEN--\":39:40   */\n      dup1\n        /* \"--CODEGEN--\":24:62   */\n      returndatacopy\n        /* \"--CODEGEN--\":77:93   */\n      returndatasize\n        /* \"--CODEGEN--\":74:75   */\n      0x00\n        /* \"--CODEGEN--\":67:94   */\n      revert\n        /* \"--CODEGEN--\":5:7   */\n    tag_52:\n        /* \"Contract\":1612:1641  pair.balanceOf(address(this)) */\n      pop\n      pop\n      pop\n      pop\n      mload(0x40)\n      returndatasize\n        /* \"--CODEGEN--\":15:17   */\n      0x20\n        /* \"--CODEGEN--\":10:13   */\n      dup2\n        /* \"--CODEGEN--\":7:18   */\n      lt\n        /* \"--CODEGEN--\":4:6   */\n      iszero\n      tag_53\n      jumpi\n        /* \"--CODEGEN--\":31:32   */\n      0x00\n        /* \"--CODEGEN--\":28:29   */\n      dup1\n        /* \"--CODEGEN--\":21:33   */\n      revert\n        /* \"--CODEGEN--\":4:6   */\n    tag_53:\n      pop\n        /* \"Contract\":1612:1641  pair.balanceOf(address(this)) */\n      mload\n        /* \"Contract\":1652:1658  router */\n      0x00\n      dup1\n      sload\n        /* \"Contract\":1652:1862  router.removeLiquidity(\r... */\n      0x40\n      dup1\n      mload\n      shl(0xe1, 0x5d5155ef)\n      dup2\n      mstore\n      sub(shl(0xa0, 0x01), 0x01)\n      dup9\n      dup2\n      and\n      0x04\n      dup4\n      add\n      mstore\n      dup8\n      dup2\n      and\n      0x24\n      dup4\n      add\n      mstore\n      0x44\n      dup3\n      add\n      dup7\n      swap1\n      mstore\n      0x64\n      dup3\n      add\n      dup6\n      swap1\n      mstore\n      0x84\n      dup3\n      add\n      dup6\n      swap1\n      mstore\n        /* \"Contract\":1816:1820  this */\n      address\n        /* \"Contract\":1652:1862  router.removeLiquidity(\r... */\n      0xa4\n      dup4\n      add\n      mstore\n        /* \"Contract\":1836:1851  block.timestamp */\n      timestamp\n        /* \"Contract\":1652:1862  router.removeLiquidity(\r... */\n      0xc4\n      dup4\n      add\n      mstore\n      dup3\n      mload\n        /* \"Contract\":1612:1641  pair.balanceOf(address(this)) */\n      swap6\n      swap7\n      pop\n        /* \"Contract\":1652:1658  router */\n      swap1\n      swap3\n      and\n      swap4\n        /* \"Contract\":1652:1674  router.removeLiquidity */\n      0xbaa2abde\n      swap4\n        /* \"Contract\":1652:1862  router.removeLiquidity(\r... */\n      0xe4\n      dup1\n      dup6\n      add\n      swap5\n      dup4\n      swap1\n      sub\n      add\n      swap1\n      dup3\n      swap1\n        /* \"Contract\":1652:1658  router */\n      dup8\n        /* \"Contract\":1652:1862  router.removeLiquidity(\r... */\n      dup1\n      extcodesize\n      iszero\n        /* \"--CODEGEN--\":2:4   */\n      dup1\n      iszero\n      tag_54\n      jumpi\n        /* \"--CODEGEN--\":27:28   */\n      0x00\n        /* \"--CODEGEN--\":24:25   */\n      dup1\n        /* \"--CODEGEN--\":17:29   */\n      revert\n        /* \"--CODEGEN--\":2:4   */\n    tag_54:\n        /* \"Contract\":1652:1862  router.removeLiquidity(\r... */\n      pop\n      gas\n      call\n      iszero\n        /* \"--CODEGEN--\":8:17   */\n      dup1\n        /* \"--CODEGEN--\":5:7   */\n      iszero\n      tag_56\n      jumpi\n        /* \"--CODEGEN--\":45:61   */\n      returndatasize\n        /* \"--CODEGEN--\":42:43   */\n      0x00\n        /* \"--CODEGEN--\":39:40   */\n      dup1\n        /* \"--CODEGEN--\":24:62   */\n      returndatacopy\n        /* \"--CODEGEN--\":77:93   */\n      returndatasize\n        /* \"--CODEGEN--\":74:75   */\n      0x00\n        /* \"--CODEGEN--\":67:94   */\n      revert\n        /* \"--CODEGEN--\":5:7   */\n    tag_56:\n        /* \"Contract\":1652:1862  router.removeLiquidity(\r... */\n      pop\n      pop\n      pop\n      pop\n      mload(0x40)\n      returndatasize\n        /* \"--CODEGEN--\":15:17   */\n      0x40\n        /* \"--CODEGEN--\":10:13   */\n      dup2\n        /* \"--CODEGEN--\":7:18   */\n      lt\n        /* \"--CODEGEN--\":4:6   */\n      iszero\n      tag_57\n      jumpi\n        /* \"--CODEGEN--\":31:32   */\n      0x00\n        /* \"--CODEGEN--\":28:29   */\n      dup1\n        /* \"--CODEGEN--\":21:33   */\n      revert\n        /* \"--CODEGEN--\":4:6   */\n    tag_57:\n      pop\n      pop\n        /* \"Contract\":1652:1862  router.removeLiquidity(\r... */\n      0x40\n        /* \"Contract\":1896:1927  token0.balanceOf(address(this)) */\n      dup1\n      mload\n      shl(0xe0, 0x70a08231)\n      dup2\n      mstore\n        /* \"Contract\":1921:1925  this */\n      address\n        /* \"Contract\":1896:1927  token0.balanceOf(address(this)) */\n      0x04\n      dup3\n      add\n      mstore\n      swap1\n      mload\n        /* \"Contract\":1875:1893  uint token0Balance */\n      0x00\n      swap2\n      sub(shl(0xa0, 0x01), 0x01)\n        /* \"Contract\":1896:1912  token0.balanceOf */\n      dup7\n      and\n      swap2\n      0x70a08231\n      swap2\n        /* \"Contract\":1896:1927  token0.balanceOf(address(this)) */\n      0x24\n      dup1\n      dup3\n      add\n      swap3\n        /* \"Contract\":1652:1862  router.removeLiquidity(\r... */\n      0x20\n      swap3\n        /* \"Contract\":1896:1927  token0.balanceOf(address(this)) */\n      swap1\n      swap2\n      swap1\n      dup3\n      swap1\n      sub\n      add\n      dup2\n        /* \"Contract\":1896:1912  token0.balanceOf */\n      dup7\n        /* \"Contract\":1896:1927  token0.balanceOf(address(this)) */\n      dup1\n      extcodesize\n      iszero\n        /* \"--CODEGEN--\":2:4   */\n      dup1\n      iszero\n      tag_58\n      jumpi\n        /* \"--CODEGEN--\":27:28   */\n      0x00\n        /* \"--CODEGEN--\":24:25   */\n      dup1\n        /* \"--CODEGEN--\":17:29   */\n      revert\n        /* \"--CODEGEN--\":2:4   */\n    tag_58:\n        /* \"Contract\":1896:1927  token0.balanceOf(address(this)) */\n      pop\n      gas\n      staticcall\n      iszero\n        /* \"--CODEGEN--\":8:17   */\n      dup1\n        /* \"--CODEGEN--\":5:7   */\n      iszero\n      tag_60\n      jumpi\n        /* \"--CODEGEN--\":45:61   */\n      returndatasize\n        /* \"--CODEGEN--\":42:43   */\n      0x00\n        /* \"--CODEGEN--\":39:40   */\n      dup1\n        /* \"--CODEGEN--\":24:62   */\n      returndatacopy\n        /* \"--CODEGEN--\":77:93   */\n      returndatasize\n        /* \"--CODEGEN--\":74:75   */\n      0x00\n        /* \"--CODEGEN--\":67:94   */\n      revert\n        /* \"--CODEGEN--\":5:7   */\n    tag_60:\n        /* \"Contract\":1896:1927  token0.balanceOf(address(this)) */\n      pop\n      pop\n      pop\n      pop\n      mload(0x40)\n      returndatasize\n        /* \"--CODEGEN--\":15:17   */\n      0x20\n        /* \"--CODEGEN--\":10:13   */\n      dup2\n        /* \"--CODEGEN--\":7:18   */\n      lt\n        /* \"--CODEGEN--\":4:6   */\n      iszero\n      tag_61\n      jumpi\n        /* \"--CODEGEN--\":31:32   */\n      0x00\n        /* \"--CODEGEN--\":28:29   */\n      dup1\n        /* \"--CODEGEN--\":21:33   */\n      revert\n        /* \"--CODEGEN--\":4:6   */\n    tag_61:\n      pop\n        /* \"Contract\":1896:1927  token0.balanceOf(address(this)) */\n      mload\n        /* \"Contract\":1959:1990  token1.balanceOf(address(this)) */\n      0x40\n      dup1\n      mload\n      shl(0xe0, 0x70a08231)\n      dup2\n      mstore\n        /* \"Contract\":1984:1988  this */\n      address\n        /* \"Contract\":1959:1990  token1.balanceOf(address(this)) */\n      0x04\n      dup3\n      add\n      mstore\n      swap1\n      mload\n        /* \"Contract\":1896:1927  token0.balanceOf(address(this)) */\n      swap2\n      swap3\n      pop\n        /* \"Contract\":1938:1956  uint token1Balance */\n      0x00\n      swap2\n      sub(shl(0xa0, 0x01), 0x01)\n        /* \"Contract\":1959:1975  token1.balanceOf */\n      dup7\n      and\n      swap2\n      0x70a08231\n      swap2\n        /* \"Contract\":1959:1990  token1.balanceOf(address(this)) */\n      0x24\n      dup1\n      dup4\n      add\n      swap3\n        /* \"Contract\":1896:1927  token0.balanceOf(address(this)) */\n      0x20\n      swap3\n        /* \"Contract\":1959:1990  token1.balanceOf(address(this)) */\n      swap2\n      swap1\n      dup3\n      swap1\n      sub\n      add\n      dup2\n        /* \"Contract\":1959:1975  token1.balanceOf */\n      dup7\n        /* \"Contract\":1959:1990  token1.balanceOf(address(this)) */\n      dup1\n      extcodesize\n      iszero\n        /* \"--CODEGEN--\":2:4   */\n      dup1\n      iszero\n      tag_62\n      jumpi\n        /* \"--CODEGEN--\":27:28   */\n      0x00\n        /* \"--CODEGEN--\":24:25   */\n      dup1\n        /* \"--CODEGEN--\":17:29   */\n      revert\n        /* \"--CODEGEN--\":2:4   */\n    tag_62:\n        /* \"Contract\":1959:1990  token1.balanceOf(address(this)) */\n      pop\n      gas\n      staticcall\n      iszero\n        /* \"--CODEGEN--\":8:17   */\n      dup1\n        /* \"--CODEGEN--\":5:7   */\n      iszero\n      tag_64\n      jumpi\n        /* \"--CODEGEN--\":45:61   */\n      returndatasize\n        /* \"--CODEGEN--\":42:43   */\n      0x00\n        /* \"--CODEGEN--\":39:40   */\n      dup1\n        /* \"--CODEGEN--\":24:62   */\n      returndatacopy\n        /* \"--CODEGEN--\":77:93   */\n      returndatasize\n        /* \"--CODEGEN--\":74:75   */\n      0x00\n        /* \"--CODEGEN--\":67:94   */\n      revert\n        /* \"--CODEGEN--\":5:7   */\n    tag_64:\n        /* \"Contract\":1959:1990  token1.balanceOf(address(this)) */\n      pop\n      pop\n      pop\n      pop\n      mload(0x40)\n      returndatasize\n        /* \"--CODEGEN--\":15:17   */\n      0x20\n        /* \"--CODEGEN--\":10:13   */\n      dup2\n        /* \"--CODEGEN--\":7:18   */\n      lt\n        /* \"--CODEGEN--\":4:6   */\n      iszero\n      tag_65\n      jumpi\n        /* \"--CODEGEN--\":31:32   */\n      0x00\n        /* \"--CODEGEN--\":28:29   */\n      dup1\n        /* \"--CODEGEN--\":21:33   */\n      revert\n        /* \"--CODEGEN--\":4:6   */\n    tag_65:\n      pop\n        /* \"Contract\":1959:1990  token1.balanceOf(address(this)) */\n      mload\n        /* \"Contract\":2024:2034  routerFork */\n      sload(0x02)\n        /* \"Contract\":2001:2051  token0.approve(address(routerFork), token0Balance) */\n      0x40\n      dup1\n      mload\n      shl(0xe0, 0x095ea7b3)\n      dup2\n      mstore\n      sub(shl(0xa0, 0x01), 0x01)\n        /* \"Contract\":2024:2034  routerFork */\n      swap3\n      dup4\n      and\n        /* \"Contract\":2001:2051  token0.approve(address(routerFork), token0Balance) */\n      0x04\n      dup3\n      add\n      mstore\n      0x24\n      dup2\n      add\n      dup7\n      swap1\n      mstore\n      swap1\n      mload\n        /* \"Contract\":1959:1990  token1.balanceOf(address(this)) */\n      swap3\n      swap4\n      pop\n        /* \"Contract\":2001:2015  token0.approve */\n      swap1\n      dup8\n      and\n      swap2\n      0x095ea7b3\n      swap2\n        /* \"Contract\":2001:2051  token0.approve(address(routerFork), token0Balance) */\n      0x44\n      dup1\n      dup3\n      add\n      swap3\n        /* \"Contract\":1959:1990  token1.balanceOf(address(this)) */\n      0x20\n      swap3\n        /* \"Contract\":2001:2051  token0.approve(address(routerFork), token0Balance) */\n      swap1\n      swap2\n      swap1\n      dup3\n      swap1\n      sub\n      add\n      dup2\n        /* \"Contract\":2024:2034  routerFork */\n      0x00\n        /* \"Contract\":2001:2015  token0.approve */\n      dup8\n        /* \"Contract\":2001:2051  token0.approve(address(routerFork), token0Balance) */\n      dup1\n      extcodesize\n      iszero\n        /* \"--CODEGEN--\":2:4   */\n      dup1\n      iszero\n      tag_66\n      jumpi\n        /* \"--CODEGEN--\":27:28   */\n      0x00\n        /* \"--CODEGEN--\":24:25   */\n      dup1\n        /* \"--CODEGEN--\":17:29   */\n      revert\n        /* \"--CODEGEN--\":2:4   */\n    tag_66:\n        /* \"Contract\":2001:2051  token0.approve(address(routerFork), token0Balance) */\n      pop\n      gas\n      call\n      iszero\n        /* \"--CODEGEN--\":8:17   */\n      dup1\n        /* \"--CODEGEN--\":5:7   */\n      iszero\n      tag_68\n      jumpi\n        /* \"--CODEGEN--\":45:61   */\n      returndatasize\n        /* \"--CODEGEN--\":42:43   */\n      0x00\n        /* \"--CODEGEN--\":39:40   */\n      dup1\n        /* \"--CODEGEN--\":24:62   */\n      returndatacopy\n        /* \"--CODEGEN--\":77:93   */\n      returndatasize\n        /* \"--CODEGEN--\":74:75   */\n      0x00\n        /* \"--CODEGEN--\":67:94   */\n      revert\n        /* \"--CODEGEN--\":5:7   */\n    tag_68:\n        /* \"Contract\":2001:2051  token0.approve(address(routerFork), token0Balance) */\n      pop\n      pop\n      pop\n      pop\n      mload(0x40)\n      returndatasize\n        /* \"--CODEGEN--\":15:17   */\n      0x20\n        /* \"--CODEGEN--\":10:13   */\n      dup2\n        /* \"--CODEGEN--\":7:18   */\n      lt\n        /* \"--CODEGEN--\":4:6   */\n      iszero\n      tag_69\n      jumpi\n        /* \"--CODEGEN--\":31:32   */\n      0x00\n        /* \"--CODEGEN--\":28:29   */\n      dup1\n        /* \"--CODEGEN--\":21:33   */\n      revert\n        /* \"--CODEGEN--\":4:6   */\n    tag_69:\n      pop\n      pop\n        /* \"Contract\":2085:2095  routerFork */\n      sload(0x02)\n        /* \"Contract\":2062:2112  token1.approve(address(routerFork), token1Balance) */\n      0x40\n      dup1\n      mload\n      shl(0xe0, 0x095ea7b3)\n      dup2\n      mstore\n      sub(shl(0xa0, 0x01), 0x01)\n        /* \"Contract\":2085:2095  routerFork */\n      swap3\n      dup4\n      and\n        /* \"Contract\":2062:2112  token1.approve(address(routerFork), token1Balance) */\n      0x04\n      dup3\n      add\n      mstore\n      0x24\n      dup2\n      add\n      dup5\n      swap1\n      mstore\n      swap1\n      mload\n        /* \"Contract\":2062:2076  token1.approve */\n      swap2\n      dup7\n      and\n      swap2\n      0x095ea7b3\n      swap2\n        /* \"Contract\":2062:2112  token1.approve(address(routerFork), token1Balance) */\n      0x44\n      dup1\n      dup3\n      add\n      swap3\n        /* \"Contract\":2001:2051  token0.approve(address(routerFork), token0Balance) */\n      0x20\n      swap3\n        /* \"Contract\":2062:2112  token1.approve(address(routerFork), token1Balance) */\n      swap1\n      swap2\n      swap1\n      dup3\n      swap1\n      sub\n      add\n      dup2\n        /* \"Contract\":2085:2095  routerFork */\n      0x00\n        /* \"Contract\":2062:2076  token1.approve */\n      dup8\n        /* \"Contract\":2062:2112  token1.approve(address(routerFork), token1Balance) */\n      dup1\n      extcodesize\n      iszero\n        /* \"--CODEGEN--\":2:4   */\n      dup1\n      iszero\n      tag_70\n      jumpi\n        /* \"--CODEGEN--\":27:28   */\n      0x00\n        /* \"--CODEGEN--\":24:25   */\n      dup1\n        /* \"--CODEGEN--\":17:29   */\n      revert\n        /* \"--CODEGEN--\":2:4   */\n    tag_70:\n        /* \"Contract\":2062:2112  token1.approve(address(routerFork), token1Balance) */\n      pop\n      gas\n      call\n      iszero\n        /* \"--CODEGEN--\":8:17   */\n      dup1\n        /* \"--CODEGEN--\":5:7   */\n      iszero\n      tag_72\n      jumpi\n        /* \"--CODEGEN--\":45:61   */\n      returndatasize\n        /* \"--CODEGEN--\":42:43   */\n      0x00\n        /* \"--CODEGEN--\":39:40   */\n      dup1\n        /* \"--CODEGEN--\":24:62   */\n      returndatacopy\n        /* \"--CODEGEN--\":77:93   */\n      returndatasize\n        /* \"--CODEGEN--\":74:75   */\n      0x00\n        /* \"--CODEGEN--\":67:94   */\n      revert\n        /* \"--CODEGEN--\":5:7   */\n    tag_72:\n        /* \"Contract\":2062:2112  token1.approve(address(routerFork), token1Balance) */\n      pop\n      pop\n      pop\n      pop\n      mload(0x40)\n      returndatasize\n        /* \"--CODEGEN--\":15:17   */\n      0x20\n        /* \"--CODEGEN--\":10:13   */\n      dup2\n        /* \"--CODEGEN--\":7:18   */\n      lt\n        /* \"--CODEGEN--\":4:6   */\n      iszero\n      tag_73\n      jumpi\n        /* \"--CODEGEN--\":31:32   */\n      0x00\n        /* \"--CODEGEN--\":28:29   */\n      dup1\n        /* \"--CODEGEN--\":21:33   */\n      revert\n        /* \"--CODEGEN--\":4:6   */\n    tag_73:\n      pop\n      pop\n        /* \"Contract\":2123:2133  routerFork */\n      sload(0x02)\n        /* \"Contract\":2123:2387  routerFork.addLiquidity(\r... */\n      0x40\n      dup1\n      mload\n      shl(0xe8, 0xe8e337)\n      dup2\n      mstore\n      sub(shl(0xa0, 0x01), 0x01)\n      dup9\n      dup2\n      and\n      0x04\n      dup4\n      add\n      mstore\n      dup8\n      dup2\n      and\n      0x24\n      dup4\n      add\n      mstore\n      0x44\n      dup3\n      add\n      dup7\n      swap1\n      mstore\n      0x64\n      dup3\n      add\n      dup6\n      swap1\n      mstore\n      0x84\n      dup3\n      add\n      dup7\n      swap1\n      mstore\n      0xa4\n      dup3\n      add\n      dup6\n      swap1\n      mstore\n        /* \"Contract\":2341:2345  this */\n      address\n        /* \"Contract\":2123:2387  routerFork.addLiquidity(\r... */\n      0xc4\n      dup4\n      add\n      mstore\n        /* \"Contract\":2361:2376  block.timestamp */\n      timestamp\n        /* \"Contract\":2123:2387  routerFork.addLiquidity(\r... */\n      0xe4\n      dup4\n      add\n      mstore\n      swap2\n      mload\n        /* \"Contract\":2123:2133  routerFork */\n      swap2\n      swap1\n      swap3\n      and\n      swap2\n        /* \"Contract\":2123:2146  routerFork.addLiquidity */\n      0xe8e33700\n      swap2\n        /* \"Contract\":2123:2387  routerFork.addLiquidity(\r... */\n      0x0104\n      dup1\n      dup4\n      add\n      swap3\n      0x60\n      swap3\n      swap2\n      swap1\n      dup3\n      swap1\n      sub\n      add\n      dup2\n        /* \"Contract\":2123:2133  routerFork */\n      0x00\n      dup8\n        /* \"Contract\":2123:2387  routerFork.addLiquidity(\r... */\n      dup1\n      extcodesize\n      iszero\n        /* \"--CODEGEN--\":2:4   */\n      dup1\n      iszero\n      tag_74\n      jumpi\n        /* \"--CODEGEN--\":27:28   */\n      0x00\n        /* \"--CODEGEN--\":24:25   */\n      dup1\n        /* \"--CODEGEN--\":17:29   */\n      revert\n        /* \"--CODEGEN--\":2:4   */\n    tag_74:\n        /* \"Contract\":2123:2387  routerFork.addLiquidity(\r... */\n      pop\n      gas\n      call\n      iszero\n        /* \"--CODEGEN--\":8:17   */\n      dup1\n        /* \"--CODEGEN--\":5:7   */\n      iszero\n      tag_76\n      jumpi\n        /* \"--CODEGEN--\":45:61   */\n      returndatasize\n        /* \"--CODEGEN--\":42:43   */\n      0x00\n        /* \"--CODEGEN--\":39:40   */\n      dup1\n        /* \"--CODEGEN--\":24:62   */\n      returndatacopy\n        /* \"--CODEGEN--\":77:93   */\n      returndatasize\n        /* \"--CODEGEN--\":74:75   */\n      0x00\n        /* \"--CODEGEN--\":67:94   */\n      revert\n        /* \"--CODEGEN--\":5:7   */\n    tag_76:\n        /* \"Contract\":2123:2387  routerFork.addLiquidity(\r... */\n      pop\n      pop\n      pop\n      pop\n      mload(0x40)\n      returndatasize\n        /* \"--CODEGEN--\":15:17   */\n      0x60\n        /* \"--CODEGEN--\":10:13   */\n      dup2\n        /* \"--CODEGEN--\":7:18   */\n      lt\n        /* \"--CODEGEN--\":4:6   */\n      iszero\n      tag_77\n      jumpi\n        /* \"--CODEGEN--\":31:32   */\n      0x00\n        /* \"--CODEGEN--\":28:29   */\n      dup1\n        /* \"--CODEGEN--\":21:33   */\n      revert\n        /* \"--CODEGEN--\":4:6   */\n    tag_77:\n      pop\n      pop\n        /* \"Contract\":2398:2411  migrationDone */\n      0x07\n        /* \"Contract\":2398:2418  migrationDone = true */\n      dup1\n      sload\n      not(0xff)\n      and\n        /* \"Contract\":2414:2418  true */\n      0x01\n        /* \"Contract\":2398:2418  migrationDone = true */\n      or\n      swap1\n      sstore\n      pop\n      pop\n      pop\n      pop\n      pop\n        /* \"Contract\":1336:2426  function migrate() external {\r... */\n      jump\t// out\n        /* \"Contract\":311:337  IUniswapV2Pair public pair */\n    tag_29:\n      and(sub(shl(0xa0, 0x01), 0x01), sload(0x01))\n      dup2\n      jump\t// out\n        /* \"Contract\":968:1328  function deposit(uint amount) external {\r... */\n    tag_32:\n        /* \"Contract\":1026:1039  migrationDone */\n      and(0xff, sload(0x07))\n        /* \"Contract\":1026:1048  migrationDone == false */\n      iszero\n        /* \"Contract\":1018:1075  require(migrationDone == false, \"migration already done\") */\n      tag_79\n      jumpi\n      0x40\n      dup1\n      mload\n      shl(0xe5, 0x461bcd)\n      dup2\n      mstore\n      0x20\n      0x04\n      dup3\n      add\n      mstore\n      0x16\n      0x24\n      dup3\n      add\n      mstore\n      shl(0x50, 0x6d6967726174696f6e20616c726561647920646f6e65)\n      0x44\n      dup3\n      add\n      mstore\n      swap1\n      mload\n      swap1\n      dup2\n      swap1\n      sub\n      0x64\n      add\n      swap1\n      revert\n    tag_79:\n        /* \"Contract\":1086:1090  pair */\n      sload(0x01)\n        /* \"Contract\":1086:1138  pair.transferFrom(msg.sender, address(this), amount) */\n      0x40\n      dup1\n      mload\n      shl(0xe0, 0x23b872dd)\n      dup2\n      mstore\n        /* \"Contract\":1104:1114  msg.sender */\n      caller\n        /* \"Contract\":1086:1138  pair.transferFrom(msg.sender, address(this), amount) */\n      0x04\n      dup3\n      add\n      mstore\n        /* \"Contract\":1124:1128  this */\n      address\n        /* \"Contract\":1086:1138  pair.transferFrom(msg.sender, address(this), amount) */\n      0x24\n      dup3\n      add\n      mstore\n      0x44\n      dup2\n      add\n      dup5\n      swap1\n      mstore\n      swap1\n      mload\n      sub(shl(0xa0, 0x01), 0x01)\n        /* \"Contract\":1086:1090  pair */\n      swap1\n      swap3\n      and\n      swap2\n        /* \"Contract\":1086:1103  pair.transferFrom */\n      0x23b872dd\n      swap2\n        /* \"Contract\":1086:1138  pair.transferFrom(msg.sender, address(this), amount) */\n      0x64\n      dup1\n      dup3\n      add\n      swap3\n      0x20\n      swap3\n      swap1\n      swap2\n      swap1\n      dup3\n      swap1\n      sub\n      add\n      dup2\n        /* \"Contract\":1086:1090  pair */\n      0x00\n      dup8\n        /* \"Contract\":1086:1138  pair.transferFrom(msg.sender, address(this), amount) */\n      dup1\n      extcodesize\n      iszero\n        /* \"--CODEGEN--\":2:4   */\n      dup1\n      iszero\n      tag_80\n      jumpi\n        /* \"--CODEGEN--\":27:28   */\n      0x00\n        /* \"--CODEGEN--\":24:25   */\n      dup1\n        /* \"--CODEGEN--\":17:29   */\n      revert\n        /* \"--CODEGEN--\":2:4   */\n    tag_80:\n        /* \"Contract\":1086:1138  pair.transferFrom(msg.sender, address(this), amount) */\n      pop\n      gas\n      call\n      iszero\n        /* \"--CODEGEN--\":8:17   */\n      dup1\n        /* \"--CODEGEN--\":5:7   */\n      iszero\n      tag_82\n      jumpi\n        /* \"--CODEGEN--\":45:61   */\n      returndatasize\n        /* \"--CODEGEN--\":42:43   */\n      0x00\n        /* \"--CODEGEN--\":39:40   */\n      dup1\n        /* \"--CODEGEN--\":24:62   */\n      returndatacopy\n        /* \"--CODEGEN--\":77:93   */\n      returndatasize\n        /* \"--CODEGEN--\":74:75   */\n      0x00\n        /* \"--CODEGEN--\":67:94   */\n      revert\n        /* \"--CODEGEN--\":5:7   */\n    tag_82:\n        /* \"Contract\":1086:1138  pair.transferFrom(msg.sender, address(this), amount) */\n      pop\n      pop\n      pop\n      pop\n      mload(0x40)\n      returndatasize\n        /* \"--CODEGEN--\":15:17   */\n      0x20\n        /* \"--CODEGEN--\":10:13   */\n      dup2\n        /* \"--CODEGEN--\":7:18   */\n      lt\n        /* \"--CODEGEN--\":4:6   */\n      iszero\n      tag_83\n      jumpi\n        /* \"--CODEGEN--\":31:32   */\n      0x00\n        /* \"--CODEGEN--\":28:29   */\n      dup1\n        /* \"--CODEGEN--\":21:33   */\n      revert\n        /* \"--CODEGEN--\":4:6   */\n    tag_83:\n      pop\n      pop\n        /* \"Contract\":1149:1159  bonusToken */\n      0x04\n      dup1\n      sload\n        /* \"Contract\":1149:1184  bonusToken.mint(msg.sender, amount) */\n      0x40\n      dup1\n      mload\n      shl(0xe0, 0x40c10f19)\n      dup2\n      mstore\n        /* \"Contract\":1165:1175  msg.sender */\n      caller\n        /* \"Contract\":1149:1184  bonusToken.mint(msg.sender, amount) */\n      swap4\n      dup2\n      add\n      swap4\n      swap1\n      swap4\n      mstore\n      0x24\n      dup4\n      add\n      dup5\n      swap1\n      mstore\n      mload\n      sub(shl(0xa0, 0x01), 0x01)\n        /* \"Contract\":1149:1159  bonusToken */\n      swap1\n      swap2\n      and\n      swap2\n        /* \"Contract\":1149:1164  bonusToken.mint */\n      0x40c10f19\n      swap2\n        /* \"Contract\":1149:1184  bonusToken.mint(msg.sender, amount) */\n      0x44\n      dup1\n      dup4\n      add\n      swap3\n        /* \"Contract\":1149:1159  bonusToken */\n      0x00\n      swap3\n        /* \"Contract\":1149:1184  bonusToken.mint(msg.sender, amount) */\n      swap2\n      swap1\n      dup3\n      swap1\n      sub\n      add\n      dup2\n        /* \"Contract\":1149:1159  bonusToken */\n      dup4\n      dup8\n        /* \"Contract\":1149:1184  bonusToken.mint(msg.sender, amount) */\n      dup1\n      extcodesize\n      iszero\n        /* \"--CODEGEN--\":2:4   */\n      dup1\n      iszero\n      tag_84\n      jumpi\n        /* \"--CODEGEN--\":27:28   */\n      0x00\n        /* \"--CODEGEN--\":24:25   */\n      dup1\n        /* \"--CODEGEN--\":17:29   */\n      revert\n        /* \"--CODEGEN--\":2:4   */\n    tag_84:\n        /* \"Contract\":1149:1184  bonusToken.mint(msg.sender, amount) */\n      pop\n      gas\n      call\n      iszero\n        /* \"--CODEGEN--\":8:17   */\n      dup1\n        /* \"--CODEGEN--\":5:7   */\n      iszero\n      tag_86\n      jumpi\n        /* \"--CODEGEN--\":45:61   */\n      returndatasize\n        /* \"--CODEGEN--\":42:43   */\n      0x00\n        /* \"--CODEGEN--\":39:40   */\n      dup1\n        /* \"--CODEGEN--\":24:62   */\n      returndatacopy\n        /* \"--CODEGEN--\":77:93   */\n      returndatasize\n        /* \"--CODEGEN--\":74:75   */\n      0x00\n        /* \"--CODEGEN--\":67:94   */\n      revert\n        /* \"--CODEGEN--\":5:7   */\n    tag_86:\n      pop\n      pop\n        /* \"Contract\":1298:1308  msg.sender */\n      caller\n        /* \"Contract\":1280:1309  unclaimedBalances[msg.sender] */\n      0x00\n      swap1\n      dup2\n      mstore\n        /* \"Contract\":1280:1297  unclaimedBalances */\n      0x06\n        /* \"Contract\":1280:1309  unclaimedBalances[msg.sender] */\n      0x20\n      mstore\n      0x40\n      swap1\n      keccak256\n        /* \"Contract\":1280:1319  unclaimedBalances[msg.sender] += amount */\n      dup1\n      sload\n      swap1\n      swap4\n      add\n      swap1\n      swap3\n      sstore\n      pop\n      pop\n        /* \"Contract\":968:1328  function deposit(uint amount) external {\r... */\n      jump\t// out\n        /* \"Contract\":2434:2780  function claimLpTokens() external {\r... */\n    tag_34:\n        /* \"Contract\":2505:2515  msg.sender */\n      caller\n        /* \"Contract\":2520:2521  0 */\n      0x00\n        /* \"Contract\":2487:2516  unclaimedBalances[msg.sender] */\n      mstore\n        /* \"Contract\":2487:2504  unclaimedBalances */\n      0x06\n        /* \"Contract\":2487:2516  unclaimedBalances[msg.sender] */\n      0x20\n      mstore\n        /* \"Contract\":2566:2579  migrationDone */\n      and(0xff, sload(0x07))\n        /* \"Contract\":2566:2587  migrationDone == true */\n      iszero\n      iszero\n        /* \"Contract\":2566:2579  migrationDone */\n      0x01\n        /* \"Contract\":2566:2587  migrationDone == true */\n      eq\n        /* \"Contract\":2558:2614  require(migrationDone == true, \"migration not done yet\") */\n      tag_89\n      jumpi\n      0x40\n      dup1\n      mload\n      shl(0xe5, 0x461bcd)\n      dup2\n      mstore\n      0x20\n      0x04\n      dup3\n      add\n      mstore\n      0x16\n      0x24\n      dup3\n      add\n      mstore\n      shl(0x52, 0x1b5a59dc985d1a5bdb881b9bdd08191bdb99481e595d)\n      0x44\n      dup3\n      add\n      mstore\n      swap1\n      mload\n      swap1\n      dup2\n      swap1\n      sub\n      0x64\n      add\n      swap1\n      revert\n    tag_89:\n        /* \"Contract\":2663:2673  msg.sender */\n      caller\n        /* \"Contract\":2625:2642  uint amountToSend */\n      0x00\n        /* \"Contract\":2645:2674  unclaimedBalances[msg.sender] */\n      dup2\n      dup2\n      mstore\n        /* \"Contract\":2645:2662  unclaimedBalances */\n      0x06\n        /* \"Contract\":2645:2674  unclaimedBalances[msg.sender] */\n      0x20\n      swap1\n      dup2\n      mstore\n      0x40\n      dup1\n      dup4\n      keccak256\n      dup1\n      sload\n        /* \"Contract\":2685:2718  unclaimedBalances[msg.sender] = 0 */\n      swap1\n      dup5\n      swap1\n      sstore\n        /* \"Contract\":2729:2737  pairFork */\n      sload(0x03)\n        /* \"Contract\":2729:2772  pairFork.transfer(msg.sender, amountToSend) */\n      dup3\n      mload\n      shl(0xe0, 0xa9059cbb)\n      dup2\n      mstore\n      0x04\n      dup2\n      add\n      swap7\n      swap1\n      swap7\n      mstore\n      0x24\n      dup7\n      add\n      dup3\n      swap1\n      mstore\n      swap2\n      mload\n        /* \"Contract\":2645:2674  unclaimedBalances[msg.sender] */\n      swap1\n      swap5\n      sub(shl(0xa0, 0x01), 0x01)\n        /* \"Contract\":2729:2737  pairFork */\n      swap1\n      swap3\n      and\n      swap4\n        /* \"Contract\":2729:2746  pairFork.transfer */\n      0xa9059cbb\n      swap4\n        /* \"Contract\":2729:2772  pairFork.transfer(msg.sender, amountToSend) */\n      0x44\n      dup1\n      dup6\n      add\n      swap5\n        /* \"Contract\":2645:2674  unclaimedBalances[msg.sender] */\n      swap2\n      swap4\n        /* \"Contract\":2729:2772  pairFork.transfer(msg.sender, amountToSend) */\n      swap3\n      swap2\n      dup4\n      swap1\n      sub\n      add\n      swap1\n      dup3\n      swap1\n        /* \"Contract\":2729:2737  pairFork */\n      dup8\n        /* \"Contract\":2729:2772  pairFork.transfer(msg.sender, amountToSend) */\n      dup1\n      extcodesize\n      iszero\n        /* \"--CODEGEN--\":2:4   */\n      dup1\n      iszero\n      tag_90\n      jumpi\n        /* \"--CODEGEN--\":27:28   */\n      0x00\n        /* \"--CODEGEN--\":24:25   */\n      dup1\n        /* \"--CODEGEN--\":17:29   */\n      revert\n        /* \"--CODEGEN--\":2:4   */\n    tag_90:\n        /* \"Contract\":2729:2772  pairFork.transfer(msg.sender, amountToSend) */\n      pop\n      gas\n      call\n      iszero\n        /* \"--CODEGEN--\":8:17   */\n      dup1\n        /* \"--CODEGEN--\":5:7   */\n      iszero\n      tag_92\n      jumpi\n        /* \"--CODEGEN--\":45:61   */\n      returndatasize\n        /* \"--CODEGEN--\":42:43   */\n      0x00\n        /* \"--CODEGEN--\":39:40   */\n      dup1\n        /* \"--CODEGEN--\":24:62   */\n      returndatacopy\n        /* \"--CODEGEN--\":77:93   */\n      returndatasize\n        /* \"--CODEGEN--\":74:75   */\n      0x00\n        /* \"--CODEGEN--\":67:94   */\n      revert\n        /* \"--CODEGEN--\":5:7   */\n    tag_92:\n        /* \"Contract\":2729:2772  pairFork.transfer(msg.sender, amountToSend) */\n      pop\n      pop\n      pop\n      pop\n      mload(0x40)\n      returndatasize\n        /* \"--CODEGEN--\":15:17   */\n      0x20\n        /* \"--CODEGEN--\":10:13   */\n      dup2\n        /* \"--CODEGEN--\":7:18   */\n      lt\n        /* \"--CODEGEN--\":4:6   */\n      iszero\n      tag_93\n      jumpi\n        /* \"--CODEGEN--\":31:32   */\n      0x00\n        /* \"--CODEGEN--\":28:29   */\n      dup1\n        /* \"--CODEGEN--\":21:33   */\n      revert\n        /* \"--CODEGEN--\":4:6   */\n    tag_93:\n      pop\n      pop\n      pop\n        /* \"Contract\":2434:2780  function claimLpTokens() external {\r... */\n      jump\t// out\n        /* \"Contract\":459:479  address public admin */\n    tag_36:\n      and(sub(shl(0xa0, 0x01), 0x01), sload(0x05))\n      dup2\n      jump\t// out\n        /* \"Contract\":272:304  IUniswapV2Router02 public router */\n    tag_38:\n      and(sub(shl(0xa0, 0x01), 0x01), sload(0x00))\n      dup2\n      jump\t// out\n\n    auxdata: 0xa264697066735822122038b525e13453243a75ea896c17ca37db6aa233d419a8e4bbb46cff3dba5d80db64736f6c63430006060033\n}\n","bytecode":{"linkReferences":{},"object":"608060405234801561001057600080fd5b50604051610a9e380380610a9e833981810160405260a081101561003357600080fd5b508051602082015160408301516060840151608090940151600080546001600160a01b039586166001600160a01b03199182161790915560018054948616948216949094179093556002805492851692841692909217909155600380549484169483169490941790935560048054929093169181169190911790915560058054909116331790556109d5806100c96000396000f3fe608060405234801561001057600080fd5b50600436106100a95760003560e01c80638fd3ab80116100715780638fd3ab8014610136578063a8aa1b3114610140578063b6b55f2514610148578063c896c18c14610165578063f851a4401461016d578063f887ea4014610175576100a9565b80630d81a570146100ae57806341d4a1ab146100ca57806359201402146100ee578063766faf36146100f65780638bf6afaf146100fe575b600080fd5b6100b661017d565b604080519115158252519081900360200190f35b6100d2610186565b604080516001600160a01b039092168252519081900360200190f35b6100d2610195565b6100d26101a4565b6101246004803603602081101561011457600080fd5b50356001600160a01b03166101b3565b60408051918252519081900360200190f35b61013e6101c5565b005b6100d261071d565b61013e6004803603602081101561015e57600080fd5b503561072c565b61013e610888565b6100d2610981565b6100d2610990565b60075460ff1681565b6004546001600160a01b031681565b6003546001600160a01b031681565b6002546001600160a01b031681565b60066020526000908152604090205481565b6005546001600160a01b03163314610211576040805162461bcd60e51b815260206004820152600a60248201526937b7363c9030b236b4b760b11b604482015290519081900360640190fd5b60075460ff1615610262576040805162461bcd60e51b81526020600482015260166024820152756d6967726174696f6e20616c726561647920646f6e6560501b604482015290519081900360640190fd5b60015460408051630dfe168160e01b815290516000926001600160a01b031691630dfe1681916004808301926020929190829003018186803b1580156102a757600080fd5b505afa1580156102bb573d6000803e3d6000fd5b505050506040513d60208110156102d157600080fd5b50516001546040805163d21220a760e01b815290519293506000926001600160a01b039092169163d21220a791600480820192602092909190829003018186803b15801561031e57600080fd5b505afa158015610332573d6000803e3d6000fd5b505050506040513d602081101561034857600080fd5b5051600154604080516370a0823160e01b815230600482015290519293506000926001600160a01b03909216916370a0823191602480820192602092909190829003018186803b15801561039b57600080fd5b505afa1580156103af573d6000803e3d6000fd5b505050506040513d60208110156103c557600080fd5b50516000805460408051635d5155ef60e11b81526001600160a01b03888116600483015287811660248301526044820186905260648201859052608482018590523060a48301524260c483015282519596509092169363baa2abde9360e4808501948390030190829087803b15801561043d57600080fd5b505af1158015610451573d6000803e3d6000fd5b505050506040513d604081101561046757600080fd5b5050604080516370a0823160e01b815230600482015290516000916001600160a01b038616916370a0823191602480820192602092909190829003018186803b1580156104b357600080fd5b505afa1580156104c7573d6000803e3d6000fd5b505050506040513d60208110156104dd57600080fd5b5051604080516370a0823160e01b815230600482015290519192506000916001600160a01b038616916370a08231916024808301926020929190829003018186803b15801561052b57600080fd5b505afa15801561053f573d6000803e3d6000fd5b505050506040513d602081101561055557600080fd5b50516002546040805163095ea7b360e01b81526001600160a01b0392831660048201526024810186905290519293509087169163095ea7b3916044808201926020929091908290030181600087803b1580156105b057600080fd5b505af11580156105c4573d6000803e3d6000fd5b505050506040513d60208110156105da57600080fd5b50506002546040805163095ea7b360e01b81526001600160a01b0392831660048201526024810184905290519186169163095ea7b3916044808201926020929091908290030181600087803b15801561063257600080fd5b505af1158015610646573d6000803e3d6000fd5b505050506040513d602081101561065c57600080fd5b50506002546040805162e8e33760e81b81526001600160a01b038881166004830152878116602483015260448201869052606482018590526084820186905260a482018590523060c48301524260e48301529151919092169163e8e33700916101048083019260609291908290030181600087803b1580156106dd57600080fd5b505af11580156106f1573d6000803e3d6000fd5b505050506040513d606081101561070757600080fd5b50506007805460ff191660011790555050505050565b6001546001600160a01b031681565b60075460ff161561077d576040805162461bcd60e51b81526020600482015260166024820152756d6967726174696f6e20616c726561647920646f6e6560501b604482015290519081900360640190fd5b600154604080516323b872dd60e01b81523360048201523060248201526044810184905290516001600160a01b03909216916323b872dd916064808201926020929091908290030181600087803b1580156107d757600080fd5b505af11580156107eb573d6000803e3d6000fd5b505050506040513d602081101561080157600080fd5b505060048054604080516340c10f1960e01b8152339381019390935260248301849052516001600160a01b03909116916340c10f1991604480830192600092919082900301818387803b15801561085757600080fd5b505af115801561086b573d6000803e3d6000fd5b505033600090815260066020526040902080549093019092555050565b33600052600660205260075460ff1615156001146108e6576040805162461bcd60e51b81526020600482015260166024820152751b5a59dc985d1a5bdb881b9bdd08191bdb99481e595d60521b604482015290519081900360640190fd5b336000818152600660209081526040808320805490849055600354825163a9059cbb60e01b8152600481019690965260248601829052915190946001600160a01b039092169363a9059cbb93604480850194919392918390030190829087803b15801561095257600080fd5b505af1158015610966573d6000803e3d6000fd5b505050506040513d602081101561097c57600080fd5b505050565b6005546001600160a01b031681565b6000546001600160a01b03168156fea264697066735822122038b525e13453243a75ea896c17ca37db6aa233d419a8e4bbb46cff3dba5d80db64736f6c63430006060033","opcodes":"PUSH1 0x80 PUSH1 0x40 MSTORE CALLVALUE DUP1 ISZERO PUSH2 0x10 JUMPI PUSH1 0x0 DUP1 REVERT JUMPDEST POP PUSH1 0x40 MLOAD PUSH2 0xA9E CODESIZE SUB DUP1 PUSH2 0xA9E DUP4 CODECOPY DUP2 DUP2 ADD PUSH1 0x40 MSTORE PUSH1 0xA0 DUP2 LT ISZERO PUSH2 0x33 JUMPI PUSH1 0x0 DUP1 REVERT JUMPDEST POP DUP1 MLOAD PUSH1 0x20 DUP3 ADD MLOAD PUSH1 0x40 DUP4 ADD MLOAD PUSH1 0x60 DUP5 ADD MLOAD PUSH1 0x80 SWAP1 SWAP5 ADD MLOAD PUSH1 0x0 DUP1 SLOAD PUSH1 0x1 PUSH1 0x1 PUSH1 0xA0 SHL SUB SWAP6 DUP7 AND PUSH1 0x1 PUSH1 0x1 PUSH1 0xA0 SHL SUB NOT SWAP2 DUP3 AND OR SWAP1 SWAP2 SSTORE PUSH1 0x1 DUP1 SLOAD SWAP5 DUP7 AND SWAP5 DUP3 AND SWAP5 SWAP1 SWAP5 OR SWAP1 SWAP4 SSTORE PUSH1 0x2 DUP1 SLOAD SWAP3 DUP6 AND SWAP3 DUP5 AND SWAP3 SWAP1 SWAP3 OR SWAP1 SWAP2 SSTORE PUSH1 0x3 DUP1 SLOAD SWAP5 DUP5 AND SWAP5 DUP4 AND SWAP5 SWAP1 SWAP5 OR SWAP1 SWAP4 SSTORE PUSH1 0x4 DUP1 SLOAD SWAP3 SWAP1 SWAP4 AND SWAP2 DUP2 AND SWAP2 SWAP1 SWAP2 OR SWAP1 SWAP2 SSTORE PUSH1 0x5 DUP1 SLOAD SWAP1 SWAP2 AND CALLER OR SWAP1 SSTORE PUSH2 0x9D5 DUP1 PUSH2 0xC9 PUSH1 0x0 CODECOPY PUSH1 0x0 RETURN INVALID PUSH1 0x80 PUSH1 0x40 MSTORE CALLVALUE DUP1 ISZERO PUSH2 0x10 JUMPI PUSH1 0x0 DUP1 REVERT JUMPDEST POP PUSH1 0x4 CALLDATASIZE LT PUSH2 0xA9 JUMPI PUSH1 0x0 CALLDATALOAD PUSH1 0xE0 SHR DUP1 PUSH4 0x8FD3AB80 GT PUSH2 0x71 JUMPI DUP1 PUSH4 0x8FD3AB80 EQ PUSH2 0x136 JUMPI DUP1 PUSH4 0xA8AA1B31 EQ PUSH2 0x140 JUMPI DUP1 PUSH4 0xB6B55F25 EQ PUSH2 0x148 JUMPI DUP1 PUSH4 0xC896C18C EQ PUSH2 0x165 JUMPI DUP1 PUSH4 0xF851A440 EQ PUSH2 0x16D JUMPI DUP1 PUSH4 0xF887EA40 EQ PUSH2 0x175 JUMPI PUSH2 0xA9 JUMP JUMPDEST DUP1 PUSH4 0xD81A570 EQ PUSH2 0xAE JUMPI DUP1 PUSH4 0x41D4A1AB EQ PUSH2 0xCA JUMPI DUP1 PUSH4 0x59201402 EQ PUSH2 0xEE JUMPI DUP1 PUSH4 0x766FAF36 EQ PUSH2 0xF6 JUMPI DUP1 PUSH4 0x8BF6AFAF EQ PUSH2 0xFE JUMPI JUMPDEST PUSH1 0x0 DUP1 REVERT JUMPDEST PUSH2 0xB6 PUSH2 0x17D JUMP JUMPDEST PUSH1 0x40 DUP1 MLOAD SWAP2 ISZERO ISZERO DUP3 MSTORE MLOAD SWAP1 DUP2 SWAP1 SUB PUSH1 0x20 ADD SWAP1 RETURN JUMPDEST PUSH2 0xD2 PUSH2 0x186 JUMP JUMPDEST PUSH1 0x40 DUP1 MLOAD PUSH1 0x1 PUSH1 0x1 PUSH1 0xA0 SHL SUB SWAP1 SWAP3 AND DUP3 MSTORE MLOAD SWAP1 DUP2 SWAP1 SUB PUSH1 0x20 ADD SWAP1 RETURN JUMPDEST PUSH2 0xD2 PUSH2 0x195 JUMP JUMPDEST PUSH2 0xD2 PUSH2 0x1A4 JUMP JUMPDEST PUSH2 0x124 PUSH1 0x4 DUP1 CALLDATASIZE SUB PUSH1 0x20 DUP2 LT ISZERO PUSH2 0x114 JUMPI PUSH1 0x0 DUP1 REVERT JUMPDEST POP CALLDATALOAD PUSH1 0x1 PUSH1 0x1 PUSH1 0xA0 SHL SUB AND PUSH2 0x1B3 JUMP JUMPDEST PUSH1 0x40 DUP1 MLOAD SWAP2 DUP3 MSTORE MLOAD SWAP1 DUP2 SWAP1 SUB PUSH1 0x20 ADD SWAP1 RETURN JUMPDEST PUSH2 0x13E PUSH2 0x1C5 JUMP JUMPDEST STOP JUMPDEST PUSH2 0xD2 PUSH2 0x71D JUMP JUMPDEST PUSH2 0x13E PUSH1 0x4 DUP1 CALLDATASIZE SUB PUSH1 0x20 DUP2 LT ISZERO PUSH2 0x15E JUMPI PUSH1 0x0 DUP1 REVERT JUMPDEST POP CALLDATALOAD PUSH2 0x72C JUMP JUMPDEST PUSH2 0x13E PUSH2 0x888 JUMP JUMPDEST PUSH2 0xD2 PUSH2 0x981 JUMP JUMPDEST PUSH2 0xD2 PUSH2 0x990 JUMP JUMPDEST PUSH1 0x7 SLOAD PUSH1 0xFF AND DUP2 JUMP JUMPDEST PUSH1 0x4 SLOAD PUSH1 0x1 PUSH1 0x1 PUSH1 0xA0 SHL SUB AND DUP2 JUMP JUMPDEST PUSH1 0x3 SLOAD PUSH1 0x1 PUSH1 0x1 PUSH1 0xA0 SHL SUB AND DUP2 JUMP JUMPDEST PUSH1 0x2 SLOAD PUSH1 0x1 PUSH1 0x1 PUSH1 0xA0 SHL SUB AND DUP2 JUMP JUMPDEST PUSH1 0x6 PUSH1 0x20 MSTORE PUSH1 0x0 SWAP1 DUP2 MSTORE PUSH1 0x40 SWAP1 KECCAK256 SLOAD DUP2 JUMP JUMPDEST PUSH1 0x5 SLOAD PUSH1 0x1 PUSH1 0x1 PUSH1 0xA0 SHL SUB AND CALLER EQ PUSH2 0x211 JUMPI PUSH1 0x40 DUP1 MLOAD PUSH3 0x461BCD PUSH1 0xE5 SHL DUP2 MSTORE PUSH1 0x20 PUSH1 0x4 DUP3 ADD MSTORE PUSH1 0xA PUSH1 0x24 DUP3 ADD MSTORE PUSH10 0x37B7363C9030B236B4B7 PUSH1 0xB1 SHL PUSH1 0x44 DUP3 ADD MSTORE SWAP1 MLOAD SWAP1 DUP2 SWAP1 SUB PUSH1 0x64 ADD SWAP1 REVERT JUMPDEST PUSH1 0x7 SLOAD PUSH1 0xFF AND ISZERO PUSH2 0x262 JUMPI PUSH1 0x40 DUP1 MLOAD PUSH3 0x461BCD PUSH1 0xE5 SHL DUP2 MSTORE PUSH1 0x20 PUSH1 0x4 DUP3 ADD MSTORE PUSH1 0x16 PUSH1 0x24 DUP3 ADD MSTORE PUSH22 0x6D6967726174696F6E20616C726561647920646F6E65 PUSH1 0x50 SHL PUSH1 0x44 DUP3 ADD MSTORE SWAP1 MLOAD SWAP1 DUP2 SWAP1 SUB PUSH1 0x64 ADD SWAP1 REVERT JUMPDEST PUSH1 0x1 SLOAD PUSH1 0x40 DUP1 MLOAD PUSH4 0xDFE1681 PUSH1 0xE0 SHL DUP2 MSTORE SWAP1 MLOAD PUSH1 0x0 SWAP3 PUSH1 0x1 PUSH1 0x1 PUSH1 0xA0 SHL SUB AND SWAP2 PUSH4 0xDFE1681 SWAP2 PUSH1 0x4 DUP1 DUP4 ADD SWAP3 PUSH1 0x20 SWAP3 SWAP2 SWAP1 DUP3 SWAP1 SUB ADD DUP2 DUP7 DUP1 EXTCODESIZE ISZERO DUP1 ISZERO PUSH2 0x2A7 JUMPI PUSH1 0x0 DUP1 REVERT JUMPDEST POP GAS STATICCALL ISZERO DUP1 ISZERO PUSH2 0x2BB JUMPI RETURNDATASIZE PUSH1 0x0 DUP1 RETURNDATACOPY RETURNDATASIZE PUSH1 0x0 REVERT JUMPDEST POP POP POP POP PUSH1 0x40 MLOAD RETURNDATASIZE PUSH1 0x20 DUP2 LT ISZERO PUSH2 0x2D1 JUMPI PUSH1 0x0 DUP1 REVERT JUMPDEST POP MLOAD PUSH1 0x1 SLOAD PUSH1 0x40 DUP1 MLOAD PUSH4 0xD21220A7 PUSH1 0xE0 SHL DUP2 MSTORE SWAP1 MLOAD SWAP3 SWAP4 POP PUSH1 0x0 SWAP3 PUSH1 0x1 PUSH1 0x1 PUSH1 0xA0 SHL SUB SWAP1 SWAP3 AND SWAP2 PUSH4 0xD21220A7 SWAP2 PUSH1 0x4 DUP1 DUP3 ADD SWAP3 PUSH1 0x20 SWAP3 SWAP1 SWAP2 SWAP1 DUP3 SWAP1 SUB ADD DUP2 DUP7 DUP1 EXTCODESIZE ISZERO DUP1 ISZERO PUSH2 0x31E JUMPI PUSH1 0x0 DUP1 REVERT JUMPDEST POP GAS STATICCALL ISZERO DUP1 ISZERO PUSH2 0x332 JUMPI RETURNDATASIZE PUSH1 0x0 DUP1 RETURNDATACOPY RETURNDATASIZE PUSH1 0x0 REVERT JUMPDEST POP POP POP POP PUSH1 0x40 MLOAD RETURNDATASIZE PUSH1 0x20 DUP2 LT ISZERO PUSH2 0x348 JUMPI PUSH1 0x0 DUP1 REVERT JUMPDEST POP MLOAD PUSH1 0x1 SLOAD PUSH1 0x40 DUP1 MLOAD PUSH4 0x70A08231 PUSH1 0xE0 SHL DUP2 MSTORE ADDRESS PUSH1 0x4 DUP3 ADD MSTORE SWAP1 MLOAD SWAP3 SWAP4 POP PUSH1 0x0 SWAP3 PUSH1 0x1 PUSH1 0x1 PUSH1 0xA0 SHL SUB SWAP1 SWAP3 AND SWAP2 PUSH4 0x70A08231 SWAP2 PUSH1 0x24 DUP1 DUP3 ADD SWAP3 PUSH1 0x20 SWAP3 SWAP1 SWAP2 SWAP1 DUP3 SWAP1 SUB ADD DUP2 DUP7 DUP1 EXTCODESIZE ISZERO DUP1 ISZERO PUSH2 0x39B JUMPI PUSH1 0x0 DUP1 REVERT JUMPDEST POP GAS STATICCALL ISZERO DUP1 ISZERO PUSH2 0x3AF JUMPI RETURNDATASIZE PUSH1 0x0 DUP1 RETURNDATACOPY RETURNDATASIZE PUSH1 0x0 REVERT JUMPDEST POP POP POP POP PUSH1 0x40 MLOAD RETURNDATASIZE PUSH1 0x20 DUP2 LT ISZERO PUSH2 0x3C5 JUMPI PUSH1 0x0 DUP1 REVERT JUMPDEST POP MLOAD PUSH1 0x0 DUP1 SLOAD PUSH1 0x40 DUP1 MLOAD PUSH4 0x5D5155EF PUSH1 0xE1 SHL DUP2 MSTORE PUSH1 0x1 PUSH1 0x1 PUSH1 0xA0 SHL SUB DUP9 DUP2 AND PUSH1 0x4 DUP4 ADD MSTORE DUP8 DUP2 AND PUSH1 0x24 DUP4 ADD MSTORE PUSH1 0x44 DUP3 ADD DUP7 SWAP1 MSTORE PUSH1 0x64 DUP3 ADD DUP6 SWAP1 MSTORE PUSH1 0x84 DUP3 ADD DUP6 SWAP1 MSTORE ADDRESS PUSH1 0xA4 DUP4 ADD MSTORE TIMESTAMP PUSH1 0xC4 DUP4 ADD MSTORE DUP3 MLOAD SWAP6 SWAP7 POP SWAP1 SWAP3 AND SWAP4 PUSH4 0xBAA2ABDE SWAP4 PUSH1 0xE4 DUP1 DUP6 ADD SWAP5 DUP4 SWAP1 SUB ADD SWAP1 DUP3 SWAP1 DUP8 DUP1 EXTCODESIZE ISZERO DUP1 ISZERO PUSH2 0x43D JUMPI PUSH1 0x0 DUP1 REVERT JUMPDEST POP GAS CALL ISZERO DUP1 ISZERO PUSH2 0x451 JUMPI RETURNDATASIZE PUSH1 0x0 DUP1 RETURNDATACOPY RETURNDATASIZE PUSH1 0x0 REVERT JUMPDEST POP POP POP POP PUSH1 0x40 MLOAD RETURNDATASIZE PUSH1 0x40 DUP2 LT ISZERO PUSH2 0x467 JUMPI PUSH1 0x0 DUP1 REVERT JUMPDEST POP POP PUSH1 0x40 DUP1 MLOAD PUSH4 0x70A08231 PUSH1 0xE0 SHL DUP2 MSTORE ADDRESS PUSH1 0x4 DUP3 ADD MSTORE SWAP1 MLOAD PUSH1 0x0 SWAP2 PUSH1 0x1 PUSH1 0x1 PUSH1 0xA0 SHL SUB DUP7 AND SWAP2 PUSH4 0x70A08231 SWAP2 PUSH1 0x24 DUP1 DUP3 ADD SWAP3 PUSH1 0x20 SWAP3 SWAP1 SWAP2 SWAP1 DUP3 SWAP1 SUB ADD DUP2 DUP7 DUP1 EXTCODESIZE ISZERO DUP1 ISZERO PUSH2 0x4B3 JUMPI PUSH1 0x0 DUP1 REVERT JUMPDEST POP GAS STATICCALL ISZERO DUP1 ISZERO PUSH2 0x4C7 JUMPI RETURNDATASIZE PUSH1 0x0 DUP1 RETURNDATACOPY RETURNDATASIZE PUSH1 0x0 REVERT JUMPDEST POP POP POP POP PUSH1 0x40 MLOAD RETURNDATASIZE PUSH1 0x20 DUP2 LT ISZERO PUSH2 0x4DD JUMPI PUSH1 0x0 DUP1 REVERT JUMPDEST POP MLOAD PUSH1 0x40 DUP1 MLOAD PUSH4 0x70A08231 PUSH1 0xE0 SHL DUP2 MSTORE ADDRESS PUSH1 0x4 DUP3 ADD MSTORE SWAP1 MLOAD SWAP2 SWAP3 POP PUSH1 0x0 SWAP2 PUSH1 0x1 PUSH1 0x1 PUSH1 0xA0 SHL SUB DUP7 AND SWAP2 PUSH4 0x70A08231 SWAP2 PUSH1 0x24 DUP1 DUP4 ADD SWAP3 PUSH1 0x20 SWAP3 SWAP2 SWAP1 DUP3 SWAP1 SUB ADD DUP2 DUP7 DUP1 EXTCODESIZE ISZERO DUP1 ISZERO PUSH2 0x52B JUMPI PUSH1 0x0 DUP1 REVERT JUMPDEST POP GAS STATICCALL ISZERO DUP1 ISZERO PUSH2 0x53F JUMPI RETURNDATASIZE PUSH1 0x0 DUP1 RETURNDATACOPY RETURNDATASIZE PUSH1 0x0 REVERT JUMPDEST POP POP POP POP PUSH1 0x40 MLOAD RETURNDATASIZE PUSH1 0x20 DUP2 LT ISZERO PUSH2 0x555 JUMPI PUSH1 0x0 DUP1 REVERT JUMPDEST POP MLOAD PUSH1 0x2 SLOAD PUSH1 0x40 DUP1 MLOAD PUSH4 0x95EA7B3 PUSH1 0xE0 SHL DUP2 MSTORE PUSH1 0x1 PUSH1 0x1 PUSH1 0xA0 SHL SUB SWAP3 DUP4 AND PUSH1 0x4 DUP3 ADD MSTORE PUSH1 0x24 DUP2 ADD DUP7 SWAP1 MSTORE SWAP1 MLOAD SWAP3 SWAP4 POP SWAP1 DUP8 AND SWAP2 PUSH4 0x95EA7B3 SWAP2 PUSH1 0x44 DUP1 DUP3 ADD SWAP3 PUSH1 0x20 SWAP3 SWAP1 SWAP2 SWAP1 DUP3 SWAP1 SUB ADD DUP2 PUSH1 0x0 DUP8 DUP1 EXTCODESIZE ISZERO DUP1 ISZERO PUSH2 0x5B0 JUMPI PUSH1 0x0 DUP1 REVERT JUMPDEST POP GAS CALL ISZERO DUP1 ISZERO PUSH2 0x5C4 JUMPI RETURNDATASIZE PUSH1 0x0 DUP1 RETURNDATACOPY RETURNDATASIZE PUSH1 0x0 REVERT JUMPDEST POP POP POP POP PUSH1 0x40 MLOAD RETURNDATASIZE PUSH1 0x20 DUP2 LT ISZERO PUSH2 0x5DA JUMPI PUSH1 0x0 DUP1 REVERT JUMPDEST POP POP PUSH1 0x2 SLOAD PUSH1 0x40 DUP1 MLOAD PUSH4 0x95EA7B3 PUSH1 0xE0 SHL DUP2 MSTORE PUSH1 0x1 PUSH1 0x1 PUSH1 0xA0 SHL SUB SWAP3 DUP4 AND PUSH1 0x4 DUP3 ADD MSTORE PUSH1 0x24 DUP2 ADD DUP5 SWAP1 MSTORE SWAP1 MLOAD SWAP2 DUP7 AND SWAP2 PUSH4 0x95EA7B3 SWAP2 PUSH1 0x44 DUP1 DUP3 ADD SWAP3 PUSH1 0x20 SWAP3 SWAP1 SWAP2 SWAP1 DUP3 SWAP1 SUB ADD DUP2 PUSH1 0x0 DUP8 DUP1 EXTCODESIZE ISZERO DUP1 ISZERO PUSH2 0x632 JUMPI PUSH1 0x0 DUP1 REVERT JUMPDEST POP GAS CALL ISZERO DUP1 ISZERO PUSH2 0x646 JUMPI RETURNDATASIZE PUSH1 0x0 DUP1 RETURNDATACOPY RETURNDATASIZE PUSH1 0x0 REVERT JUMPDEST POP POP POP POP PUSH1 0x40 MLOAD RETURNDATASIZE PUSH1 0x20 DUP2 LT ISZERO PUSH2 0x65C JUMPI PUSH1 0x0 DUP1 REVERT JUMPDEST POP POP PUSH1 0x2 SLOAD PUSH1 0x40 DUP1 MLOAD PUSH3 0xE8E337 PUSH1 0xE8 SHL DUP2 MSTORE PUSH1 0x1 PUSH1 0x1 PUSH1 0xA0 SHL SUB DUP9 DUP2 AND PUSH1 0x4 DUP4 ADD MSTORE DUP8 DUP2 AND PUSH1 0x24 DUP4 ADD MSTORE PUSH1 0x44 DUP3 ADD DUP7 SWAP1 MSTORE PUSH1 0x64 DUP3 ADD DUP6 SWAP1 MSTORE PUSH1 0x84 DUP3 ADD DUP7 SWAP1 MSTORE PUSH1 0xA4 DUP3 ADD DUP6 SWAP1 MSTORE ADDRESS PUSH1 0xC4 DUP4 ADD MSTORE TIMESTAMP PUSH1 0xE4 DUP4 ADD MSTORE SWAP2 MLOAD SWAP2 SWAP1 SWAP3 AND SWAP2 PUSH4 0xE8E33700 SWAP2 PUSH2 0x104 DUP1 DUP4 ADD SWAP3 PUSH1 0x60 SWAP3 SWAP2 SWAP1 DUP3 SWAP1 SUB ADD DUP2 PUSH1 0x0 DUP8 DUP1 EXTCODESIZE ISZERO DUP1 ISZERO PUSH2 0x6DD JUMPI PUSH1 0x0 DUP1 REVERT JUMPDEST POP GAS CALL ISZERO DUP1 ISZERO PUSH2 0x6F1 JUMPI RETURNDATASIZE PUSH1 0x0 DUP1 RETURNDATACOPY RETURNDATASIZE PUSH1 0x0 REVERT JUMPDEST POP POP POP POP PUSH1 0x40 MLOAD RETURNDATASIZE PUSH1 0x60 DUP2 LT ISZERO PUSH2 0x707 JUMPI PUSH1 0x0 DUP1 REVERT JUMPDEST POP POP PUSH1 0x7 DUP1 SLOAD PUSH1 0xFF NOT AND PUSH1 0x1 OR SWAP1 SSTORE POP POP POP POP POP JUMP JUMPDEST PUSH1 0x1 SLOAD PUSH1 0x1 PUSH1 0x1 PUSH1 0xA0 SHL SUB AND DUP2 JUMP JUMPDEST PUSH1 0x7 SLOAD PUSH1 0xFF AND ISZERO PUSH2 0x77D JUMPI PUSH1 0x40 DUP1 MLOAD PUSH3 0x461BCD PUSH1 0xE5 SHL DUP2 MSTORE PUSH1 0x20 PUSH1 0x4 DUP3 ADD MSTORE PUSH1 0x16 PUSH1 0x24 DUP3 ADD MSTORE PUSH22 0x6D6967726174696F6E20616C726561647920646F6E65 PUSH1 0x50 SHL PUSH1 0x44 DUP3 ADD MSTORE SWAP1 MLOAD SWAP1 DUP2 SWAP1 SUB PUSH1 0x64 ADD SWAP1 REVERT JUMPDEST PUSH1 0x1 SLOAD PUSH1 0x40 DUP1 MLOAD PUSH4 0x23B872DD PUSH1 0xE0 SHL DUP2 MSTORE CALLER PUSH1 0x4 DUP3 ADD MSTORE ADDRESS PUSH1 0x24 DUP3 ADD MSTORE PUSH1 0x44 DUP2 ADD DUP5 SWAP1 MSTORE SWAP1 MLOAD PUSH1 0x1 PUSH1 0x1 PUSH1 0xA0 SHL SUB SWAP1 SWAP3 AND SWAP2 PUSH4 0x23B872DD SWAP2 PUSH1 0x64 DUP1 DUP3 ADD SWAP3 PUSH1 0x20 SWAP3 SWAP1 SWAP2 SWAP1 DUP3 SWAP1 SUB ADD DUP2 PUSH1 0x0 DUP8 DUP1 EXTCODESIZE ISZERO DUP1 ISZERO PUSH2 0x7D7 JUMPI PUSH1 0x0 DUP1 REVERT JUMPDEST POP GAS CALL ISZERO DUP1 ISZERO PUSH2 0x7EB JUMPI RETURNDATASIZE PUSH1 0x0 DUP1 RETURNDATACOPY RETURNDATASIZE PUSH1 0x0 REVERT JUMPDEST POP POP POP POP PUSH1 0x40 MLOAD RETURNDATASIZE PUSH1 0x20 DUP2 LT ISZERO PUSH2 0x801 JUMPI PUSH1 0x0 DUP1 REVERT JUMPDEST POP POP PUSH1 0x4 DUP1 SLOAD PUSH1 0x40 DUP1 MLOAD PUSH4 0x40C10F19 PUSH1 0xE0 SHL DUP2 MSTORE CALLER SWAP4 DUP2 ADD SWAP4 SWAP1 SWAP4 MSTORE PUSH1 0x24 DUP4 ADD DUP5 SWAP1 MSTORE MLOAD PUSH1 0x1 PUSH1 0x1 PUSH1 0xA0 SHL SUB SWAP1 SWAP2 AND SWAP2 PUSH4 0x40C10F19 SWAP2 PUSH1 0x44 DUP1 DUP4 ADD SWAP3 PUSH1 0x0 SWAP3 SWAP2 SWAP1 DUP3 SWAP1 SUB ADD DUP2 DUP4 DUP8 DUP1 EXTCODESIZE ISZERO DUP1 ISZERO PUSH2 0x857 JUMPI PUSH1 0x0 DUP1 REVERT JUMPDEST POP GAS CALL ISZERO DUP1 ISZERO PUSH2 0x86B JUMPI RETURNDATASIZE PUSH1 0x0 DUP1 RETURNDATACOPY RETURNDATASIZE PUSH1 0x0 REVERT JUMPDEST POP POP CALLER PUSH1 0x0 SWAP1 DUP2 MSTORE PUSH1 0x6 PUSH1 0x20 MSTORE PUSH1 0x40 SWAP1 KECCAK256 DUP1 SLOAD SWAP1 SWAP4 ADD SWAP1 SWAP3 SSTORE POP POP JUMP JUMPDEST CALLER PUSH1 0x0 MSTORE PUSH1 0x6 PUSH1 0x20 MSTORE PUSH1 0x7 SLOAD PUSH1 0xFF AND ISZERO ISZERO PUSH1 0x1 EQ PUSH2 0x8E6 JUMPI PUSH1 0x40 DUP1 MLOAD PUSH3 0x461BCD PUSH1 0xE5 SHL DUP2 MSTORE PUSH1 0x20 PUSH1 0x4 DUP3 ADD MSTORE PUSH1 0x16 PUSH1 0x24 DUP3 ADD MSTORE PUSH22 0x1B5A59DC985D1A5BDB881B9BDD08191BDB99481E595D PUSH1 0x52 SHL PUSH1 0x44 DUP3 ADD MSTORE SWAP1 MLOAD SWAP1 DUP2 SWAP1 SUB PUSH1 0x64 ADD SWAP1 REVERT JUMPDEST CALLER PUSH1 0x0 DUP2 DUP2 MSTORE PUSH1 0x6 PUSH1 0x20 SWAP1 DUP2 MSTORE PUSH1 0x40 DUP1 DUP4 KECCAK256 DUP1 SLOAD SWAP1 DUP5 SWAP1 SSTORE PUSH1 0x3 SLOAD DUP3 MLOAD PUSH4 0xA9059CBB PUSH1 0xE0 SHL DUP2 MSTORE PUSH1 0x4 DUP2 ADD SWAP7 SWAP1 SWAP7 MSTORE PUSH1 0x24 DUP7 ADD DUP3 SWAP1 MSTORE SWAP2 MLOAD SWAP1 SWAP5 PUSH1 0x1 PUSH1 0x1 PUSH1 0xA0 SHL SUB SWAP1 SWAP3 AND SWAP4 PUSH4 0xA9059CBB SWAP4 PUSH1 0x44 DUP1 DUP6 ADD SWAP5 SWAP2 SWAP4 SWAP3 SWAP2 DUP4 SWAP1 SUB ADD SWAP1 DUP3 SWAP1 DUP8 DUP1 EXTCODESIZE ISZERO DUP1 ISZERO PUSH2 0x952 JUMPI PUSH1 0x0 DUP1 REVERT JUMPDEST POP GAS CALL ISZERO DUP1 ISZERO PUSH2 0x966 JUMPI RETURNDATASIZE PUSH1 0x0 DUP1 RETURNDATACOPY RETURNDATASIZE PUSH1 0x0 REVERT JUMPDEST POP POP POP POP PUSH1 0x40 MLOAD RETURNDATASIZE PUSH1 0x20 DUP2 LT ISZERO PUSH2 0x97C JUMPI PUSH1 0x0 DUP1 REVERT JUMPDEST POP POP POP JUMP JUMPDEST PUSH1 0x5 SLOAD PUSH1 0x1 PUSH1 0x1 PUSH1 0xA0 SHL SUB AND DUP2 JUMP JUMPDEST PUSH1 0x0 SLOAD PUSH1 0x1 PUSH1 0x1 PUSH1 0xA0 SHL SUB AND DUP2 JUMP INVALID LOG2 PUSH5 0x6970667358 0x22 SLT KECCAK256 CODESIZE 0xB5 0x25 0xE1 CALLVALUE MSTORE8 0x24 GASPRICE PUSH22 0xEA896C17CA37DB6AA233D419A8E4BBB46CFF3DBA5D80 0xDB PUSH5 0x736F6C6343 STOP MOD MOD STOP CALLER "},"gasEstimates":{"creation":{"codeDepositCost":"503400","executionCost":"infinite","totalCost":"infinite"},"external":{"admin()":"1125","bonusToken()":"1060","claimLpTokens()":"infinite","deposit(uint256)":"infinite","migrate()":"infinite","migrationDone()":"1011","pair()":"1059","pairFork()":"1082","router()":"1147","routerFork()":"1104","unclaimedBalances(address)":"1213"}},"methodIdentifiers":{"admin()":"f851a440","bonusToken()":"41d4a1ab","claimLpTokens()":"c896c18c","deposit(uint256)":"b6b55f25","migrate()":"8fd3ab80","migrationDone()":"0d81a570","pair()":"a8aa1b31","pairFork()":"59201402","router()":"f887ea40","routerFork()":"766faf36","unclaimedBalances(address)":"8bf6afaf"}},"storageLayout":{"storage":[{"astId":7,"contract":"Contract:LiquidityMigrator","label":"router","offset":0,"slot":"0","type":"t_contract(IUniswapV2Router02)456"},{"astId":9,"contract":"Contract:LiquidityMigrator","label":"pair","offset":0,"slot":"1","type":"t_contract(IUniswapV2Pair)760"},{"astId":11,"contract":"Contract:LiquidityMigrator","label":"routerFork","offset":0,"slot":"2","type":"t_contract(IUniswapV2Router02)456"},{"astId":13,"contract":"Contract:LiquidityMigrator","label":"pairFork","offset":0,"slot":"3","type":"t_contract(IUniswapV2Pair)760"},{"astId":15,"contract":"Contract:LiquidityMigrator","label":"bonusToken","offset":0,"slot":"4","type":"t_contract(BonusToken)518"},{"astId":17,"contract":"Contract:LiquidityMigrator","label":"admin","offset":0,"slot":"5","type":"t_address"},{"astId":21,"contract":"Contract:LiquidityMigrator","label":"unclaimedBalances","offset":0,"slot":"6","type":"t_mapping(t_address,t_uint256)"},{"astId":23,"contract":"Contract:LiquidityMigrator","label":"migrationDone","offset":0,"slot":"7","type":"t_bool"}],"types":{"t_address":{"encoding":"inplace","label":"address","numberOfBytes":"20"},"t_bool":{"encoding":"inplace","label":"bool","numberOfBytes":"1"},"t_contract(BonusToken)518":{"encoding":"inplace","label":"contract BonusToken","numberOfBytes":"20"},"t_contract(IUniswapV2Pair)760":{"encoding":"inplace","label":"contract IUniswapV2Pair","numberOfBytes":"20"},"t_contract(IUniswapV2Router02)456":{"encoding":"inplace","label":"contract IUniswapV2Router02","numberOfBytes":"20"},"t_mapping(t_address,t_uint256)":{"encoding":"mapping","key":"t_address","label":"mapping(address => uint256)","numberOfBytes":"32","value":"t_uint256"},"t_uint256":{"encoding":"inplace","label":"uint256","numberOfBytes":"32"}}},"userdoc":{"methods":{}}}