{"abi":[{"inputs":[{"internalType":"address","name":"_pairFork","type":"address"},{"internalType":"address","name":"_babyToy","type":"address"}],"stateMutability":"nonpayable","type":"constructor"},{"inputs":[],"name":"admin","outputs":[{"internalType":"address","name":"","type":"address"}],"stateMutability":"view","type":"function"},{"inputs":[],"name":"babyToy","outputs":[{"internalType":"contract BabyToy","name":"","type":"address"}],"stateMutability":"view","type":"function"},{"inputs":[{"internalType":"address","name":"user","type":"address"}],"name":"calculateYieldTime","outputs":[{"internalType":"uint256","name":"","type":"uint256"}],"stateMutability":"view","type":"function"},{"inputs":[{"internalType":"address","name":"user","type":"address"}],"name":"calculateYieldTotal","outputs":[{"internalType":"uint256","name":"","type":"uint256"}],"stateMutability":"view","type":"function"},{"inputs":[{"internalType":"address","name":"","type":"address"}],"name":"depositedAmount","outputs":[{"internalType":"uint256","name":"","type":"uint256"}],"stateMutability":"view","type":"function"},{"inputs":[{"internalType":"address","name":"","type":"address"}],"name":"isStaking","outputs":[{"internalType":"bool","name":"","type":"bool"}],"stateMutability":"view","type":"function"},{"inputs":[],"name":"pairFork","outputs":[{"internalType":"contract IUniswapV2Pair","name":"","type":"address"}],"stateMutability":"view","type":"function"},{"inputs":[{"internalType":"address","name":"","type":"address"}],"name":"rewards","outputs":[{"internalType":"uint256","name":"","type":"uint256"}],"stateMutability":"view","type":"function"},{"inputs":[{"internalType":"uint256","name":"_amount","type":"uint256"}],"name":"stake","outputs":[],"stateMutability":"nonpayable","type":"function"},{"inputs":[{"internalType":"address","name":"","type":"address"}],"name":"startTime","outputs":[{"internalType":"uint256","name":"","type":"uint256"}],"stateMutability":"view","type":"function"},{"inputs":[{"internalType":"uint256","name":"_amount","type":"uint256"}],"name":"unstake","outputs":[],"stateMutability":"nonpayable","type":"function"},{"inputs":[],"name":"withdrawRewards","outputs":[],"stateMutability":"nonpayable","type":"function"}],"devdoc":{"methods":{}},"evm":{"assembly":"    /* \"Contract\":109:2915  contract YieldFarmingBabyLeash {\r... */\n  mstore(0x40, 0x80)\n    /* \"Contract\":488:666  constructor(address _pairFork, address _babyToy) public {\r... */\n  callvalue\n    /* \"--CODEGEN--\":5:14   */\n  dup1\n    /* \"--CODEGEN--\":2:4   */\n  iszero\n  tag_1\n  jumpi\n    /* \"--CODEGEN--\":27:28   */\n  0x00\n    /* \"--CODEGEN--\":24:25   */\n  dup1\n    /* \"--CODEGEN--\":17:29   */\n  revert\n    /* \"--CODEGEN--\":2:4   */\ntag_1:\n    /* \"Contract\":488:666  constructor(address _pairFork, address _babyToy) public {\r... */\n  pop\n  mload(0x40)\n  sub(codesize, bytecodeSize)\n  dup1\n  bytecodeSize\n  dup4\n  codecopy\n  dup2\n  dup2\n  add\n  0x40\n  mstore\n    /* \"--CODEGEN--\":15:17   */\n  0x40\n    /* \"--CODEGEN--\":10:13   */\n  dup2\n    /* \"--CODEGEN--\":7:18   */\n  lt\n    /* \"--CODEGEN--\":4:6   */\n  iszero\n  tag_2\n  jumpi\n    /* \"--CODEGEN--\":31:32   */\n  0x00\n    /* \"--CODEGEN--\":28:29   */\n  dup1\n    /* \"--CODEGEN--\":21:33   */\n  revert\n    /* \"--CODEGEN--\":4:6   */\ntag_2:\n  pop\n    /* \"Contract\":488:666  constructor(address _pairFork, address _babyToy) public {\r... */\n  dup1\n  mload\n  0x20\n  swap1\n  swap2\n  add\n  mload\n    /* \"Contract\":555:563  pairFork */\n  0x00\n    /* \"Contract\":555:591  pairFork = IUniswapV2Pair(_pairFork) */\n  dup1\n  sload\n  sub(shl(0xa0, 0x01), 0x01)\n  swap4\n  dup5\n  and\n  not(sub(shl(0xa0, 0x01), 0x01))\n  swap2\n  dup3\n  and\n  or\n  swap1\n  swap2\n  sstore\n  0x01\n    /* \"Contract\":602:629  babyToy = BabyToy(_babyToy) */\n  dup1\n  sload\n  swap4\n  swap1\n  swap3\n  and\n  swap3\n  dup2\n  and\n  swap3\n  swap1\n  swap3\n  or\n  swap1\n  sstore\n    /* \"Contract\":640:645  admin */\n  0x02\n    /* \"Contract\":640:658  admin = msg.sender */\n  dup1\n  sload\n  swap1\n  swap2\n  and\n    /* \"Contract\":648:658  msg.sender */\n  caller\n    /* \"Contract\":640:658  admin = msg.sender */\n  or\n  swap1\n  sstore\n    /* \"Contract\":109:2915  contract YieldFarmingBabyLeash {\r... */\n  dataSize(sub_0)\n  dup1\n  dataOffset(sub_0)\n  0x00\n  codecopy\n  0x00\n  return\nstop\n\nsub_0: assembly {\n        /* \"Contract\":109:2915  contract YieldFarmingBabyLeash {\r... */\n      mstore(0x40, 0x80)\n      callvalue\n        /* \"--CODEGEN--\":5:14   */\n      dup1\n        /* \"--CODEGEN--\":2:4   */\n      iszero\n      tag_1\n      jumpi\n        /* \"--CODEGEN--\":27:28   */\n      0x00\n        /* \"--CODEGEN--\":24:25   */\n      dup1\n        /* \"--CODEGEN--\":17:29   */\n      revert\n        /* \"--CODEGEN--\":2:4   */\n    tag_1:\n        /* \"Contract\":109:2915  contract YieldFarmingBabyLeash {\r... */\n      pop\n      jumpi(tag_2, lt(calldatasize, 0x04))\n      shr(0xe0, calldataload(0x00))\n      dup1\n      0x6f49712b\n      gt\n      tag_15\n      jumpi\n      dup1\n      0x6f49712b\n      eq\n      tag_9\n      jumpi\n      dup1\n      0x980d6116\n      eq\n      tag_10\n      jumpi\n      dup1\n      0xa694fc3a\n      eq\n      tag_11\n      jumpi\n      dup1\n      0xc7b8981c\n      eq\n      tag_12\n      jumpi\n      dup1\n      0xe70f053b\n      eq\n      tag_13\n      jumpi\n      dup1\n      0xf851a440\n      eq\n      tag_14\n      jumpi\n      jump(tag_2)\n    tag_15:\n      dup1\n      0x06872661\n      eq\n      tag_3\n      jumpi\n      dup1\n      0x0700037d\n      eq\n      tag_4\n      jumpi\n      dup1\n      0x2e17de78\n      eq\n      tag_5\n      jumpi\n      dup1\n      0x4a4643f7\n      eq\n      tag_6\n      jumpi\n      dup1\n      0x59201402\n      eq\n      tag_7\n      jumpi\n      dup1\n      0x6e1dc66e\n      eq\n      tag_8\n      jumpi\n    tag_2:\n        /* \"--CODEGEN--\":12:13   */\n      0x00\n        /* \"--CODEGEN--\":9:10   */\n      dup1\n        /* \"--CODEGEN--\":2:14   */\n      revert\n        /* \"Contract\":2589:2911  function calculateYieldTotal(address user) public view returns(uint256) {\r... */\n    tag_3:\n      tag_16\n      0x04\n      dup1\n      calldatasize\n      sub\n        /* \"--CODEGEN--\":15:17   */\n      0x20\n        /* \"--CODEGEN--\":10:13   */\n      dup2\n        /* \"--CODEGEN--\":7:18   */\n      lt\n        /* \"--CODEGEN--\":4:6   */\n      iszero\n      tag_17\n      jumpi\n        /* \"--CODEGEN--\":31:32   */\n      0x00\n        /* \"--CODEGEN--\":28:29   */\n      dup1\n        /* \"--CODEGEN--\":21:33   */\n      revert\n        /* \"--CODEGEN--\":4:6   */\n    tag_17:\n      pop\n        /* \"Contract\":2589:2911  function calculateYieldTotal(address user) public view returns(uint256) {\r... */\n      calldataload\n      sub(shl(0xa0, 0x01), 0x01)\n      and\n      tag_18\n      jump\t// in\n    tag_16:\n      0x40\n      dup1\n      mload\n      swap2\n      dup3\n      mstore\n      mload\n      swap1\n      dup2\n      swap1\n      sub\n      0x20\n      add\n      swap1\n      return\n        /* \"Contract\":437:479  mapping(address => uint256) public rewards */\n    tag_4:\n      tag_16\n      0x04\n      dup1\n      calldatasize\n      sub\n        /* \"--CODEGEN--\":15:17   */\n      0x20\n        /* \"--CODEGEN--\":10:13   */\n      dup2\n        /* \"--CODEGEN--\":7:18   */\n      lt\n        /* \"--CODEGEN--\":4:6   */\n      iszero\n      tag_20\n      jumpi\n        /* \"--CODEGEN--\":31:32   */\n      0x00\n        /* \"--CODEGEN--\":28:29   */\n      dup1\n        /* \"--CODEGEN--\":21:33   */\n      revert\n        /* \"--CODEGEN--\":4:6   */\n    tag_20:\n      pop\n        /* \"Contract\":437:479  mapping(address => uint256) public rewards */\n      calldataload\n      sub(shl(0xa0, 0x01), 0x01)\n      and\n      tag_21\n      jump\t// in\n        /* \"Contract\":1252:1810  function unstake(uint256 _amount) external {\r... */\n    tag_5:\n      tag_22\n      0x04\n      dup1\n      calldatasize\n      sub\n        /* \"--CODEGEN--\":15:17   */\n      0x20\n        /* \"--CODEGEN--\":10:13   */\n      dup2\n        /* \"--CODEGEN--\":7:18   */\n      lt\n        /* \"--CODEGEN--\":4:6   */\n      iszero\n      tag_23\n      jumpi\n        /* \"--CODEGEN--\":31:32   */\n      0x00\n        /* \"--CODEGEN--\":28:29   */\n      dup1\n        /* \"--CODEGEN--\":21:33   */\n      revert\n        /* \"--CODEGEN--\":4:6   */\n    tag_23:\n      pop\n        /* \"Contract\":1252:1810  function unstake(uint256 _amount) external {\r... */\n      calldataload\n      tag_24\n      jump\t// in\n    tag_22:\n      stop\n        /* \"Contract\":281:331  mapping(address => uint256) public depositedAmount */\n    tag_6:\n      tag_16\n      0x04\n      dup1\n      calldatasize\n      sub\n        /* \"--CODEGEN--\":15:17   */\n      0x20\n        /* \"--CODEGEN--\":10:13   */\n      dup2\n        /* \"--CODEGEN--\":7:18   */\n      lt\n        /* \"--CODEGEN--\":4:6   */\n      iszero\n      tag_26\n      jumpi\n        /* \"--CODEGEN--\":31:32   */\n      0x00\n        /* \"--CODEGEN--\":28:29   */\n      dup1\n        /* \"--CODEGEN--\":21:33   */\n      revert\n        /* \"--CODEGEN--\":4:6   */\n    tag_26:\n      pop\n        /* \"Contract\":281:331  mapping(address => uint256) public depositedAmount */\n      calldataload\n      sub(shl(0xa0, 0x01), 0x01)\n      and\n      tag_27\n      jump\t// in\n        /* \"Contract\":188:218  IUniswapV2Pair public pairFork */\n    tag_7:\n      tag_28\n      tag_29\n      jump\t// in\n    tag_28:\n      0x40\n      dup1\n      mload\n      sub(shl(0xa0, 0x01), 0x01)\n      swap1\n      swap3\n      and\n      dup3\n      mstore\n      mload\n      swap1\n      dup2\n      swap1\n      sub\n      0x20\n      add\n      swap1\n      return\n        /* \"Contract\":386:430  mapping(address => uint256) public startTime */\n    tag_8:\n      tag_16\n      0x04\n      dup1\n      calldatasize\n      sub\n        /* \"--CODEGEN--\":15:17   */\n      0x20\n        /* \"--CODEGEN--\":10:13   */\n      dup2\n        /* \"--CODEGEN--\":7:18   */\n      lt\n        /* \"--CODEGEN--\":4:6   */\n      iszero\n      tag_31\n      jumpi\n        /* \"--CODEGEN--\":31:32   */\n      0x00\n        /* \"--CODEGEN--\":28:29   */\n      dup1\n        /* \"--CODEGEN--\":21:33   */\n      revert\n        /* \"--CODEGEN--\":4:6   */\n    tag_31:\n      pop\n        /* \"Contract\":386:430  mapping(address => uint256) public startTime */\n      calldataload\n      sub(shl(0xa0, 0x01), 0x01)\n      and\n      tag_32\n      jump\t// in\n        /* \"Contract\":338:379  mapping(address => bool) public isStaking */\n    tag_9:\n      tag_33\n      0x04\n      dup1\n      calldatasize\n      sub\n        /* \"--CODEGEN--\":15:17   */\n      0x20\n        /* \"--CODEGEN--\":10:13   */\n      dup2\n        /* \"--CODEGEN--\":7:18   */\n      lt\n        /* \"--CODEGEN--\":4:6   */\n      iszero\n      tag_34\n      jumpi\n        /* \"--CODEGEN--\":31:32   */\n      0x00\n        /* \"--CODEGEN--\":28:29   */\n      dup1\n        /* \"--CODEGEN--\":21:33   */\n      revert\n        /* \"--CODEGEN--\":4:6   */\n    tag_34:\n      pop\n        /* \"Contract\":338:379  mapping(address => bool) public isStaking */\n      calldataload\n      sub(shl(0xa0, 0x01), 0x01)\n      and\n      tag_35\n      jump\t// in\n    tag_33:\n      0x40\n      dup1\n      mload\n      swap2\n      iszero\n      iszero\n      dup3\n      mstore\n      mload\n      swap1\n      dup2\n      swap1\n      sub\n      0x20\n      add\n      swap1\n      return\n        /* \"Contract\":2381:2581  function calculateYieldTime(address user) public view returns(uint256){\r... */\n    tag_10:\n      tag_16\n      0x04\n      dup1\n      calldatasize\n      sub\n        /* \"--CODEGEN--\":15:17   */\n      0x20\n        /* \"--CODEGEN--\":10:13   */\n      dup2\n        /* \"--CODEGEN--\":7:18   */\n      lt\n        /* \"--CODEGEN--\":4:6   */\n      iszero\n      tag_37\n      jumpi\n        /* \"--CODEGEN--\":31:32   */\n      0x00\n        /* \"--CODEGEN--\":28:29   */\n      dup1\n        /* \"--CODEGEN--\":21:33   */\n      revert\n        /* \"--CODEGEN--\":4:6   */\n    tag_37:\n      pop\n        /* \"Contract\":2381:2581  function calculateYieldTime(address user) public view returns(uint256){\r... */\n      calldataload\n      sub(shl(0xa0, 0x01), 0x01)\n      and\n      tag_38\n      jump\t// in\n        /* \"Contract\":674:1244  function stake(uint256 _amount) external {\r... */\n    tag_11:\n      tag_22\n      0x04\n      dup1\n      calldatasize\n      sub\n        /* \"--CODEGEN--\":15:17   */\n      0x20\n        /* \"--CODEGEN--\":10:13   */\n      dup2\n        /* \"--CODEGEN--\":7:18   */\n      lt\n        /* \"--CODEGEN--\":4:6   */\n      iszero\n      tag_40\n      jumpi\n        /* \"--CODEGEN--\":31:32   */\n      0x00\n        /* \"--CODEGEN--\":28:29   */\n      dup1\n        /* \"--CODEGEN--\":21:33   */\n      revert\n        /* \"--CODEGEN--\":4:6   */\n    tag_40:\n      pop\n        /* \"Contract\":674:1244  function stake(uint256 _amount) external {\r... */\n      calldataload\n      tag_41\n      jump\t// in\n        /* \"Contract\":1818:2373  function withdrawRewards() public {\r... */\n    tag_12:\n      tag_22\n      tag_43\n      jump\t// in\n        /* \"Contract\":225:247  BabyToy public babyToy */\n    tag_13:\n      tag_28\n      tag_45\n      jump\t// in\n        /* \"Contract\":254:274  address public admin */\n    tag_14:\n      tag_28\n      tag_47\n      jump\t// in\n        /* \"Contract\":2589:2911  function calculateYieldTotal(address user) public view returns(uint256) {\r... */\n    tag_18:\n        /* \"Contract\":2652:2659  uint256 */\n      0x00\n        /* \"Contract\":2672:2684  uint256 time */\n      dup1\n        /* \"Contract\":2687:2723  calculateYieldTime(user).mul(10**18) */\n      tag_49\n        /* \"Contract\":2716:2722  10**18 */\n      0x0de0b6b3a7640000\n        /* \"Contract\":2687:2711  calculateYieldTime(user) */\n      tag_50\n        /* \"Contract\":2706:2710  user */\n      dup6\n        /* \"Contract\":2687:2705  calculateYieldTime */\n      tag_38\n        /* \"Contract\":2687:2711  calculateYieldTime(user) */\n      jump\t// in\n    tag_50:\n        /* \"Contract\":2687:2715  calculateYieldTime(user).mul */\n      swap1\n        /* \"Contract\":2687:2723  calculateYieldTime(user).mul(10**18) */\n      0xffffffff\n        /* \"Contract\":2687:2715  calculateYieldTime(user).mul */\n      tag_51\n        /* \"Contract\":2687:2723  calculateYieldTime(user).mul(10**18) */\n      and\n      jump\t// in\n    tag_49:\n        /* \"Contract\":2672:2723  uint256 time = calculateYieldTime(user).mul(10**18) */\n      swap1\n      pop\n        /* \"Contract\":2749:2754  86400 */\n      0x015180\n        /* \"Contract\":2734:2746  uint256 rate */\n      0x00\n        /* \"Contract\":2784:2798  time.div(rate) */\n      tag_52\n        /* \"Contract\":2672:2723  uint256 time = calculateYieldTime(user).mul(10**18) */\n      dup4\n        /* \"Contract\":2749:2754  86400 */\n      dup4\n        /* \"Contract\":2784:2798  time.div(rate) */\n      0xffffffff\n        /* \"Contract\":2784:2792  time.div */\n      tag_53\n        /* \"Contract\":2784:2798  time.div(rate) */\n      and\n      jump\t// in\n    tag_52:\n      sub(shl(0xa0, 0x01), 0x01)\n        /* \"Contract\":2829:2850  depositedAmount[user] */\n      dup7\n      and\n        /* \"Contract\":2809:2825  uint256 rawYield */\n      0x00\n        /* \"Contract\":2829:2850  depositedAmount[user] */\n      swap1\n      dup2\n      mstore\n        /* \"Contract\":2829:2844  depositedAmount */\n      0x03\n        /* \"Contract\":2829:2850  depositedAmount[user] */\n      0x20\n      mstore\n      0x40\n      dup2\n      keccak256\n      sload\n        /* \"Contract\":2765:2798  uint256 timeRate = time.div(rate) */\n      swap2\n      swap3\n      pop\n        /* \"Contract\":2809:2825  uint256 rawYield */\n      swap1\n        /* \"Contract\":2828:2877  (depositedAmount[user].mul(timeRate)).div(10**18) */\n      tag_54\n      swap1\n        /* \"Contract\":2870:2876  10**18 */\n      0x0de0b6b3a7640000\n      swap1\n        /* \"Contract\":2829:2864  depositedAmount[user].mul(timeRate) */\n      tag_55\n      swap1\n        /* \"Contract\":2765:2798  uint256 timeRate = time.div(rate) */\n      dup6\n        /* \"Contract\":2829:2864  depositedAmount[user].mul(timeRate) */\n      0xffffffff\n        /* \"Contract\":2829:2854  depositedAmount[user].mul */\n      tag_51\n        /* \"Contract\":2829:2864  depositedAmount[user].mul(timeRate) */\n      and\n      jump\t// in\n    tag_55:\n        /* \"Contract\":2828:2869  (depositedAmount[user].mul(timeRate)).div */\n      swap1\n        /* \"Contract\":2828:2877  (depositedAmount[user].mul(timeRate)).div(10**18) */\n      0xffffffff\n        /* \"Contract\":2828:2869  (depositedAmount[user].mul(timeRate)).div */\n      tag_53\n        /* \"Contract\":2828:2877  (depositedAmount[user].mul(timeRate)).div(10**18) */\n      and\n      jump\t// in\n    tag_54:\n        /* \"Contract\":2809:2877  uint256 rawYield = (depositedAmount[user].mul(timeRate)).div(10**18) */\n      swap7\n        /* \"Contract\":2589:2911  function calculateYieldTotal(address user) public view returns(uint256) {\r... */\n      swap6\n      pop\n      pop\n      pop\n      pop\n      pop\n      pop\n      jump\t// out\n        /* \"Contract\":437:479  mapping(address => uint256) public rewards */\n    tag_21:\n      mstore(0x20, 0x06)\n      0x00\n      swap1\n      dup2\n      mstore\n      0x40\n      swap1\n      keccak256\n      sload\n      dup2\n      jump\t// out\n        /* \"Contract\":1252:1810  function unstake(uint256 _amount) external {\r... */\n    tag_24:\n        /* \"Contract\":1330:1340  msg.sender */\n      caller\n        /* \"Contract\":1314:1341  depositedAmount[msg.sender] */\n      0x00\n      swap1\n      dup2\n      mstore\n        /* \"Contract\":1314:1329  depositedAmount */\n      0x03\n        /* \"Contract\":1314:1341  depositedAmount[msg.sender] */\n      0x20\n      mstore\n      0x40\n      swap1\n      keccak256\n      sload\n        /* \"Contract\":1306:1373  require(depositedAmount[msg.sender] != 0, \"Nothing to unstake ...\") */\n      tag_57\n      jumpi\n      0x40\n      dup1\n      mload\n      shl(0xe5, 0x461bcd)\n      dup2\n      mstore\n      0x20\n      0x04\n      dup3\n      add\n      mstore\n      0x16\n      0x24\n      dup3\n      add\n      mstore\n      shl(0x51, 0x2737ba3434b733903a37903ab739ba30b5b290171717)\n      0x44\n      dup3\n      add\n      mstore\n      swap1\n      mload\n      swap1\n      dup2\n      swap1\n      sub\n      0x64\n      add\n      swap1\n      revert\n    tag_57:\n        /* \"Contract\":1419:1429  msg.sender */\n      caller\n        /* \"Contract\":1403:1430  depositedAmount[msg.sender] */\n      0x00\n      swap1\n      dup2\n      mstore\n        /* \"Contract\":1403:1418  depositedAmount */\n      0x03\n        /* \"Contract\":1403:1430  depositedAmount[msg.sender] */\n      0x20\n      mstore\n      0x40\n      swap1\n      keccak256\n      sload\n        /* \"Contract\":1392:1430  _amount <= depositedAmount[msg.sender] */\n      dup2\n      gt\n      iszero\n        /* \"Contract\":1384:1460  require(_amount <= depositedAmount[msg.sender], \"Withdraw amount too high!\") */\n      tag_58\n      jumpi\n      0x40\n      dup1\n      mload\n      shl(0xe5, 0x461bcd)\n      dup2\n      mstore\n      0x20\n      0x04\n      dup3\n      add\n      mstore\n      0x19\n      0x24\n      dup3\n      add\n      mstore\n      0x576974686472617720616d6f756e7420746f6f20686967682100000000000000\n      0x44\n      dup3\n      add\n      mstore\n      swap1\n      mload\n      swap1\n      dup2\n      swap1\n      sub\n      0x64\n      add\n      swap1\n      revert\n    tag_58:\n        /* \"Contract\":1471:1494  uint256 balanceTransfer */\n      0x00\n      swap1\n        /* \"Contract\":1537:1554  withdrawRewards() */\n      tag_59\n        /* \"Contract\":1537:1552  withdrawRewards */\n      tag_43\n        /* \"Contract\":1537:1554  withdrawRewards() */\n      jump\t// in\n    tag_59:\n        /* \"Contract\":1565:1573  pairFork */\n      0x00\n      dup1\n      sload\n        /* \"Contract\":1565:1611  pairFork.transfer(msg.sender, balanceTransfer) */\n      0x40\n      dup1\n      mload\n      shl(0xe0, 0xa9059cbb)\n      dup2\n      mstore\n        /* \"Contract\":1583:1593  msg.sender */\n      caller\n        /* \"Contract\":1565:1611  pairFork.transfer(msg.sender, balanceTransfer) */\n      0x04\n      dup3\n      add\n      mstore\n      0x24\n      dup2\n      add\n      dup6\n      swap1\n      mstore\n      swap1\n      mload\n      sub(shl(0xa0, 0x01), 0x01)\n        /* \"Contract\":1565:1573  pairFork */\n      swap1\n      swap3\n      and\n      swap3\n        /* \"Contract\":1565:1582  pairFork.transfer */\n      0xa9059cbb\n      swap3\n        /* \"Contract\":1565:1611  pairFork.transfer(msg.sender, balanceTransfer) */\n      0x44\n      dup1\n      dup5\n      add\n      swap4\n      0x20\n      swap4\n      swap1\n      dup4\n      swap1\n      sub\n      swap1\n      swap2\n      add\n      swap1\n      dup3\n      swap1\n        /* \"Contract\":1565:1573  pairFork */\n      dup8\n        /* \"Contract\":1565:1611  pairFork.transfer(msg.sender, balanceTransfer) */\n      dup1\n      extcodesize\n      iszero\n        /* \"--CODEGEN--\":2:4   */\n      dup1\n      iszero\n      tag_60\n      jumpi\n        /* \"--CODEGEN--\":27:28   */\n      0x00\n        /* \"--CODEGEN--\":24:25   */\n      dup1\n        /* \"--CODEGEN--\":17:29   */\n      revert\n        /* \"--CODEGEN--\":2:4   */\n    tag_60:\n        /* \"Contract\":1565:1611  pairFork.transfer(msg.sender, balanceTransfer) */\n      pop\n      gas\n      call\n      iszero\n        /* \"--CODEGEN--\":8:17   */\n      dup1\n        /* \"--CODEGEN--\":5:7   */\n      iszero\n      tag_62\n      jumpi\n        /* \"--CODEGEN--\":45:61   */\n      returndatasize\n        /* \"--CODEGEN--\":42:43   */\n      0x00\n        /* \"--CODEGEN--\":39:40   */\n      dup1\n        /* \"--CODEGEN--\":24:62   */\n      returndatacopy\n        /* \"--CODEGEN--\":77:93   */\n      returndatasize\n        /* \"--CODEGEN--\":74:75   */\n      0x00\n        /* \"--CODEGEN--\":67:94   */\n      revert\n        /* \"--CODEGEN--\":5:7   */\n    tag_62:\n        /* \"Contract\":1565:1611  pairFork.transfer(msg.sender, balanceTransfer) */\n      pop\n      pop\n      pop\n      pop\n      mload(0x40)\n      returndatasize\n        /* \"--CODEGEN--\":15:17   */\n      0x20\n        /* \"--CODEGEN--\":10:13   */\n      dup2\n        /* \"--CODEGEN--\":7:18   */\n      lt\n        /* \"--CODEGEN--\":4:6   */\n      iszero\n      tag_63\n      jumpi\n        /* \"--CODEGEN--\":31:32   */\n      0x00\n        /* \"--CODEGEN--\":28:29   */\n      dup1\n        /* \"--CODEGEN--\":21:33   */\n      revert\n        /* \"--CODEGEN--\":4:6   */\n    tag_63:\n      pop\n      pop\n        /* \"Contract\":1668:1678  msg.sender */\n      caller\n        /* \"Contract\":1652:1679  depositedAmount[msg.sender] */\n      0x00\n      swap1\n      dup2\n      mstore\n        /* \"Contract\":1652:1667  depositedAmount */\n      0x03\n        /* \"Contract\":1565:1611  pairFork.transfer(msg.sender, balanceTransfer) */\n      0x20\n        /* \"Contract\":1652:1679  depositedAmount[msg.sender] */\n      mstore\n      0x40\n      swap1\n      keccak256\n      sload\n        /* \"Contract\":1652:1700  depositedAmount[msg.sender].sub(balanceTransfer) */\n      tag_64\n      swap1\n        /* \"Contract\":1684:1699  balanceTransfer */\n      dup3\n        /* \"Contract\":1652:1700  depositedAmount[msg.sender].sub(balanceTransfer) */\n      0xffffffff\n        /* \"Contract\":1652:1683  depositedAmount[msg.sender].sub */\n      tag_65\n        /* \"Contract\":1652:1700  depositedAmount[msg.sender].sub(balanceTransfer) */\n      and\n      jump\t// in\n    tag_64:\n        /* \"Contract\":1638:1648  msg.sender */\n      caller\n        /* \"Contract\":1622:1649  depositedAmount[msg.sender] */\n      0x00\n      swap1\n      dup2\n      mstore\n        /* \"Contract\":1622:1637  depositedAmount */\n      0x03\n        /* \"Contract\":1622:1649  depositedAmount[msg.sender] */\n      0x20\n      mstore\n      0x40\n      swap1\n      keccak256\n        /* \"Contract\":1622:1700  depositedAmount[msg.sender] = depositedAmount[msg.sender].sub(balanceTransfer) */\n      dup2\n      swap1\n      sstore\n        /* \"Contract\":1711:1803  if(depositedAmount[msg.sender] == 0){\r... */\n      tag_66\n      jumpi\n        /* \"Contract\":1772:1782  msg.sender */\n      caller\n        /* \"Contract\":1786:1791  false */\n      0x00\n        /* \"Contract\":1762:1783  isStaking[msg.sender] */\n      swap1\n      dup2\n      mstore\n        /* \"Contract\":1762:1771  isStaking */\n      0x04\n        /* \"Contract\":1762:1783  isStaking[msg.sender] */\n      0x20\n      mstore\n      0x40\n      swap1\n      keccak256\n        /* \"Contract\":1762:1791  isStaking[msg.sender] = false */\n      dup1\n      sload\n      not(0xff)\n      and\n      swap1\n      sstore\n        /* \"Contract\":1711:1803  if(depositedAmount[msg.sender] == 0){\r... */\n    tag_66:\n        /* \"Contract\":1252:1810  function unstake(uint256 _amount) external {\r... */\n      pop\n      pop\n      jump\t// out\n        /* \"Contract\":281:331  mapping(address => uint256) public depositedAmount */\n    tag_27:\n      mstore(0x20, 0x03)\n      0x00\n      swap1\n      dup2\n      mstore\n      0x40\n      swap1\n      keccak256\n      sload\n      dup2\n      jump\t// out\n        /* \"Contract\":188:218  IUniswapV2Pair public pairFork */\n    tag_29:\n      and(sub(shl(0xa0, 0x01), 0x01), sload(0x00))\n      dup2\n      jump\t// out\n        /* \"Contract\":386:430  mapping(address => uint256) public startTime */\n    tag_32:\n      mstore(0x20, 0x05)\n      0x00\n      swap1\n      dup2\n      mstore\n      0x40\n      swap1\n      keccak256\n      sload\n      dup2\n      jump\t// out\n        /* \"Contract\":338:379  mapping(address => bool) public isStaking */\n    tag_35:\n      mstore(0x20, 0x04)\n      0x00\n      swap1\n      dup2\n      mstore\n      0x40\n      swap1\n      keccak256\n      sload\n      0xff\n      and\n      dup2\n      jump\t// out\n        /* \"Contract\":2381:2581  function calculateYieldTime(address user) public view returns(uint256){\r... */\n    tag_38:\n      sub(shl(0xa0, 0x01), 0x01)\n        /* \"Contract\":2530:2545  startTime[user] */\n      dup2\n      and\n        /* \"Contract\":2443:2450  uint256 */\n      0x00\n        /* \"Contract\":2530:2545  startTime[user] */\n      swap1\n      dup2\n      mstore\n        /* \"Contract\":2530:2539  startTime */\n      0x05\n        /* \"Contract\":2530:2545  startTime[user] */\n      0x20\n      mstore\n      0x40\n      dup2\n      keccak256\n      sload\n        /* \"Contract\":2476:2491  block.timestamp */\n      timestamp\n      swap1\n        /* \"Contract\":2443:2450  uint256 */\n      dup3\n      swap1\n        /* \"Contract\":2522:2546  end.sub(startTime[user]) */\n      tag_68\n      swap1\n        /* \"Contract\":2476:2491  block.timestamp */\n      dup4\n      swap1\n        /* \"Contract\":2522:2546  end.sub(startTime[user]) */\n      0xffffffff\n        /* \"Contract\":2522:2529  end.sub */\n      tag_65\n        /* \"Contract\":2522:2546  end.sub(startTime[user]) */\n      and\n      jump\t// in\n    tag_68:\n        /* \"Contract\":2502:2546  uint256 totalTime = end.sub(startTime[user]) */\n      swap5\n        /* \"Contract\":2381:2581  function calculateYieldTime(address user) public view returns(uint256){\r... */\n      swap4\n      pop\n      pop\n      pop\n      pop\n      jump\t// out\n        /* \"Contract\":674:1244  function stake(uint256 _amount) external {\r... */\n    tag_41:\n        /* \"Contract\":741:751  msg.sender */\n      caller\n        /* \"Contract\":731:752  isStaking[msg.sender] */\n      0x00\n      swap1\n      dup2\n      mstore\n        /* \"Contract\":731:740  isStaking */\n      0x04\n        /* \"Contract\":731:752  isStaking[msg.sender] */\n      0x20\n      mstore\n      0x40\n      swap1\n      keccak256\n      sload\n      0xff\n      and\n        /* \"Contract\":731:760  isStaking[msg.sender] == true */\n      iszero\n      iszero\n        /* \"Contract\":731:752  isStaking[msg.sender] */\n      0x01\n        /* \"Contract\":731:760  isStaking[msg.sender] == true */\n      eq\n        /* \"Contract\":728:952  if(isStaking[msg.sender] == true){\r... */\n      iszero\n      tag_70\n      jumpi\n        /* \"Contract\":776:794  uint256 toTransfer */\n      0x00\n        /* \"Contract\":797:828  calculateYieldTotal(msg.sender) */\n      tag_71\n        /* \"Contract\":817:827  msg.sender */\n      caller\n        /* \"Contract\":797:816  calculateYieldTotal */\n      tag_18\n        /* \"Contract\":797:828  calculateYieldTotal(msg.sender) */\n      jump\t// in\n    tag_71:\n        /* \"Contract\":851:861  msg.sender */\n      caller\n        /* \"Contract\":843:862  rewards[msg.sender] */\n      0x00\n      swap1\n      dup2\n      mstore\n        /* \"Contract\":843:850  rewards */\n      0x06\n        /* \"Contract\":843:862  rewards[msg.sender] */\n      0x20\n      mstore\n      0x40\n      swap1\n      keccak256\n      sload\n        /* \"Contract\":776:828  uint256 toTransfer = calculateYieldTotal(msg.sender) */\n      swap1\n      swap2\n      pop\n        /* \"Contract\":843:867  rewards[msg.sender] == 0 */\n      iszero\n        /* \"Contract\":843:940  rewards[msg.sender] == 0 ? rewards[msg.sender] = toTransfer : rewards[msg.sender].add(toTransfer) */\n      tag_72\n      jumpi\n        /* \"Contract\":913:923  msg.sender */\n      caller\n        /* \"Contract\":905:924  rewards[msg.sender] */\n      0x00\n      swap1\n      dup2\n      mstore\n        /* \"Contract\":905:912  rewards */\n      0x06\n        /* \"Contract\":905:924  rewards[msg.sender] */\n      0x20\n      mstore\n      0x40\n      swap1\n      keccak256\n      sload\n        /* \"Contract\":905:940  rewards[msg.sender].add(toTransfer) */\n      tag_73\n      swap1\n        /* \"Contract\":929:939  toTransfer */\n      dup3\n        /* \"Contract\":905:940  rewards[msg.sender].add(toTransfer) */\n      0xffffffff\n        /* \"Contract\":905:928  rewards[msg.sender].add */\n      tag_74\n        /* \"Contract\":905:940  rewards[msg.sender].add(toTransfer) */\n      and\n      jump\t// in\n    tag_73:\n        /* \"Contract\":843:940  rewards[msg.sender] == 0 ? rewards[msg.sender] = toTransfer : rewards[msg.sender].add(toTransfer) */\n      jump(tag_75)\n    tag_72:\n        /* \"Contract\":878:888  msg.sender */\n      caller\n        /* \"Contract\":870:889  rewards[msg.sender] */\n      0x00\n      swap1\n      dup2\n      mstore\n        /* \"Contract\":870:877  rewards */\n      0x06\n        /* \"Contract\":870:889  rewards[msg.sender] */\n      0x20\n      mstore\n      0x40\n      swap1\n      keccak256\n        /* \"Contract\":870:902  rewards[msg.sender] = toTransfer */\n      dup2\n      swap1\n      sstore\n        /* \"Contract\":892:902  toTransfer */\n      dup1\n        /* \"Contract\":843:940  rewards[msg.sender] == 0 ? rewards[msg.sender] = toTransfer : rewards[msg.sender].add(toTransfer) */\n    tag_75:\n      pop\n        /* \"Contract\":728:952  if(isStaking[msg.sender] == true){\r... */\n      pop\n    tag_70:\n        /* \"Contract\":964:972  pairFork */\n      0x00\n      dup1\n      sload\n        /* \"Contract\":964:1021  pairFork.transferFrom(msg.sender, address(this), _amount) */\n      0x40\n      dup1\n      mload\n      shl(0xe0, 0x23b872dd)\n      dup2\n      mstore\n        /* \"Contract\":986:996  msg.sender */\n      caller\n        /* \"Contract\":964:1021  pairFork.transferFrom(msg.sender, address(this), _amount) */\n      0x04\n      dup3\n      add\n      mstore\n        /* \"Contract\":1006:1010  this */\n      address\n        /* \"Contract\":964:1021  pairFork.transferFrom(msg.sender, address(this), _amount) */\n      0x24\n      dup3\n      add\n      mstore\n      0x44\n      dup2\n      add\n      dup6\n      swap1\n      mstore\n      swap1\n      mload\n      sub(shl(0xa0, 0x01), 0x01)\n        /* \"Contract\":964:972  pairFork */\n      swap1\n      swap3\n      and\n      swap3\n        /* \"Contract\":964:985  pairFork.transferFrom */\n      0x23b872dd\n      swap3\n        /* \"Contract\":964:1021  pairFork.transferFrom(msg.sender, address(this), _amount) */\n      0x64\n      dup1\n      dup5\n      add\n      swap4\n      0x20\n      swap4\n      swap1\n      dup4\n      swap1\n      sub\n      swap1\n      swap2\n      add\n      swap1\n      dup3\n      swap1\n        /* \"Contract\":964:972  pairFork */\n      dup8\n        /* \"Contract\":964:1021  pairFork.transferFrom(msg.sender, address(this), _amount) */\n      dup1\n      extcodesize\n      iszero\n        /* \"--CODEGEN--\":2:4   */\n      dup1\n      iszero\n      tag_76\n      jumpi\n        /* \"--CODEGEN--\":27:28   */\n      0x00\n        /* \"--CODEGEN--\":24:25   */\n      dup1\n        /* \"--CODEGEN--\":17:29   */\n      revert\n        /* \"--CODEGEN--\":2:4   */\n    tag_76:\n        /* \"Contract\":964:1021  pairFork.transferFrom(msg.sender, address(this), _amount) */\n      pop\n      gas\n      call\n      iszero\n        /* \"--CODEGEN--\":8:17   */\n      dup1\n        /* \"--CODEGEN--\":5:7   */\n      iszero\n      tag_78\n      jumpi\n        /* \"--CODEGEN--\":45:61   */\n      returndatasize\n        /* \"--CODEGEN--\":42:43   */\n      0x00\n        /* \"--CODEGEN--\":39:40   */\n      dup1\n        /* \"--CODEGEN--\":24:62   */\n      returndatacopy\n        /* \"--CODEGEN--\":77:93   */\n      returndatasize\n        /* \"--CODEGEN--\":74:75   */\n      0x00\n        /* \"--CODEGEN--\":67:94   */\n      revert\n        /* \"--CODEGEN--\":5:7   */\n    tag_78:\n        /* \"Contract\":964:1021  pairFork.transferFrom(msg.sender, address(this), _amount) */\n      pop\n      pop\n      pop\n      pop\n      mload(0x40)\n      returndatasize\n        /* \"--CODEGEN--\":15:17   */\n      0x20\n        /* \"--CODEGEN--\":10:13   */\n      dup2\n        /* \"--CODEGEN--\":7:18   */\n      lt\n        /* \"--CODEGEN--\":4:6   */\n      iszero\n      tag_79\n      jumpi\n        /* \"--CODEGEN--\":31:32   */\n      0x00\n        /* \"--CODEGEN--\":28:29   */\n      dup1\n        /* \"--CODEGEN--\":21:33   */\n      revert\n        /* \"--CODEGEN--\":4:6   */\n    tag_79:\n      pop\n      pop\n        /* \"Contract\":1048:1058  msg.sender */\n      caller\n        /* \"Contract\":1032:1059  depositedAmount[msg.sender] */\n      0x00\n      swap1\n      dup2\n      mstore\n        /* \"Contract\":1032:1047  depositedAmount */\n      0x03\n        /* \"Contract\":964:1021  pairFork.transferFrom(msg.sender, address(this), _amount) */\n      0x20\n        /* \"Contract\":1032:1059  depositedAmount[msg.sender] */\n      mstore\n      0x40\n      swap1\n      keccak256\n      sload\n        /* \"Contract\":1032:1064  depositedAmount[msg.sender] == 0 */\n      iszero\n        /* \"Contract\":1032:1147  depositedAmount[msg.sender] == 0 ? depositedAmount[msg.sender] = _amount : depositedAmount[msg.sender].add(_amount) */\n      tag_80\n      jumpi\n        /* \"Contract\":1123:1133  msg.sender */\n      caller\n        /* \"Contract\":1107:1134  depositedAmount[msg.sender] */\n      0x00\n      swap1\n      dup2\n      mstore\n        /* \"Contract\":1107:1122  depositedAmount */\n      0x03\n        /* \"Contract\":1107:1134  depositedAmount[msg.sender] */\n      0x20\n      mstore\n      0x40\n      swap1\n      keccak256\n      sload\n        /* \"Contract\":1107:1147  depositedAmount[msg.sender].add(_amount) */\n      tag_81\n      swap1\n        /* \"Contract\":1139:1146  _amount */\n      dup3\n        /* \"Contract\":1107:1147  depositedAmount[msg.sender].add(_amount) */\n      0xffffffff\n        /* \"Contract\":1107:1138  depositedAmount[msg.sender].add */\n      tag_74\n        /* \"Contract\":1107:1147  depositedAmount[msg.sender].add(_amount) */\n      and\n      jump\t// in\n    tag_81:\n        /* \"Contract\":1032:1147  depositedAmount[msg.sender] == 0 ? depositedAmount[msg.sender] = _amount : depositedAmount[msg.sender].add(_amount) */\n      jump(tag_82)\n    tag_80:\n        /* \"Contract\":1083:1093  msg.sender */\n      caller\n        /* \"Contract\":1067:1094  depositedAmount[msg.sender] */\n      0x00\n      swap1\n      dup2\n      mstore\n        /* \"Contract\":1067:1082  depositedAmount */\n      0x03\n        /* \"Contract\":1067:1094  depositedAmount[msg.sender] */\n      0x20\n      mstore\n      0x40\n      swap1\n      keccak256\n        /* \"Contract\":1067:1104  depositedAmount[msg.sender] = _amount */\n      dup2\n      swap1\n      sstore\n        /* \"Contract\":1097:1104  _amount */\n      dup1\n        /* \"Contract\":1032:1147  depositedAmount[msg.sender] == 0 ? depositedAmount[msg.sender] = _amount : depositedAmount[msg.sender].add(_amount) */\n    tag_82:\n      pop\n      pop\n        /* \"Contract\":1168:1178  msg.sender */\n      caller\n        /* \"Contract\":1158:1179  startTime[msg.sender] */\n      0x00\n      swap1\n      dup2\n      mstore\n        /* \"Contract\":1158:1167  startTime */\n      0x05\n        /* \"Contract\":1158:1179  startTime[msg.sender] */\n      0x20\n      swap1\n      dup2\n      mstore\n      0x40\n      dup1\n      dup4\n      keccak256\n        /* \"Contract\":1182:1197  block.timestamp */\n      timestamp\n        /* \"Contract\":1158:1197  startTime[msg.sender] = block.timestamp */\n      swap1\n      sstore\n        /* \"Contract\":1208:1217  isStaking */\n      0x04\n        /* \"Contract\":1208:1229  isStaking[msg.sender] */\n      swap1\n      swap2\n      mstore\n      swap1\n      keccak256\n        /* \"Contract\":1208:1236  isStaking[msg.sender] = true */\n      dup1\n      sload\n      not(0xff)\n      and\n        /* \"Contract\":1232:1236  true */\n      0x01\n        /* \"Contract\":1208:1236  isStaking[msg.sender] = true */\n      or\n      swap1\n      sstore\n        /* \"Contract\":674:1244  function stake(uint256 _amount) external {\r... */\n      jump\t// out\n        /* \"Contract\":1818:2373  function withdrawRewards() public {\r... */\n    tag_43:\n        /* \"Contract\":1863:1881  uint256 toTransfer */\n      0x00\n        /* \"Contract\":1884:1915  calculateYieldTotal(msg.sender) */\n      tag_84\n        /* \"Contract\":1904:1914  msg.sender */\n      caller\n        /* \"Contract\":1884:1903  calculateYieldTotal */\n      tag_18\n        /* \"Contract\":1884:1915  calculateYieldTotal(msg.sender) */\n      jump\t// in\n    tag_84:\n        /* \"Contract\":1863:1915  uint256 toTransfer = calculateYieldTotal(msg.sender) */\n      swap1\n      pop\n        /* \"Contract\":1963:1964  0 */\n      0x00\n        /* \"Contract\":1950:1960  toTransfer */\n      dup2\n        /* \"Contract\":1950:1964  toTransfer > 0 */\n      gt\n        /* \"Contract\":1950:2004  toTransfer > 0 ||\r... */\n      dup1\n      tag_85\n      jumpi\n      pop\n        /* \"Contract\":1989:1999  msg.sender */\n      caller\n        /* \"Contract\":2003:2004  0 */\n      0x00\n        /* \"Contract\":1981:2000  rewards[msg.sender] */\n      swap1\n      dup2\n      mstore\n        /* \"Contract\":1981:1988  rewards */\n      0x06\n        /* \"Contract\":1981:2000  rewards[msg.sender] */\n      0x20\n      mstore\n      0x40\n      swap1\n      keccak256\n      sload\n        /* \"Contract\":1981:2004  rewards[msg.sender] > 0 */\n      iszero\n      iszero\n        /* \"Contract\":1950:2004  toTransfer > 0 ||\r... */\n    tag_85:\n        /* \"Contract\":1928:2055  require(\r... */\n      tag_86\n      jumpi\n      0x40\n      dup1\n      mload\n      shl(0xe5, 0x461bcd)\n      dup2\n      mstore\n      0x20\n      0x04\n      dup3\n      add\n      mstore\n      0x13\n      0x24\n      dup3\n      add\n      mstore\n      shl(0x68, 0x4e6f7468696e6720746f207769746864726177)\n      0x44\n      dup3\n      add\n      mstore\n      swap1\n      mload\n      swap1\n      dup2\n      swap1\n      sub\n      0x64\n      add\n      swap1\n      revert\n    tag_86:\n        /* \"Contract\":2091:2101  msg.sender */\n      caller\n        /* \"Contract\":2083:2102  rewards[msg.sender] */\n      0x00\n      swap1\n      dup2\n      mstore\n        /* \"Contract\":2083:2090  rewards */\n      0x06\n        /* \"Contract\":2083:2102  rewards[msg.sender] */\n      0x20\n      mstore\n      0x40\n      swap1\n      keccak256\n      sload\n        /* \"Contract\":2083:2107  rewards[msg.sender] != 0 */\n      iszero\n        /* \"Contract\":2080:2267  if(rewards[msg.sender] != 0){\r... */\n      tag_87\n      jumpi\n        /* \"Contract\":2152:2162  msg.sender */\n      caller\n        /* \"Contract\":2123:2141  uint256 oldBalance */\n      0x00\n        /* \"Contract\":2144:2163  rewards[msg.sender] */\n      swap1\n      dup2\n      mstore\n        /* \"Contract\":2144:2151  rewards */\n      0x06\n        /* \"Contract\":2144:2163  rewards[msg.sender] */\n      0x20\n      mstore\n      0x40\n      dup2\n      keccak256\n      dup1\n      sload\n        /* \"Contract\":2178:2201  rewards[msg.sender] = 0 */\n      swap2\n      swap1\n      sstore\n        /* \"Contract\":2229:2255  toTransfer.add(oldBalance) */\n      tag_88\n        /* \"Contract\":2229:2239  toTransfer */\n      dup3\n        /* \"Contract\":2144:2163  rewards[msg.sender] */\n      dup3\n        /* \"Contract\":2229:2255  toTransfer.add(oldBalance) */\n      0xffffffff\n        /* \"Contract\":2229:2243  toTransfer.add */\n      tag_74\n        /* \"Contract\":2229:2255  toTransfer.add(oldBalance) */\n      and\n      jump\t// in\n    tag_88:\n        /* \"Contract\":2216:2255  toTransfer = toTransfer.add(oldBalance) */\n      swap2\n      pop\n        /* \"Contract\":2080:2267  if(rewards[msg.sender] != 0){\r... */\n      pop\n    tag_87:\n        /* \"Contract\":2289:2299  msg.sender */\n      caller\n        /* \"Contract\":2279:2300  startTime[msg.sender] */\n      0x00\n      dup2\n      dup2\n      mstore\n        /* \"Contract\":2279:2288  startTime */\n      0x05\n        /* \"Contract\":2279:2300  startTime[msg.sender] */\n      0x20\n      mstore\n      0x40\n      dup1\n      dup3\n      keccak256\n        /* \"Contract\":2303:2318  block.timestamp */\n      timestamp\n        /* \"Contract\":2279:2318  startTime[msg.sender] = block.timestamp */\n      swap1\n      sstore\n        /* \"Contract\":2329:2336  babyToy */\n      sload(0x01)\n        /* \"Contract\":2329:2365  babyToy.mint(msg.sender, toTransfer) */\n      dup2\n      mload\n      shl(0xe0, 0x40c10f19)\n      dup2\n      mstore\n      0x04\n      dup2\n      add\n      swap5\n      swap1\n      swap5\n      mstore\n      0x24\n      dup5\n      add\n      dup6\n      swap1\n      mstore\n      swap1\n      mload\n      sub(shl(0xa0, 0x01), 0x01)\n        /* \"Contract\":2329:2336  babyToy */\n      swap1\n      swap2\n      and\n      swap3\n        /* \"Contract\":2329:2341  babyToy.mint */\n      0x40c10f19\n      swap3\n        /* \"Contract\":2329:2365  babyToy.mint(msg.sender, toTransfer) */\n      0x44\n      dup1\n      dup4\n      add\n      swap4\n        /* \"Contract\":2279:2300  startTime[msg.sender] */\n      swap2\n      swap3\n        /* \"Contract\":2329:2365  babyToy.mint(msg.sender, toTransfer) */\n      dup3\n      swap1\n      sub\n      add\n      dup2\n        /* \"Contract\":2279:2300  startTime[msg.sender] */\n      dup4\n        /* \"Contract\":2329:2336  babyToy */\n      dup8\n        /* \"Contract\":2329:2365  babyToy.mint(msg.sender, toTransfer) */\n      dup1\n      extcodesize\n      iszero\n        /* \"--CODEGEN--\":2:4   */\n      dup1\n      iszero\n      tag_89\n      jumpi\n        /* \"--CODEGEN--\":27:28   */\n      0x00\n        /* \"--CODEGEN--\":24:25   */\n      dup1\n        /* \"--CODEGEN--\":17:29   */\n      revert\n        /* \"--CODEGEN--\":2:4   */\n    tag_89:\n        /* \"Contract\":2329:2365  babyToy.mint(msg.sender, toTransfer) */\n      pop\n      gas\n      call\n      iszero\n        /* \"--CODEGEN--\":8:17   */\n      dup1\n        /* \"--CODEGEN--\":5:7   */\n      iszero\n      tag_91\n      jumpi\n        /* \"--CODEGEN--\":45:61   */\n      returndatasize\n        /* \"--CODEGEN--\":42:43   */\n      0x00\n        /* \"--CODEGEN--\":39:40   */\n      dup1\n        /* \"--CODEGEN--\":24:62   */\n      returndatacopy\n        /* \"--CODEGEN--\":77:93   */\n      returndatasize\n        /* \"--CODEGEN--\":74:75   */\n      0x00\n        /* \"--CODEGEN--\":67:94   */\n      revert\n        /* \"--CODEGEN--\":5:7   */\n    tag_91:\n        /* \"Contract\":2329:2365  babyToy.mint(msg.sender, toTransfer) */\n      pop\n      pop\n      pop\n      pop\n        /* \"Contract\":1818:2373  function withdrawRewards() public {\r... */\n      pop\n      jump\t// out\n        /* \"Contract\":225:247  BabyToy public babyToy */\n    tag_45:\n      and(sub(shl(0xa0, 0x01), 0x01), sload(0x01))\n      dup2\n      jump\t// out\n        /* \"Contract\":254:274  address public admin */\n    tag_47:\n      and(sub(shl(0xa0, 0x01), 0x01), sload(0x02))\n      dup2\n      jump\t// out\n        /* \"@openzeppelin/contracts/math/SafeMath.sol\":2180:2639   */\n    tag_51:\n        /* \"@openzeppelin/contracts/math/SafeMath.sol\":2238:2245   */\n      0x00\n        /* \"@openzeppelin/contracts/math/SafeMath.sol\":2479:2485   */\n      dup3\n        /* \"@openzeppelin/contracts/math/SafeMath.sol\":2475:2520   */\n      tag_93\n      jumpi\n      pop\n        /* \"@openzeppelin/contracts/math/SafeMath.sol\":2508:2509   */\n      0x00\n        /* \"@openzeppelin/contracts/math/SafeMath.sol\":2501:2509   */\n      jump(tag_92)\n        /* \"@openzeppelin/contracts/math/SafeMath.sol\":2475:2520   */\n    tag_93:\n        /* \"@openzeppelin/contracts/math/SafeMath.sol\":2542:2547   */\n      dup3\n      dup3\n      mul\n        /* \"@openzeppelin/contracts/math/SafeMath.sol\":2546:2547   */\n      dup3\n        /* \"@openzeppelin/contracts/math/SafeMath.sol\":2542:2543   */\n      dup5\n        /* \"@openzeppelin/contracts/math/SafeMath.sol\":2542:2547   */\n      dup3\n        /* \"@openzeppelin/contracts/math/SafeMath.sol\":2542:2543   */\n      dup2\n        /* \"@openzeppelin/contracts/math/SafeMath.sol\":2565:2570   */\n      tag_94\n      jumpi\n      invalid\n    tag_94:\n      div\n        /* \"@openzeppelin/contracts/math/SafeMath.sol\":2565:2575   */\n      eq\n        /* \"@openzeppelin/contracts/math/SafeMath.sol\":2557:2613   */\n      tag_95\n      jumpi\n      mload(0x40)\n      shl(0xe5, 0x461bcd)\n      dup2\n      mstore\n      0x04\n      add\n      dup1\n      dup1\n      0x20\n      add\n      dup3\n      dup2\n      sub\n      dup3\n      mstore\n      0x21\n      dup2\n      mstore\n      0x20\n      add\n      dup1\n      data_9113bb53c2876a3805b2c9242029423fc540a728243ce887ab24c82cf119fba3\n      0x21\n      swap2\n      codecopy\n      0x40\n      add\n      swap2\n      pop\n      pop\n      mload(0x40)\n      dup1\n      swap2\n      sub\n      swap1\n      revert\n    tag_95:\n        /* \"@openzeppelin/contracts/math/SafeMath.sol\":2631:2632   */\n      swap1\n      pop\n        /* \"@openzeppelin/contracts/math/SafeMath.sol\":2180:2639   */\n    tag_92:\n      swap3\n      swap2\n      pop\n      pop\n      jump\t// out\n        /* \"@openzeppelin/contracts/math/SafeMath.sol\":3101:3231   */\n    tag_53:\n        /* \"@openzeppelin/contracts/math/SafeMath.sol\":3159:3166   */\n      0x00\n        /* \"@openzeppelin/contracts/math/SafeMath.sol\":3185:3224   */\n      tag_95\n        /* \"@openzeppelin/contracts/math/SafeMath.sol\":3189:3190   */\n      dup4\n        /* \"@openzeppelin/contracts/math/SafeMath.sol\":3192:3193   */\n      dup4\n        /* \"@openzeppelin/contracts/math/SafeMath.sol\":3185:3224   */\n      mload(0x40)\n      dup1\n      0x40\n      add\n      0x40\n      mstore\n      dup1\n      0x1a\n      dup2\n      mstore\n      0x20\n      add\n      0x536166654d6174683a206469766973696f6e206279207a65726f000000000000\n      dup2\n      mstore\n      pop\n        /* \"@openzeppelin/contracts/math/SafeMath.sol\":3185:3188   */\n      tag_98\n        /* \"@openzeppelin/contracts/math/SafeMath.sol\":3185:3224   */\n      jump\t// in\n        /* \"@openzeppelin/contracts/math/SafeMath.sol\":1321:1455   */\n    tag_65:\n        /* \"@openzeppelin/contracts/math/SafeMath.sol\":1379:1386   */\n      0x00\n        /* \"@openzeppelin/contracts/math/SafeMath.sol\":1405:1448   */\n      tag_95\n        /* \"@openzeppelin/contracts/math/SafeMath.sol\":1409:1410   */\n      dup4\n        /* \"@openzeppelin/contracts/math/SafeMath.sol\":1412:1413   */\n      dup4\n        /* \"@openzeppelin/contracts/math/SafeMath.sol\":1405:1448   */\n      mload(0x40)\n      dup1\n      0x40\n      add\n      0x40\n      mstore\n      dup1\n      0x1e\n      dup2\n      mstore\n      0x20\n      add\n      0x536166654d6174683a207375627472616374696f6e206f766572666c6f770000\n      dup2\n      mstore\n      pop\n        /* \"@openzeppelin/contracts/math/SafeMath.sol\":1405:1408   */\n      tag_101\n        /* \"@openzeppelin/contracts/math/SafeMath.sol\":1405:1448   */\n      jump\t// in\n        /* \"@openzeppelin/contracts/math/SafeMath.sol\":874:1050   */\n    tag_74:\n        /* \"@openzeppelin/contracts/math/SafeMath.sol\":932:939   */\n      0x00\n        /* \"@openzeppelin/contracts/math/SafeMath.sol\":963:968   */\n      dup3\n      dup3\n      add\n        /* \"@openzeppelin/contracts/math/SafeMath.sol\":986:992   */\n      dup4\n      dup2\n      lt\n      iszero\n        /* \"@openzeppelin/contracts/math/SafeMath.sol\":978:1024   */\n      tag_95\n      jumpi\n      0x40\n      dup1\n      mload\n      shl(0xe5, 0x461bcd)\n      dup2\n      mstore\n      0x20\n      0x04\n      dup3\n      add\n      mstore\n      0x1b\n      0x24\n      dup3\n      add\n      mstore\n      0x536166654d6174683a206164646974696f6e206f766572666c6f770000000000\n      0x44\n      dup3\n      add\n      mstore\n      swap1\n      mload\n      swap1\n      dup2\n      swap1\n      sub\n      0x64\n      add\n      swap1\n      revert\n        /* \"@openzeppelin/contracts/math/SafeMath.sol\":3713:3985   */\n    tag_98:\n        /* \"@openzeppelin/contracts/math/SafeMath.sol\":3799:3806   */\n      0x00\n        /* \"@openzeppelin/contracts/math/SafeMath.sol\":3833:3845   */\n      dup2\n        /* \"@openzeppelin/contracts/math/SafeMath.sol\":3826:3831   */\n      dup4\n        /* \"@openzeppelin/contracts/math/SafeMath.sol\":3818:3846   */\n      tag_105\n      jumpi\n      mload(0x40)\n      shl(0xe5, 0x461bcd)\n      dup2\n      mstore\n      0x04\n      add\n      dup1\n      dup1\n      0x20\n      add\n      dup3\n      dup2\n      sub\n      dup3\n      mstore\n      dup4\n      dup2\n      dup2\n      mload\n      dup2\n      mstore\n      0x20\n      add\n      swap2\n      pop\n      dup1\n      mload\n      swap1\n      0x20\n      add\n      swap1\n      dup1\n      dup4\n      dup4\n        /* \"--CODEGEN--\":23:24   */\n      0x00\n        /* \"--CODEGEN--\":8:108   */\n    tag_106:\n        /* \"--CODEGEN--\":33:36   */\n      dup4\n        /* \"--CODEGEN--\":30:31   */\n      dup2\n        /* \"--CODEGEN--\":27:37   */\n      lt\n        /* \"--CODEGEN--\":8:108   */\n      iszero\n      tag_108\n      jumpi\n        /* \"--CODEGEN--\":90:101   */\n      dup2\n      dup2\n      add\n        /* \"--CODEGEN--\":84:102   */\n      mload\n        /* \"--CODEGEN--\":71:82   */\n      dup4\n      dup3\n      add\n        /* \"--CODEGEN--\":64:103   */\n      mstore\n        /* \"--CODEGEN--\":52:54   */\n      0x20\n        /* \"--CODEGEN--\":45:55   */\n      add\n        /* \"--CODEGEN--\":8:108   */\n      jump(tag_106)\n    tag_108:\n        /* \"--CODEGEN--\":12:26   */\n      pop\n        /* \"@openzeppelin/contracts/math/SafeMath.sol\":3818:3846   */\n      pop\n      pop\n      pop\n      swap1\n      pop\n      swap1\n      dup2\n      add\n      swap1\n      0x1f\n      and\n      dup1\n      iszero\n      tag_109\n      jumpi\n      dup1\n      dup3\n      sub\n      dup1\n      mload\n      0x01\n      dup4\n      0x20\n      sub\n      0x0100\n      exp\n      sub\n      not\n      and\n      dup2\n      mstore\n      0x20\n      add\n      swap2\n      pop\n    tag_109:\n      pop\n      swap3\n      pop\n      pop\n      pop\n      mload(0x40)\n      dup1\n      swap2\n      sub\n      swap1\n      revert\n    tag_105:\n      pop\n        /* \"@openzeppelin/contracts/math/SafeMath.sol\":3856:3865   */\n      0x00\n        /* \"@openzeppelin/contracts/math/SafeMath.sol\":3872:3873   */\n      dup4\n        /* \"@openzeppelin/contracts/math/SafeMath.sol\":3868:3869   */\n      dup6\n        /* \"@openzeppelin/contracts/math/SafeMath.sol\":3868:3873   */\n      dup2\n      tag_110\n      jumpi\n      invalid\n    tag_110:\n      div\n      swap6\n        /* \"@openzeppelin/contracts/math/SafeMath.sol\":3713:3985   */\n      swap5\n      pop\n      pop\n      pop\n      pop\n      pop\n      jump\t// out\n        /* \"@openzeppelin/contracts/math/SafeMath.sol\":1746:1933   */\n    tag_101:\n        /* \"@openzeppelin/contracts/math/SafeMath.sol\":1832:1839   */\n      0x00\n        /* \"@openzeppelin/contracts/math/SafeMath.sol\":1867:1879   */\n      dup2\n        /* \"@openzeppelin/contracts/math/SafeMath.sol\":1859:1865   */\n      dup5\n      dup5\n      gt\n      iszero\n        /* \"@openzeppelin/contracts/math/SafeMath.sol\":1851:1880   */\n      tag_112\n      jumpi\n      mload(0x40)\n      shl(0xe5, 0x461bcd)\n      dup2\n      mstore\n      0x20\n      0x04\n      dup3\n      add\n      dup2\n      dup2\n      mstore\n      dup4\n      mload\n      0x24\n      dup5\n      add\n      mstore\n      dup4\n      mload\n      swap1\n      swap3\n      dup4\n      swap3\n      0x44\n      swap1\n      swap2\n      add\n      swap2\n      swap1\n      dup6\n      add\n      swap1\n      dup1\n      dup4\n      dup4\n      0x00\n        /* \"--CODEGEN--\":27:37   */\n      dup4\n      iszero\n        /* \"--CODEGEN--\":8:108   */\n      tag_108\n      jumpi\n        /* \"--CODEGEN--\":90:101   */\n      dup2\n      dup2\n      add\n        /* \"--CODEGEN--\":84:102   */\n      mload\n        /* \"--CODEGEN--\":71:82   */\n      dup4\n      dup3\n      add\n        /* \"--CODEGEN--\":64:103   */\n      mstore\n        /* \"--CODEGEN--\":52:54   */\n      0x20\n        /* \"--CODEGEN--\":45:55   */\n      add\n        /* \"--CODEGEN--\":8:108   */\n      jump(tag_106)\n        /* \"@openzeppelin/contracts/math/SafeMath.sol\":1851:1880   */\n    tag_112:\n      pop\n      pop\n      pop\n        /* \"@openzeppelin/contracts/math/SafeMath.sol\":1902:1907   */\n      swap1\n      sub\n      swap1\n        /* \"@openzeppelin/contracts/math/SafeMath.sol\":1746:1933   */\n      jump\t// out\n    stop\n    data_9113bb53c2876a3805b2c9242029423fc540a728243ce887ab24c82cf119fba3 536166654d6174683a206d756c7469706c69636174696f6e206f766572666c6f77\n\n    auxdata: 0xa26469706673582212208b82d7078370e793c3f91b0baacebb6cd030445c9ace9a7929579eda42055d0864736f6c63430006060033\n}\n","bytecode":{"linkReferences":{},"object":"608060405234801561001057600080fd5b50604051610ad2380380610ad28339818101604052604081101561003357600080fd5b508051602090910151600080546001600160a01b039384166001600160a01b03199182161790915560018054939092169281169290921790556002805490911633179055610a4c806100866000396000f3fe608060405234801561001057600080fd5b50600436106100b45760003560e01c80636f49712b116100715780636f49712b146101a6578063980d6116146101e0578063a694fc3a14610206578063c7b8981c14610223578063e70f053b1461022b578063f851a44014610233576100b4565b806306872661146100b95780630700037d146100f15780632e17de78146101175780634a4643f714610136578063592014021461015c5780636e1dc66e14610180575b600080fd5b6100df600480360360208110156100cf57600080fd5b50356001600160a01b031661023b565b60408051918252519081900360200190f35b6100df6004803603602081101561010757600080fd5b50356001600160a01b03166102c8565b6101346004803603602081101561012d57600080fd5b50356102da565b005b6100df6004803603602081101561014c57600080fd5b50356001600160a01b0316610476565b610164610488565b604080516001600160a01b039092168252519081900360200190f35b6100df6004803603602081101561019657600080fd5b50356001600160a01b0316610497565b6101cc600480360360208110156101bc57600080fd5b50356001600160a01b03166104a9565b604080519115158252519081900360200190f35b6100df600480360360208110156101f657600080fd5b50356001600160a01b03166104be565b6101346004803603602081101561021c57600080fd5b50356104f4565b610134610670565b61016461079b565b6101646107aa565b60008061025f670de0b6b3a7640000610253856104be565b9063ffffffff6107b916565b9050620151806000610277838363ffffffff61081b16565b6001600160a01b038616600090815260036020526040812054919250906102be90670de0b6b3a7640000906102b2908563ffffffff6107b916565b9063ffffffff61081b16565b9695505050505050565b60066020526000908152604090205481565b33600090815260036020526040902054610334576040805162461bcd60e51b81526020600482015260166024820152752737ba3434b733903a37903ab739ba30b5b29017171760511b604482015290519081900360640190fd5b33600090815260036020526040902054811115610398576040805162461bcd60e51b815260206004820152601960248201527f576974686472617720616d6f756e7420746f6f20686967682100000000000000604482015290519081900360640190fd5b6000906103a3610670565b600080546040805163a9059cbb60e01b81523360048201526024810185905290516001600160a01b039092169263a9059cbb926044808401936020939083900390910190829087803b1580156103f857600080fd5b505af115801561040c573d6000803e3d6000fd5b505050506040513d602081101561042257600080fd5b505033600090815260036020526040902054610444908263ffffffff61085d16565b33600090815260036020526040902081905561047257336000908152600460205260409020805460ff191690555b5050565b60036020526000908152604090205481565b6000546001600160a01b031681565b60056020526000908152604090205481565b60046020526000908152604090205460ff1681565b6001600160a01b038116600090815260056020526040812054429082906104ec90839063ffffffff61085d16565b949350505050565b3360009081526004602052604090205460ff1615156001141561057057600061051c3361023b565b33600090815260066020526040902054909150156105595733600090815260066020526040902054610554908263ffffffff61089f16565b61056d565b336000908152600660205260409020819055805b50505b60008054604080516323b872dd60e01b81523360048201523060248201526044810185905290516001600160a01b03909216926323b872dd926064808401936020939083900390910190829087803b1580156105cb57600080fd5b505af11580156105df573d6000803e3d6000fd5b505050506040513d60208110156105f557600080fd5b50503360009081526003602052604090205415610631573360009081526003602052604090205461062c908263ffffffff61089f16565b610645565b336000908152600360205260409020819055805b505033600090815260056020908152604080832042905560049091529020805460ff19166001179055565b600061067b3361023b565b9050600081118061069a57503360009081526006602052604090205415155b6106e1576040805162461bcd60e51b81526020600482015260136024820152724e6f7468696e6720746f20776974686472617760681b604482015290519081900360640190fd5b336000908152600660205260409020541561071e57336000908152600660205260408120805491905561071a828263ffffffff61089f16565b9150505b3360008181526005602052604080822042905560015481516340c10f1960e01b815260048101949094526024840185905290516001600160a01b03909116926340c10f1992604480830193919282900301818387803b15801561078057600080fd5b505af1158015610794573d6000803e3d6000fd5b5050505050565b6001546001600160a01b031681565b6002546001600160a01b031681565b6000826107c857506000610815565b828202828482816107d557fe5b04146108125760405162461bcd60e51b81526004018080602001828103825260218152602001806109f66021913960400191505060405180910390fd5b90505b92915050565b600061081283836040518060400160405280601a81526020017f536166654d6174683a206469766973696f6e206279207a65726f0000000000008152506108f9565b600061081283836040518060400160405280601e81526020017f536166654d6174683a207375627472616374696f6e206f766572666c6f77000081525061099b565b600082820183811015610812576040805162461bcd60e51b815260206004820152601b60248201527f536166654d6174683a206164646974696f6e206f766572666c6f770000000000604482015290519081900360640190fd5b600081836109855760405162461bcd60e51b81526004018080602001828103825283818151815260200191508051906020019080838360005b8381101561094a578181015183820152602001610932565b50505050905090810190601f1680156109775780820380516001836020036101000a031916815260200191505b509250505060405180910390fd5b50600083858161099157fe5b0495945050505050565b600081848411156109ed5760405162461bcd60e51b815260206004820181815283516024840152835190928392604490910191908501908083836000831561094a578181015183820152602001610932565b50505090039056fe536166654d6174683a206d756c7469706c69636174696f6e206f766572666c6f77a26469706673582212208b82d7078370e793c3f91b0baacebb6cd030445c9ace9a7929579eda42055d0864736f6c63430006060033","opcodes":"PUSH1 0x80 PUSH1 0x40 MSTORE CALLVALUE DUP1 ISZERO PUSH2 0x10 JUMPI PUSH1 0x0 DUP1 REVERT JUMPDEST POP PUSH1 0x40 MLOAD PUSH2 0xAD2 CODESIZE SUB DUP1 PUSH2 0xAD2 DUP4 CODECOPY DUP2 DUP2 ADD PUSH1 0x40 MSTORE PUSH1 0x40 DUP2 LT ISZERO PUSH2 0x33 JUMPI PUSH1 0x0 DUP1 REVERT JUMPDEST POP DUP1 MLOAD PUSH1 0x20 SWAP1 SWAP2 ADD MLOAD PUSH1 0x0 DUP1 SLOAD PUSH1 0x1 PUSH1 0x1 PUSH1 0xA0 SHL SUB SWAP4 DUP5 AND PUSH1 0x1 PUSH1 0x1 PUSH1 0xA0 SHL SUB NOT SWAP2 DUP3 AND OR SWAP1 SWAP2 SSTORE PUSH1 0x1 DUP1 SLOAD SWAP4 SWAP1 SWAP3 AND SWAP3 DUP2 AND SWAP3 SWAP1 SWAP3 OR SWAP1 SSTORE PUSH1 0x2 DUP1 SLOAD SWAP1 SWAP2 AND CALLER OR SWAP1 SSTORE PUSH2 0xA4C DUP1 PUSH2 0x86 PUSH1 0x0 CODECOPY PUSH1 0x0 RETURN INVALID PUSH1 0x80 PUSH1 0x40 MSTORE CALLVALUE DUP1 ISZERO PUSH2 0x10 JUMPI PUSH1 0x0 DUP1 REVERT JUMPDEST POP PUSH1 0x4 CALLDATASIZE LT PUSH2 0xB4 JUMPI PUSH1 0x0 CALLDATALOAD PUSH1 0xE0 SHR DUP1 PUSH4 0x6F49712B GT PUSH2 0x71 JUMPI DUP1 PUSH4 0x6F49712B EQ PUSH2 0x1A6 JUMPI DUP1 PUSH4 0x980D6116 EQ PUSH2 0x1E0 JUMPI DUP1 PUSH4 0xA694FC3A EQ PUSH2 0x206 JUMPI DUP1 PUSH4 0xC7B8981C EQ PUSH2 0x223 JUMPI DUP1 PUSH4 0xE70F053B EQ PUSH2 0x22B JUMPI DUP1 PUSH4 0xF851A440 EQ PUSH2 0x233 JUMPI PUSH2 0xB4 JUMP JUMPDEST DUP1 PUSH4 0x6872661 EQ PUSH2 0xB9 JUMPI DUP1 PUSH4 0x700037D EQ PUSH2 0xF1 JUMPI DUP1 PUSH4 0x2E17DE78 EQ PUSH2 0x117 JUMPI DUP1 PUSH4 0x4A4643F7 EQ PUSH2 0x136 JUMPI DUP1 PUSH4 0x59201402 EQ PUSH2 0x15C JUMPI DUP1 PUSH4 0x6E1DC66E EQ PUSH2 0x180 JUMPI JUMPDEST PUSH1 0x0 DUP1 REVERT JUMPDEST PUSH2 0xDF PUSH1 0x4 DUP1 CALLDATASIZE SUB PUSH1 0x20 DUP2 LT ISZERO PUSH2 0xCF JUMPI PUSH1 0x0 DUP1 REVERT JUMPDEST POP CALLDATALOAD PUSH1 0x1 PUSH1 0x1 PUSH1 0xA0 SHL SUB AND PUSH2 0x23B JUMP JUMPDEST PUSH1 0x40 DUP1 MLOAD SWAP2 DUP3 MSTORE MLOAD SWAP1 DUP2 SWAP1 SUB PUSH1 0x20 ADD SWAP1 RETURN JUMPDEST PUSH2 0xDF PUSH1 0x4 DUP1 CALLDATASIZE SUB PUSH1 0x20 DUP2 LT ISZERO PUSH2 0x107 JUMPI PUSH1 0x0 DUP1 REVERT JUMPDEST POP CALLDATALOAD PUSH1 0x1 PUSH1 0x1 PUSH1 0xA0 SHL SUB AND PUSH2 0x2C8 JUMP JUMPDEST PUSH2 0x134 PUSH1 0x4 DUP1 CALLDATASIZE SUB PUSH1 0x20 DUP2 LT ISZERO PUSH2 0x12D JUMPI PUSH1 0x0 DUP1 REVERT JUMPDEST POP CALLDATALOAD PUSH2 0x2DA JUMP JUMPDEST STOP JUMPDEST PUSH2 0xDF PUSH1 0x4 DUP1 CALLDATASIZE SUB PUSH1 0x20 DUP2 LT ISZERO PUSH2 0x14C JUMPI PUSH1 0x0 DUP1 REVERT JUMPDEST POP CALLDATALOAD PUSH1 0x1 PUSH1 0x1 PUSH1 0xA0 SHL SUB AND PUSH2 0x476 JUMP JUMPDEST PUSH2 0x164 PUSH2 0x488 JUMP JUMPDEST PUSH1 0x40 DUP1 MLOAD PUSH1 0x1 PUSH1 0x1 PUSH1 0xA0 SHL SUB SWAP1 SWAP3 AND DUP3 MSTORE MLOAD SWAP1 DUP2 SWAP1 SUB PUSH1 0x20 ADD SWAP1 RETURN JUMPDEST PUSH2 0xDF PUSH1 0x4 DUP1 CALLDATASIZE SUB PUSH1 0x20 DUP2 LT ISZERO PUSH2 0x196 JUMPI PUSH1 0x0 DUP1 REVERT JUMPDEST POP CALLDATALOAD PUSH1 0x1 PUSH1 0x1 PUSH1 0xA0 SHL SUB AND PUSH2 0x497 JUMP JUMPDEST PUSH2 0x1CC PUSH1 0x4 DUP1 CALLDATASIZE SUB PUSH1 0x20 DUP2 LT ISZERO PUSH2 0x1BC JUMPI PUSH1 0x0 DUP1 REVERT JUMPDEST POP CALLDATALOAD PUSH1 0x1 PUSH1 0x1 PUSH1 0xA0 SHL SUB AND PUSH2 0x4A9 JUMP JUMPDEST PUSH1 0x40 DUP1 MLOAD SWAP2 ISZERO ISZERO DUP3 MSTORE MLOAD SWAP1 DUP2 SWAP1 SUB PUSH1 0x20 ADD SWAP1 RETURN JUMPDEST PUSH2 0xDF PUSH1 0x4 DUP1 CALLDATASIZE SUB PUSH1 0x20 DUP2 LT ISZERO PUSH2 0x1F6 JUMPI PUSH1 0x0 DUP1 REVERT JUMPDEST POP CALLDATALOAD PUSH1 0x1 PUSH1 0x1 PUSH1 0xA0 SHL SUB AND PUSH2 0x4BE JUMP JUMPDEST PUSH2 0x134 PUSH1 0x4 DUP1 CALLDATASIZE SUB PUSH1 0x20 DUP2 LT ISZERO PUSH2 0x21C JUMPI PUSH1 0x0 DUP1 REVERT JUMPDEST POP CALLDATALOAD PUSH2 0x4F4 JUMP JUMPDEST PUSH2 0x134 PUSH2 0x670 JUMP JUMPDEST PUSH2 0x164 PUSH2 0x79B JUMP JUMPDEST PUSH2 0x164 PUSH2 0x7AA JUMP JUMPDEST PUSH1 0x0 DUP1 PUSH2 0x25F PUSH8 0xDE0B6B3A7640000 PUSH2 0x253 DUP6 PUSH2 0x4BE JUMP JUMPDEST SWAP1 PUSH4 0xFFFFFFFF PUSH2 0x7B9 AND JUMP JUMPDEST SWAP1 POP PUSH3 0x15180 PUSH1 0x0 PUSH2 0x277 DUP4 DUP4 PUSH4 0xFFFFFFFF PUSH2 0x81B AND JUMP JUMPDEST PUSH1 0x1 PUSH1 0x1 PUSH1 0xA0 SHL SUB DUP7 AND PUSH1 0x0 SWAP1 DUP2 MSTORE PUSH1 0x3 PUSH1 0x20 MSTORE PUSH1 0x40 DUP2 KECCAK256 SLOAD SWAP2 SWAP3 POP SWAP1 PUSH2 0x2BE SWAP1 PUSH8 0xDE0B6B3A7640000 SWAP1 PUSH2 0x2B2 SWAP1 DUP6 PUSH4 0xFFFFFFFF PUSH2 0x7B9 AND JUMP JUMPDEST SWAP1 PUSH4 0xFFFFFFFF PUSH2 0x81B AND JUMP JUMPDEST SWAP7 SWAP6 POP POP POP POP POP POP JUMP JUMPDEST PUSH1 0x6 PUSH1 0x20 MSTORE PUSH1 0x0 SWAP1 DUP2 MSTORE PUSH1 0x40 SWAP1 KECCAK256 SLOAD DUP2 JUMP JUMPDEST CALLER PUSH1 0x0 SWAP1 DUP2 MSTORE PUSH1 0x3 PUSH1 0x20 MSTORE PUSH1 0x40 SWAP1 KECCAK256 SLOAD PUSH2 0x334 JUMPI PUSH1 0x40 DUP1 MLOAD PUSH3 0x461BCD PUSH1 0xE5 SHL DUP2 MSTORE PUSH1 0x20 PUSH1 0x4 DUP3 ADD MSTORE PUSH1 0x16 PUSH1 0x24 DUP3 ADD MSTORE PUSH22 0x2737BA3434B733903A37903AB739BA30B5B290171717 PUSH1 0x51 SHL PUSH1 0x44 DUP3 ADD MSTORE SWAP1 MLOAD SWAP1 DUP2 SWAP1 SUB PUSH1 0x64 ADD SWAP1 REVERT JUMPDEST CALLER PUSH1 0x0 SWAP1 DUP2 MSTORE PUSH1 0x3 PUSH1 0x20 MSTORE PUSH1 0x40 SWAP1 KECCAK256 SLOAD DUP2 GT ISZERO PUSH2 0x398 JUMPI PUSH1 0x40 DUP1 MLOAD PUSH3 0x461BCD PUSH1 0xE5 SHL DUP2 MSTORE PUSH1 0x20 PUSH1 0x4 DUP3 ADD MSTORE PUSH1 0x19 PUSH1 0x24 DUP3 ADD MSTORE PUSH32 0x576974686472617720616D6F756E7420746F6F20686967682100000000000000 PUSH1 0x44 DUP3 ADD MSTORE SWAP1 MLOAD SWAP1 DUP2 SWAP1 SUB PUSH1 0x64 ADD SWAP1 REVERT JUMPDEST PUSH1 0x0 SWAP1 PUSH2 0x3A3 PUSH2 0x670 JUMP JUMPDEST PUSH1 0x0 DUP1 SLOAD PUSH1 0x40 DUP1 MLOAD PUSH4 0xA9059CBB PUSH1 0xE0 SHL DUP2 MSTORE CALLER PUSH1 0x4 DUP3 ADD MSTORE PUSH1 0x24 DUP2 ADD DUP6 SWAP1 MSTORE SWAP1 MLOAD PUSH1 0x1 PUSH1 0x1 PUSH1 0xA0 SHL SUB SWAP1 SWAP3 AND SWAP3 PUSH4 0xA9059CBB SWAP3 PUSH1 0x44 DUP1 DUP5 ADD SWAP4 PUSH1 0x20 SWAP4 SWAP1 DUP4 SWAP1 SUB SWAP1 SWAP2 ADD SWAP1 DUP3 SWAP1 DUP8 DUP1 EXTCODESIZE ISZERO DUP1 ISZERO PUSH2 0x3F8 JUMPI PUSH1 0x0 DUP1 REVERT JUMPDEST POP GAS CALL ISZERO DUP1 ISZERO PUSH2 0x40C JUMPI RETURNDATASIZE PUSH1 0x0 DUP1 RETURNDATACOPY RETURNDATASIZE PUSH1 0x0 REVERT JUMPDEST POP POP POP POP PUSH1 0x40 MLOAD RETURNDATASIZE PUSH1 0x20 DUP2 LT ISZERO PUSH2 0x422 JUMPI PUSH1 0x0 DUP1 REVERT JUMPDEST POP POP CALLER PUSH1 0x0 SWAP1 DUP2 MSTORE PUSH1 0x3 PUSH1 0x20 MSTORE PUSH1 0x40 SWAP1 KECCAK256 SLOAD PUSH2 0x444 SWAP1 DUP3 PUSH4 0xFFFFFFFF PUSH2 0x85D AND JUMP JUMPDEST CALLER PUSH1 0x0 SWAP1 DUP2 MSTORE PUSH1 0x3 PUSH1 0x20 MSTORE PUSH1 0x40 SWAP1 KECCAK256 DUP2 SWAP1 SSTORE PUSH2 0x472 JUMPI CALLER PUSH1 0x0 SWAP1 DUP2 MSTORE PUSH1 0x4 PUSH1 0x20 MSTORE PUSH1 0x40 SWAP1 KECCAK256 DUP1 SLOAD PUSH1 0xFF NOT AND SWAP1 SSTORE JUMPDEST POP POP JUMP JUMPDEST PUSH1 0x3 PUSH1 0x20 MSTORE PUSH1 0x0 SWAP1 DUP2 MSTORE PUSH1 0x40 SWAP1 KECCAK256 SLOAD DUP2 JUMP JUMPDEST PUSH1 0x0 SLOAD PUSH1 0x1 PUSH1 0x1 PUSH1 0xA0 SHL SUB AND DUP2 JUMP JUMPDEST PUSH1 0x5 PUSH1 0x20 MSTORE PUSH1 0x0 SWAP1 DUP2 MSTORE PUSH1 0x40 SWAP1 KECCAK256 SLOAD DUP2 JUMP JUMPDEST PUSH1 0x4 PUSH1 0x20 MSTORE PUSH1 0x0 SWAP1 DUP2 MSTORE PUSH1 0x40 SWAP1 KECCAK256 SLOAD PUSH1 0xFF AND DUP2 JUMP JUMPDEST PUSH1 0x1 PUSH1 0x1 PUSH1 0xA0 SHL SUB DUP2 AND PUSH1 0x0 SWAP1 DUP2 MSTORE PUSH1 0x5 PUSH1 0x20 MSTORE PUSH1 0x40 DUP2 KECCAK256 SLOAD TIMESTAMP SWAP1 DUP3 SWAP1 PUSH2 0x4EC SWAP1 DUP4 SWAP1 PUSH4 0xFFFFFFFF PUSH2 0x85D AND JUMP JUMPDEST SWAP5 SWAP4 POP POP POP POP JUMP JUMPDEST CALLER PUSH1 0x0 SWAP1 DUP2 MSTORE PUSH1 0x4 PUSH1 0x20 MSTORE PUSH1 0x40 SWAP1 KECCAK256 SLOAD PUSH1 0xFF AND ISZERO ISZERO PUSH1 0x1 EQ ISZERO PUSH2 0x570 JUMPI PUSH1 0x0 PUSH2 0x51C CALLER PUSH2 0x23B JUMP JUMPDEST CALLER PUSH1 0x0 SWAP1 DUP2 MSTORE PUSH1 0x6 PUSH1 0x20 MSTORE PUSH1 0x40 SWAP1 KECCAK256 SLOAD SWAP1 SWAP2 POP ISZERO PUSH2 0x559 JUMPI CALLER PUSH1 0x0 SWAP1 DUP2 MSTORE PUSH1 0x6 PUSH1 0x20 MSTORE PUSH1 0x40 SWAP1 KECCAK256 SLOAD PUSH2 0x554 SWAP1 DUP3 PUSH4 0xFFFFFFFF PUSH2 0x89F AND JUMP JUMPDEST PUSH2 0x56D JUMP JUMPDEST CALLER PUSH1 0x0 SWAP1 DUP2 MSTORE PUSH1 0x6 PUSH1 0x20 MSTORE PUSH1 0x40 SWAP1 KECCAK256 DUP2 SWAP1 SSTORE DUP1 JUMPDEST POP POP JUMPDEST PUSH1 0x0 DUP1 SLOAD PUSH1 0x40 DUP1 MLOAD PUSH4 0x23B872DD PUSH1 0xE0 SHL DUP2 MSTORE CALLER PUSH1 0x4 DUP3 ADD MSTORE ADDRESS PUSH1 0x24 DUP3 ADD MSTORE PUSH1 0x44 DUP2 ADD DUP6 SWAP1 MSTORE SWAP1 MLOAD PUSH1 0x1 PUSH1 0x1 PUSH1 0xA0 SHL SUB SWAP1 SWAP3 AND SWAP3 PUSH4 0x23B872DD SWAP3 PUSH1 0x64 DUP1 DUP5 ADD SWAP4 PUSH1 0x20 SWAP4 SWAP1 DUP4 SWAP1 SUB SWAP1 SWAP2 ADD SWAP1 DUP3 SWAP1 DUP8 DUP1 EXTCODESIZE ISZERO DUP1 ISZERO PUSH2 0x5CB JUMPI PUSH1 0x0 DUP1 REVERT JUMPDEST POP GAS CALL ISZERO DUP1 ISZERO PUSH2 0x5DF JUMPI RETURNDATASIZE PUSH1 0x0 DUP1 RETURNDATACOPY RETURNDATASIZE PUSH1 0x0 REVERT JUMPDEST POP POP POP POP PUSH1 0x40 MLOAD RETURNDATASIZE PUSH1 0x20 DUP2 LT ISZERO PUSH2 0x5F5 JUMPI PUSH1 0x0 DUP1 REVERT JUMPDEST POP POP CALLER PUSH1 0x0 SWAP1 DUP2 MSTORE PUSH1 0x3 PUSH1 0x20 MSTORE PUSH1 0x40 SWAP1 KECCAK256 SLOAD ISZERO PUSH2 0x631 JUMPI CALLER PUSH1 0x0 SWAP1 DUP2 MSTORE PUSH1 0x3 PUSH1 0x20 MSTORE PUSH1 0x40 SWAP1 KECCAK256 SLOAD PUSH2 0x62C SWAP1 DUP3 PUSH4 0xFFFFFFFF PUSH2 0x89F AND JUMP JUMPDEST PUSH2 0x645 JUMP JUMPDEST CALLER PUSH1 0x0 SWAP1 DUP2 MSTORE PUSH1 0x3 PUSH1 0x20 MSTORE PUSH1 0x40 SWAP1 KECCAK256 DUP2 SWAP1 SSTORE DUP1 JUMPDEST POP POP CALLER PUSH1 0x0 SWAP1 DUP2 MSTORE PUSH1 0x5 PUSH1 0x20 SWAP1 DUP2 MSTORE PUSH1 0x40 DUP1 DUP4 KECCAK256 TIMESTAMP SWAP1 SSTORE PUSH1 0x4 SWAP1 SWAP2 MSTORE SWAP1 KECCAK256 DUP1 SLOAD PUSH1 0xFF NOT AND PUSH1 0x1 OR SWAP1 SSTORE JUMP JUMPDEST PUSH1 0x0 PUSH2 0x67B CALLER PUSH2 0x23B JUMP JUMPDEST SWAP1 POP PUSH1 0x0 DUP2 GT DUP1 PUSH2 0x69A JUMPI POP CALLER PUSH1 0x0 SWAP1 DUP2 MSTORE PUSH1 0x6 PUSH1 0x20 MSTORE PUSH1 0x40 SWAP1 KECCAK256 SLOAD ISZERO ISZERO JUMPDEST PUSH2 0x6E1 JUMPI PUSH1 0x40 DUP1 MLOAD PUSH3 0x461BCD PUSH1 0xE5 SHL DUP2 MSTORE PUSH1 0x20 PUSH1 0x4 DUP3 ADD MSTORE PUSH1 0x13 PUSH1 0x24 DUP3 ADD MSTORE PUSH19 0x4E6F7468696E6720746F207769746864726177 PUSH1 0x68 SHL PUSH1 0x44 DUP3 ADD MSTORE SWAP1 MLOAD SWAP1 DUP2 SWAP1 SUB PUSH1 0x64 ADD SWAP1 REVERT JUMPDEST CALLER PUSH1 0x0 SWAP1 DUP2 MSTORE PUSH1 0x6 PUSH1 0x20 MSTORE PUSH1 0x40 SWAP1 KECCAK256 SLOAD ISZERO PUSH2 0x71E JUMPI CALLER PUSH1 0x0 SWAP1 DUP2 MSTORE PUSH1 0x6 PUSH1 0x20 MSTORE PUSH1 0x40 DUP2 KECCAK256 DUP1 SLOAD SWAP2 SWAP1 SSTORE PUSH2 0x71A DUP3 DUP3 PUSH4 0xFFFFFFFF PUSH2 0x89F AND JUMP JUMPDEST SWAP2 POP POP JUMPDEST CALLER PUSH1 0x0 DUP2 DUP2 MSTORE PUSH1 0x5 PUSH1 0x20 MSTORE PUSH1 0x40 DUP1 DUP3 KECCAK256 TIMESTAMP SWAP1 SSTORE PUSH1 0x1 SLOAD DUP2 MLOAD PUSH4 0x40C10F19 PUSH1 0xE0 SHL DUP2 MSTORE PUSH1 0x4 DUP2 ADD SWAP5 SWAP1 SWAP5 MSTORE PUSH1 0x24 DUP5 ADD DUP6 SWAP1 MSTORE SWAP1 MLOAD PUSH1 0x1 PUSH1 0x1 PUSH1 0xA0 SHL SUB SWAP1 SWAP2 AND SWAP3 PUSH4 0x40C10F19 SWAP3 PUSH1 0x44 DUP1 DUP4 ADD SWAP4 SWAP2 SWAP3 DUP3 SWAP1 SUB ADD DUP2 DUP4 DUP8 DUP1 EXTCODESIZE ISZERO DUP1 ISZERO PUSH2 0x780 JUMPI PUSH1 0x0 DUP1 REVERT JUMPDEST POP GAS CALL ISZERO DUP1 ISZERO PUSH2 0x794 JUMPI RETURNDATASIZE PUSH1 0x0 DUP1 RETURNDATACOPY RETURNDATASIZE PUSH1 0x0 REVERT JUMPDEST POP POP POP POP POP JUMP JUMPDEST PUSH1 0x1 SLOAD PUSH1 0x1 PUSH1 0x1 PUSH1 0xA0 SHL SUB AND DUP2 JUMP JUMPDEST PUSH1 0x2 SLOAD PUSH1 0x1 PUSH1 0x1 PUSH1 0xA0 SHL SUB AND DUP2 JUMP JUMPDEST PUSH1 0x0 DUP3 PUSH2 0x7C8 JUMPI POP PUSH1 0x0 PUSH2 0x815 JUMP JUMPDEST DUP3 DUP3 MUL DUP3 DUP5 DUP3 DUP2 PUSH2 0x7D5 JUMPI INVALID JUMPDEST DIV EQ PUSH2 0x812 JUMPI PUSH1 0x40 MLOAD PUSH3 0x461BCD PUSH1 0xE5 SHL DUP2 MSTORE PUSH1 0x4 ADD DUP1 DUP1 PUSH1 0x20 ADD DUP3 DUP2 SUB DUP3 MSTORE PUSH1 0x21 DUP2 MSTORE PUSH1 0x20 ADD DUP1 PUSH2 0x9F6 PUSH1 0x21 SWAP2 CODECOPY PUSH1 0x40 ADD SWAP2 POP POP PUSH1 0x40 MLOAD DUP1 SWAP2 SUB SWAP1 REVERT JUMPDEST SWAP1 POP JUMPDEST SWAP3 SWAP2 POP POP JUMP JUMPDEST PUSH1 0x0 PUSH2 0x812 DUP4 DUP4 PUSH1 0x40 MLOAD DUP1 PUSH1 0x40 ADD PUSH1 0x40 MSTORE DUP1 PUSH1 0x1A DUP2 MSTORE PUSH1 0x20 ADD PUSH32 0x536166654D6174683A206469766973696F6E206279207A65726F000000000000 DUP2 MSTORE POP PUSH2 0x8F9 JUMP JUMPDEST PUSH1 0x0 PUSH2 0x812 DUP4 DUP4 PUSH1 0x40 MLOAD DUP1 PUSH1 0x40 ADD PUSH1 0x40 MSTORE DUP1 PUSH1 0x1E DUP2 MSTORE PUSH1 0x20 ADD PUSH32 0x536166654D6174683A207375627472616374696F6E206F766572666C6F770000 DUP2 MSTORE POP PUSH2 0x99B JUMP JUMPDEST PUSH1 0x0 DUP3 DUP3 ADD DUP4 DUP2 LT ISZERO PUSH2 0x812 JUMPI PUSH1 0x40 DUP1 MLOAD PUSH3 0x461BCD PUSH1 0xE5 SHL DUP2 MSTORE PUSH1 0x20 PUSH1 0x4 DUP3 ADD MSTORE PUSH1 0x1B PUSH1 0x24 DUP3 ADD MSTORE PUSH32 0x536166654D6174683A206164646974696F6E206F766572666C6F770000000000 PUSH1 0x44 DUP3 ADD MSTORE SWAP1 MLOAD SWAP1 DUP2 SWAP1 SUB PUSH1 0x64 ADD SWAP1 REVERT JUMPDEST PUSH1 0x0 DUP2 DUP4 PUSH2 0x985 JUMPI PUSH1 0x40 MLOAD PUSH3 0x461BCD PUSH1 0xE5 SHL DUP2 MSTORE PUSH1 0x4 ADD DUP1 DUP1 PUSH1 0x20 ADD DUP3 DUP2 SUB DUP3 MSTORE DUP4 DUP2 DUP2 MLOAD DUP2 MSTORE PUSH1 0x20 ADD SWAP2 POP DUP1 MLOAD SWAP1 PUSH1 0x20 ADD SWAP1 DUP1 DUP4 DUP4 PUSH1 0x0 JUMPDEST DUP4 DUP2 LT ISZERO PUSH2 0x94A JUMPI DUP2 DUP2 ADD MLOAD DUP4 DUP3 ADD MSTORE PUSH1 0x20 ADD PUSH2 0x932 JUMP JUMPDEST POP POP POP POP SWAP1 POP SWAP1 DUP2 ADD SWAP1 PUSH1 0x1F AND DUP1 ISZERO PUSH2 0x977 JUMPI DUP1 DUP3 SUB DUP1 MLOAD PUSH1 0x1 DUP4 PUSH1 0x20 SUB PUSH2 0x100 EXP SUB NOT AND DUP2 MSTORE PUSH1 0x20 ADD SWAP2 POP JUMPDEST POP SWAP3 POP POP POP PUSH1 0x40 MLOAD DUP1 SWAP2 SUB SWAP1 REVERT JUMPDEST POP PUSH1 0x0 DUP4 DUP6 DUP2 PUSH2 0x991 JUMPI INVALID JUMPDEST DIV SWAP6 SWAP5 POP POP POP POP POP JUMP JUMPDEST PUSH1 0x0 DUP2 DUP5 DUP5 GT ISZERO PUSH2 0x9ED JUMPI PUSH1 0x40 MLOAD PUSH3 0x461BCD PUSH1 0xE5 SHL DUP2 MSTORE PUSH1 0x20 PUSH1 0x4 DUP3 ADD DUP2 DUP2 MSTORE DUP4 MLOAD PUSH1 0x24 DUP5 ADD MSTORE DUP4 MLOAD SWAP1 SWAP3 DUP4 SWAP3 PUSH1 0x44 SWAP1 SWAP2 ADD SWAP2 SWAP1 DUP6 ADD SWAP1 DUP1 DUP4 DUP4 PUSH1 0x0 DUP4 ISZERO PUSH2 0x94A JUMPI DUP2 DUP2 ADD MLOAD DUP4 DUP3 ADD MSTORE PUSH1 0x20 ADD PUSH2 0x932 JUMP JUMPDEST POP POP POP SWAP1 SUB SWAP1 JUMP INVALID MSTORE8 PUSH2 0x6665 0x4D PUSH2 0x7468 GASPRICE KECCAK256 PUSH14 0x756C7469706C69636174696F6E20 PUSH16 0x766572666C6F77A26469706673582212 KECCAK256 DUP12 DUP3 0xD7 SMOD DUP4 PUSH17 0xE793C3F91B0BAACEBB6CD030445C9ACE9A PUSH26 0x29579EDA42055D0864736F6C6343000606003300000000000000 "},"gasEstimates":{"creation":{"codeDepositCost":"527200","executionCost":"infinite","totalCost":"infinite"},"external":{"admin()":"1147","babyToy()":"1125","calculateYieldTime(address)":"infinite","calculateYieldTotal(address)":"infinite","depositedAmount(address)":"1191","isStaking(address)":"1136","pairFork()":"1126","rewards(address)":"1147","stake(uint256)":"infinite","startTime(address)":"1235","unstake(uint256)":"infinite","withdrawRewards()":"infinite"}},"methodIdentifiers":{"admin()":"f851a440","babyToy()":"e70f053b","calculateYieldTime(address)":"980d6116","calculateYieldTotal(address)":"06872661","depositedAmount(address)":"4a4643f7","isStaking(address)":"6f49712b","pairFork()":"59201402","rewards(address)":"0700037d","stake(uint256)":"a694fc3a","startTime(address)":"6e1dc66e","unstake(uint256)":"2e17de78","withdrawRewards()":"c7b8981c"}},"storageLayout":{"storage":[{"astId":8,"contract":"Contract:YieldFarmingBabyLeash","label":"pairFork","offset":0,"slot":"0","type":"t_contract(IUniswapV2Pair)1045"},{"astId":10,"contract":"Contract:YieldFarmingBabyLeash","label":"babyToy","offset":0,"slot":"1","type":"t_contract(BabyToy)803"},{"astId":12,"contract":"Contract:YieldFarmingBabyLeash","label":"admin","offset":0,"slot":"2","type":"t_address"},{"astId":16,"contract":"Contract:YieldFarmingBabyLeash","label":"depositedAmount","offset":0,"slot":"3","type":"t_mapping(t_address,t_uint256)"},{"astId":20,"contract":"Contract:YieldFarmingBabyLeash","label":"isStaking","offset":0,"slot":"4","type":"t_mapping(t_address,t_bool)"},{"astId":24,"contract":"Contract:YieldFarmingBabyLeash","label":"startTime","offset":0,"slot":"5","type":"t_mapping(t_address,t_uint256)"},{"astId":28,"contract":"Contract:YieldFarmingBabyLeash","label":"rewards","offset":0,"slot":"6","type":"t_mapping(t_address,t_uint256)"}],"types":{"t_address":{"encoding":"inplace","label":"address","numberOfBytes":"20"},"t_bool":{"encoding":"inplace","label":"bool","numberOfBytes":"1"},"t_contract(BabyToy)803":{"encoding":"inplace","label":"contract BabyToy","numberOfBytes":"20"},"t_contract(IUniswapV2Pair)1045":{"encoding":"inplace","label":"contract IUniswapV2Pair","numberOfBytes":"20"},"t_mapping(t_address,t_bool)":{"encoding":"mapping","key":"t_address","label":"mapping(address => bool)","numberOfBytes":"32","value":"t_bool"},"t_mapping(t_address,t_uint256)":{"encoding":"mapping","key":"t_address","label":"mapping(address => uint256)","numberOfBytes":"32","value":"t_uint256"},"t_uint256":{"encoding":"inplace","label":"uint256","numberOfBytes":"32"}}},"userdoc":{"methods":{}}}