{"abi":[{"inputs":[{"internalType":"address","name":"_pairFork","type":"address"},{"internalType":"address","name":"_bonusToken","type":"address"}],"stateMutability":"nonpayable","type":"constructor"},{"inputs":[],"name":"admin","outputs":[{"internalType":"address","name":"","type":"address"}],"stateMutability":"view","type":"function"},{"inputs":[],"name":"bonusToken","outputs":[{"internalType":"contract BonusToken","name":"","type":"address"}],"stateMutability":"view","type":"function"},{"inputs":[{"internalType":"address","name":"user","type":"address"}],"name":"calculateYieldTime","outputs":[{"internalType":"uint256","name":"","type":"uint256"}],"stateMutability":"view","type":"function"},{"inputs":[{"internalType":"address","name":"user","type":"address"}],"name":"calculateYieldTotal","outputs":[{"internalType":"uint256","name":"","type":"uint256"}],"stateMutability":"view","type":"function"},{"inputs":[{"internalType":"address","name":"","type":"address"}],"name":"depositedAmount","outputs":[{"internalType":"uint256","name":"","type":"uint256"}],"stateMutability":"view","type":"function"},{"inputs":[{"internalType":"address","name":"","type":"address"}],"name":"isStaking","outputs":[{"internalType":"bool","name":"","type":"bool"}],"stateMutability":"view","type":"function"},{"inputs":[],"name":"pairFork","outputs":[{"internalType":"contract IUniswapV2Pair","name":"","type":"address"}],"stateMutability":"view","type":"function"},{"inputs":[{"internalType":"address","name":"","type":"address"}],"name":"rewards","outputs":[{"internalType":"uint256","name":"","type":"uint256"}],"stateMutability":"view","type":"function"},{"inputs":[{"internalType":"uint256","name":"_amount","type":"uint256"}],"name":"stake","outputs":[],"stateMutability":"nonpayable","type":"function"},{"inputs":[{"internalType":"address","name":"","type":"address"}],"name":"startTime","outputs":[{"internalType":"uint256","name":"","type":"uint256"}],"stateMutability":"view","type":"function"},{"inputs":[{"internalType":"uint256","name":"_amount","type":"uint256"}],"name":"unstake","outputs":[],"stateMutability":"nonpayable","type":"function"},{"inputs":[],"name":"withdrawRewards","outputs":[],"stateMutability":"nonpayable","type":"function"}],"devdoc":{"methods":{}},"evm":{"assembly":"    /* \"Contract\":238:3200  contract YieldFarming {\r... */\n  mstore(0x40, 0x80)\n    /* \"Contract\":614:804  constructor(address _pairFork, address _bonusToken) public {\r... */\n  callvalue\n    /* \"--CODEGEN--\":5:14   */\n  dup1\n    /* \"--CODEGEN--\":2:4   */\n  iszero\n  tag_1\n  jumpi\n    /* \"--CODEGEN--\":27:28   */\n  0x00\n    /* \"--CODEGEN--\":24:25   */\n  dup1\n    /* \"--CODEGEN--\":17:29   */\n  revert\n    /* \"--CODEGEN--\":2:4   */\ntag_1:\n    /* \"Contract\":614:804  constructor(address _pairFork, address _bonusToken) public {\r... */\n  pop\n  mload(0x40)\n  sub(codesize, bytecodeSize)\n  dup1\n  bytecodeSize\n  dup4\n  codecopy\n  dup2\n  dup2\n  add\n  0x40\n  mstore\n    /* \"--CODEGEN--\":15:17   */\n  0x40\n    /* \"--CODEGEN--\":10:13   */\n  dup2\n    /* \"--CODEGEN--\":7:18   */\n  lt\n    /* \"--CODEGEN--\":4:6   */\n  iszero\n  tag_2\n  jumpi\n    /* \"--CODEGEN--\":31:32   */\n  0x00\n    /* \"--CODEGEN--\":28:29   */\n  dup1\n    /* \"--CODEGEN--\":21:33   */\n  revert\n    /* \"--CODEGEN--\":4:6   */\ntag_2:\n  pop\n    /* \"Contract\":614:804  constructor(address _pairFork, address _bonusToken) public {\r... */\n  dup1\n  mload\n  0x20\n  swap1\n  swap2\n  add\n  mload\n    /* \"Contract\":684:692  pairFork */\n  0x00\n    /* \"Contract\":684:720  pairFork = IUniswapV2Pair(_pairFork) */\n  dup1\n  sload\n  sub(shl(0xa0, 0x01), 0x01)\n  swap4\n  dup5\n  and\n  not(sub(shl(0xa0, 0x01), 0x01))\n  swap2\n  dup3\n  and\n  or\n  swap1\n  swap2\n  sstore\n  0x01\n    /* \"Contract\":731:767  bonusToken = BonusToken(_bonusToken) */\n  dup1\n  sload\n  swap4\n  swap1\n  swap3\n  and\n  swap3\n  dup2\n  and\n  swap3\n  swap1\n  swap3\n  or\n  swap1\n  sstore\n    /* \"Contract\":778:783  admin */\n  0x02\n    /* \"Contract\":778:796  admin = msg.sender */\n  dup1\n  sload\n  swap1\n  swap2\n  and\n    /* \"Contract\":786:796  msg.sender */\n  caller\n    /* \"Contract\":778:796  admin = msg.sender */\n  or\n  swap1\n  sstore\n    /* \"Contract\":238:3200  contract YieldFarming {\r... */\n  dataSize(sub_0)\n  dup1\n  dataOffset(sub_0)\n  0x00\n  codecopy\n  0x00\n  return\nstop\n\nsub_0: assembly {\n        /* \"Contract\":238:3200  contract YieldFarming {\r... */\n      mstore(0x40, 0x80)\n      callvalue\n        /* \"--CODEGEN--\":5:14   */\n      dup1\n        /* \"--CODEGEN--\":2:4   */\n      iszero\n      tag_1\n      jumpi\n        /* \"--CODEGEN--\":27:28   */\n      0x00\n        /* \"--CODEGEN--\":24:25   */\n      dup1\n        /* \"--CODEGEN--\":17:29   */\n      revert\n        /* \"--CODEGEN--\":2:4   */\n    tag_1:\n        /* \"Contract\":238:3200  contract YieldFarming {\r... */\n      pop\n      jumpi(tag_2, lt(calldatasize, 0x04))\n      shr(0xe0, calldataload(0x00))\n      dup1\n      0x6e1dc66e\n      gt\n      tag_15\n      jumpi\n      dup1\n      0x6e1dc66e\n      eq\n      tag_9\n      jumpi\n      dup1\n      0x6f49712b\n      eq\n      tag_10\n      jumpi\n      dup1\n      0x980d6116\n      eq\n      tag_11\n      jumpi\n      dup1\n      0xa694fc3a\n      eq\n      tag_12\n      jumpi\n      dup1\n      0xc7b8981c\n      eq\n      tag_13\n      jumpi\n      dup1\n      0xf851a440\n      eq\n      tag_14\n      jumpi\n      jump(tag_2)\n    tag_15:\n      dup1\n      0x06872661\n      eq\n      tag_3\n      jumpi\n      dup1\n      0x0700037d\n      eq\n      tag_4\n      jumpi\n      dup1\n      0x2e17de78\n      eq\n      tag_5\n      jumpi\n      dup1\n      0x41d4a1ab\n      eq\n      tag_6\n      jumpi\n      dup1\n      0x4a4643f7\n      eq\n      tag_7\n      jumpi\n      dup1\n      0x59201402\n      eq\n      tag_8\n      jumpi\n    tag_2:\n        /* \"--CODEGEN--\":12:13   */\n      0x00\n        /* \"--CODEGEN--\":9:10   */\n      dup1\n        /* \"--CODEGEN--\":2:14   */\n      revert\n        /* \"Contract\":2874:3196  function calculateYieldTotal(address user) public view returns(uint256) {\r... */\n    tag_3:\n      tag_16\n      0x04\n      dup1\n      calldatasize\n      sub\n        /* \"--CODEGEN--\":15:17   */\n      0x20\n        /* \"--CODEGEN--\":10:13   */\n      dup2\n        /* \"--CODEGEN--\":7:18   */\n      lt\n        /* \"--CODEGEN--\":4:6   */\n      iszero\n      tag_17\n      jumpi\n        /* \"--CODEGEN--\":31:32   */\n      0x00\n        /* \"--CODEGEN--\":28:29   */\n      dup1\n        /* \"--CODEGEN--\":21:33   */\n      revert\n        /* \"--CODEGEN--\":4:6   */\n    tag_17:\n      pop\n        /* \"Contract\":2874:3196  function calculateYieldTotal(address user) public view returns(uint256) {\r... */\n      calldataload\n      sub(shl(0xa0, 0x01), 0x01)\n      and\n      tag_18\n      jump\t// in\n    tag_16:\n      0x40\n      dup1\n      mload\n      swap2\n      dup3\n      mstore\n      mload\n      swap1\n      dup2\n      swap1\n      sub\n      0x20\n      add\n      swap1\n      return\n        /* \"Contract\":563:605  mapping(address => uint256) public rewards */\n    tag_4:\n      tag_16\n      0x04\n      dup1\n      calldatasize\n      sub\n        /* \"--CODEGEN--\":15:17   */\n      0x20\n        /* \"--CODEGEN--\":10:13   */\n      dup2\n        /* \"--CODEGEN--\":7:18   */\n      lt\n        /* \"--CODEGEN--\":4:6   */\n      iszero\n      tag_20\n      jumpi\n        /* \"--CODEGEN--\":31:32   */\n      0x00\n        /* \"--CODEGEN--\":28:29   */\n      dup1\n        /* \"--CODEGEN--\":21:33   */\n      revert\n        /* \"--CODEGEN--\":4:6   */\n    tag_20:\n      pop\n        /* \"Contract\":563:605  mapping(address => uint256) public rewards */\n      calldataload\n      sub(shl(0xa0, 0x01), 0x01)\n      and\n      tag_21\n      jump\t// in\n        /* \"Contract\":1399:2107  function unstake(uint256 _amount) external {\r... */\n    tag_5:\n      tag_22\n      0x04\n      dup1\n      calldatasize\n      sub\n        /* \"--CODEGEN--\":15:17   */\n      0x20\n        /* \"--CODEGEN--\":10:13   */\n      dup2\n        /* \"--CODEGEN--\":7:18   */\n      lt\n        /* \"--CODEGEN--\":4:6   */\n      iszero\n      tag_23\n      jumpi\n        /* \"--CODEGEN--\":31:32   */\n      0x00\n        /* \"--CODEGEN--\":28:29   */\n      dup1\n        /* \"--CODEGEN--\":21:33   */\n      revert\n        /* \"--CODEGEN--\":4:6   */\n    tag_23:\n      pop\n        /* \"Contract\":1399:2107  function unstake(uint256 _amount) external {\r... */\n      calldataload\n      tag_24\n      jump\t// in\n    tag_22:\n      stop\n        /* \"Contract\":345:373  BonusToken public bonusToken */\n    tag_6:\n      tag_25\n      tag_26\n      jump\t// in\n    tag_25:\n      0x40\n      dup1\n      mload\n      sub(shl(0xa0, 0x01), 0x01)\n      swap1\n      swap3\n      and\n      dup3\n      mstore\n      mload\n      swap1\n      dup2\n      swap1\n      sub\n      0x20\n      add\n      swap1\n      return\n        /* \"Contract\":407:457  mapping(address => uint256) public depositedAmount */\n    tag_7:\n      tag_16\n      0x04\n      dup1\n      calldatasize\n      sub\n        /* \"--CODEGEN--\":15:17   */\n      0x20\n        /* \"--CODEGEN--\":10:13   */\n      dup2\n        /* \"--CODEGEN--\":7:18   */\n      lt\n        /* \"--CODEGEN--\":4:6   */\n      iszero\n      tag_28\n      jumpi\n        /* \"--CODEGEN--\":31:32   */\n      0x00\n        /* \"--CODEGEN--\":28:29   */\n      dup1\n        /* \"--CODEGEN--\":21:33   */\n      revert\n        /* \"--CODEGEN--\":4:6   */\n    tag_28:\n      pop\n        /* \"Contract\":407:457  mapping(address => uint256) public depositedAmount */\n      calldataload\n      sub(shl(0xa0, 0x01), 0x01)\n      and\n      tag_29\n      jump\t// in\n        /* \"Contract\":308:338  IUniswapV2Pair public pairFork */\n    tag_8:\n      tag_25\n      tag_31\n      jump\t// in\n        /* \"Contract\":512:556  mapping(address => uint256) public startTime */\n    tag_9:\n      tag_16\n      0x04\n      dup1\n      calldatasize\n      sub\n        /* \"--CODEGEN--\":15:17   */\n      0x20\n        /* \"--CODEGEN--\":10:13   */\n      dup2\n        /* \"--CODEGEN--\":7:18   */\n      lt\n        /* \"--CODEGEN--\":4:6   */\n      iszero\n      tag_33\n      jumpi\n        /* \"--CODEGEN--\":31:32   */\n      0x00\n        /* \"--CODEGEN--\":28:29   */\n      dup1\n        /* \"--CODEGEN--\":21:33   */\n      revert\n        /* \"--CODEGEN--\":4:6   */\n    tag_33:\n      pop\n        /* \"Contract\":512:556  mapping(address => uint256) public startTime */\n      calldataload\n      sub(shl(0xa0, 0x01), 0x01)\n      and\n      tag_34\n      jump\t// in\n        /* \"Contract\":464:505  mapping(address => bool) public isStaking */\n    tag_10:\n      tag_35\n      0x04\n      dup1\n      calldatasize\n      sub\n        /* \"--CODEGEN--\":15:17   */\n      0x20\n        /* \"--CODEGEN--\":10:13   */\n      dup2\n        /* \"--CODEGEN--\":7:18   */\n      lt\n        /* \"--CODEGEN--\":4:6   */\n      iszero\n      tag_36\n      jumpi\n        /* \"--CODEGEN--\":31:32   */\n      0x00\n        /* \"--CODEGEN--\":28:29   */\n      dup1\n        /* \"--CODEGEN--\":21:33   */\n      revert\n        /* \"--CODEGEN--\":4:6   */\n    tag_36:\n      pop\n        /* \"Contract\":464:505  mapping(address => bool) public isStaking */\n      calldataload\n      sub(shl(0xa0, 0x01), 0x01)\n      and\n      tag_37\n      jump\t// in\n    tag_35:\n      0x40\n      dup1\n      mload\n      swap2\n      iszero\n      iszero\n      dup3\n      mstore\n      mload\n      swap1\n      dup2\n      swap1\n      sub\n      0x20\n      add\n      swap1\n      return\n        /* \"Contract\":2666:2866  function calculateYieldTime(address user) public view returns(uint256){\r... */\n    tag_11:\n      tag_16\n      0x04\n      dup1\n      calldatasize\n      sub\n        /* \"--CODEGEN--\":15:17   */\n      0x20\n        /* \"--CODEGEN--\":10:13   */\n      dup2\n        /* \"--CODEGEN--\":7:18   */\n      lt\n        /* \"--CODEGEN--\":4:6   */\n      iszero\n      tag_39\n      jumpi\n        /* \"--CODEGEN--\":31:32   */\n      0x00\n        /* \"--CODEGEN--\":28:29   */\n      dup1\n        /* \"--CODEGEN--\":21:33   */\n      revert\n        /* \"--CODEGEN--\":4:6   */\n    tag_39:\n      pop\n        /* \"Contract\":2666:2866  function calculateYieldTime(address user) public view returns(uint256){\r... */\n      calldataload\n      sub(shl(0xa0, 0x01), 0x01)\n      and\n      tag_40\n      jump\t// in\n        /* \"Contract\":812:1391  function stake(uint256 _amount) external {\r... */\n    tag_12:\n      tag_22\n      0x04\n      dup1\n      calldatasize\n      sub\n        /* \"--CODEGEN--\":15:17   */\n      0x20\n        /* \"--CODEGEN--\":10:13   */\n      dup2\n        /* \"--CODEGEN--\":7:18   */\n      lt\n        /* \"--CODEGEN--\":4:6   */\n      iszero\n      tag_42\n      jumpi\n        /* \"--CODEGEN--\":31:32   */\n      0x00\n        /* \"--CODEGEN--\":28:29   */\n      dup1\n        /* \"--CODEGEN--\":21:33   */\n      revert\n        /* \"--CODEGEN--\":4:6   */\n    tag_42:\n      pop\n        /* \"Contract\":812:1391  function stake(uint256 _amount) external {\r... */\n      calldataload\n      tag_43\n      jump\t// in\n        /* \"Contract\":2115:2658  function withdrawRewards() public {\r... */\n    tag_13:\n      tag_22\n      tag_45\n      jump\t// in\n        /* \"Contract\":380:400  address public admin */\n    tag_14:\n      tag_25\n      tag_47\n      jump\t// in\n        /* \"Contract\":2874:3196  function calculateYieldTotal(address user) public view returns(uint256) {\r... */\n    tag_18:\n        /* \"Contract\":2937:2944  uint256 */\n      0x00\n        /* \"Contract\":2957:2969  uint256 time */\n      dup1\n        /* \"Contract\":2972:3008  calculateYieldTime(user).mul(10**18) */\n      tag_49\n        /* \"Contract\":3001:3007  10**18 */\n      0x0de0b6b3a7640000\n        /* \"Contract\":2972:2996  calculateYieldTime(user) */\n      tag_50\n        /* \"Contract\":2991:2995  user */\n      dup6\n        /* \"Contract\":2972:2990  calculateYieldTime */\n      tag_40\n        /* \"Contract\":2972:2996  calculateYieldTime(user) */\n      jump\t// in\n    tag_50:\n        /* \"Contract\":2972:3000  calculateYieldTime(user).mul */\n      swap1\n        /* \"Contract\":2972:3008  calculateYieldTime(user).mul(10**18) */\n      0xffffffff\n        /* \"Contract\":2972:3000  calculateYieldTime(user).mul */\n      tag_51\n        /* \"Contract\":2972:3008  calculateYieldTime(user).mul(10**18) */\n      and\n      jump\t// in\n    tag_49:\n        /* \"Contract\":2957:3008  uint256 time = calculateYieldTime(user).mul(10**18) */\n      swap1\n      pop\n        /* \"Contract\":3034:3039  86400 */\n      0x015180\n        /* \"Contract\":3019:3031  uint256 rate */\n      0x00\n        /* \"Contract\":3069:3083  time.div(rate) */\n      tag_52\n        /* \"Contract\":2957:3008  uint256 time = calculateYieldTime(user).mul(10**18) */\n      dup4\n        /* \"Contract\":3034:3039  86400 */\n      dup4\n        /* \"Contract\":3069:3083  time.div(rate) */\n      0xffffffff\n        /* \"Contract\":3069:3077  time.div */\n      tag_53\n        /* \"Contract\":3069:3083  time.div(rate) */\n      and\n      jump\t// in\n    tag_52:\n      sub(shl(0xa0, 0x01), 0x01)\n        /* \"Contract\":3114:3135  depositedAmount[user] */\n      dup7\n      and\n        /* \"Contract\":3094:3110  uint256 rawYield */\n      0x00\n        /* \"Contract\":3114:3135  depositedAmount[user] */\n      swap1\n      dup2\n      mstore\n        /* \"Contract\":3114:3129  depositedAmount */\n      0x03\n        /* \"Contract\":3114:3135  depositedAmount[user] */\n      0x20\n      mstore\n      0x40\n      dup2\n      keccak256\n      sload\n        /* \"Contract\":3050:3083  uint256 timeRate = time.div(rate) */\n      swap2\n      swap3\n      pop\n        /* \"Contract\":3094:3110  uint256 rawYield */\n      swap1\n        /* \"Contract\":3113:3162  (depositedAmount[user].mul(timeRate)).div(10**18) */\n      tag_54\n      swap1\n        /* \"Contract\":3155:3161  10**18 */\n      0x0de0b6b3a7640000\n      swap1\n        /* \"Contract\":3114:3149  depositedAmount[user].mul(timeRate) */\n      tag_55\n      swap1\n        /* \"Contract\":3050:3083  uint256 timeRate = time.div(rate) */\n      dup6\n        /* \"Contract\":3114:3149  depositedAmount[user].mul(timeRate) */\n      0xffffffff\n        /* \"Contract\":3114:3139  depositedAmount[user].mul */\n      tag_51\n        /* \"Contract\":3114:3149  depositedAmount[user].mul(timeRate) */\n      and\n      jump\t// in\n    tag_55:\n        /* \"Contract\":3113:3154  (depositedAmount[user].mul(timeRate)).div */\n      swap1\n        /* \"Contract\":3113:3162  (depositedAmount[user].mul(timeRate)).div(10**18) */\n      0xffffffff\n        /* \"Contract\":3113:3154  (depositedAmount[user].mul(timeRate)).div */\n      tag_53\n        /* \"Contract\":3113:3162  (depositedAmount[user].mul(timeRate)).div(10**18) */\n      and\n      jump\t// in\n    tag_54:\n        /* \"Contract\":3094:3162  uint256 rawYield = (depositedAmount[user].mul(timeRate)).div(10**18) */\n      swap7\n        /* \"Contract\":2874:3196  function calculateYieldTotal(address user) public view returns(uint256) {\r... */\n      swap6\n      pop\n      pop\n      pop\n      pop\n      pop\n      pop\n      jump\t// out\n        /* \"Contract\":563:605  mapping(address => uint256) public rewards */\n    tag_21:\n      mstore(0x20, 0x06)\n      0x00\n      swap1\n      dup2\n      mstore\n      0x40\n      swap1\n      keccak256\n      sload\n      dup2\n      jump\t// out\n        /* \"Contract\":1399:2107  function unstake(uint256 _amount) external {\r... */\n    tag_24:\n        /* \"Contract\":1477:1487  msg.sender */\n      caller\n        /* \"Contract\":1461:1488  depositedAmount[msg.sender] */\n      0x00\n      swap1\n      dup2\n      mstore\n        /* \"Contract\":1461:1476  depositedAmount */\n      0x03\n        /* \"Contract\":1461:1488  depositedAmount[msg.sender] */\n      0x20\n      mstore\n      0x40\n      swap1\n      keccak256\n      sload\n        /* \"Contract\":1453:1520  require(depositedAmount[msg.sender] != 0, \"Nothing to unstake ...\") */\n      tag_57\n      jumpi\n      0x40\n      dup1\n      mload\n      shl(0xe5, 0x461bcd)\n      dup2\n      mstore\n      0x20\n      0x04\n      dup3\n      add\n      mstore\n      0x16\n      0x24\n      dup3\n      add\n      mstore\n      shl(0x51, 0x2737ba3434b733903a37903ab739ba30b5b290171717)\n      0x44\n      dup3\n      add\n      mstore\n      swap1\n      mload\n      swap1\n      dup2\n      swap1\n      sub\n      0x64\n      add\n      swap1\n      revert\n    tag_57:\n        /* \"Contract\":1566:1576  msg.sender */\n      caller\n        /* \"Contract\":1550:1577  depositedAmount[msg.sender] */\n      0x00\n      swap1\n      dup2\n      mstore\n        /* \"Contract\":1550:1565  depositedAmount */\n      0x03\n        /* \"Contract\":1550:1577  depositedAmount[msg.sender] */\n      0x20\n      mstore\n      0x40\n      swap1\n      keccak256\n      sload\n        /* \"Contract\":1539:1577  _amount <= depositedAmount[msg.sender] */\n      dup2\n      gt\n      iszero\n        /* \"Contract\":1531:1606  require(_amount <= depositedAmount[msg.sender], \"Withdraw amount to high!\") */\n      tag_58\n      jumpi\n      0x40\n      dup1\n      mload\n      shl(0xe5, 0x461bcd)\n      dup2\n      mstore\n      0x20\n      0x04\n      dup3\n      add\n      mstore\n      0x18\n      0x24\n      dup3\n      add\n      mstore\n      0x576974686472617720616d6f756e7420746f2068696768210000000000000000\n      0x44\n      dup3\n      add\n      mstore\n      swap1\n      mload\n      swap1\n      dup2\n      swap1\n      sub\n      0x64\n      add\n      swap1\n      revert\n    tag_58:\n        /* \"Contract\":1617:1625  pairFork */\n      0x00\n      dup1\n      sload\n        /* \"Contract\":1617:1655  pairFork.transfer(msg.sender, _amount) */\n      0x40\n      dup1\n      mload\n      shl(0xe0, 0xa9059cbb)\n      dup2\n      mstore\n        /* \"Contract\":1635:1645  msg.sender */\n      caller\n        /* \"Contract\":1617:1655  pairFork.transfer(msg.sender, _amount) */\n      0x04\n      dup3\n      add\n      mstore\n      0x24\n      dup2\n      add\n      dup6\n      swap1\n      mstore\n      swap1\n      mload\n      sub(shl(0xa0, 0x01), 0x01)\n        /* \"Contract\":1617:1625  pairFork */\n      swap1\n      swap3\n      and\n      swap3\n        /* \"Contract\":1617:1634  pairFork.transfer */\n      0xa9059cbb\n      swap3\n        /* \"Contract\":1617:1655  pairFork.transfer(msg.sender, _amount) */\n      0x44\n      dup1\n      dup5\n      add\n      swap4\n      0x20\n      swap4\n      swap1\n      dup4\n      swap1\n      sub\n      swap1\n      swap2\n      add\n      swap1\n      dup3\n      swap1\n        /* \"Contract\":1617:1625  pairFork */\n      dup8\n        /* \"Contract\":1617:1655  pairFork.transfer(msg.sender, _amount) */\n      dup1\n      extcodesize\n      iszero\n        /* \"--CODEGEN--\":2:4   */\n      dup1\n      iszero\n      tag_59\n      jumpi\n        /* \"--CODEGEN--\":27:28   */\n      0x00\n        /* \"--CODEGEN--\":24:25   */\n      dup1\n        /* \"--CODEGEN--\":17:29   */\n      revert\n        /* \"--CODEGEN--\":2:4   */\n    tag_59:\n        /* \"Contract\":1617:1655  pairFork.transfer(msg.sender, _amount) */\n      pop\n      gas\n      call\n      iszero\n        /* \"--CODEGEN--\":8:17   */\n      dup1\n        /* \"--CODEGEN--\":5:7   */\n      iszero\n      tag_61\n      jumpi\n        /* \"--CODEGEN--\":45:61   */\n      returndatasize\n        /* \"--CODEGEN--\":42:43   */\n      0x00\n        /* \"--CODEGEN--\":39:40   */\n      dup1\n        /* \"--CODEGEN--\":24:62   */\n      returndatacopy\n        /* \"--CODEGEN--\":77:93   */\n      returndatasize\n        /* \"--CODEGEN--\":74:75   */\n      0x00\n        /* \"--CODEGEN--\":67:94   */\n      revert\n        /* \"--CODEGEN--\":5:7   */\n    tag_61:\n        /* \"Contract\":1617:1655  pairFork.transfer(msg.sender, _amount) */\n      pop\n      pop\n      pop\n      pop\n      mload(0x40)\n      returndatasize\n        /* \"--CODEGEN--\":15:17   */\n      0x20\n        /* \"--CODEGEN--\":10:13   */\n      dup2\n        /* \"--CODEGEN--\":7:18   */\n      lt\n        /* \"--CODEGEN--\":4:6   */\n      iszero\n      tag_62\n      jumpi\n        /* \"--CODEGEN--\":31:32   */\n      0x00\n        /* \"--CODEGEN--\":28:29   */\n      dup1\n        /* \"--CODEGEN--\":21:33   */\n      revert\n        /* \"--CODEGEN--\":4:6   */\n    tag_62:\n      pop\n      pop\n        /* \"Contract\":1682:1692  msg.sender */\n      caller\n        /* \"Contract\":1666:1693  depositedAmount[msg.sender] */\n      0x00\n      swap1\n      dup2\n      mstore\n        /* \"Contract\":1666:1681  depositedAmount */\n      0x03\n        /* \"Contract\":1617:1655  pairFork.transfer(msg.sender, _amount) */\n      0x20\n        /* \"Contract\":1666:1693  depositedAmount[msg.sender] */\n      mstore\n      0x40\n      swap1\n      keccak256\n      sload\n        /* \"Contract\":1666:1706  depositedAmount[msg.sender].sub(_amount) */\n      tag_63\n      swap1\n        /* \"Contract\":1698:1705  _amount */\n      dup3\n        /* \"Contract\":1666:1706  depositedAmount[msg.sender].sub(_amount) */\n      0xffffffff\n        /* \"Contract\":1666:1697  depositedAmount[msg.sender].sub */\n      tag_64\n        /* \"Contract\":1666:1706  depositedAmount[msg.sender].sub(_amount) */\n      and\n      jump\t// in\n    tag_63:\n      pop\n        /* \"Contract\":1717:1738  uint256 yieldTransfer */\n      0x00\n        /* \"Contract\":1741:1772  calculateYieldTotal(msg.sender) */\n      tag_65\n        /* \"Contract\":1761:1771  msg.sender */\n      caller\n        /* \"Contract\":1741:1760  calculateYieldTotal */\n      tag_18\n        /* \"Contract\":1741:1772  calculateYieldTotal(msg.sender) */\n      jump\t// in\n    tag_65:\n        /* \"Contract\":1793:1803  msg.sender */\n      caller\n        /* \"Contract\":1783:1804  startTime[msg.sender] */\n      0x00\n      swap1\n      dup2\n      mstore\n        /* \"Contract\":1783:1792  startTime */\n      0x05\n        /* \"Contract\":1783:1804  startTime[msg.sender] */\n      0x20\n      swap1\n      dup2\n      mstore\n      0x40\n      dup1\n      dup4\n      keccak256\n        /* \"Contract\":1807:1822  block.timestamp */\n      timestamp\n        /* \"Contract\":1783:1822  startTime[msg.sender] = block.timestamp */\n      swap1\n      sstore\n        /* \"Contract\":1900:1915  depositedAmount */\n      0x03\n        /* \"Contract\":1900:1927  depositedAmount[msg.sender] */\n      swap1\n      swap2\n      mstore\n      dup2\n      keccak256\n      sload\n        /* \"Contract\":1783:1804  startTime[msg.sender] */\n      swap1\n      swap4\n        /* \"Contract\":1717:1772  uint256 yieldTransfer = calculateYieldTotal(msg.sender) */\n      swap2\n      swap3\n      pop\n        /* \"Contract\":1900:1948  depositedAmount[msg.sender].sub(balanceTransfer) */\n      tag_66\n      swap1\n        /* \"Contract\":1860:1867  _amount */\n      dup3\n        /* \"Contract\":1900:1948  depositedAmount[msg.sender].sub(balanceTransfer) */\n      0xffffffff\n        /* \"Contract\":1900:1931  depositedAmount[msg.sender].sub */\n      tag_64\n        /* \"Contract\":1900:1948  depositedAmount[msg.sender].sub(balanceTransfer) */\n      and\n      jump\t// in\n    tag_66:\n      pop\n        /* \"Contract\":1967:1977  msg.sender */\n      caller\n        /* \"Contract\":1959:1978  rewards[msg.sender] */\n      0x00\n      swap1\n      dup2\n      mstore\n        /* \"Contract\":1959:1966  rewards */\n      0x06\n        /* \"Contract\":1959:1978  rewards[msg.sender] */\n      0x20\n      mstore\n      0x40\n      swap1\n      keccak256\n      sload\n        /* \"Contract\":1959:1997  rewards[msg.sender].add(yieldTransfer) */\n      tag_67\n      swap1\n        /* \"Contract\":1983:1996  yieldTransfer */\n      dup4\n        /* \"Contract\":1959:1997  rewards[msg.sender].add(yieldTransfer) */\n      0xffffffff\n        /* \"Contract\":1959:1982  rewards[msg.sender].add */\n      tag_68\n        /* \"Contract\":1959:1997  rewards[msg.sender].add(yieldTransfer) */\n      and\n      jump\t// in\n    tag_67:\n      pop\n        /* \"Contract\":2027:2037  msg.sender */\n      caller\n        /* \"Contract\":2011:2038  depositedAmount[msg.sender] */\n      0x00\n      swap1\n      dup2\n      mstore\n        /* \"Contract\":2011:2026  depositedAmount */\n      0x03\n        /* \"Contract\":2011:2038  depositedAmount[msg.sender] */\n      0x20\n      mstore\n      0x40\n      swap1\n      keccak256\n      sload\n        /* \"Contract\":2008:2100  if(depositedAmount[msg.sender] == 0){\r... */\n      tag_69\n      jumpi\n        /* \"Contract\":2069:2079  msg.sender */\n      caller\n        /* \"Contract\":2083:2088  false */\n      0x00\n        /* \"Contract\":2059:2080  isStaking[msg.sender] */\n      swap1\n      dup2\n      mstore\n        /* \"Contract\":2059:2068  isStaking */\n      0x04\n        /* \"Contract\":2059:2080  isStaking[msg.sender] */\n      0x20\n      mstore\n      0x40\n      swap1\n      keccak256\n        /* \"Contract\":2059:2088  isStaking[msg.sender] = false */\n      dup1\n      sload\n      not(0xff)\n      and\n      swap1\n      sstore\n        /* \"Contract\":2008:2100  if(depositedAmount[msg.sender] == 0){\r... */\n    tag_69:\n        /* \"Contract\":1399:2107  function unstake(uint256 _amount) external {\r... */\n      pop\n      pop\n      pop\n      jump\t// out\n        /* \"Contract\":345:373  BonusToken public bonusToken */\n    tag_26:\n      and(sub(shl(0xa0, 0x01), 0x01), sload(0x01))\n      dup2\n      jump\t// out\n        /* \"Contract\":407:457  mapping(address => uint256) public depositedAmount */\n    tag_29:\n      mstore(0x20, 0x03)\n      0x00\n      swap1\n      dup2\n      mstore\n      0x40\n      swap1\n      keccak256\n      sload\n      dup2\n      jump\t// out\n        /* \"Contract\":308:338  IUniswapV2Pair public pairFork */\n    tag_31:\n      and(sub(shl(0xa0, 0x01), 0x01), sload(0x00))\n      dup2\n      jump\t// out\n        /* \"Contract\":512:556  mapping(address => uint256) public startTime */\n    tag_34:\n      mstore(0x20, 0x05)\n      0x00\n      swap1\n      dup2\n      mstore\n      0x40\n      swap1\n      keccak256\n      sload\n      dup2\n      jump\t// out\n        /* \"Contract\":464:505  mapping(address => bool) public isStaking */\n    tag_37:\n      mstore(0x20, 0x04)\n      0x00\n      swap1\n      dup2\n      mstore\n      0x40\n      swap1\n      keccak256\n      sload\n      0xff\n      and\n      dup2\n      jump\t// out\n        /* \"Contract\":2666:2866  function calculateYieldTime(address user) public view returns(uint256){\r... */\n    tag_40:\n      sub(shl(0xa0, 0x01), 0x01)\n        /* \"Contract\":2815:2830  startTime[user] */\n      dup2\n      and\n        /* \"Contract\":2728:2735  uint256 */\n      0x00\n        /* \"Contract\":2815:2830  startTime[user] */\n      swap1\n      dup2\n      mstore\n        /* \"Contract\":2815:2824  startTime */\n      0x05\n        /* \"Contract\":2815:2830  startTime[user] */\n      0x20\n      mstore\n      0x40\n      dup2\n      keccak256\n      sload\n        /* \"Contract\":2761:2776  block.timestamp */\n      timestamp\n      swap1\n        /* \"Contract\":2728:2735  uint256 */\n      dup3\n      swap1\n        /* \"Contract\":2807:2831  end.sub(startTime[user]) */\n      tag_71\n      swap1\n        /* \"Contract\":2761:2776  block.timestamp */\n      dup4\n      swap1\n        /* \"Contract\":2807:2831  end.sub(startTime[user]) */\n      0xffffffff\n        /* \"Contract\":2807:2814  end.sub */\n      tag_64\n        /* \"Contract\":2807:2831  end.sub(startTime[user]) */\n      and\n      jump\t// in\n    tag_71:\n        /* \"Contract\":2787:2831  uint256 totalTime = end.sub(startTime[user]) */\n      swap5\n        /* \"Contract\":2666:2866  function calculateYieldTime(address user) public view returns(uint256){\r... */\n      swap4\n      pop\n      pop\n      pop\n      pop\n      jump\t// out\n        /* \"Contract\":812:1391  function stake(uint256 _amount) external {\r... */\n    tag_43:\n        /* \"Contract\":879:889  msg.sender */\n      caller\n        /* \"Contract\":869:890  isStaking[msg.sender] */\n      0x00\n      swap1\n      dup2\n      mstore\n        /* \"Contract\":869:878  isStaking */\n      0x04\n        /* \"Contract\":869:890  isStaking[msg.sender] */\n      0x20\n      mstore\n      0x40\n      swap1\n      keccak256\n      sload\n      0xff\n      and\n        /* \"Contract\":869:898  isStaking[msg.sender] == true */\n      iszero\n      iszero\n        /* \"Contract\":869:890  isStaking[msg.sender] */\n      0x01\n        /* \"Contract\":869:898  isStaking[msg.sender] == true */\n      eq\n        /* \"Contract\":866:1099  if(isStaking[msg.sender] == true){\r... */\n      iszero\n      tag_73\n      jumpi\n        /* \"Contract\":914:932  uint256 toTransfer */\n      0x00\n        /* \"Contract\":935:966  calculateYieldTotal(msg.sender) */\n      tag_74\n        /* \"Contract\":955:965  msg.sender */\n      caller\n        /* \"Contract\":935:954  calculateYieldTotal */\n      tag_18\n        /* \"Contract\":935:966  calculateYieldTotal(msg.sender) */\n      jump\t// in\n    tag_74:\n        /* \"Contract\":989:999  msg.sender */\n      caller\n        /* \"Contract\":981:1000  rewards[msg.sender] */\n      0x00\n      swap1\n      dup2\n      mstore\n        /* \"Contract\":981:988  rewards */\n      0x06\n        /* \"Contract\":981:1000  rewards[msg.sender] */\n      0x20\n      mstore\n      0x40\n      swap1\n      keccak256\n      sload\n        /* \"Contract\":914:966  uint256 toTransfer = calculateYieldTotal(msg.sender) */\n      swap1\n      swap2\n      pop\n        /* \"Contract\":981:1005  rewards[msg.sender] == 0 */\n      iszero\n        /* \"Contract\":981:1087  rewards[msg.sender] == 0 ? rewards[msg.sender] = toTransfer : rewards[msg.sender].add(rewards[msg.sender]) */\n      tag_75\n      jumpi\n        /* \"Contract\":1075:1085  msg.sender */\n      caller\n        /* \"Contract\":1067:1086  rewards[msg.sender] */\n      0x00\n      swap1\n      dup2\n      mstore\n        /* \"Contract\":1067:1074  rewards */\n      0x06\n        /* \"Contract\":1067:1086  rewards[msg.sender] */\n      0x20\n      mstore\n      0x40\n      swap1\n      keccak256\n      sload\n        /* \"Contract\":1043:1087  rewards[msg.sender].add(rewards[msg.sender]) */\n      tag_76\n      swap1\n        /* \"Contract\":1067:1086  rewards[msg.sender] */\n      dup1\n        /* \"Contract\":1043:1087  rewards[msg.sender].add(rewards[msg.sender]) */\n      0xffffffff\n        /* \"Contract\":1043:1066  rewards[msg.sender].add */\n      tag_68\n        /* \"Contract\":1043:1087  rewards[msg.sender].add(rewards[msg.sender]) */\n      and\n      jump\t// in\n    tag_76:\n        /* \"Contract\":981:1087  rewards[msg.sender] == 0 ? rewards[msg.sender] = toTransfer : rewards[msg.sender].add(rewards[msg.sender]) */\n      jump(tag_77)\n    tag_75:\n        /* \"Contract\":1016:1026  msg.sender */\n      caller\n        /* \"Contract\":1008:1027  rewards[msg.sender] */\n      0x00\n      swap1\n      dup2\n      mstore\n        /* \"Contract\":1008:1015  rewards */\n      0x06\n        /* \"Contract\":1008:1027  rewards[msg.sender] */\n      0x20\n      mstore\n      0x40\n      swap1\n      keccak256\n        /* \"Contract\":1008:1040  rewards[msg.sender] = toTransfer */\n      dup2\n      swap1\n      sstore\n        /* \"Contract\":1030:1040  toTransfer */\n      dup1\n        /* \"Contract\":981:1087  rewards[msg.sender] == 0 ? rewards[msg.sender] = toTransfer : rewards[msg.sender].add(rewards[msg.sender]) */\n    tag_77:\n      pop\n        /* \"Contract\":866:1099  if(isStaking[msg.sender] == true){\r... */\n      pop\n    tag_73:\n        /* \"Contract\":1111:1119  pairFork */\n      0x00\n      dup1\n      sload\n        /* \"Contract\":1111:1168  pairFork.transferFrom(msg.sender, address(this), _amount) */\n      0x40\n      dup1\n      mload\n      shl(0xe0, 0x23b872dd)\n      dup2\n      mstore\n        /* \"Contract\":1133:1143  msg.sender */\n      caller\n        /* \"Contract\":1111:1168  pairFork.transferFrom(msg.sender, address(this), _amount) */\n      0x04\n      dup3\n      add\n      mstore\n        /* \"Contract\":1153:1157  this */\n      address\n        /* \"Contract\":1111:1168  pairFork.transferFrom(msg.sender, address(this), _amount) */\n      0x24\n      dup3\n      add\n      mstore\n      0x44\n      dup2\n      add\n      dup6\n      swap1\n      mstore\n      swap1\n      mload\n      sub(shl(0xa0, 0x01), 0x01)\n        /* \"Contract\":1111:1119  pairFork */\n      swap1\n      swap3\n      and\n      swap3\n        /* \"Contract\":1111:1132  pairFork.transferFrom */\n      0x23b872dd\n      swap3\n        /* \"Contract\":1111:1168  pairFork.transferFrom(msg.sender, address(this), _amount) */\n      0x64\n      dup1\n      dup5\n      add\n      swap4\n      0x20\n      swap4\n      swap1\n      dup4\n      swap1\n      sub\n      swap1\n      swap2\n      add\n      swap1\n      dup3\n      swap1\n        /* \"Contract\":1111:1119  pairFork */\n      dup8\n        /* \"Contract\":1111:1168  pairFork.transferFrom(msg.sender, address(this), _amount) */\n      dup1\n      extcodesize\n      iszero\n        /* \"--CODEGEN--\":2:4   */\n      dup1\n      iszero\n      tag_78\n      jumpi\n        /* \"--CODEGEN--\":27:28   */\n      0x00\n        /* \"--CODEGEN--\":24:25   */\n      dup1\n        /* \"--CODEGEN--\":17:29   */\n      revert\n        /* \"--CODEGEN--\":2:4   */\n    tag_78:\n        /* \"Contract\":1111:1168  pairFork.transferFrom(msg.sender, address(this), _amount) */\n      pop\n      gas\n      call\n      iszero\n        /* \"--CODEGEN--\":8:17   */\n      dup1\n        /* \"--CODEGEN--\":5:7   */\n      iszero\n      tag_80\n      jumpi\n        /* \"--CODEGEN--\":45:61   */\n      returndatasize\n        /* \"--CODEGEN--\":42:43   */\n      0x00\n        /* \"--CODEGEN--\":39:40   */\n      dup1\n        /* \"--CODEGEN--\":24:62   */\n      returndatacopy\n        /* \"--CODEGEN--\":77:93   */\n      returndatasize\n        /* \"--CODEGEN--\":74:75   */\n      0x00\n        /* \"--CODEGEN--\":67:94   */\n      revert\n        /* \"--CODEGEN--\":5:7   */\n    tag_80:\n        /* \"Contract\":1111:1168  pairFork.transferFrom(msg.sender, address(this), _amount) */\n      pop\n      pop\n      pop\n      pop\n      mload(0x40)\n      returndatasize\n        /* \"--CODEGEN--\":15:17   */\n      0x20\n        /* \"--CODEGEN--\":10:13   */\n      dup2\n        /* \"--CODEGEN--\":7:18   */\n      lt\n        /* \"--CODEGEN--\":4:6   */\n      iszero\n      tag_81\n      jumpi\n        /* \"--CODEGEN--\":31:32   */\n      0x00\n        /* \"--CODEGEN--\":28:29   */\n      dup1\n        /* \"--CODEGEN--\":21:33   */\n      revert\n        /* \"--CODEGEN--\":4:6   */\n    tag_81:\n      pop\n      pop\n        /* \"Contract\":1195:1205  msg.sender */\n      caller\n        /* \"Contract\":1179:1206  depositedAmount[msg.sender] */\n      0x00\n      swap1\n      dup2\n      mstore\n        /* \"Contract\":1179:1194  depositedAmount */\n      0x03\n        /* \"Contract\":1111:1168  pairFork.transferFrom(msg.sender, address(this), _amount) */\n      0x20\n        /* \"Contract\":1179:1206  depositedAmount[msg.sender] */\n      mstore\n      0x40\n      swap1\n      keccak256\n      sload\n        /* \"Contract\":1179:1211  depositedAmount[msg.sender] == 0 */\n      iszero\n        /* \"Contract\":1179:1294  depositedAmount[msg.sender] == 0 ? depositedAmount[msg.sender] = _amount : depositedAmount[msg.sender].add(_amount) */\n      tag_82\n      jumpi\n        /* \"Contract\":1270:1280  msg.sender */\n      caller\n        /* \"Contract\":1254:1281  depositedAmount[msg.sender] */\n      0x00\n      swap1\n      dup2\n      mstore\n        /* \"Contract\":1254:1269  depositedAmount */\n      0x03\n        /* \"Contract\":1254:1281  depositedAmount[msg.sender] */\n      0x20\n      mstore\n      0x40\n      swap1\n      keccak256\n      sload\n        /* \"Contract\":1254:1294  depositedAmount[msg.sender].add(_amount) */\n      tag_83\n      swap1\n        /* \"Contract\":1286:1293  _amount */\n      dup3\n        /* \"Contract\":1254:1294  depositedAmount[msg.sender].add(_amount) */\n      0xffffffff\n        /* \"Contract\":1254:1285  depositedAmount[msg.sender].add */\n      tag_68\n        /* \"Contract\":1254:1294  depositedAmount[msg.sender].add(_amount) */\n      and\n      jump\t// in\n    tag_83:\n        /* \"Contract\":1179:1294  depositedAmount[msg.sender] == 0 ? depositedAmount[msg.sender] = _amount : depositedAmount[msg.sender].add(_amount) */\n      jump(tag_84)\n    tag_82:\n        /* \"Contract\":1230:1240  msg.sender */\n      caller\n        /* \"Contract\":1214:1241  depositedAmount[msg.sender] */\n      0x00\n      swap1\n      dup2\n      mstore\n        /* \"Contract\":1214:1229  depositedAmount */\n      0x03\n        /* \"Contract\":1214:1241  depositedAmount[msg.sender] */\n      0x20\n      mstore\n      0x40\n      swap1\n      keccak256\n        /* \"Contract\":1214:1251  depositedAmount[msg.sender] = _amount */\n      dup2\n      swap1\n      sstore\n        /* \"Contract\":1244:1251  _amount */\n      dup1\n        /* \"Contract\":1179:1294  depositedAmount[msg.sender] == 0 ? depositedAmount[msg.sender] = _amount : depositedAmount[msg.sender].add(_amount) */\n    tag_84:\n      pop\n      pop\n        /* \"Contract\":1315:1325  msg.sender */\n      caller\n        /* \"Contract\":1305:1326  startTime[msg.sender] */\n      0x00\n      swap1\n      dup2\n      mstore\n        /* \"Contract\":1305:1314  startTime */\n      0x05\n        /* \"Contract\":1305:1326  startTime[msg.sender] */\n      0x20\n      swap1\n      dup2\n      mstore\n      0x40\n      dup1\n      dup4\n      keccak256\n        /* \"Contract\":1329:1344  block.timestamp */\n      timestamp\n        /* \"Contract\":1305:1344  startTime[msg.sender] = block.timestamp */\n      swap1\n      sstore\n        /* \"Contract\":1355:1364  isStaking */\n      0x04\n        /* \"Contract\":1355:1376  isStaking[msg.sender] */\n      swap1\n      swap2\n      mstore\n      swap1\n      keccak256\n        /* \"Contract\":1355:1383  isStaking[msg.sender] = true */\n      dup1\n      sload\n      not(0xff)\n      and\n        /* \"Contract\":1379:1383  true */\n      0x01\n        /* \"Contract\":1355:1383  isStaking[msg.sender] = true */\n      or\n      swap1\n      sstore\n        /* \"Contract\":812:1391  function stake(uint256 _amount) external {\r... */\n      jump\t// out\n        /* \"Contract\":2115:2658  function withdrawRewards() public {\r... */\n    tag_45:\n        /* \"Contract\":2160:2178  uint256 toTransfer */\n      0x00\n        /* \"Contract\":2181:2212  calculateYieldTotal(msg.sender) */\n      tag_86\n        /* \"Contract\":2201:2211  msg.sender */\n      caller\n        /* \"Contract\":2181:2200  calculateYieldTotal */\n      tag_18\n        /* \"Contract\":2181:2212  calculateYieldTotal(msg.sender) */\n      jump\t// in\n    tag_86:\n        /* \"Contract\":2160:2212  uint256 toTransfer = calculateYieldTotal(msg.sender) */\n      swap1\n      pop\n        /* \"Contract\":2260:2261  0 */\n      0x00\n        /* \"Contract\":2247:2257  toTransfer */\n      dup2\n        /* \"Contract\":2247:2261  toTransfer > 0 */\n      gt\n        /* \"Contract\":2247:2301  toTransfer > 0 ||\r... */\n      dup1\n      tag_87\n      jumpi\n      pop\n        /* \"Contract\":2286:2296  msg.sender */\n      caller\n        /* \"Contract\":2300:2301  0 */\n      0x00\n        /* \"Contract\":2278:2297  rewards[msg.sender] */\n      swap1\n      dup2\n      mstore\n        /* \"Contract\":2278:2285  rewards */\n      0x06\n        /* \"Contract\":2278:2297  rewards[msg.sender] */\n      0x20\n      mstore\n      0x40\n      swap1\n      keccak256\n      sload\n        /* \"Contract\":2278:2301  rewards[msg.sender] > 0 */\n      iszero\n      iszero\n        /* \"Contract\":2247:2301  toTransfer > 0 ||\r... */\n    tag_87:\n        /* \"Contract\":2225:2352  require(\r... */\n      tag_88\n      jumpi\n      0x40\n      dup1\n      mload\n      shl(0xe5, 0x461bcd)\n      dup2\n      mstore\n      0x20\n      0x04\n      dup3\n      add\n      mstore\n      0x13\n      0x24\n      dup3\n      add\n      mstore\n      shl(0x68, 0x4e6f7468696e6720746f207769746864726177)\n      0x44\n      dup3\n      add\n      mstore\n      swap1\n      mload\n      swap1\n      dup2\n      swap1\n      sub\n      0x64\n      add\n      swap1\n      revert\n    tag_88:\n        /* \"Contract\":2388:2398  msg.sender */\n      caller\n        /* \"Contract\":2380:2399  rewards[msg.sender] */\n      0x00\n      swap1\n      dup2\n      mstore\n        /* \"Contract\":2380:2387  rewards */\n      0x06\n        /* \"Contract\":2380:2399  rewards[msg.sender] */\n      0x20\n      mstore\n      0x40\n      swap1\n      keccak256\n      sload\n        /* \"Contract\":2380:2404  rewards[msg.sender] != 0 */\n      iszero\n        /* \"Contract\":2377:2549  if(rewards[msg.sender] != 0){\r... */\n      tag_89\n      jumpi\n        /* \"Contract\":2449:2459  msg.sender */\n      caller\n        /* \"Contract\":2420:2438  uint256 oldBalance */\n      0x00\n        /* \"Contract\":2441:2460  rewards[msg.sender] */\n      swap1\n      dup2\n      mstore\n        /* \"Contract\":2441:2448  rewards */\n      0x06\n        /* \"Contract\":2441:2460  rewards[msg.sender] */\n      0x20\n      mstore\n      0x40\n      dup2\n      keccak256\n      dup1\n      sload\n        /* \"Contract\":2475:2498  rewards[msg.sender] = 0 */\n      swap2\n      swap1\n      sstore\n        /* \"Contract\":2513:2537  toTransfer += oldBalance */\n      add\n        /* \"Contract\":2377:2549  if(rewards[msg.sender] != 0){\r... */\n    tag_89:\n        /* \"Contract\":2571:2581  msg.sender */\n      caller\n        /* \"Contract\":2561:2582  startTime[msg.sender] */\n      0x00\n      dup2\n      dup2\n      mstore\n        /* \"Contract\":2561:2570  startTime */\n      0x05\n        /* \"Contract\":2561:2582  startTime[msg.sender] */\n      0x20\n      mstore\n      0x40\n      dup1\n      dup3\n      keccak256\n        /* \"Contract\":2585:2600  block.timestamp */\n      timestamp\n        /* \"Contract\":2561:2600  startTime[msg.sender] = block.timestamp */\n      swap1\n      sstore\n        /* \"Contract\":2611:2621  bonusToken */\n      sload(0x01)\n        /* \"Contract\":2611:2650  bonusToken.mint(msg.sender, toTransfer) */\n      dup2\n      mload\n      shl(0xe0, 0x40c10f19)\n      dup2\n      mstore\n      0x04\n      dup2\n      add\n      swap5\n      swap1\n      swap5\n      mstore\n      0x24\n      dup5\n      add\n      dup6\n      swap1\n      mstore\n      swap1\n      mload\n      sub(shl(0xa0, 0x01), 0x01)\n        /* \"Contract\":2611:2621  bonusToken */\n      swap1\n      swap2\n      and\n      swap3\n        /* \"Contract\":2611:2626  bonusToken.mint */\n      0x40c10f19\n      swap3\n        /* \"Contract\":2611:2650  bonusToken.mint(msg.sender, toTransfer) */\n      0x44\n      dup1\n      dup4\n      add\n      swap4\n        /* \"Contract\":2561:2582  startTime[msg.sender] */\n      swap2\n      swap3\n        /* \"Contract\":2611:2650  bonusToken.mint(msg.sender, toTransfer) */\n      dup3\n      swap1\n      sub\n      add\n      dup2\n        /* \"Contract\":2561:2582  startTime[msg.sender] */\n      dup4\n        /* \"Contract\":2611:2621  bonusToken */\n      dup8\n        /* \"Contract\":2611:2650  bonusToken.mint(msg.sender, toTransfer) */\n      dup1\n      extcodesize\n      iszero\n        /* \"--CODEGEN--\":2:4   */\n      dup1\n      iszero\n      tag_90\n      jumpi\n        /* \"--CODEGEN--\":27:28   */\n      0x00\n        /* \"--CODEGEN--\":24:25   */\n      dup1\n        /* \"--CODEGEN--\":17:29   */\n      revert\n        /* \"--CODEGEN--\":2:4   */\n    tag_90:\n        /* \"Contract\":2611:2650  bonusToken.mint(msg.sender, toTransfer) */\n      pop\n      gas\n      call\n      iszero\n        /* \"--CODEGEN--\":8:17   */\n      dup1\n        /* \"--CODEGEN--\":5:7   */\n      iszero\n      tag_92\n      jumpi\n        /* \"--CODEGEN--\":45:61   */\n      returndatasize\n        /* \"--CODEGEN--\":42:43   */\n      0x00\n        /* \"--CODEGEN--\":39:40   */\n      dup1\n        /* \"--CODEGEN--\":24:62   */\n      returndatacopy\n        /* \"--CODEGEN--\":77:93   */\n      returndatasize\n        /* \"--CODEGEN--\":74:75   */\n      0x00\n        /* \"--CODEGEN--\":67:94   */\n      revert\n        /* \"--CODEGEN--\":5:7   */\n    tag_92:\n        /* \"Contract\":2611:2650  bonusToken.mint(msg.sender, toTransfer) */\n      pop\n      pop\n      pop\n      pop\n        /* \"Contract\":2115:2658  function withdrawRewards() public {\r... */\n      pop\n      jump\t// out\n        /* \"Contract\":380:400  address public admin */\n    tag_47:\n      and(sub(shl(0xa0, 0x01), 0x01), sload(0x02))\n      dup2\n      jump\t// out\n        /* \"@openzeppelin/contracts/math/SafeMath.sol\":2180:2639   */\n    tag_51:\n        /* \"@openzeppelin/contracts/math/SafeMath.sol\":2238:2245   */\n      0x00\n        /* \"@openzeppelin/contracts/math/SafeMath.sol\":2479:2485   */\n      dup3\n        /* \"@openzeppelin/contracts/math/SafeMath.sol\":2475:2520   */\n      tag_94\n      jumpi\n      pop\n        /* \"@openzeppelin/contracts/math/SafeMath.sol\":2508:2509   */\n      0x00\n        /* \"@openzeppelin/contracts/math/SafeMath.sol\":2501:2509   */\n      jump(tag_93)\n        /* \"@openzeppelin/contracts/math/SafeMath.sol\":2475:2520   */\n    tag_94:\n        /* \"@openzeppelin/contracts/math/SafeMath.sol\":2542:2547   */\n      dup3\n      dup3\n      mul\n        /* \"@openzeppelin/contracts/math/SafeMath.sol\":2546:2547   */\n      dup3\n        /* \"@openzeppelin/contracts/math/SafeMath.sol\":2542:2543   */\n      dup5\n        /* \"@openzeppelin/contracts/math/SafeMath.sol\":2542:2547   */\n      dup3\n        /* \"@openzeppelin/contracts/math/SafeMath.sol\":2542:2543   */\n      dup2\n        /* \"@openzeppelin/contracts/math/SafeMath.sol\":2565:2570   */\n      tag_95\n      jumpi\n      invalid\n    tag_95:\n      div\n        /* \"@openzeppelin/contracts/math/SafeMath.sol\":2565:2575   */\n      eq\n        /* \"@openzeppelin/contracts/math/SafeMath.sol\":2557:2613   */\n      tag_96\n      jumpi\n      mload(0x40)\n      shl(0xe5, 0x461bcd)\n      dup2\n      mstore\n      0x04\n      add\n      dup1\n      dup1\n      0x20\n      add\n      dup3\n      dup2\n      sub\n      dup3\n      mstore\n      0x21\n      dup2\n      mstore\n      0x20\n      add\n      dup1\n      data_9113bb53c2876a3805b2c9242029423fc540a728243ce887ab24c82cf119fba3\n      0x21\n      swap2\n      codecopy\n      0x40\n      add\n      swap2\n      pop\n      pop\n      mload(0x40)\n      dup1\n      swap2\n      sub\n      swap1\n      revert\n    tag_96:\n        /* \"@openzeppelin/contracts/math/SafeMath.sol\":2631:2632   */\n      swap1\n      pop\n        /* \"@openzeppelin/contracts/math/SafeMath.sol\":2180:2639   */\n    tag_93:\n      swap3\n      swap2\n      pop\n      pop\n      jump\t// out\n        /* \"@openzeppelin/contracts/math/SafeMath.sol\":3101:3231   */\n    tag_53:\n        /* \"@openzeppelin/contracts/math/SafeMath.sol\":3159:3166   */\n      0x00\n        /* \"@openzeppelin/contracts/math/SafeMath.sol\":3185:3224   */\n      tag_96\n        /* \"@openzeppelin/contracts/math/SafeMath.sol\":3189:3190   */\n      dup4\n        /* \"@openzeppelin/contracts/math/SafeMath.sol\":3192:3193   */\n      dup4\n        /* \"@openzeppelin/contracts/math/SafeMath.sol\":3185:3224   */\n      mload(0x40)\n      dup1\n      0x40\n      add\n      0x40\n      mstore\n      dup1\n      0x1a\n      dup2\n      mstore\n      0x20\n      add\n      0x536166654d6174683a206469766973696f6e206279207a65726f000000000000\n      dup2\n      mstore\n      pop\n        /* \"@openzeppelin/contracts/math/SafeMath.sol\":3185:3188   */\n      tag_99\n        /* \"@openzeppelin/contracts/math/SafeMath.sol\":3185:3224   */\n      jump\t// in\n        /* \"@openzeppelin/contracts/math/SafeMath.sol\":1321:1455   */\n    tag_64:\n        /* \"@openzeppelin/contracts/math/SafeMath.sol\":1379:1386   */\n      0x00\n        /* \"@openzeppelin/contracts/math/SafeMath.sol\":1405:1448   */\n      tag_96\n        /* \"@openzeppelin/contracts/math/SafeMath.sol\":1409:1410   */\n      dup4\n        /* \"@openzeppelin/contracts/math/SafeMath.sol\":1412:1413   */\n      dup4\n        /* \"@openzeppelin/contracts/math/SafeMath.sol\":1405:1448   */\n      mload(0x40)\n      dup1\n      0x40\n      add\n      0x40\n      mstore\n      dup1\n      0x1e\n      dup2\n      mstore\n      0x20\n      add\n      0x536166654d6174683a207375627472616374696f6e206f766572666c6f770000\n      dup2\n      mstore\n      pop\n        /* \"@openzeppelin/contracts/math/SafeMath.sol\":1405:1408   */\n      tag_102\n        /* \"@openzeppelin/contracts/math/SafeMath.sol\":1405:1448   */\n      jump\t// in\n        /* \"@openzeppelin/contracts/math/SafeMath.sol\":874:1050   */\n    tag_68:\n        /* \"@openzeppelin/contracts/math/SafeMath.sol\":932:939   */\n      0x00\n        /* \"@openzeppelin/contracts/math/SafeMath.sol\":963:968   */\n      dup3\n      dup3\n      add\n        /* \"@openzeppelin/contracts/math/SafeMath.sol\":986:992   */\n      dup4\n      dup2\n      lt\n      iszero\n        /* \"@openzeppelin/contracts/math/SafeMath.sol\":978:1024   */\n      tag_96\n      jumpi\n      0x40\n      dup1\n      mload\n      shl(0xe5, 0x461bcd)\n      dup2\n      mstore\n      0x20\n      0x04\n      dup3\n      add\n      mstore\n      0x1b\n      0x24\n      dup3\n      add\n      mstore\n      0x536166654d6174683a206164646974696f6e206f766572666c6f770000000000\n      0x44\n      dup3\n      add\n      mstore\n      swap1\n      mload\n      swap1\n      dup2\n      swap1\n      sub\n      0x64\n      add\n      swap1\n      revert\n        /* \"@openzeppelin/contracts/math/SafeMath.sol\":3713:3985   */\n    tag_99:\n        /* \"@openzeppelin/contracts/math/SafeMath.sol\":3799:3806   */\n      0x00\n        /* \"@openzeppelin/contracts/math/SafeMath.sol\":3833:3845   */\n      dup2\n        /* \"@openzeppelin/contracts/math/SafeMath.sol\":3826:3831   */\n      dup4\n        /* \"@openzeppelin/contracts/math/SafeMath.sol\":3818:3846   */\n      tag_106\n      jumpi\n      mload(0x40)\n      shl(0xe5, 0x461bcd)\n      dup2\n      mstore\n      0x04\n      add\n      dup1\n      dup1\n      0x20\n      add\n      dup3\n      dup2\n      sub\n      dup3\n      mstore\n      dup4\n      dup2\n      dup2\n      mload\n      dup2\n      mstore\n      0x20\n      add\n      swap2\n      pop\n      dup1\n      mload\n      swap1\n      0x20\n      add\n      swap1\n      dup1\n      dup4\n      dup4\n        /* \"--CODEGEN--\":23:24   */\n      0x00\n        /* \"--CODEGEN--\":8:108   */\n    tag_107:\n        /* \"--CODEGEN--\":33:36   */\n      dup4\n        /* \"--CODEGEN--\":30:31   */\n      dup2\n        /* \"--CODEGEN--\":27:37   */\n      lt\n        /* \"--CODEGEN--\":8:108   */\n      iszero\n      tag_109\n      jumpi\n        /* \"--CODEGEN--\":90:101   */\n      dup2\n      dup2\n      add\n        /* \"--CODEGEN--\":84:102   */\n      mload\n        /* \"--CODEGEN--\":71:82   */\n      dup4\n      dup3\n      add\n        /* \"--CODEGEN--\":64:103   */\n      mstore\n        /* \"--CODEGEN--\":52:54   */\n      0x20\n        /* \"--CODEGEN--\":45:55   */\n      add\n        /* \"--CODEGEN--\":8:108   */\n      jump(tag_107)\n    tag_109:\n        /* \"--CODEGEN--\":12:26   */\n      pop\n        /* \"@openzeppelin/contracts/math/SafeMath.sol\":3818:3846   */\n      pop\n      pop\n      pop\n      swap1\n      pop\n      swap1\n      dup2\n      add\n      swap1\n      0x1f\n      and\n      dup1\n      iszero\n      tag_110\n      jumpi\n      dup1\n      dup3\n      sub\n      dup1\n      mload\n      0x01\n      dup4\n      0x20\n      sub\n      0x0100\n      exp\n      sub\n      not\n      and\n      dup2\n      mstore\n      0x20\n      add\n      swap2\n      pop\n    tag_110:\n      pop\n      swap3\n      pop\n      pop\n      pop\n      mload(0x40)\n      dup1\n      swap2\n      sub\n      swap1\n      revert\n    tag_106:\n      pop\n        /* \"@openzeppelin/contracts/math/SafeMath.sol\":3856:3865   */\n      0x00\n        /* \"@openzeppelin/contracts/math/SafeMath.sol\":3872:3873   */\n      dup4\n        /* \"@openzeppelin/contracts/math/SafeMath.sol\":3868:3869   */\n      dup6\n        /* \"@openzeppelin/contracts/math/SafeMath.sol\":3868:3873   */\n      dup2\n      tag_111\n      jumpi\n      invalid\n    tag_111:\n      div\n      swap6\n        /* \"@openzeppelin/contracts/math/SafeMath.sol\":3713:3985   */\n      swap5\n      pop\n      pop\n      pop\n      pop\n      pop\n      jump\t// out\n        /* \"@openzeppelin/contracts/math/SafeMath.sol\":1746:1933   */\n    tag_102:\n        /* \"@openzeppelin/contracts/math/SafeMath.sol\":1832:1839   */\n      0x00\n        /* \"@openzeppelin/contracts/math/SafeMath.sol\":1867:1879   */\n      dup2\n        /* \"@openzeppelin/contracts/math/SafeMath.sol\":1859:1865   */\n      dup5\n      dup5\n      gt\n      iszero\n        /* \"@openzeppelin/contracts/math/SafeMath.sol\":1851:1880   */\n      tag_113\n      jumpi\n      mload(0x40)\n      shl(0xe5, 0x461bcd)\n      dup2\n      mstore\n      0x20\n      0x04\n      dup3\n      add\n      dup2\n      dup2\n      mstore\n      dup4\n      mload\n      0x24\n      dup5\n      add\n      mstore\n      dup4\n      mload\n      swap1\n      swap3\n      dup4\n      swap3\n      0x44\n      swap1\n      swap2\n      add\n      swap2\n      swap1\n      dup6\n      add\n      swap1\n      dup1\n      dup4\n      dup4\n      0x00\n        /* \"--CODEGEN--\":27:37   */\n      dup4\n      iszero\n        /* \"--CODEGEN--\":8:108   */\n      tag_109\n      jumpi\n        /* \"--CODEGEN--\":90:101   */\n      dup2\n      dup2\n      add\n        /* \"--CODEGEN--\":84:102   */\n      mload\n        /* \"--CODEGEN--\":71:82   */\n      dup4\n      dup3\n      add\n        /* \"--CODEGEN--\":64:103   */\n      mstore\n        /* \"--CODEGEN--\":52:54   */\n      0x20\n        /* \"--CODEGEN--\":45:55   */\n      add\n        /* \"--CODEGEN--\":8:108   */\n      jump(tag_107)\n        /* \"@openzeppelin/contracts/math/SafeMath.sol\":1851:1880   */\n    tag_113:\n      pop\n      pop\n      pop\n        /* \"@openzeppelin/contracts/math/SafeMath.sol\":1902:1907   */\n      swap1\n      sub\n      swap1\n        /* \"@openzeppelin/contracts/math/SafeMath.sol\":1746:1933   */\n      jump\t// out\n    stop\n    data_9113bb53c2876a3805b2c9242029423fc540a728243ce887ab24c82cf119fba3 536166654d6174683a206d756c7469706c69636174696f6e206f766572666c6f77\n\n    auxdata: 0xa264697066735822122096e756ba14e4d16953c7dae54faac40263b7207a13b7d0f3553cf48fb03076d164736f6c63430006060033\n}\n","bytecode":{"linkReferences":{},"object":"608060405234801561001057600080fd5b50604051610b14380380610b148339818101604052604081101561003357600080fd5b508051602090910151600080546001600160a01b039384166001600160a01b03199182161790915560018054939092169281169290921790556002805490911633179055610a8e806100866000396000f3fe608060405234801561001057600080fd5b50600436106100b45760003560e01c80636e1dc66e116100715780636e1dc66e146101885780636f49712b146101ae578063980d6116146101e8578063a694fc3a1461020e578063c7b8981c1461022b578063f851a44014610233576100b4565b806306872661146100b95780630700037d146100f15780632e17de781461011757806341d4a1ab146101365780634a4643f71461015a5780635920140214610180575b600080fd5b6100df600480360360208110156100cf57600080fd5b50356001600160a01b031661023b565b60408051918252519081900360200190f35b6100df6004803603602081101561010757600080fd5b50356001600160a01b03166102c8565b6101346004803603602081101561012d57600080fd5b50356102da565b005b61013e6104ca565b604080516001600160a01b039092168252519081900360200190f35b6100df6004803603602081101561017057600080fd5b50356001600160a01b03166104d9565b61013e6104eb565b6100df6004803603602081101561019e57600080fd5b50356001600160a01b03166104fa565b6101d4600480360360208110156101c457600080fd5b50356001600160a01b031661050c565b604080519115158252519081900360200190f35b6100df600480360360208110156101fe57600080fd5b50356001600160a01b0316610521565b6101346004803603602081101561022457600080fd5b5035610557565b6101346106d3565b61013e6107ec565b60008061025f670de0b6b3a764000061025385610521565b9063ffffffff6107fb16565b9050620151806000610277838363ffffffff61085d16565b6001600160a01b038616600090815260036020526040812054919250906102be90670de0b6b3a7640000906102b2908563ffffffff6107fb16565b9063ffffffff61085d16565b9695505050505050565b60066020526000908152604090205481565b33600090815260036020526040902054610334576040805162461bcd60e51b81526020600482015260166024820152752737ba3434b733903a37903ab739ba30b5b29017171760511b604482015290519081900360640190fd5b33600090815260036020526040902054811115610398576040805162461bcd60e51b815260206004820152601860248201527f576974686472617720616d6f756e7420746f2068696768210000000000000000604482015290519081900360640190fd5b600080546040805163a9059cbb60e01b81523360048201526024810185905290516001600160a01b039092169263a9059cbb926044808401936020939083900390910190829087803b1580156103ed57600080fd5b505af1158015610401573d6000803e3d6000fd5b505050506040513d602081101561041757600080fd5b505033600090815260036020526040902054610439908263ffffffff61089f16565b5060006104453361023b565b33600090815260056020908152604080832042905560039091528120549093919250610477908263ffffffff61089f16565b5033600090815260066020526040902054610498908363ffffffff6108e116565b50336000908152600360205260409020546104c557336000908152600460205260409020805460ff191690555b505050565b6001546001600160a01b031681565b60036020526000908152604090205481565b6000546001600160a01b031681565b60056020526000908152604090205481565b60046020526000908152604090205460ff1681565b6001600160a01b0381166000908152600560205260408120544290829061054f90839063ffffffff61089f16565b949350505050565b3360009081526004602052604090205460ff161515600114156105d357600061057f3361023b565b33600090815260066020526040902054909150156105bc57336000908152600660205260409020546105b7908063ffffffff6108e116565b6105d0565b336000908152600660205260409020819055805b50505b60008054604080516323b872dd60e01b81523360048201523060248201526044810185905290516001600160a01b03909216926323b872dd926064808401936020939083900390910190829087803b15801561062e57600080fd5b505af1158015610642573d6000803e3d6000fd5b505050506040513d602081101561065857600080fd5b50503360009081526003602052604090205415610694573360009081526003602052604090205461068f908263ffffffff6108e116565b6106a8565b336000908152600360205260409020819055805b505033600090815260056020908152604080832042905560049091529020805460ff19166001179055565b60006106de3361023b565b905060008111806106fd57503360009081526006602052604090205415155b610744576040805162461bcd60e51b81526020600482015260136024820152724e6f7468696e6720746f20776974686472617760681b604482015290519081900360640190fd5b336000908152600660205260409020541561076f573360009081526006602052604081208054919055015b3360008181526005602052604080822042905560015481516340c10f1960e01b815260048101949094526024840185905290516001600160a01b03909116926340c10f1992604480830193919282900301818387803b1580156107d157600080fd5b505af11580156107e5573d6000803e3d6000fd5b5050505050565b6002546001600160a01b031681565b60008261080a57506000610857565b8282028284828161081757fe5b04146108545760405162461bcd60e51b8152600401808060200182810382526021815260200180610a386021913960400191505060405180910390fd5b90505b92915050565b600061085483836040518060400160405280601a81526020017f536166654d6174683a206469766973696f6e206279207a65726f00000000000081525061093b565b600061085483836040518060400160405280601e81526020017f536166654d6174683a207375627472616374696f6e206f766572666c6f7700008152506109dd565b600082820183811015610854576040805162461bcd60e51b815260206004820152601b60248201527f536166654d6174683a206164646974696f6e206f766572666c6f770000000000604482015290519081900360640190fd5b600081836109c75760405162461bcd60e51b81526004018080602001828103825283818151815260200191508051906020019080838360005b8381101561098c578181015183820152602001610974565b50505050905090810190601f1680156109b95780820380516001836020036101000a031916815260200191505b509250505060405180910390fd5b5060008385816109d357fe5b0495945050505050565b60008184841115610a2f5760405162461bcd60e51b815260206004820181815283516024840152835190928392604490910191908501908083836000831561098c578181015183820152602001610974565b50505090039056fe536166654d6174683a206d756c7469706c69636174696f6e206f766572666c6f77a264697066735822122096e756ba14e4d16953c7dae54faac40263b7207a13b7d0f3553cf48fb03076d164736f6c63430006060033","opcodes":"PUSH1 0x80 PUSH1 0x40 MSTORE CALLVALUE DUP1 ISZERO PUSH2 0x10 JUMPI PUSH1 0x0 DUP1 REVERT JUMPDEST POP PUSH1 0x40 MLOAD PUSH2 0xB14 CODESIZE SUB DUP1 PUSH2 0xB14 DUP4 CODECOPY DUP2 DUP2 ADD PUSH1 0x40 MSTORE PUSH1 0x40 DUP2 LT ISZERO PUSH2 0x33 JUMPI PUSH1 0x0 DUP1 REVERT JUMPDEST POP DUP1 MLOAD PUSH1 0x20 SWAP1 SWAP2 ADD MLOAD PUSH1 0x0 DUP1 SLOAD PUSH1 0x1 PUSH1 0x1 PUSH1 0xA0 SHL SUB SWAP4 DUP5 AND PUSH1 0x1 PUSH1 0x1 PUSH1 0xA0 SHL SUB NOT SWAP2 DUP3 AND OR SWAP1 SWAP2 SSTORE PUSH1 0x1 DUP1 SLOAD SWAP4 SWAP1 SWAP3 AND SWAP3 DUP2 AND SWAP3 SWAP1 SWAP3 OR SWAP1 SSTORE PUSH1 0x2 DUP1 SLOAD SWAP1 SWAP2 AND CALLER OR SWAP1 SSTORE PUSH2 0xA8E DUP1 PUSH2 0x86 PUSH1 0x0 CODECOPY PUSH1 0x0 RETURN INVALID PUSH1 0x80 PUSH1 0x40 MSTORE CALLVALUE DUP1 ISZERO PUSH2 0x10 JUMPI PUSH1 0x0 DUP1 REVERT JUMPDEST POP PUSH1 0x4 CALLDATASIZE LT PUSH2 0xB4 JUMPI PUSH1 0x0 CALLDATALOAD PUSH1 0xE0 SHR DUP1 PUSH4 0x6E1DC66E GT PUSH2 0x71 JUMPI DUP1 PUSH4 0x6E1DC66E EQ PUSH2 0x188 JUMPI DUP1 PUSH4 0x6F49712B EQ PUSH2 0x1AE JUMPI DUP1 PUSH4 0x980D6116 EQ PUSH2 0x1E8 JUMPI DUP1 PUSH4 0xA694FC3A EQ PUSH2 0x20E JUMPI DUP1 PUSH4 0xC7B8981C EQ PUSH2 0x22B JUMPI DUP1 PUSH4 0xF851A440 EQ PUSH2 0x233 JUMPI PUSH2 0xB4 JUMP JUMPDEST DUP1 PUSH4 0x6872661 EQ PUSH2 0xB9 JUMPI DUP1 PUSH4 0x700037D EQ PUSH2 0xF1 JUMPI DUP1 PUSH4 0x2E17DE78 EQ PUSH2 0x117 JUMPI DUP1 PUSH4 0x41D4A1AB EQ PUSH2 0x136 JUMPI DUP1 PUSH4 0x4A4643F7 EQ PUSH2 0x15A JUMPI DUP1 PUSH4 0x59201402 EQ PUSH2 0x180 JUMPI JUMPDEST PUSH1 0x0 DUP1 REVERT JUMPDEST PUSH2 0xDF PUSH1 0x4 DUP1 CALLDATASIZE SUB PUSH1 0x20 DUP2 LT ISZERO PUSH2 0xCF JUMPI PUSH1 0x0 DUP1 REVERT JUMPDEST POP CALLDATALOAD PUSH1 0x1 PUSH1 0x1 PUSH1 0xA0 SHL SUB AND PUSH2 0x23B JUMP JUMPDEST PUSH1 0x40 DUP1 MLOAD SWAP2 DUP3 MSTORE MLOAD SWAP1 DUP2 SWAP1 SUB PUSH1 0x20 ADD SWAP1 RETURN JUMPDEST PUSH2 0xDF PUSH1 0x4 DUP1 CALLDATASIZE SUB PUSH1 0x20 DUP2 LT ISZERO PUSH2 0x107 JUMPI PUSH1 0x0 DUP1 REVERT JUMPDEST POP CALLDATALOAD PUSH1 0x1 PUSH1 0x1 PUSH1 0xA0 SHL SUB AND PUSH2 0x2C8 JUMP JUMPDEST PUSH2 0x134 PUSH1 0x4 DUP1 CALLDATASIZE SUB PUSH1 0x20 DUP2 LT ISZERO PUSH2 0x12D JUMPI PUSH1 0x0 DUP1 REVERT JUMPDEST POP CALLDATALOAD PUSH2 0x2DA JUMP JUMPDEST STOP JUMPDEST PUSH2 0x13E PUSH2 0x4CA JUMP JUMPDEST PUSH1 0x40 DUP1 MLOAD PUSH1 0x1 PUSH1 0x1 PUSH1 0xA0 SHL SUB SWAP1 SWAP3 AND DUP3 MSTORE MLOAD SWAP1 DUP2 SWAP1 SUB PUSH1 0x20 ADD SWAP1 RETURN JUMPDEST PUSH2 0xDF PUSH1 0x4 DUP1 CALLDATASIZE SUB PUSH1 0x20 DUP2 LT ISZERO PUSH2 0x170 JUMPI PUSH1 0x0 DUP1 REVERT JUMPDEST POP CALLDATALOAD PUSH1 0x1 PUSH1 0x1 PUSH1 0xA0 SHL SUB AND PUSH2 0x4D9 JUMP JUMPDEST PUSH2 0x13E PUSH2 0x4EB JUMP JUMPDEST PUSH2 0xDF PUSH1 0x4 DUP1 CALLDATASIZE SUB PUSH1 0x20 DUP2 LT ISZERO PUSH2 0x19E JUMPI PUSH1 0x0 DUP1 REVERT JUMPDEST POP CALLDATALOAD PUSH1 0x1 PUSH1 0x1 PUSH1 0xA0 SHL SUB AND PUSH2 0x4FA JUMP JUMPDEST PUSH2 0x1D4 PUSH1 0x4 DUP1 CALLDATASIZE SUB PUSH1 0x20 DUP2 LT ISZERO PUSH2 0x1C4 JUMPI PUSH1 0x0 DUP1 REVERT JUMPDEST POP CALLDATALOAD PUSH1 0x1 PUSH1 0x1 PUSH1 0xA0 SHL SUB AND PUSH2 0x50C JUMP JUMPDEST PUSH1 0x40 DUP1 MLOAD SWAP2 ISZERO ISZERO DUP3 MSTORE MLOAD SWAP1 DUP2 SWAP1 SUB PUSH1 0x20 ADD SWAP1 RETURN JUMPDEST PUSH2 0xDF PUSH1 0x4 DUP1 CALLDATASIZE SUB PUSH1 0x20 DUP2 LT ISZERO PUSH2 0x1FE JUMPI PUSH1 0x0 DUP1 REVERT JUMPDEST POP CALLDATALOAD PUSH1 0x1 PUSH1 0x1 PUSH1 0xA0 SHL SUB AND PUSH2 0x521 JUMP JUMPDEST PUSH2 0x134 PUSH1 0x4 DUP1 CALLDATASIZE SUB PUSH1 0x20 DUP2 LT ISZERO PUSH2 0x224 JUMPI PUSH1 0x0 DUP1 REVERT JUMPDEST POP CALLDATALOAD PUSH2 0x557 JUMP JUMPDEST PUSH2 0x134 PUSH2 0x6D3 JUMP JUMPDEST PUSH2 0x13E PUSH2 0x7EC JUMP JUMPDEST PUSH1 0x0 DUP1 PUSH2 0x25F PUSH8 0xDE0B6B3A7640000 PUSH2 0x253 DUP6 PUSH2 0x521 JUMP JUMPDEST SWAP1 PUSH4 0xFFFFFFFF PUSH2 0x7FB AND JUMP JUMPDEST SWAP1 POP PUSH3 0x15180 PUSH1 0x0 PUSH2 0x277 DUP4 DUP4 PUSH4 0xFFFFFFFF PUSH2 0x85D AND JUMP JUMPDEST PUSH1 0x1 PUSH1 0x1 PUSH1 0xA0 SHL SUB DUP7 AND PUSH1 0x0 SWAP1 DUP2 MSTORE PUSH1 0x3 PUSH1 0x20 MSTORE PUSH1 0x40 DUP2 KECCAK256 SLOAD SWAP2 SWAP3 POP SWAP1 PUSH2 0x2BE SWAP1 PUSH8 0xDE0B6B3A7640000 SWAP1 PUSH2 0x2B2 SWAP1 DUP6 PUSH4 0xFFFFFFFF PUSH2 0x7FB AND JUMP JUMPDEST SWAP1 PUSH4 0xFFFFFFFF PUSH2 0x85D AND JUMP JUMPDEST SWAP7 SWAP6 POP POP POP POP POP POP JUMP JUMPDEST PUSH1 0x6 PUSH1 0x20 MSTORE PUSH1 0x0 SWAP1 DUP2 MSTORE PUSH1 0x40 SWAP1 KECCAK256 SLOAD DUP2 JUMP JUMPDEST CALLER PUSH1 0x0 SWAP1 DUP2 MSTORE PUSH1 0x3 PUSH1 0x20 MSTORE PUSH1 0x40 SWAP1 KECCAK256 SLOAD PUSH2 0x334 JUMPI PUSH1 0x40 DUP1 MLOAD PUSH3 0x461BCD PUSH1 0xE5 SHL DUP2 MSTORE PUSH1 0x20 PUSH1 0x4 DUP3 ADD MSTORE PUSH1 0x16 PUSH1 0x24 DUP3 ADD MSTORE PUSH22 0x2737BA3434B733903A37903AB739BA30B5B290171717 PUSH1 0x51 SHL PUSH1 0x44 DUP3 ADD MSTORE SWAP1 MLOAD SWAP1 DUP2 SWAP1 SUB PUSH1 0x64 ADD SWAP1 REVERT JUMPDEST CALLER PUSH1 0x0 SWAP1 DUP2 MSTORE PUSH1 0x3 PUSH1 0x20 MSTORE PUSH1 0x40 SWAP1 KECCAK256 SLOAD DUP2 GT ISZERO PUSH2 0x398 JUMPI PUSH1 0x40 DUP1 MLOAD PUSH3 0x461BCD PUSH1 0xE5 SHL DUP2 MSTORE PUSH1 0x20 PUSH1 0x4 DUP3 ADD MSTORE PUSH1 0x18 PUSH1 0x24 DUP3 ADD MSTORE PUSH32 0x576974686472617720616D6F756E7420746F2068696768210000000000000000 PUSH1 0x44 DUP3 ADD MSTORE SWAP1 MLOAD SWAP1 DUP2 SWAP1 SUB PUSH1 0x64 ADD SWAP1 REVERT JUMPDEST PUSH1 0x0 DUP1 SLOAD PUSH1 0x40 DUP1 MLOAD PUSH4 0xA9059CBB PUSH1 0xE0 SHL DUP2 MSTORE CALLER PUSH1 0x4 DUP3 ADD MSTORE PUSH1 0x24 DUP2 ADD DUP6 SWAP1 MSTORE SWAP1 MLOAD PUSH1 0x1 PUSH1 0x1 PUSH1 0xA0 SHL SUB SWAP1 SWAP3 AND SWAP3 PUSH4 0xA9059CBB SWAP3 PUSH1 0x44 DUP1 DUP5 ADD SWAP4 PUSH1 0x20 SWAP4 SWAP1 DUP4 SWAP1 SUB SWAP1 SWAP2 ADD SWAP1 DUP3 SWAP1 DUP8 DUP1 EXTCODESIZE ISZERO DUP1 ISZERO PUSH2 0x3ED JUMPI PUSH1 0x0 DUP1 REVERT JUMPDEST POP GAS CALL ISZERO DUP1 ISZERO PUSH2 0x401 JUMPI RETURNDATASIZE PUSH1 0x0 DUP1 RETURNDATACOPY RETURNDATASIZE PUSH1 0x0 REVERT JUMPDEST POP POP POP POP PUSH1 0x40 MLOAD RETURNDATASIZE PUSH1 0x20 DUP2 LT ISZERO PUSH2 0x417 JUMPI PUSH1 0x0 DUP1 REVERT JUMPDEST POP POP CALLER PUSH1 0x0 SWAP1 DUP2 MSTORE PUSH1 0x3 PUSH1 0x20 MSTORE PUSH1 0x40 SWAP1 KECCAK256 SLOAD PUSH2 0x439 SWAP1 DUP3 PUSH4 0xFFFFFFFF PUSH2 0x89F AND JUMP JUMPDEST POP PUSH1 0x0 PUSH2 0x445 CALLER PUSH2 0x23B JUMP JUMPDEST CALLER PUSH1 0x0 SWAP1 DUP2 MSTORE PUSH1 0x5 PUSH1 0x20 SWAP1 DUP2 MSTORE PUSH1 0x40 DUP1 DUP4 KECCAK256 TIMESTAMP SWAP1 SSTORE PUSH1 0x3 SWAP1 SWAP2 MSTORE DUP2 KECCAK256 SLOAD SWAP1 SWAP4 SWAP2 SWAP3 POP PUSH2 0x477 SWAP1 DUP3 PUSH4 0xFFFFFFFF PUSH2 0x89F AND JUMP JUMPDEST POP CALLER PUSH1 0x0 SWAP1 DUP2 MSTORE PUSH1 0x6 PUSH1 0x20 MSTORE PUSH1 0x40 SWAP1 KECCAK256 SLOAD PUSH2 0x498 SWAP1 DUP4 PUSH4 0xFFFFFFFF PUSH2 0x8E1 AND JUMP JUMPDEST POP CALLER PUSH1 0x0 SWAP1 DUP2 MSTORE PUSH1 0x3 PUSH1 0x20 MSTORE PUSH1 0x40 SWAP1 KECCAK256 SLOAD PUSH2 0x4C5 JUMPI CALLER PUSH1 0x0 SWAP1 DUP2 MSTORE PUSH1 0x4 PUSH1 0x20 MSTORE PUSH1 0x40 SWAP1 KECCAK256 DUP1 SLOAD PUSH1 0xFF NOT AND SWAP1 SSTORE JUMPDEST POP POP POP JUMP JUMPDEST PUSH1 0x1 SLOAD PUSH1 0x1 PUSH1 0x1 PUSH1 0xA0 SHL SUB AND DUP2 JUMP JUMPDEST PUSH1 0x3 PUSH1 0x20 MSTORE PUSH1 0x0 SWAP1 DUP2 MSTORE PUSH1 0x40 SWAP1 KECCAK256 SLOAD DUP2 JUMP JUMPDEST PUSH1 0x0 SLOAD PUSH1 0x1 PUSH1 0x1 PUSH1 0xA0 SHL SUB AND DUP2 JUMP JUMPDEST PUSH1 0x5 PUSH1 0x20 MSTORE PUSH1 0x0 SWAP1 DUP2 MSTORE PUSH1 0x40 SWAP1 KECCAK256 SLOAD DUP2 JUMP JUMPDEST PUSH1 0x4 PUSH1 0x20 MSTORE PUSH1 0x0 SWAP1 DUP2 MSTORE PUSH1 0x40 SWAP1 KECCAK256 SLOAD PUSH1 0xFF AND DUP2 JUMP JUMPDEST PUSH1 0x1 PUSH1 0x1 PUSH1 0xA0 SHL SUB DUP2 AND PUSH1 0x0 SWAP1 DUP2 MSTORE PUSH1 0x5 PUSH1 0x20 MSTORE PUSH1 0x40 DUP2 KECCAK256 SLOAD TIMESTAMP SWAP1 DUP3 SWAP1 PUSH2 0x54F SWAP1 DUP4 SWAP1 PUSH4 0xFFFFFFFF PUSH2 0x89F AND JUMP JUMPDEST SWAP5 SWAP4 POP POP POP POP JUMP JUMPDEST CALLER PUSH1 0x0 SWAP1 DUP2 MSTORE PUSH1 0x4 PUSH1 0x20 MSTORE PUSH1 0x40 SWAP1 KECCAK256 SLOAD PUSH1 0xFF AND ISZERO ISZERO PUSH1 0x1 EQ ISZERO PUSH2 0x5D3 JUMPI PUSH1 0x0 PUSH2 0x57F CALLER PUSH2 0x23B JUMP JUMPDEST CALLER PUSH1 0x0 SWAP1 DUP2 MSTORE PUSH1 0x6 PUSH1 0x20 MSTORE PUSH1 0x40 SWAP1 KECCAK256 SLOAD SWAP1 SWAP2 POP ISZERO PUSH2 0x5BC JUMPI CALLER PUSH1 0x0 SWAP1 DUP2 MSTORE PUSH1 0x6 PUSH1 0x20 MSTORE PUSH1 0x40 SWAP1 KECCAK256 SLOAD PUSH2 0x5B7 SWAP1 DUP1 PUSH4 0xFFFFFFFF PUSH2 0x8E1 AND JUMP JUMPDEST PUSH2 0x5D0 JUMP JUMPDEST CALLER PUSH1 0x0 SWAP1 DUP2 MSTORE PUSH1 0x6 PUSH1 0x20 MSTORE PUSH1 0x40 SWAP1 KECCAK256 DUP2 SWAP1 SSTORE DUP1 JUMPDEST POP POP JUMPDEST PUSH1 0x0 DUP1 SLOAD PUSH1 0x40 DUP1 MLOAD PUSH4 0x23B872DD PUSH1 0xE0 SHL DUP2 MSTORE CALLER PUSH1 0x4 DUP3 ADD MSTORE ADDRESS PUSH1 0x24 DUP3 ADD MSTORE PUSH1 0x44 DUP2 ADD DUP6 SWAP1 MSTORE SWAP1 MLOAD PUSH1 0x1 PUSH1 0x1 PUSH1 0xA0 SHL SUB SWAP1 SWAP3 AND SWAP3 PUSH4 0x23B872DD SWAP3 PUSH1 0x64 DUP1 DUP5 ADD SWAP4 PUSH1 0x20 SWAP4 SWAP1 DUP4 SWAP1 SUB SWAP1 SWAP2 ADD SWAP1 DUP3 SWAP1 DUP8 DUP1 EXTCODESIZE ISZERO DUP1 ISZERO PUSH2 0x62E JUMPI PUSH1 0x0 DUP1 REVERT JUMPDEST POP GAS CALL ISZERO DUP1 ISZERO PUSH2 0x642 JUMPI RETURNDATASIZE PUSH1 0x0 DUP1 RETURNDATACOPY RETURNDATASIZE PUSH1 0x0 REVERT JUMPDEST POP POP POP POP PUSH1 0x40 MLOAD RETURNDATASIZE PUSH1 0x20 DUP2 LT ISZERO PUSH2 0x658 JUMPI PUSH1 0x0 DUP1 REVERT JUMPDEST POP POP CALLER PUSH1 0x0 SWAP1 DUP2 MSTORE PUSH1 0x3 PUSH1 0x20 MSTORE PUSH1 0x40 SWAP1 KECCAK256 SLOAD ISZERO PUSH2 0x694 JUMPI CALLER PUSH1 0x0 SWAP1 DUP2 MSTORE PUSH1 0x3 PUSH1 0x20 MSTORE PUSH1 0x40 SWAP1 KECCAK256 SLOAD PUSH2 0x68F SWAP1 DUP3 PUSH4 0xFFFFFFFF PUSH2 0x8E1 AND JUMP JUMPDEST PUSH2 0x6A8 JUMP JUMPDEST CALLER PUSH1 0x0 SWAP1 DUP2 MSTORE PUSH1 0x3 PUSH1 0x20 MSTORE PUSH1 0x40 SWAP1 KECCAK256 DUP2 SWAP1 SSTORE DUP1 JUMPDEST POP POP CALLER PUSH1 0x0 SWAP1 DUP2 MSTORE PUSH1 0x5 PUSH1 0x20 SWAP1 DUP2 MSTORE PUSH1 0x40 DUP1 DUP4 KECCAK256 TIMESTAMP SWAP1 SSTORE PUSH1 0x4 SWAP1 SWAP2 MSTORE SWAP1 KECCAK256 DUP1 SLOAD PUSH1 0xFF NOT AND PUSH1 0x1 OR SWAP1 SSTORE JUMP JUMPDEST PUSH1 0x0 PUSH2 0x6DE CALLER PUSH2 0x23B JUMP JUMPDEST SWAP1 POP PUSH1 0x0 DUP2 GT DUP1 PUSH2 0x6FD JUMPI POP CALLER PUSH1 0x0 SWAP1 DUP2 MSTORE PUSH1 0x6 PUSH1 0x20 MSTORE PUSH1 0x40 SWAP1 KECCAK256 SLOAD ISZERO ISZERO JUMPDEST PUSH2 0x744 JUMPI PUSH1 0x40 DUP1 MLOAD PUSH3 0x461BCD PUSH1 0xE5 SHL DUP2 MSTORE PUSH1 0x20 PUSH1 0x4 DUP3 ADD MSTORE PUSH1 0x13 PUSH1 0x24 DUP3 ADD MSTORE PUSH19 0x4E6F7468696E6720746F207769746864726177 PUSH1 0x68 SHL PUSH1 0x44 DUP3 ADD MSTORE SWAP1 MLOAD SWAP1 DUP2 SWAP1 SUB PUSH1 0x64 ADD SWAP1 REVERT JUMPDEST CALLER PUSH1 0x0 SWAP1 DUP2 MSTORE PUSH1 0x6 PUSH1 0x20 MSTORE PUSH1 0x40 SWAP1 KECCAK256 SLOAD ISZERO PUSH2 0x76F JUMPI CALLER PUSH1 0x0 SWAP1 DUP2 MSTORE PUSH1 0x6 PUSH1 0x20 MSTORE PUSH1 0x40 DUP2 KECCAK256 DUP1 SLOAD SWAP2 SWAP1 SSTORE ADD JUMPDEST CALLER PUSH1 0x0 DUP2 DUP2 MSTORE PUSH1 0x5 PUSH1 0x20 MSTORE PUSH1 0x40 DUP1 DUP3 KECCAK256 TIMESTAMP SWAP1 SSTORE PUSH1 0x1 SLOAD DUP2 MLOAD PUSH4 0x40C10F19 PUSH1 0xE0 SHL DUP2 MSTORE PUSH1 0x4 DUP2 ADD SWAP5 SWAP1 SWAP5 MSTORE PUSH1 0x24 DUP5 ADD DUP6 SWAP1 MSTORE SWAP1 MLOAD PUSH1 0x1 PUSH1 0x1 PUSH1 0xA0 SHL SUB SWAP1 SWAP2 AND SWAP3 PUSH4 0x40C10F19 SWAP3 PUSH1 0x44 DUP1 DUP4 ADD SWAP4 SWAP2 SWAP3 DUP3 SWAP1 SUB ADD DUP2 DUP4 DUP8 DUP1 EXTCODESIZE ISZERO DUP1 ISZERO PUSH2 0x7D1 JUMPI PUSH1 0x0 DUP1 REVERT JUMPDEST POP GAS CALL ISZERO DUP1 ISZERO PUSH2 0x7E5 JUMPI RETURNDATASIZE PUSH1 0x0 DUP1 RETURNDATACOPY RETURNDATASIZE PUSH1 0x0 REVERT JUMPDEST POP POP POP POP POP JUMP JUMPDEST PUSH1 0x2 SLOAD PUSH1 0x1 PUSH1 0x1 PUSH1 0xA0 SHL SUB AND DUP2 JUMP JUMPDEST PUSH1 0x0 DUP3 PUSH2 0x80A JUMPI POP PUSH1 0x0 PUSH2 0x857 JUMP JUMPDEST DUP3 DUP3 MUL DUP3 DUP5 DUP3 DUP2 PUSH2 0x817 JUMPI INVALID JUMPDEST DIV EQ PUSH2 0x854 JUMPI PUSH1 0x40 MLOAD PUSH3 0x461BCD PUSH1 0xE5 SHL DUP2 MSTORE PUSH1 0x4 ADD DUP1 DUP1 PUSH1 0x20 ADD DUP3 DUP2 SUB DUP3 MSTORE PUSH1 0x21 DUP2 MSTORE PUSH1 0x20 ADD DUP1 PUSH2 0xA38 PUSH1 0x21 SWAP2 CODECOPY PUSH1 0x40 ADD SWAP2 POP POP PUSH1 0x40 MLOAD DUP1 SWAP2 SUB SWAP1 REVERT JUMPDEST SWAP1 POP JUMPDEST SWAP3 SWAP2 POP POP JUMP JUMPDEST PUSH1 0x0 PUSH2 0x854 DUP4 DUP4 PUSH1 0x40 MLOAD DUP1 PUSH1 0x40 ADD PUSH1 0x40 MSTORE DUP1 PUSH1 0x1A DUP2 MSTORE PUSH1 0x20 ADD PUSH32 0x536166654D6174683A206469766973696F6E206279207A65726F000000000000 DUP2 MSTORE POP PUSH2 0x93B JUMP JUMPDEST PUSH1 0x0 PUSH2 0x854 DUP4 DUP4 PUSH1 0x40 MLOAD DUP1 PUSH1 0x40 ADD PUSH1 0x40 MSTORE DUP1 PUSH1 0x1E DUP2 MSTORE PUSH1 0x20 ADD PUSH32 0x536166654D6174683A207375627472616374696F6E206F766572666C6F770000 DUP2 MSTORE POP PUSH2 0x9DD JUMP JUMPDEST PUSH1 0x0 DUP3 DUP3 ADD DUP4 DUP2 LT ISZERO PUSH2 0x854 JUMPI PUSH1 0x40 DUP1 MLOAD PUSH3 0x461BCD PUSH1 0xE5 SHL DUP2 MSTORE PUSH1 0x20 PUSH1 0x4 DUP3 ADD MSTORE PUSH1 0x1B PUSH1 0x24 DUP3 ADD MSTORE PUSH32 0x536166654D6174683A206164646974696F6E206F766572666C6F770000000000 PUSH1 0x44 DUP3 ADD MSTORE SWAP1 MLOAD SWAP1 DUP2 SWAP1 SUB PUSH1 0x64 ADD SWAP1 REVERT JUMPDEST PUSH1 0x0 DUP2 DUP4 PUSH2 0x9C7 JUMPI PUSH1 0x40 MLOAD PUSH3 0x461BCD PUSH1 0xE5 SHL DUP2 MSTORE PUSH1 0x4 ADD DUP1 DUP1 PUSH1 0x20 ADD DUP3 DUP2 SUB DUP3 MSTORE DUP4 DUP2 DUP2 MLOAD DUP2 MSTORE PUSH1 0x20 ADD SWAP2 POP DUP1 MLOAD SWAP1 PUSH1 0x20 ADD SWAP1 DUP1 DUP4 DUP4 PUSH1 0x0 JUMPDEST DUP4 DUP2 LT ISZERO PUSH2 0x98C JUMPI DUP2 DUP2 ADD MLOAD DUP4 DUP3 ADD MSTORE PUSH1 0x20 ADD PUSH2 0x974 JUMP JUMPDEST POP POP POP POP SWAP1 POP SWAP1 DUP2 ADD SWAP1 PUSH1 0x1F AND DUP1 ISZERO PUSH2 0x9B9 JUMPI DUP1 DUP3 SUB DUP1 MLOAD PUSH1 0x1 DUP4 PUSH1 0x20 SUB PUSH2 0x100 EXP SUB NOT AND DUP2 MSTORE PUSH1 0x20 ADD SWAP2 POP JUMPDEST POP SWAP3 POP POP POP PUSH1 0x40 MLOAD DUP1 SWAP2 SUB SWAP1 REVERT JUMPDEST POP PUSH1 0x0 DUP4 DUP6 DUP2 PUSH2 0x9D3 JUMPI INVALID JUMPDEST DIV SWAP6 SWAP5 POP POP POP POP POP JUMP JUMPDEST PUSH1 0x0 DUP2 DUP5 DUP5 GT ISZERO PUSH2 0xA2F JUMPI PUSH1 0x40 MLOAD PUSH3 0x461BCD PUSH1 0xE5 SHL DUP2 MSTORE PUSH1 0x20 PUSH1 0x4 DUP3 ADD DUP2 DUP2 MSTORE DUP4 MLOAD PUSH1 0x24 DUP5 ADD MSTORE DUP4 MLOAD SWAP1 SWAP3 DUP4 SWAP3 PUSH1 0x44 SWAP1 SWAP2 ADD SWAP2 SWAP1 DUP6 ADD SWAP1 DUP1 DUP4 DUP4 PUSH1 0x0 DUP4 ISZERO PUSH2 0x98C JUMPI DUP2 DUP2 ADD MLOAD DUP4 DUP3 ADD MSTORE PUSH1 0x20 ADD PUSH2 0x974 JUMP JUMPDEST POP POP POP SWAP1 SUB SWAP1 JUMP INVALID MSTORE8 PUSH2 0x6665 0x4D PUSH2 0x7468 GASPRICE KECCAK256 PUSH14 0x756C7469706C69636174696F6E20 PUSH16 0x766572666C6F77A26469706673582212 KECCAK256 SWAP7 0xE7 JUMP 0xBA EQ 0xE4 0xD1 PUSH10 0x53C7DAE54FAAC40263B7 KECCAK256 PUSH27 0x13B7D0F3553CF48FB03076D164736F6C6343000606003300000000 "},"gasEstimates":{"creation":{"codeDepositCost":"540400","executionCost":"infinite","totalCost":"infinite"},"external":{"admin()":"1147","bonusToken()":"1104","calculateYieldTime(address)":"infinite","calculateYieldTotal(address)":"infinite","depositedAmount(address)":"1213","isStaking(address)":"1158","pairFork()":"1148","rewards(address)":"1147","stake(uint256)":"infinite","startTime(address)":"1124","unstake(uint256)":"infinite","withdrawRewards()":"infinite"}},"methodIdentifiers":{"admin()":"f851a440","bonusToken()":"41d4a1ab","calculateYieldTime(address)":"980d6116","calculateYieldTotal(address)":"06872661","depositedAmount(address)":"4a4643f7","isStaking(address)":"6f49712b","pairFork()":"59201402","rewards(address)":"0700037d","stake(uint256)":"a694fc3a","startTime(address)":"6e1dc66e","unstake(uint256)":"2e17de78","withdrawRewards()":"c7b8981c"}},"storageLayout":{"storage":[{"astId":10,"contract":"Contract:YieldFarming","label":"pairFork","offset":0,"slot":"0","type":"t_contract(IUniswapV2Pair)853"},{"astId":12,"contract":"Contract:YieldFarming","label":"bonusToken","offset":0,"slot":"1","type":"t_contract(BonusToken)611"},{"astId":14,"contract":"Contract:YieldFarming","label":"admin","offset":0,"slot":"2","type":"t_address"},{"astId":18,"contract":"Contract:YieldFarming","label":"depositedAmount","offset":0,"slot":"3","type":"t_mapping(t_address,t_uint256)"},{"astId":22,"contract":"Contract:YieldFarming","label":"isStaking","offset":0,"slot":"4","type":"t_mapping(t_address,t_bool)"},{"astId":26,"contract":"Contract:YieldFarming","label":"startTime","offset":0,"slot":"5","type":"t_mapping(t_address,t_uint256)"},{"astId":30,"contract":"Contract:YieldFarming","label":"rewards","offset":0,"slot":"6","type":"t_mapping(t_address,t_uint256)"}],"types":{"t_address":{"encoding":"inplace","label":"address","numberOfBytes":"20"},"t_bool":{"encoding":"inplace","label":"bool","numberOfBytes":"1"},"t_contract(BonusToken)611":{"encoding":"inplace","label":"contract BonusToken","numberOfBytes":"20"},"t_contract(IUniswapV2Pair)853":{"encoding":"inplace","label":"contract IUniswapV2Pair","numberOfBytes":"20"},"t_mapping(t_address,t_bool)":{"encoding":"mapping","key":"t_address","label":"mapping(address => bool)","numberOfBytes":"32","value":"t_bool"},"t_mapping(t_address,t_uint256)":{"encoding":"mapping","key":"t_address","label":"mapping(address => uint256)","numberOfBytes":"32","value":"t_uint256"},"t_uint256":{"encoding":"inplace","label":"uint256","numberOfBytes":"32"}}},"userdoc":{"methods":{}}}