{"abi":[{"inputs":[{"internalType":"uint256","name":"_totalSupply","type":"uint256"}],"stateMutability":"nonpayable","type":"constructor"},{"anonymous":false,"inputs":[{"indexed":true,"internalType":"address","name":"owner","type":"address"},{"indexed":true,"internalType":"address","name":"spender","type":"address"},{"indexed":false,"internalType":"uint256","name":"value","type":"uint256"}],"name":"Approval","type":"event"},{"anonymous":false,"inputs":[{"indexed":true,"internalType":"address","name":"from","type":"address"},{"indexed":true,"internalType":"address","name":"to","type":"address"},{"indexed":false,"internalType":"uint256","name":"value","type":"uint256"}],"name":"Transfer","type":"event"},{"inputs":[],"name":"DOMAIN_SEPARATOR","outputs":[{"internalType":"bytes32","name":"","type":"bytes32"}],"stateMutability":"view","type":"function"},{"inputs":[],"name":"PERMIT_TYPEHASH","outputs":[{"internalType":"bytes32","name":"","type":"bytes32"}],"stateMutability":"view","type":"function"},{"inputs":[],"name":"admin","outputs":[{"internalType":"address","name":"","type":"address"}],"stateMutability":"view","type":"function"},{"inputs":[{"internalType":"address","name":"","type":"address"},{"internalType":"address","name":"","type":"address"}],"name":"allowance","outputs":[{"internalType":"uint256","name":"","type":"uint256"}],"stateMutability":"view","type":"function"},{"inputs":[],"name":"allowedMinter","outputs":[{"internalType":"address","name":"","type":"address"}],"stateMutability":"view","type":"function"},{"inputs":[{"internalType":"address","name":"spender","type":"address"},{"internalType":"uint256","name":"value","type":"uint256"}],"name":"approve","outputs":[{"internalType":"bool","name":"","type":"bool"}],"stateMutability":"nonpayable","type":"function"},{"inputs":[{"internalType":"address","name":"","type":"address"}],"name":"balanceOf","outputs":[{"internalType":"uint256","name":"","type":"uint256"}],"stateMutability":"view","type":"function"},{"inputs":[],"name":"decimals","outputs":[{"internalType":"uint8","name":"","type":"uint8"}],"stateMutability":"view","type":"function"},{"inputs":[{"internalType":"address","name":"to","type":"address"},{"internalType":"uint256","name":"amount","type":"uint256"}],"name":"mint","outputs":[],"stateMutability":"nonpayable","type":"function"},{"inputs":[],"name":"name","outputs":[{"internalType":"string","name":"","type":"string"}],"stateMutability":"view","type":"function"},{"inputs":[{"internalType":"address","name":"","type":"address"}],"name":"nonces","outputs":[{"internalType":"uint256","name":"","type":"uint256"}],"stateMutability":"view","type":"function"},{"inputs":[{"internalType":"address","name":"owner","type":"address"},{"internalType":"address","name":"spender","type":"address"},{"internalType":"uint256","name":"value","type":"uint256"},{"internalType":"uint256","name":"deadline","type":"uint256"},{"internalType":"uint8","name":"v","type":"uint8"},{"internalType":"bytes32","name":"r","type":"bytes32"},{"internalType":"bytes32","name":"s","type":"bytes32"}],"name":"permit","outputs":[],"stateMutability":"nonpayable","type":"function"},{"inputs":[{"internalType":"address","name":"_allowedMinter","type":"address"}],"name":"setAllowedMinter","outputs":[],"stateMutability":"nonpayable","type":"function"},{"inputs":[],"name":"symbol","outputs":[{"internalType":"string","name":"","type":"string"}],"stateMutability":"view","type":"function"},{"inputs":[],"name":"totalSupply","outputs":[{"internalType":"uint256","name":"","type":"uint256"}],"stateMutability":"view","type":"function"},{"inputs":[{"internalType":"address","name":"to","type":"address"},{"internalType":"uint256","name":"value","type":"uint256"}],"name":"transfer","outputs":[{"internalType":"bool","name":"","type":"bool"}],"stateMutability":"nonpayable","type":"function"},{"inputs":[{"internalType":"address","name":"from","type":"address"},{"internalType":"address","name":"to","type":"address"},{"internalType":"uint256","name":"value","type":"uint256"}],"name":"transferFrom","outputs":[{"internalType":"bool","name":"","type":"bool"}],"stateMutability":"nonpayable","type":"function"}],"devdoc":{"methods":{}},"evm":{"assembly":"    /* \"Contract\":82:3942  contract  BabyLeash {\r... */\n  mstore(0x40, 0x80)\n    /* \"Contract\":958:1506  constructor(uint _totalSupply) public {\r... */\n  callvalue\n    /* \"--CODEGEN--\":5:14   */\n  dup1\n    /* \"--CODEGEN--\":2:4   */\n  iszero\n  tag_1\n  jumpi\n    /* \"--CODEGEN--\":27:28   */\n  0x00\n    /* \"--CODEGEN--\":24:25   */\n  dup1\n    /* \"--CODEGEN--\":17:29   */\n  revert\n    /* \"--CODEGEN--\":2:4   */\ntag_1:\n    /* \"Contract\":958:1506  constructor(uint _totalSupply) public {\r... */\n  pop\n  mload(0x40)\n  sub(codesize, bytecodeSize)\n  dup1\n  bytecodeSize\n  dup4\n  codecopy\n  dup2\n  dup2\n  add\n  0x40\n  mstore\n    /* \"--CODEGEN--\":15:17   */\n  0x20\n    /* \"--CODEGEN--\":10:13   */\n  dup2\n    /* \"--CODEGEN--\":7:18   */\n  lt\n    /* \"--CODEGEN--\":4:6   */\n  iszero\n  tag_2\n  jumpi\n    /* \"--CODEGEN--\":31:32   */\n  0x00\n    /* \"--CODEGEN--\":28:29   */\n  dup1\n    /* \"--CODEGEN--\":21:33   */\n  revert\n    /* \"--CODEGEN--\":4:6   */\ntag_2:\n  pop\n    /* \"Contract\":958:1506  constructor(uint _totalSupply) public {\r... */\n  mload\n    /* \"Contract\":1167:1262  keccak256('EIP712Domain(string name,string version,uint256 chainId,address verifyingContract)') */\n  mload(0x40)\n    /* \"Contract\":1065:1074  chainid() */\n  chainid\n  swap1\n    /* \"Contract\":1167:1262  keccak256('EIP712Domain(string name,string version,uint256 chainId,address verifyingContract)') */\n  dup1\n  0x52\n  data_8b73c3c69bb8fe3d512ecc4cf759cc79239f7b179b0ffacaa9a75d522b39400f\n  dup3\n  codecopy\n  0x40\n  dup1\n  mload\n  swap2\n  dup3\n  swap1\n  sub\n  0x52\n  add\n  dup3\n  keccak256\n    /* \"Contract\":1297:1301  name */\n  dup3\n  dup3\n  add\n  dup3\n  mstore\n  0x0a\n  dup4\n  mstore\n  shl(0xb3, 0x084c2c4f24098cac2e6d)\n  0x20\n  swap4\n  dup5\n  add\n  mstore\n    /* \"Contract\":1332:1342  bytes('1') */\n  dup2\n  mload\n  dup1\n  dup4\n  add\n  dup4\n  mstore\n  0x01\n  dup2\n  mstore\n  shl(0xf8, 0x31)\n  swap1\n  dup5\n  add\n  mstore\n    /* \"Contract\":1138:1416  abi.encode(\r... */\n  dup2\n  mload\n  dup1\n  dup5\n  add\n  swap2\n  swap1\n  swap2\n  mstore\n    /* \"Contract\":1281:1303  keccak256(bytes(name)) */\n  0x91fb209e6d613990b5b7e5694de549d357201c31ab716f643d4d56b46dc06688\n    /* \"Contract\":1138:1416  abi.encode(\r... */\n  dup2\n  dup4\n  add\n  mstore\n    /* \"Contract\":1322:1343  keccak256(bytes('1')) */\n  0xc89efdaa54c0f20c7adf612882df0950f5a951637e0307cdcb4c672f298b8bc6\n    /* \"Contract\":1138:1416  abi.encode(\r... */\n  0x60\n  dup3\n  add\n  mstore\n  0x80\n  dup2\n  add\n  dup6\n  swap1\n  mstore\n    /* \"Contract\":1396:1400  this */\n  address\n    /* \"Contract\":1138:1416  abi.encode(\r... */\n  0xa0\n  dup1\n  dup4\n  add\n  swap2\n  swap1\n  swap2\n  mstore\n  dup3\n  mload\n    /* \"--CODEGEN--\":26:47   */\n  dup1\n  dup4\n  sub\n    /* \"--CODEGEN--\":22:54   */\n  swap1\n  swap2\n  add\n    /* \"--CODEGEN--\":6:55   */\n  dup2\n  mstore\n    /* \"Contract\":1138:1416  abi.encode(\r... */\n  0xc0\n  swap1\n  swap2\n  add\n  swap1\n  swap2\n  mstore\n    /* \"Contract\":1114:1427  keccak256(\r... */\n  dup1\n  mload\n  swap2\n  add\n  keccak256\n    /* \"Contract\":1095:1111  DOMAIN_SEPARATOR */\n  0x05\n    /* \"Contract\":1095:1427  DOMAIN_SEPARATOR = keccak256(\r... */\n  sstore\n  pop\n    /* \"Contract\":1438:1469  _mint(msg.sender, _totalSupply) */\n  tag_5\n    /* \"Contract\":1444:1454  msg.sender */\n  caller\n    /* \"Contract\":1456:1468  _totalSupply */\n  dup4\n  sub(shl(0xe0, 0x01), 0x01)\n    /* \"Contract\":1438:1443  _mint */\n  tag_6\n    /* \"Contract\":1438:1469  _mint(msg.sender, _totalSupply) */\n  and\n  jump\t// in\ntag_5:\n  pop\n  pop\n    /* \"Contract\":1480:1485  admin */\n  0x00\n    /* \"Contract\":1480:1498  admin = msg.sender */\n  dup1\n  sload\n  not(sub(shl(0xa0, 0x01), 0x01))\n  and\n    /* \"Contract\":1488:1498  msg.sender */\n  caller\n    /* \"Contract\":1480:1498  admin = msg.sender */\n  or\n  swap1\n  sstore\n    /* \"Contract\":82:3942  contract  BabyLeash {\r... */\n  jump(tag_7)\n    /* \"Contract\":1514:1715  function _mint(address to, uint value) internal {\r... */\ntag_6:\n    /* \"Contract\":1587:1609  totalSupply.add(value) */\n  tag_9\n    /* \"Contract\":1603:1608  value */\n  dup2\n    /* \"Contract\":1587:1598  totalSupply */\n  sload(0x02)\n    /* \"Contract\":1587:1602  totalSupply.add */\n  or(tag_0_105, shl(0x20, tag_10))\n  swap1\n    /* \"Contract\":1587:1609  totalSupply.add(value) */\n  swap2\n  swap1\n  0x20\n  shr\n  jump\t// in\ntag_9:\n    /* \"Contract\":1573:1584  totalSupply */\n  0x02\n    /* \"Contract\":1573:1609  totalSupply = totalSupply.add(value) */\n  sstore\n  sub(shl(0xa0, 0x01), 0x01)\n    /* \"Contract\":1636:1649  balanceOf[to] */\n  dup3\n  and\n  0x00\n  swap1\n  dup2\n  mstore\n    /* \"Contract\":1636:1645  balanceOf */\n  0x03\n    /* \"Contract\":1636:1649  balanceOf[to] */\n  0x20\n  swap1\n  dup2\n  mstore\n  0x40\n  swap1\n  swap2\n  keccak256\n  sload\n    /* \"Contract\":1636:1660  balanceOf[to].add(value) */\n  tag_11\n  swap2\n    /* \"Contract\":1654:1659  value */\n  dup4\n  swap1\n    /* \"Contract\":1636:1653  balanceOf[to].add */\n  tag_0_105\n  tag_10\n  dup3\n  shl\n  or\n    /* \"Contract\":1636:1660  balanceOf[to].add(value) */\n  swap1\n  shr\n  jump\t// in\ntag_11:\n  sub(shl(0xa0, 0x01), 0x01)\n    /* \"Contract\":1620:1633  balanceOf[to] */\n  dup4\n  and\n  0x00\n  dup2\n  dup2\n  mstore\n    /* \"Contract\":1620:1629  balanceOf */\n  0x03\n    /* \"Contract\":1620:1633  balanceOf[to] */\n  0x20\n  swap1\n  dup2\n  mstore\n  0x40\n  dup1\n  dup4\n  keccak256\n    /* \"Contract\":1620:1660  balanceOf[to] = balanceOf[to].add(value) */\n  swap5\n  swap1\n  swap5\n  sstore\n    /* \"Contract\":1676:1707  Transfer(address(0), to, value) */\n  dup4\n  mload\n  dup6\n  dup2\n  mstore\n  swap4\n  mload\n    /* \"Contract\":1620:1633  balanceOf[to] */\n  swap3\n  swap4\n  swap2\n  swap3\n    /* \"Contract\":1676:1707  Transfer(address(0), to, value) */\n  0xddf252ad1be2c89b69c2b068fc378daa952ba7f163c4a11628f55a4df523b3ef\n  swap3\n  dup2\n  swap1\n  sub\n  swap1\n  swap2\n  add\n  swap1\n  log3\n    /* \"Contract\":1514:1715  function _mint(address to, uint value) internal {\r... */\n  pop\n  pop\n  jump\t// out\n    /* \"@openzeppelin/contracts/math/SafeMath.sol\":874:1050   */\ntag_10:\n    /* \"@openzeppelin/contracts/math/SafeMath.sol\":932:939   */\n  0x00\n    /* \"@openzeppelin/contracts/math/SafeMath.sol\":963:968   */\n  dup3\n  dup3\n  add\n    /* \"@openzeppelin/contracts/math/SafeMath.sol\":986:992   */\n  dup4\n  dup2\n  lt\n  iszero\n    /* \"@openzeppelin/contracts/math/SafeMath.sol\":978:1024   */\n  tag_13\n  jumpi\n  0x40\n  dup1\n  mload\n  shl(0xe5, 0x461bcd)\n  dup2\n  mstore\n  0x20\n  0x04\n  dup3\n  add\n  mstore\n  0x1b\n  0x24\n  dup3\n  add\n  mstore\n  0x536166654d6174683a206164646974696f6e206f766572666c6f770000000000\n  0x44\n  dup3\n  add\n  mstore\n  swap1\n  mload\n  swap1\n  dup2\n  swap1\n  sub\n  0x64\n  add\n  swap1\n  revert\ntag_13:\n    /* \"@openzeppelin/contracts/math/SafeMath.sol\":1042:1043   */\n  swap4\n    /* \"@openzeppelin/contracts/math/SafeMath.sol\":874:1050   */\n  swap3\n  pop\n  pop\n  pop\n  jump\t// out\n    /* \"Contract\":82:3942  contract  BabyLeash {\r... */\ntag_7:\n  dataSize(sub_0)\n  dup1\n  dataOffset(sub_0)\n  0x00\n  codecopy\n  0x00\n  return\nstop\ndata_8b73c3c69bb8fe3d512ecc4cf759cc79239f7b179b0ffacaa9a75d522b39400f 454950373132446f6d61696e28737472696e67206e616d652c737472696e672076657273696f6e2c75696e7432353620636861696e49642c6164647265737320766572696679696e67436f6e747261637429\n\nsub_0: assembly {\n        /* \"Contract\":82:3942  contract  BabyLeash {\r... */\n      mstore(0x40, 0x80)\n      callvalue\n        /* \"--CODEGEN--\":5:14   */\n      dup1\n        /* \"--CODEGEN--\":2:4   */\n      iszero\n      tag_1\n      jumpi\n        /* \"--CODEGEN--\":27:28   */\n      0x00\n        /* \"--CODEGEN--\":24:25   */\n      dup1\n        /* \"--CODEGEN--\":17:29   */\n      revert\n        /* \"--CODEGEN--\":2:4   */\n    tag_1:\n        /* \"Contract\":82:3942  contract  BabyLeash {\r... */\n      pop\n      jumpi(tag_2, lt(calldatasize, 0x04))\n      shr(0xe0, calldataload(0x00))\n      dup1\n      0x70a08231\n      gt\n      tag_20\n      jumpi\n      dup1\n      0xa9059cbb\n      gt\n      tag_21\n      jumpi\n      dup1\n      0xa9059cbb\n      eq\n      tag_15\n      jumpi\n      dup1\n      0xd01cc618\n      eq\n      tag_16\n      jumpi\n      dup1\n      0xd505accf\n      eq\n      tag_17\n      jumpi\n      dup1\n      0xdd62ed3e\n      eq\n      tag_18\n      jumpi\n      dup1\n      0xf851a440\n      eq\n      tag_19\n      jumpi\n      jump(tag_2)\n    tag_21:\n      dup1\n      0x70a08231\n      eq\n      tag_11\n      jumpi\n      dup1\n      0x7ecebe00\n      eq\n      tag_12\n      jumpi\n      dup1\n      0x95d89b41\n      eq\n      tag_13\n      jumpi\n      dup1\n      0x9e812c7b\n      eq\n      tag_14\n      jumpi\n      jump(tag_2)\n    tag_20:\n      dup1\n      0x30adf81f\n      gt\n      tag_22\n      jumpi\n      dup1\n      0x30adf81f\n      eq\n      tag_7\n      jumpi\n      dup1\n      0x313ce567\n      eq\n      tag_8\n      jumpi\n      dup1\n      0x3644e515\n      eq\n      tag_9\n      jumpi\n      dup1\n      0x40c10f19\n      eq\n      tag_10\n      jumpi\n      jump(tag_2)\n    tag_22:\n      dup1\n      0x06fdde03\n      eq\n      tag_3\n      jumpi\n      dup1\n      0x095ea7b3\n      eq\n      tag_4\n      jumpi\n      dup1\n      0x18160ddd\n      eq\n      tag_5\n      jumpi\n      dup1\n      0x23b872dd\n      eq\n      tag_6\n      jumpi\n    tag_2:\n        /* \"--CODEGEN--\":12:13   */\n      0x00\n        /* \"--CODEGEN--\":9:10   */\n      dup1\n        /* \"--CODEGEN--\":2:14   */\n      revert\n        /* \"Contract\":205:247  string public constant name = \"Baby Leash\" */\n    tag_3:\n      tag_23\n      tag_24\n      jump\t// in\n    tag_23:\n      0x40\n      dup1\n      mload\n      0x20\n      dup1\n      dup3\n      mstore\n      dup4\n      mload\n      dup2\n      dup4\n      add\n      mstore\n      dup4\n      mload\n      swap2\n      swap3\n      dup4\n      swap3\n      swap1\n      dup4\n      add\n      swap2\n      dup6\n      add\n      swap1\n      dup1\n      dup4\n      dup4\n      0x00\n        /* \"--CODEGEN--\":8:108   */\n    tag_25:\n        /* \"--CODEGEN--\":33:36   */\n      dup4\n        /* \"--CODEGEN--\":30:31   */\n      dup2\n        /* \"--CODEGEN--\":27:37   */\n      lt\n        /* \"--CODEGEN--\":8:108   */\n      iszero\n      tag_27\n      jumpi\n        /* \"--CODEGEN--\":90:101   */\n      dup2\n      dup2\n      add\n        /* \"--CODEGEN--\":84:102   */\n      mload\n        /* \"--CODEGEN--\":71:82   */\n      dup4\n      dup3\n      add\n        /* \"--CODEGEN--\":64:103   */\n      mstore\n        /* \"--CODEGEN--\":52:54   */\n      0x20\n        /* \"--CODEGEN--\":45:55   */\n      add\n        /* \"--CODEGEN--\":8:108   */\n      jump(tag_25)\n    tag_27:\n        /* \"--CODEGEN--\":12:26   */\n      pop\n        /* \"Contract\":205:247  string public constant name = \"Baby Leash\" */\n      pop\n      pop\n      pop\n      swap1\n      pop\n      swap1\n      dup2\n      add\n      swap1\n      0x1f\n      and\n      dup1\n      iszero\n      tag_28\n      jumpi\n      dup1\n      dup3\n      sub\n      dup1\n      mload\n      0x01\n      dup4\n      0x20\n      sub\n      0x0100\n      exp\n      sub\n      not\n      and\n      dup2\n      mstore\n      0x20\n      add\n      swap2\n      pop\n    tag_28:\n      pop\n      swap3\n      pop\n      pop\n      pop\n      mload(0x40)\n      dup1\n      swap2\n      sub\n      swap1\n      return\n        /* \"Contract\":2345:2492  function approve(address spender, uint value) external returns (bool) {\r... */\n    tag_4:\n      tag_29\n      0x04\n      dup1\n      calldatasize\n      sub\n        /* \"--CODEGEN--\":15:17   */\n      0x40\n        /* \"--CODEGEN--\":10:13   */\n      dup2\n        /* \"--CODEGEN--\":7:18   */\n      lt\n        /* \"--CODEGEN--\":4:6   */\n      iszero\n      tag_30\n      jumpi\n        /* \"--CODEGEN--\":31:32   */\n      0x00\n        /* \"--CODEGEN--\":28:29   */\n      dup1\n        /* \"--CODEGEN--\":21:33   */\n      revert\n        /* \"--CODEGEN--\":4:6   */\n    tag_30:\n      pop\n      sub(shl(0xa0, 0x01), 0x01)\n        /* \"Contract\":2345:2492  function approve(address spender, uint value) external returns (bool) {\r... */\n      dup2\n      calldataload\n      and\n      swap1\n      0x20\n      add\n      calldataload\n      tag_31\n      jump\t// in\n    tag_29:\n      0x40\n      dup1\n      mload\n      swap2\n      iszero\n      iszero\n      dup3\n      mstore\n      mload\n      swap1\n      dup2\n      swap1\n      sub\n      0x20\n      add\n      swap1\n      return\n        /* \"Contract\":346:370  uint  public totalSupply */\n    tag_5:\n      tag_32\n      tag_33\n      jump\t// in\n    tag_32:\n      0x40\n      dup1\n      mload\n      swap2\n      dup3\n      mstore\n      mload\n      swap1\n      dup2\n      swap1\n      sub\n      0x20\n      add\n      swap1\n      return\n        /* \"Contract\":2647:2948  function transferFrom(address from, address to, uint value) external returns (bool) {\r... */\n    tag_6:\n      tag_29\n      0x04\n      dup1\n      calldatasize\n      sub\n        /* \"--CODEGEN--\":15:17   */\n      0x60\n        /* \"--CODEGEN--\":10:13   */\n      dup2\n        /* \"--CODEGEN--\":7:18   */\n      lt\n        /* \"--CODEGEN--\":4:6   */\n      iszero\n      tag_35\n      jumpi\n        /* \"--CODEGEN--\":31:32   */\n      0x00\n        /* \"--CODEGEN--\":28:29   */\n      dup1\n        /* \"--CODEGEN--\":21:33   */\n      revert\n        /* \"--CODEGEN--\":4:6   */\n    tag_35:\n      pop\n      sub(shl(0xa0, 0x01), 0x01)\n        /* \"Contract\":2647:2948  function transferFrom(address from, address to, uint value) external returns (bool) {\r... */\n      dup2\n      calldataload\n      dup2\n      and\n      swap2\n      0x20\n      dup2\n      add\n      calldataload\n      swap1\n      swap2\n      and\n      swap1\n      0x40\n      add\n      calldataload\n      tag_36\n      jump\t// in\n        /* \"Contract\":638:746  bytes32 public constant PERMIT_TYPEHASH = 0x6e71edae12b1b97f4d1f60370fef10105fa2faae0126114a169c64845d6126c9 */\n    tag_7:\n      tag_32\n      tag_38\n      jump\t// in\n        /* \"Contract\":304:339  uint8 public constant decimals = 18 */\n    tag_8:\n      tag_39\n      tag_40\n      jump\t// in\n    tag_39:\n      0x40\n      dup1\n      mload\n      0xff\n      swap1\n      swap3\n      and\n      dup3\n      mstore\n      mload\n      swap1\n      dup2\n      swap1\n      sub\n      0x20\n      add\n      swap1\n      return\n        /* \"Contract\":495:526  bytes32 public DOMAIN_SEPARATOR */\n    tag_9:\n      tag_32\n      tag_42\n      jump\t// in\n        /* \"Contract\":3785:3939  function mint(address to, uint amount) external {\r... */\n    tag_10:\n      tag_43\n      0x04\n      dup1\n      calldatasize\n      sub\n        /* \"--CODEGEN--\":15:17   */\n      0x40\n        /* \"--CODEGEN--\":10:13   */\n      dup2\n        /* \"--CODEGEN--\":7:18   */\n      lt\n        /* \"--CODEGEN--\":4:6   */\n      iszero\n      tag_44\n      jumpi\n        /* \"--CODEGEN--\":31:32   */\n      0x00\n        /* \"--CODEGEN--\":28:29   */\n      dup1\n        /* \"--CODEGEN--\":21:33   */\n      revert\n        /* \"--CODEGEN--\":4:6   */\n    tag_44:\n      pop\n      sub(shl(0xa0, 0x01), 0x01)\n        /* \"Contract\":3785:3939  function mint(address to, uint amount) external {\r... */\n      dup2\n      calldataload\n      and\n      swap1\n      0x20\n      add\n      calldataload\n      tag_45\n      jump\t// in\n    tag_43:\n      stop\n        /* \"Contract\":377:418  mapping(address => uint) public balanceOf */\n    tag_11:\n      tag_32\n      0x04\n      dup1\n      calldatasize\n      sub\n        /* \"--CODEGEN--\":15:17   */\n      0x20\n        /* \"--CODEGEN--\":10:13   */\n      dup2\n        /* \"--CODEGEN--\":7:18   */\n      lt\n        /* \"--CODEGEN--\":4:6   */\n      iszero\n      tag_47\n      jumpi\n        /* \"--CODEGEN--\":31:32   */\n      0x00\n        /* \"--CODEGEN--\":28:29   */\n      dup1\n        /* \"--CODEGEN--\":21:33   */\n      revert\n        /* \"--CODEGEN--\":4:6   */\n    tag_47:\n      pop\n        /* \"Contract\":377:418  mapping(address => uint) public balanceOf */\n      calldataload\n      sub(shl(0xa0, 0x01), 0x01)\n      and\n      tag_48\n      jump\t// in\n        /* \"Contract\":753:791  mapping(address => uint) public nonces */\n    tag_12:\n      tag_32\n      0x04\n      dup1\n      calldatasize\n      sub\n        /* \"--CODEGEN--\":15:17   */\n      0x20\n        /* \"--CODEGEN--\":10:13   */\n      dup2\n        /* \"--CODEGEN--\":7:18   */\n      lt\n        /* \"--CODEGEN--\":4:6   */\n      iszero\n      tag_50\n      jumpi\n        /* \"--CODEGEN--\":31:32   */\n      0x00\n        /* \"--CODEGEN--\":28:29   */\n      dup1\n        /* \"--CODEGEN--\":21:33   */\n      revert\n        /* \"--CODEGEN--\":4:6   */\n    tag_50:\n      pop\n        /* \"Contract\":753:791  mapping(address => uint) public nonces */\n      calldataload\n      sub(shl(0xa0, 0x01), 0x01)\n      and\n      tag_51\n      jump\t// in\n        /* \"Contract\":254:297  string public constant symbol = \"BABYLEASH\" */\n    tag_13:\n      tag_23\n      tag_53\n      jump\t// in\n        /* \"Contract\":168:196  address public allowedMinter */\n    tag_14:\n      tag_58\n      tag_59\n      jump\t// in\n    tag_58:\n      0x40\n      dup1\n      mload\n      sub(shl(0xa0, 0x01), 0x01)\n      swap1\n      swap3\n      and\n      dup3\n      mstore\n      mload\n      swap1\n      dup2\n      swap1\n      sub\n      0x20\n      add\n      swap1\n      return\n        /* \"Contract\":2500:2639  function transfer(address to, uint value) external returns (bool) {\r... */\n    tag_15:\n      tag_29\n      0x04\n      dup1\n      calldatasize\n      sub\n        /* \"--CODEGEN--\":15:17   */\n      0x40\n        /* \"--CODEGEN--\":10:13   */\n      dup2\n        /* \"--CODEGEN--\":7:18   */\n      lt\n        /* \"--CODEGEN--\":4:6   */\n      iszero\n      tag_61\n      jumpi\n        /* \"--CODEGEN--\":31:32   */\n      0x00\n        /* \"--CODEGEN--\":28:29   */\n      dup1\n        /* \"--CODEGEN--\":21:33   */\n      revert\n        /* \"--CODEGEN--\":4:6   */\n    tag_61:\n      pop\n      sub(shl(0xa0, 0x01), 0x01)\n        /* \"Contract\":2500:2639  function transfer(address to, uint value) external returns (bool) {\r... */\n      dup2\n      calldataload\n      and\n      swap1\n      0x20\n      add\n      calldataload\n      tag_62\n      jump\t// in\n        /* \"Contract\":3616:3777  function setAllowedMinter(address _allowedMinter) external {\r... */\n    tag_16:\n      tag_43\n      0x04\n      dup1\n      calldatasize\n      sub\n        /* \"--CODEGEN--\":15:17   */\n      0x20\n        /* \"--CODEGEN--\":10:13   */\n      dup2\n        /* \"--CODEGEN--\":7:18   */\n      lt\n        /* \"--CODEGEN--\":4:6   */\n      iszero\n      tag_64\n      jumpi\n        /* \"--CODEGEN--\":31:32   */\n      0x00\n        /* \"--CODEGEN--\":28:29   */\n      dup1\n        /* \"--CODEGEN--\":21:33   */\n      revert\n        /* \"--CODEGEN--\":4:6   */\n    tag_64:\n      pop\n        /* \"Contract\":3616:3777  function setAllowedMinter(address _allowedMinter) external {\r... */\n      calldataload\n      sub(shl(0xa0, 0x01), 0x01)\n      and\n      tag_65\n      jump\t// in\n        /* \"Contract\":2956:3608  function permit(address owner, address spender, uint value, uint deadline, uint8 v, bytes32 r, bytes32 s) external {\r... */\n    tag_17:\n      tag_43\n      0x04\n      dup1\n      calldatasize\n      sub\n        /* \"--CODEGEN--\":15:18   */\n      0xe0\n        /* \"--CODEGEN--\":10:13   */\n      dup2\n        /* \"--CODEGEN--\":7:19   */\n      lt\n        /* \"--CODEGEN--\":4:6   */\n      iszero\n      tag_67\n      jumpi\n        /* \"--CODEGEN--\":32:33   */\n      0x00\n        /* \"--CODEGEN--\":29:30   */\n      dup1\n        /* \"--CODEGEN--\":22:34   */\n      revert\n        /* \"--CODEGEN--\":4:6   */\n    tag_67:\n      pop\n      sub(shl(0xa0, 0x01), 0x01)\n        /* \"Contract\":2956:3608  function permit(address owner, address spender, uint value, uint deadline, uint8 v, bytes32 r, bytes32 s) external {\r... */\n      dup2\n      calldataload\n      dup2\n      and\n      swap2\n      0x20\n      dup2\n      add\n      calldataload\n      swap1\n      swap2\n      and\n      swap1\n      0x40\n      dup2\n      add\n      calldataload\n      swap1\n      0x60\n      dup2\n      add\n      calldataload\n      swap1\n      0xff\n      0x80\n      dup3\n      add\n      calldataload\n      and\n      swap1\n      0xa0\n      dup2\n      add\n      calldataload\n      swap1\n      0xc0\n      add\n      calldataload\n      tag_68\n      jump\t// in\n        /* \"Contract\":425:486  mapping(address => mapping(address => uint)) public allowance */\n    tag_18:\n      tag_32\n      0x04\n      dup1\n      calldatasize\n      sub\n        /* \"--CODEGEN--\":15:17   */\n      0x40\n        /* \"--CODEGEN--\":10:13   */\n      dup2\n        /* \"--CODEGEN--\":7:18   */\n      lt\n        /* \"--CODEGEN--\":4:6   */\n      iszero\n      tag_70\n      jumpi\n        /* \"--CODEGEN--\":31:32   */\n      0x00\n        /* \"--CODEGEN--\":28:29   */\n      dup1\n        /* \"--CODEGEN--\":21:33   */\n      revert\n        /* \"--CODEGEN--\":4:6   */\n    tag_70:\n      pop\n      sub(shl(0xa0, 0x01), 0x01)\n        /* \"Contract\":425:486  mapping(address => mapping(address => uint)) public allowance */\n      dup2\n      calldataload\n      dup2\n      and\n      swap2\n      0x20\n      add\n      calldataload\n      and\n      tag_71\n      jump\t// in\n        /* \"Contract\":141:161  address public admin */\n    tag_19:\n      tag_58\n      tag_73\n      jump\t// in\n        /* \"Contract\":205:247  string public constant name = \"Baby Leash\" */\n    tag_24:\n      mload(0x40)\n      dup1\n      0x40\n      add\n      0x40\n      mstore\n      dup1\n      0x0a\n      dup2\n      mstore\n      0x20\n      add\n      shl(0xb3, 0x084c2c4f24098cac2e6d)\n      dup2\n      mstore\n      pop\n      dup2\n      jump\t// out\n        /* \"Contract\":2345:2492  function approve(address spender, uint value) external returns (bool) {\r... */\n    tag_31:\n        /* \"Contract\":2409:2413  bool */\n      0x00\n        /* \"Contract\":2426:2462  _approve(msg.sender, spender, value) */\n      tag_75\n        /* \"Contract\":2435:2445  msg.sender */\n      caller\n        /* \"Contract\":2447:2454  spender */\n      dup5\n        /* \"Contract\":2456:2461  value */\n      dup5\n        /* \"Contract\":2426:2434  _approve */\n      tag_76\n        /* \"Contract\":2426:2462  _approve(msg.sender, spender, value) */\n      jump\t// in\n    tag_75:\n      pop\n        /* \"Contract\":2480:2484  true */\n      0x01\n        /* \"Contract\":2345:2492  function approve(address spender, uint value) external returns (bool) {\r... */\n      swap3\n      swap2\n      pop\n      pop\n      jump\t// out\n        /* \"Contract\":346:370  uint  public totalSupply */\n    tag_33:\n      sload(0x02)\n      dup2\n      jump\t// out\n        /* \"Contract\":2647:2948  function transferFrom(address from, address to, uint value) external returns (bool) {\r... */\n    tag_36:\n      sub(shl(0xa0, 0x01), 0x01)\n        /* \"Contract\":2746:2761  allowance[from] */\n      dup4\n      and\n        /* \"Contract\":2725:2729  bool */\n      0x00\n        /* \"Contract\":2746:2761  allowance[from] */\n      swap1\n      dup2\n      mstore\n        /* \"Contract\":2746:2755  allowance */\n      0x04\n        /* \"Contract\":2746:2761  allowance[from] */\n      0x20\n      swap1\n      dup2\n      mstore\n      0x40\n      dup1\n      dup4\n      keccak256\n        /* \"Contract\":2762:2772  msg.sender */\n      caller\n        /* \"Contract\":2746:2773  allowance[from][msg.sender] */\n      dup5\n      mstore\n      swap1\n      swap2\n      mstore\n      dup2\n      keccak256\n      sload\n      not(0x00)\n        /* \"Contract\":2746:2785  allowance[from][msg.sender] != uint(-1) */\n      eq\n        /* \"Contract\":2742:2882  if (allowance[from][msg.sender] != uint(-1)) {\r... */\n      tag_78\n      jumpi\n      sub(shl(0xa0, 0x01), 0x01)\n        /* \"Contract\":2832:2847  allowance[from] */\n      dup5\n      and\n      0x00\n      swap1\n      dup2\n      mstore\n        /* \"Contract\":2832:2841  allowance */\n      0x04\n        /* \"Contract\":2832:2847  allowance[from] */\n      0x20\n      swap1\n      dup2\n      mstore\n      0x40\n      dup1\n      dup4\n      keccak256\n        /* \"Contract\":2848:2858  msg.sender */\n      caller\n        /* \"Contract\":2832:2859  allowance[from][msg.sender] */\n      dup5\n      mstore\n      swap1\n      swap2\n      mstore\n      swap1\n      keccak256\n      sload\n        /* \"Contract\":2832:2870  allowance[from][msg.sender].sub(value) */\n      tag_79\n      swap1\n        /* \"Contract\":2864:2869  value */\n      dup4\n        /* \"Contract\":2832:2870  allowance[from][msg.sender].sub(value) */\n      0xffffffff\n        /* \"Contract\":2832:2863  allowance[from][msg.sender].sub */\n      tag_80\n        /* \"Contract\":2832:2870  allowance[from][msg.sender].sub(value) */\n      and\n      jump\t// in\n    tag_79:\n      sub(shl(0xa0, 0x01), 0x01)\n        /* \"Contract\":2802:2817  allowance[from] */\n      dup6\n      and\n      0x00\n      swap1\n      dup2\n      mstore\n        /* \"Contract\":2802:2811  allowance */\n      0x04\n        /* \"Contract\":2802:2817  allowance[from] */\n      0x20\n      swap1\n      dup2\n      mstore\n      0x40\n      dup1\n      dup4\n      keccak256\n        /* \"Contract\":2818:2828  msg.sender */\n      caller\n        /* \"Contract\":2802:2829  allowance[from][msg.sender] */\n      dup5\n      mstore\n      swap1\n      swap2\n      mstore\n      swap1\n      keccak256\n        /* \"Contract\":2802:2870  allowance[from][msg.sender] = allowance[from][msg.sender].sub(value) */\n      sstore\n        /* \"Contract\":2742:2882  if (allowance[from][msg.sender] != uint(-1)) {\r... */\n    tag_78:\n        /* \"Contract\":2892:2918  _transfer(from, to, value) */\n      tag_81\n        /* \"Contract\":2902:2906  from */\n      dup5\n        /* \"Contract\":2908:2910  to */\n      dup5\n        /* \"Contract\":2912:2917  value */\n      dup5\n        /* \"Contract\":2892:2901  _transfer */\n      tag_82\n        /* \"Contract\":2892:2918  _transfer(from, to, value) */\n      jump\t// in\n    tag_81:\n      pop\n        /* \"Contract\":2936:2940  true */\n      0x01\n        /* \"Contract\":2647:2948  function transferFrom(address from, address to, uint value) external returns (bool) {\r... */\n      swap4\n      swap3\n      pop\n      pop\n      pop\n      jump\t// out\n        /* \"Contract\":638:746  bytes32 public constant PERMIT_TYPEHASH = 0x6e71edae12b1b97f4d1f60370fef10105fa2faae0126114a169c64845d6126c9 */\n    tag_38:\n        /* \"Contract\":680:746  0x6e71edae12b1b97f4d1f60370fef10105fa2faae0126114a169c64845d6126c9 */\n      0x6e71edae12b1b97f4d1f60370fef10105fa2faae0126114a169c64845d6126c9\n        /* \"Contract\":638:746  bytes32 public constant PERMIT_TYPEHASH = 0x6e71edae12b1b97f4d1f60370fef10105fa2faae0126114a169c64845d6126c9 */\n      dup2\n      jump\t// out\n        /* \"Contract\":304:339  uint8 public constant decimals = 18 */\n    tag_40:\n        /* \"Contract\":337:339  18 */\n      0x12\n        /* \"Contract\":304:339  uint8 public constant decimals = 18 */\n      dup2\n      jump\t// out\n        /* \"Contract\":495:526  bytes32 public DOMAIN_SEPARATOR */\n    tag_42:\n      sload(0x05)\n      dup2\n      jump\t// out\n        /* \"Contract\":3785:3939  function mint(address to, uint amount) external {\r... */\n    tag_45:\n        /* \"Contract\":3866:3879  allowedMinter */\n      and(sub(shl(0xa0, 0x01), 0x01), sload(0x01))\n        /* \"Contract\":3852:3862  msg.sender */\n      caller\n        /* \"Contract\":3852:3879  msg.sender == allowedMinter */\n      eq\n        /* \"Contract\":3844:3903  require(msg.sender == allowedMinter, \"only allowed minter\") */\n      tag_84\n      jumpi\n      0x40\n      dup1\n      mload\n      shl(0xe5, 0x461bcd)\n      dup2\n      mstore\n      0x20\n      0x04\n      dup3\n      add\n      mstore\n      0x13\n      0x24\n      dup3\n      add\n      mstore\n      shl(0x69, 0x37b7363c9030b63637bbb2b21036b4b73a32b9)\n      0x44\n      dup3\n      add\n      mstore\n      swap1\n      mload\n      swap1\n      dup2\n      swap1\n      sub\n      0x64\n      add\n      swap1\n      revert\n    tag_84:\n        /* \"Contract\":3914:3931  _mint(to, amount) */\n      tag_85\n        /* \"Contract\":3920:3922  to */\n      dup3\n        /* \"Contract\":3924:3930  amount */\n      dup3\n        /* \"Contract\":3914:3919  _mint */\n      tag_86\n        /* \"Contract\":3914:3931  _mint(to, amount) */\n      jump\t// in\n    tag_85:\n        /* \"Contract\":3785:3939  function mint(address to, uint amount) external {\r... */\n      pop\n      pop\n      jump\t// out\n        /* \"Contract\":377:418  mapping(address => uint) public balanceOf */\n    tag_48:\n      mstore(0x20, 0x03)\n      0x00\n      swap1\n      dup2\n      mstore\n      0x40\n      swap1\n      keccak256\n      sload\n      dup2\n      jump\t// out\n        /* \"Contract\":753:791  mapping(address => uint) public nonces */\n    tag_51:\n      mstore(0x20, 0x06)\n      0x00\n      swap1\n      dup2\n      mstore\n      0x40\n      swap1\n      keccak256\n      sload\n      dup2\n      jump\t// out\n        /* \"Contract\":254:297  string public constant symbol = \"BABYLEASH\" */\n    tag_53:\n      mload(0x40)\n      dup1\n      0x40\n      add\n      0x40\n      mstore\n      dup1\n      0x09\n      dup2\n      mstore\n      0x20\n      add\n      shl(0xbb, 0x0848284b2988a82a69)\n      dup2\n      mstore\n      pop\n      dup2\n      jump\t// out\n        /* \"Contract\":168:196  address public allowedMinter */\n    tag_59:\n      and(sub(shl(0xa0, 0x01), 0x01), sload(0x01))\n      dup2\n      jump\t// out\n        /* \"Contract\":2500:2639  function transfer(address to, uint value) external returns (bool) {\r... */\n    tag_62:\n        /* \"Contract\":2560:2564  bool */\n      0x00\n        /* \"Contract\":2577:2609  _transfer(msg.sender, to, value) */\n      tag_75\n        /* \"Contract\":2587:2597  msg.sender */\n      caller\n        /* \"Contract\":2599:2601  to */\n      dup5\n        /* \"Contract\":2603:2608  value */\n      dup5\n        /* \"Contract\":2577:2586  _transfer */\n      tag_82\n        /* \"Contract\":2577:2609  _transfer(msg.sender, to, value) */\n      jump\t// in\n        /* \"Contract\":3616:3777  function setAllowedMinter(address _allowedMinter) external {\r... */\n    tag_65:\n        /* \"Contract\":3708:3713  admin */\n      and(sub(shl(0xa0, 0x01), 0x01), sload(0x00))\n        /* \"Contract\":3694:3704  msg.sender */\n      caller\n        /* \"Contract\":3694:3713  msg.sender == admin */\n      eq\n        /* \"Contract\":3686:3728  require(msg.sender == admin, \"only admin\") */\n      tag_90\n      jumpi\n      0x40\n      dup1\n      mload\n      shl(0xe5, 0x461bcd)\n      dup2\n      mstore\n      0x20\n      0x04\n      dup3\n      add\n      mstore\n      0x0a\n      0x24\n      dup3\n      add\n      mstore\n      shl(0xb1, 0x37b7363c9030b236b4b7)\n      0x44\n      dup3\n      add\n      mstore\n      swap1\n      mload\n      swap1\n      dup2\n      swap1\n      sub\n      0x64\n      add\n      swap1\n      revert\n    tag_90:\n        /* \"Contract\":3739:3752  allowedMinter */\n      0x01\n        /* \"Contract\":3739:3769  allowedMinter = _allowedMinter */\n      dup1\n      sload\n      not(sub(shl(0xa0, 0x01), 0x01))\n      and\n      sub(shl(0xa0, 0x01), 0x01)\n      swap3\n      swap1\n      swap3\n      and\n      swap2\n      swap1\n      swap2\n      or\n      swap1\n      sstore\n        /* \"Contract\":3616:3777  function setAllowedMinter(address _allowedMinter) external {\r... */\n      jump\t// out\n        /* \"Contract\":2956:3608  function permit(address owner, address spender, uint value, uint deadline, uint8 v, bytes32 r, bytes32 s) external {\r... */\n    tag_68:\n        /* \"Contract\":3102:3117  block.timestamp */\n      timestamp\n        /* \"Contract\":3090:3098  deadline */\n      dup5\n        /* \"Contract\":3090:3117  deadline >= block.timestamp */\n      lt\n      iszero\n        /* \"Contract\":3082:3129  require(deadline >= block.timestamp, 'EXPIRED') */\n      tag_92\n      jumpi\n      0x40\n      dup1\n      mload\n      shl(0xe5, 0x461bcd)\n      dup2\n      mstore\n      0x20\n      0x04\n      dup3\n      add\n      mstore\n      0x07\n      0x24\n      dup3\n      add\n      mstore\n      shl(0xca, 0x11561412549151)\n      0x44\n      dup3\n      add\n      mstore\n      swap1\n      mload\n      swap1\n      dup2\n      swap1\n      sub\n      0x64\n      add\n      swap1\n      revert\n    tag_92:\n        /* \"Contract\":3245:3261  DOMAIN_SEPARATOR */\n      sload(0x05)\n      sub(shl(0xa0, 0x01), 0x01)\n        /* \"Contract\":3341:3354  nonces[owner] */\n      dup1\n      dup10\n      and\n        /* \"Contract\":3140:3154  bytes32 digest */\n      0x00\n        /* \"Contract\":3341:3354  nonces[owner] */\n      dup2\n      dup2\n      mstore\n        /* \"Contract\":3341:3347  nonces */\n      0x06\n        /* \"Contract\":3341:3354  nonces[owner] */\n      0x20\n      swap1\n      dup2\n      mstore\n      0x40\n      dup1\n      dup4\n      keccak256\n        /* \"Contract\":3341:3356  nonces[owner]++ */\n      dup1\n      sload\n      0x01\n      dup1\n      dup3\n      add\n      swap1\n      swap3\n      sstore\n        /* \"Contract\":3290:3367  abi.encode(PERMIT_TYPEHASH, owner, spender, value, nonces[owner]++, deadline) */\n      dup3\n      mload\n        /* \"Contract\":680:746  0x6e71edae12b1b97f4d1f60370fef10105fa2faae0126114a169c64845d6126c9 */\n      0x6e71edae12b1b97f4d1f60370fef10105fa2faae0126114a169c64845d6126c9\n        /* \"Contract\":3290:3367  abi.encode(PERMIT_TYPEHASH, owner, spender, value, nonces[owner]++, deadline) */\n      dup2\n      dup7\n      add\n      mstore\n      dup1\n      dup5\n      add\n      swap7\n      swap1\n      swap7\n      mstore\n      swap6\n      dup14\n      and\n      0x60\n      dup7\n      add\n      mstore\n      0x80\n      dup6\n      add\n      dup13\n      swap1\n      mstore\n      0xa0\n      dup6\n      add\n      swap6\n      swap1\n      swap6\n      mstore\n      0xc0\n      dup1\n      dup6\n      add\n      dup12\n      swap1\n      mstore\n      dup2\n      mload\n        /* \"--CODEGEN--\":26:47   */\n      dup1\n      dup7\n      sub\n        /* \"--CODEGEN--\":22:54   */\n      swap1\n      swap2\n      add\n        /* \"--CODEGEN--\":6:55   */\n      dup2\n      mstore\n        /* \"Contract\":3290:3367  abi.encode(PERMIT_TYPEHASH, owner, spender, value, nonces[owner]++, deadline) */\n      0xe0\n      dup6\n      add\n      dup3\n      mstore\n        /* \"Contract\":3280:3368  keccak256(abi.encode(PERMIT_TYPEHASH, owner, spender, value, nonces[owner]++, deadline)) */\n      dup1\n      mload\n      swap1\n      dup4\n      add\n      keccak256\n      shl(0xf0, 0x1901)\n        /* \"Contract\":3181:3383  abi.encodePacked(\r... */\n      0x0100\n      dup7\n      add\n      mstore\n      0x0102\n      dup6\n      add\n      swap7\n      swap1\n      swap7\n      mstore\n      0x0122\n      dup1\n      dup6\n      add\n      swap7\n      swap1\n      swap7\n      mstore\n      dup1\n      mload\n        /* \"--CODEGEN--\":26:47   */\n      dup1\n      dup6\n      sub\n        /* \"--CODEGEN--\":22:54   */\n      swap1\n      swap7\n      add\n        /* \"--CODEGEN--\":6:55   */\n      dup7\n      mstore\n        /* \"Contract\":3181:3383  abi.encodePacked(\r... */\n      0x0142\n      dup5\n      add\n      dup1\n      dup3\n      mstore\n        /* \"Contract\":3157:3394  keccak256(\r... */\n      dup7\n      mload\n      swap7\n      dup4\n      add\n      swap7\n      swap1\n      swap7\n      keccak256\n        /* \"Contract\":3432:3458  ecrecover(digest, v, r, s) */\n      swap6\n      dup4\n      swap1\n      mstore\n      0x0162\n      dup5\n      add\n      dup1\n      dup3\n      mstore\n      dup7\n      swap1\n      mstore\n      0xff\n      dup10\n      and\n      0x0182\n      dup6\n      add\n      mstore\n      0x01a2\n      dup5\n      add\n      dup9\n      swap1\n      mstore\n      0x01c2\n      dup5\n      add\n      dup8\n      swap1\n      mstore\n      mload\n        /* \"Contract\":3140:3154  bytes32 digest */\n      swap2\n      swap4\n        /* \"Contract\":3341:3356  nonces[owner]++ */\n      swap3\n        /* \"Contract\":3432:3458  ecrecover(digest, v, r, s) */\n      0x01e2\n      dup1\n      dup3\n      add\n      swap4\n      not(0x1f)\n      dup2\n      add\n      swap3\n      dup2\n      swap1\n      sub\n      swap1\n      swap2\n      add\n      swap1\n        /* \"Contract\":3341:3356  nonces[owner]++ */\n      dup6\n        /* \"Contract\":3432:3458  ecrecover(digest, v, r, s) */\n      gas\n      staticcall\n      iszero\n        /* \"--CODEGEN--\":8:17   */\n      dup1\n        /* \"--CODEGEN--\":5:7   */\n      iszero\n      tag_94\n      jumpi\n        /* \"--CODEGEN--\":45:61   */\n      returndatasize\n        /* \"--CODEGEN--\":42:43   */\n      0x00\n        /* \"--CODEGEN--\":39:40   */\n      dup1\n        /* \"--CODEGEN--\":24:62   */\n      returndatacopy\n        /* \"--CODEGEN--\":77:93   */\n      returndatasize\n        /* \"--CODEGEN--\":74:75   */\n      0x00\n        /* \"--CODEGEN--\":67:94   */\n      revert\n        /* \"--CODEGEN--\":5:7   */\n    tag_94:\n      pop\n      pop\n        /* \"Contract\":3432:3458  ecrecover(digest, v, r, s) */\n      mload(add(not(0x1f), mload(0x40)))\n      swap2\n      pop\n      pop\n      sub(shl(0xa0, 0x01), 0x01)\n        /* \"Contract\":3477:3507  recoveredAddress != address(0) */\n      dup2\n      and\n      iszero\n      dup1\n      iszero\n      swap1\n        /* \"Contract\":3477:3536  recoveredAddress != address(0) && recoveredAddress == owner */\n      tag_95\n      jumpi\n      pop\n        /* \"Contract\":3531:3536  owner */\n      dup9\n      sub(shl(0xa0, 0x01), 0x01)\n        /* \"Contract\":3511:3536  recoveredAddress == owner */\n      and\n        /* \"Contract\":3511:3527  recoveredAddress */\n      dup2\n      sub(shl(0xa0, 0x01), 0x01)\n        /* \"Contract\":3511:3536  recoveredAddress == owner */\n      and\n      eq\n        /* \"Contract\":3477:3536  recoveredAddress != address(0) && recoveredAddress == owner */\n    tag_95:\n        /* \"Contract\":3469:3558  require(recoveredAddress != address(0) && recoveredAddress == owner, 'INVALID_SIGNATURE') */\n      tag_96\n      jumpi\n      0x40\n      dup1\n      mload\n      shl(0xe5, 0x461bcd)\n      dup2\n      mstore\n      0x20\n      0x04\n      dup3\n      add\n      mstore\n      0x11\n      0x24\n      dup3\n      add\n      mstore\n      shl(0x78, 0x494e56414c49445f5349474e4154555245)\n      0x44\n      dup3\n      add\n      mstore\n      swap1\n      mload\n      swap1\n      dup2\n      swap1\n      sub\n      0x64\n      add\n      swap1\n      revert\n    tag_96:\n        /* \"Contract\":3569:3600  _approve(owner, spender, value) */\n      tag_97\n        /* \"Contract\":3578:3583  owner */\n      dup10\n        /* \"Contract\":3585:3592  spender */\n      dup10\n        /* \"Contract\":3594:3599  value */\n      dup10\n        /* \"Contract\":3569:3577  _approve */\n      tag_76\n        /* \"Contract\":3569:3600  _approve(owner, spender, value) */\n      jump\t// in\n    tag_97:\n        /* \"Contract\":2956:3608  function permit(address owner, address spender, uint value, uint deadline, uint8 v, bytes32 r, bytes32 s) external {\r... */\n      pop\n      pop\n      pop\n      pop\n      pop\n      pop\n      pop\n      pop\n      pop\n      jump\t// out\n        /* \"Contract\":425:486  mapping(address => mapping(address => uint)) public allowance */\n    tag_71:\n      0x04\n      0x20\n      swap1\n      dup2\n      mstore\n      0x00\n      swap3\n      dup4\n      mstore\n      0x40\n      dup1\n      dup5\n      keccak256\n      swap1\n      swap2\n      mstore\n      swap1\n      dup3\n      mstore\n      swap1\n      keccak256\n      sload\n      dup2\n      jump\t// out\n        /* \"Contract\":141:161  address public admin */\n    tag_73:\n      and(sub(shl(0xa0, 0x01), 0x01), sload(0x00))\n      dup2\n      jump\t// out\n        /* \"Contract\":1940:2109  function _approve(address owner, address spender, uint value) private {\r... */\n    tag_76:\n      sub(shl(0xa0, 0x01), 0x01)\n        /* \"Contract\":2021:2037  allowance[owner] */\n      dup1\n      dup5\n      and\n      0x00\n      dup2\n      dup2\n      mstore\n        /* \"Contract\":2021:2030  allowance */\n      0x04\n        /* \"Contract\":2021:2037  allowance[owner] */\n      0x20\n      swap1\n      dup2\n      mstore\n      0x40\n      dup1\n      dup4\n      keccak256\n        /* \"Contract\":2021:2046  allowance[owner][spender] */\n      swap5\n      dup8\n      and\n      dup1\n      dup5\n      mstore\n      swap5\n      dup3\n      mstore\n      swap2\n      dup3\n      swap1\n      keccak256\n        /* \"Contract\":2021:2054  allowance[owner][spender] = value */\n      dup6\n      swap1\n      sstore\n        /* \"Contract\":2070:2101  Approval(owner, spender, value) */\n      dup2\n      mload\n      dup6\n      dup2\n      mstore\n      swap2\n      mload\n      0x8c5be1e5ebec7d5bd14f71427d1e84f3dd0314c0f7b2291e5b200ac8c7c3b925\n      swap3\n      dup2\n      swap1\n      sub\n      swap1\n      swap2\n      add\n      swap1\n      log3\n        /* \"Contract\":1940:2109  function _approve(address owner, address spender, uint value) private {\r... */\n      pop\n      pop\n      pop\n      jump\t// out\n        /* \"@openzeppelin/contracts/math/SafeMath.sol\":1321:1455   */\n    tag_80:\n        /* \"@openzeppelin/contracts/math/SafeMath.sol\":1379:1386   */\n      0x00\n        /* \"@openzeppelin/contracts/math/SafeMath.sol\":1405:1448   */\n      tag_100\n        /* \"@openzeppelin/contracts/math/SafeMath.sol\":1409:1410   */\n      dup4\n        /* \"@openzeppelin/contracts/math/SafeMath.sol\":1412:1413   */\n      dup4\n        /* \"@openzeppelin/contracts/math/SafeMath.sol\":1405:1448   */\n      mload(0x40)\n      dup1\n      0x40\n      add\n      0x40\n      mstore\n      dup1\n      0x1e\n      dup2\n      mstore\n      0x20\n      add\n      0x536166654d6174683a207375627472616374696f6e206f766572666c6f770000\n      dup2\n      mstore\n      pop\n        /* \"@openzeppelin/contracts/math/SafeMath.sol\":1405:1408   */\n      tag_101\n        /* \"@openzeppelin/contracts/math/SafeMath.sol\":1405:1448   */\n      jump\t// in\n    tag_100:\n        /* \"@openzeppelin/contracts/math/SafeMath.sol\":1398:1448   */\n      swap4\n        /* \"@openzeppelin/contracts/math/SafeMath.sol\":1321:1455   */\n      swap3\n      pop\n      pop\n      pop\n      jump\t// out\n        /* \"Contract\":2117:2337  function _transfer(address from, address to, uint value) private {\r... */\n    tag_82:\n      sub(shl(0xa0, 0x01), 0x01)\n        /* \"Contract\":2211:2226  balanceOf[from] */\n      dup4\n      and\n      0x00\n      swap1\n      dup2\n      mstore\n        /* \"Contract\":2211:2220  balanceOf */\n      0x03\n        /* \"Contract\":2211:2226  balanceOf[from] */\n      0x20\n      mstore\n      0x40\n      swap1\n      keccak256\n      sload\n        /* \"Contract\":2211:2237  balanceOf[from].sub(value) */\n      tag_103\n      swap1\n        /* \"Contract\":2231:2236  value */\n      dup3\n        /* \"Contract\":2211:2237  balanceOf[from].sub(value) */\n      0xffffffff\n        /* \"Contract\":2211:2230  balanceOf[from].sub */\n      tag_80\n        /* \"Contract\":2211:2237  balanceOf[from].sub(value) */\n      and\n      jump\t// in\n    tag_103:\n      sub(shl(0xa0, 0x01), 0x01)\n        /* \"Contract\":2193:2208  balanceOf[from] */\n      dup1\n      dup6\n      and\n      0x00\n      swap1\n      dup2\n      mstore\n        /* \"Contract\":2193:2202  balanceOf */\n      0x03\n        /* \"Contract\":2193:2208  balanceOf[from] */\n      0x20\n      mstore\n      0x40\n      dup1\n      dup3\n      keccak256\n        /* \"Contract\":2193:2237  balanceOf[from] = balanceOf[from].sub(value) */\n      swap4\n      swap1\n      swap4\n      sstore\n        /* \"Contract\":2264:2277  balanceOf[to] */\n      swap1\n      dup5\n      and\n      dup2\n      mstore\n      keccak256\n      sload\n        /* \"Contract\":2264:2288  balanceOf[to].add(value) */\n      tag_104\n      swap1\n        /* \"Contract\":2282:2287  value */\n      dup3\n        /* \"Contract\":2264:2288  balanceOf[to].add(value) */\n      0xffffffff\n        /* \"Contract\":2264:2281  balanceOf[to].add */\n      tag_105\n        /* \"Contract\":2264:2288  balanceOf[to].add(value) */\n      and\n      jump\t// in\n    tag_104:\n      sub(shl(0xa0, 0x01), 0x01)\n        /* \"Contract\":2248:2261  balanceOf[to] */\n      dup1\n      dup5\n      and\n      0x00\n      dup2\n      dup2\n      mstore\n        /* \"Contract\":2248:2257  balanceOf */\n      0x03\n        /* \"Contract\":2248:2261  balanceOf[to] */\n      0x20\n      swap1\n      dup2\n      mstore\n      0x40\n      swap2\n      dup3\n      swap1\n      keccak256\n        /* \"Contract\":2248:2288  balanceOf[to] = balanceOf[to].add(value) */\n      swap5\n      swap1\n      swap5\n      sstore\n        /* \"Contract\":2304:2329  Transfer(from, to, value) */\n      dup1\n      mload\n      dup6\n      dup2\n      mstore\n      swap1\n      mload\n        /* \"Contract\":2248:2261  balanceOf[to] */\n      swap2\n      swap4\n        /* \"Contract\":2304:2329  Transfer(from, to, value) */\n      swap3\n      dup8\n      and\n      swap3\n      0xddf252ad1be2c89b69c2b068fc378daa952ba7f163c4a11628f55a4df523b3ef\n      swap3\n      swap2\n      dup3\n      swap1\n      sub\n      add\n      swap1\n      log3\n        /* \"Contract\":2117:2337  function _transfer(address from, address to, uint value) private {\r... */\n      pop\n      pop\n      pop\n      jump\t// out\n        /* \"Contract\":1514:1715  function _mint(address to, uint value) internal {\r... */\n    tag_86:\n        /* \"Contract\":1587:1598  totalSupply */\n      sload(0x02)\n        /* \"Contract\":1587:1609  totalSupply.add(value) */\n      tag_107\n      swap1\n        /* \"Contract\":1603:1608  value */\n      dup3\n        /* \"Contract\":1587:1609  totalSupply.add(value) */\n      0xffffffff\n        /* \"Contract\":1587:1602  totalSupply.add */\n      tag_105\n        /* \"Contract\":1587:1609  totalSupply.add(value) */\n      and\n      jump\t// in\n    tag_107:\n        /* \"Contract\":1573:1584  totalSupply */\n      0x02\n        /* \"Contract\":1573:1609  totalSupply = totalSupply.add(value) */\n      sstore\n      sub(shl(0xa0, 0x01), 0x01)\n        /* \"Contract\":1636:1649  balanceOf[to] */\n      dup3\n      and\n      0x00\n      swap1\n      dup2\n      mstore\n        /* \"Contract\":1636:1645  balanceOf */\n      0x03\n        /* \"Contract\":1636:1649  balanceOf[to] */\n      0x20\n      mstore\n      0x40\n      swap1\n      keccak256\n      sload\n        /* \"Contract\":1636:1660  balanceOf[to].add(value) */\n      tag_108\n      swap1\n        /* \"Contract\":1654:1659  value */\n      dup3\n        /* \"Contract\":1636:1660  balanceOf[to].add(value) */\n      0xffffffff\n        /* \"Contract\":1636:1653  balanceOf[to].add */\n      tag_105\n        /* \"Contract\":1636:1660  balanceOf[to].add(value) */\n      and\n      jump\t// in\n    tag_108:\n      sub(shl(0xa0, 0x01), 0x01)\n        /* \"Contract\":1620:1633  balanceOf[to] */\n      dup4\n      and\n      0x00\n      dup2\n      dup2\n      mstore\n        /* \"Contract\":1620:1629  balanceOf */\n      0x03\n        /* \"Contract\":1620:1633  balanceOf[to] */\n      0x20\n      swap1\n      dup2\n      mstore\n      0x40\n      dup1\n      dup4\n      keccak256\n        /* \"Contract\":1620:1660  balanceOf[to] = balanceOf[to].add(value) */\n      swap5\n      swap1\n      swap5\n      sstore\n        /* \"Contract\":1676:1707  Transfer(address(0), to, value) */\n      dup4\n      mload\n      dup6\n      dup2\n      mstore\n      swap4\n      mload\n        /* \"Contract\":1620:1633  balanceOf[to] */\n      swap3\n      swap4\n      swap2\n      swap3\n        /* \"Contract\":1676:1707  Transfer(address(0), to, value) */\n      0xddf252ad1be2c89b69c2b068fc378daa952ba7f163c4a11628f55a4df523b3ef\n      swap3\n      dup2\n      swap1\n      sub\n      swap1\n      swap2\n      add\n      swap1\n      log3\n        /* \"Contract\":1514:1715  function _mint(address to, uint value) internal {\r... */\n      pop\n      pop\n      jump\t// out\n        /* \"@openzeppelin/contracts/math/SafeMath.sol\":1746:1933   */\n    tag_101:\n        /* \"@openzeppelin/contracts/math/SafeMath.sol\":1832:1839   */\n      0x00\n        /* \"@openzeppelin/contracts/math/SafeMath.sol\":1867:1879   */\n      dup2\n        /* \"@openzeppelin/contracts/math/SafeMath.sol\":1859:1865   */\n      dup5\n      dup5\n      gt\n      iszero\n        /* \"@openzeppelin/contracts/math/SafeMath.sol\":1851:1880   */\n      tag_110\n      jumpi\n      mload(0x40)\n      shl(0xe5, 0x461bcd)\n      dup2\n      mstore\n      0x04\n      add\n      dup1\n      dup1\n      0x20\n      add\n      dup3\n      dup2\n      sub\n      dup3\n      mstore\n      dup4\n      dup2\n      dup2\n      mload\n      dup2\n      mstore\n      0x20\n      add\n      swap2\n      pop\n      dup1\n      mload\n      swap1\n      0x20\n      add\n      swap1\n      dup1\n      dup4\n      dup4\n        /* \"--CODEGEN--\":23:24   */\n      0x00\n        /* \"--CODEGEN--\":8:108   */\n    tag_111:\n        /* \"--CODEGEN--\":33:36   */\n      dup4\n        /* \"--CODEGEN--\":30:31   */\n      dup2\n        /* \"--CODEGEN--\":27:37   */\n      lt\n        /* \"--CODEGEN--\":8:108   */\n      iszero\n      tag_113\n      jumpi\n        /* \"--CODEGEN--\":90:101   */\n      dup2\n      dup2\n      add\n        /* \"--CODEGEN--\":84:102   */\n      mload\n        /* \"--CODEGEN--\":71:82   */\n      dup4\n      dup3\n      add\n        /* \"--CODEGEN--\":64:103   */\n      mstore\n        /* \"--CODEGEN--\":52:54   */\n      0x20\n        /* \"--CODEGEN--\":45:55   */\n      add\n        /* \"--CODEGEN--\":8:108   */\n      jump(tag_111)\n    tag_113:\n        /* \"--CODEGEN--\":12:26   */\n      pop\n        /* \"@openzeppelin/contracts/math/SafeMath.sol\":1851:1880   */\n      pop\n      pop\n      pop\n      swap1\n      pop\n      swap1\n      dup2\n      add\n      swap1\n      0x1f\n      and\n      dup1\n      iszero\n      tag_114\n      jumpi\n      dup1\n      dup3\n      sub\n      dup1\n      mload\n      0x01\n      dup4\n      0x20\n      sub\n      0x0100\n      exp\n      sub\n      not\n      and\n      dup2\n      mstore\n      0x20\n      add\n      swap2\n      pop\n    tag_114:\n      pop\n      swap3\n      pop\n      pop\n      pop\n      mload(0x40)\n      dup1\n      swap2\n      sub\n      swap1\n      revert\n    tag_110:\n      pop\n      pop\n      pop\n        /* \"@openzeppelin/contracts/math/SafeMath.sol\":1902:1907   */\n      swap1\n      sub\n      swap1\n        /* \"@openzeppelin/contracts/math/SafeMath.sol\":1746:1933   */\n      jump\t// out\n        /* \"@openzeppelin/contracts/math/SafeMath.sol\":874:1050   */\n    tag_105:\n        /* \"@openzeppelin/contracts/math/SafeMath.sol\":932:939   */\n      0x00\n        /* \"@openzeppelin/contracts/math/SafeMath.sol\":963:968   */\n      dup3\n      dup3\n      add\n        /* \"@openzeppelin/contracts/math/SafeMath.sol\":986:992   */\n      dup4\n      dup2\n      lt\n      iszero\n        /* \"@openzeppelin/contracts/math/SafeMath.sol\":978:1024   */\n      tag_100\n      jumpi\n      0x40\n      dup1\n      mload\n      shl(0xe5, 0x461bcd)\n      dup2\n      mstore\n      0x20\n      0x04\n      dup3\n      add\n      mstore\n      0x1b\n      0x24\n      dup3\n      add\n      mstore\n      0x536166654d6174683a206164646974696f6e206f766572666c6f770000000000\n      0x44\n      dup3\n      add\n      mstore\n      swap1\n      mload\n      swap1\n      dup2\n      swap1\n      sub\n      0x64\n      add\n      swap1\n      revert\n\n    auxdata: 0xa26469706673582212202f54422f9a9a6a3aca12553d08fd9f5e43d6d1d6861005eb710fb54fbc6e76bf64736f6c63430006060033\n}\n","bytecode":{"linkReferences":{},"object":"608060405234801561001057600080fd5b50604051610dd6380380610dd68339818101604052602081101561003357600080fd5b50516040514690806052610d848239604080519182900360520182208282018252600a835269084c2c4f24098cac2e6d60b31b6020938401528151808301835260018152603160f81b908401528151808401919091527f91fb209e6d613990b5b7e5694de549d357201c31ab716f643d4d56b46dc06688818301527fc89efdaa54c0f20c7adf612882df0950f5a951637e0307cdcb4c672f298b8bc66060820152608081018590523060a0808301919091528251808303909101815260c090910190915280519101206005555061011333836001600160e01b0361012c16565b5050600080546001600160a01b03191633179055610230565b610145816002546101cf60201b610ab51790919060201c565b6002556001600160a01b038216600090815260036020908152604090912054610177918390610ab56101cf821b17901c565b6001600160a01b03831660008181526003602090815260408083209490945583518581529351929391927fddf252ad1be2c89b69c2b068fc378daa952ba7f163c4a11628f55a4df523b3ef9281900390910190a35050565b600082820183811015610229576040805162461bcd60e51b815260206004820152601b60248201527f536166654d6174683a206164646974696f6e206f766572666c6f770000000000604482015290519081900360640190fd5b9392505050565b610b458061023f6000396000f3fe608060405234801561001057600080fd5b506004361061010b5760003560e01c806370a08231116100a2578063a9059cbb11610071578063a9059cbb146102f1578063d01cc6181461031d578063d505accf14610343578063dd62ed3e14610394578063f851a440146103c25761010b565b806370a08231146102795780637ecebe001461029f57806395d89b41146102c55780639e812c7b146102cd5761010b565b806330adf81f116100de57806330adf81f1461021d578063313ce567146102255780633644e5151461024357806340c10f191461024b5761010b565b806306fdde0314610110578063095ea7b31461018d57806318160ddd146101cd57806323b872dd146101e7575b600080fd5b6101186103ca565b6040805160208082528351818301528351919283929083019185019080838360005b8381101561015257818101518382015260200161013a565b50505050905090810190601f16801561017f5780820380516001836020036101000a031916815260200191505b509250505060405180910390f35b6101b9600480360360408110156101a357600080fd5b506001600160a01b0381351690602001356103f0565b604080519115158252519081900360200190f35b6101d5610406565b60408051918252519081900360200190f35b6101b9600480360360608110156101fd57600080fd5b506001600160a01b0381358116916020810135909116906040013561040c565b6101d56104a6565b61022d6104ca565b6040805160ff9092168252519081900360200190f35b6101d56104cf565b6102776004803603604081101561026157600080fd5b506001600160a01b0381351690602001356104d5565b005b6101d56004803603602081101561028f57600080fd5b50356001600160a01b0316610538565b6101d5600480360360208110156102b557600080fd5b50356001600160a01b031661054a565b61011861055c565b6102d5610581565b604080516001600160a01b039092168252519081900360200190f35b6101b96004803603604081101561030757600080fd5b506001600160a01b038135169060200135610590565b6102776004803603602081101561033357600080fd5b50356001600160a01b031661059d565b610277600480360360e081101561035957600080fd5b506001600160a01b03813581169160208101359091169060408101359060608101359060ff6080820135169060a08101359060c0013561060b565b6101d5600480360360408110156103aa57600080fd5b506001600160a01b03813581169160200135166107f6565b6102d5610813565b6040518060400160405280600a815260200169084c2c4f24098cac2e6d60b31b81525081565b60006103fd338484610822565b50600192915050565b60025481565b6001600160a01b038316600090815260046020908152604080832033845290915281205460001914610491576001600160a01b038416600090815260046020908152604080832033845290915290205461046c908363ffffffff61088416565b6001600160a01b03851660009081526004602090815260408083203384529091529020555b61049c8484846108cd565b5060019392505050565b7f6e71edae12b1b97f4d1f60370fef10105fa2faae0126114a169c64845d6126c981565b601281565b60055481565b6001546001600160a01b0316331461052a576040805162461bcd60e51b815260206004820152601360248201527237b7363c9030b63637bbb2b21036b4b73a32b960691b604482015290519081900360640190fd5b6105348282610987565b5050565b60036020526000908152604090205481565b60066020526000908152604090205481565b604051806040016040528060098152602001680848284b2988a82a6960bb1b81525081565b6001546001600160a01b031681565b60006103fd3384846108cd565b6000546001600160a01b031633146105e9576040805162461bcd60e51b815260206004820152600a60248201526937b7363c9030b236b4b760b11b604482015290519081900360640190fd5b600180546001600160a01b0319166001600160a01b0392909216919091179055565b4284101561064a576040805162461bcd60e51b81526020600482015260076024820152661156141254915160ca1b604482015290519081900360640190fd5b6005546001600160a01b0380891660008181526006602090815260408083208054600180820190925582517f6e71edae12b1b97f4d1f60370fef10105fa2faae0126114a169c64845d6126c98186015280840196909652958d166060860152608085018c905260a085019590955260c08085018b90528151808603909101815260e08501825280519083012061190160f01b6101008601526101028501969096526101228085019690965280518085039096018652610142840180825286519683019690962095839052610162840180825286905260ff89166101828501526101a284018890526101c28401879052519193926101e280820193601f1981019281900390910190855afa158015610765573d6000803e3d6000fd5b5050604051601f1901519150506001600160a01b0381161580159061079b5750886001600160a01b0316816001600160a01b0316145b6107e0576040805162461bcd60e51b8152602060048201526011602482015270494e56414c49445f5349474e415455524560781b604482015290519081900360640190fd5b6107eb898989610822565b505050505050505050565b600460209081526000928352604080842090915290825290205481565b6000546001600160a01b031681565b6001600160a01b03808416600081815260046020908152604080832094871680845294825291829020859055815185815291517f8c5be1e5ebec7d5bd14f71427d1e84f3dd0314c0f7b2291e5b200ac8c7c3b9259281900390910190a3505050565b60006108c683836040518060400160405280601e81526020017f536166654d6174683a207375627472616374696f6e206f766572666c6f770000815250610a1e565b9392505050565b6001600160a01b0383166000908152600360205260409020546108f6908263ffffffff61088416565b6001600160a01b03808516600090815260036020526040808220939093559084168152205461092b908263ffffffff610ab516565b6001600160a01b0380841660008181526003602090815260409182902094909455805185815290519193928716927fddf252ad1be2c89b69c2b068fc378daa952ba7f163c4a11628f55a4df523b3ef92918290030190a3505050565b60025461099a908263ffffffff610ab516565b6002556001600160a01b0382166000908152600360205260409020546109c6908263ffffffff610ab516565b6001600160a01b03831660008181526003602090815260408083209490945583518581529351929391927fddf252ad1be2c89b69c2b068fc378daa952ba7f163c4a11628f55a4df523b3ef9281900390910190a35050565b60008184841115610aad5760405162461bcd60e51b81526004018080602001828103825283818151815260200191508051906020019080838360005b83811015610a72578181015183820152602001610a5a565b50505050905090810190601f168015610a9f5780820380516001836020036101000a031916815260200191505b509250505060405180910390fd5b505050900390565b6000828201838110156108c6576040805162461bcd60e51b815260206004820152601b60248201527f536166654d6174683a206164646974696f6e206f766572666c6f770000000000604482015290519081900360640190fdfea26469706673582212202f54422f9a9a6a3aca12553d08fd9f5e43d6d1d6861005eb710fb54fbc6e76bf64736f6c63430006060033454950373132446f6d61696e28737472696e67206e616d652c737472696e672076657273696f6e2c75696e7432353620636861696e49642c6164647265737320766572696679696e67436f6e747261637429","opcodes":"PUSH1 0x80 PUSH1 0x40 MSTORE CALLVALUE DUP1 ISZERO PUSH2 0x10 JUMPI PUSH1 0x0 DUP1 REVERT JUMPDEST POP PUSH1 0x40 MLOAD PUSH2 0xDD6 CODESIZE SUB DUP1 PUSH2 0xDD6 DUP4 CODECOPY DUP2 DUP2 ADD PUSH1 0x40 MSTORE PUSH1 0x20 DUP2 LT ISZERO PUSH2 0x33 JUMPI PUSH1 0x0 DUP1 REVERT JUMPDEST POP MLOAD PUSH1 0x40 MLOAD CHAINID SWAP1 DUP1 PUSH1 0x52 PUSH2 0xD84 DUP3 CODECOPY PUSH1 0x40 DUP1 MLOAD SWAP2 DUP3 SWAP1 SUB PUSH1 0x52 ADD DUP3 KECCAK256 DUP3 DUP3 ADD DUP3 MSTORE PUSH1 0xA DUP4 MSTORE PUSH10 0x84C2C4F24098CAC2E6D PUSH1 0xB3 SHL PUSH1 0x20 SWAP4 DUP5 ADD MSTORE DUP2 MLOAD DUP1 DUP4 ADD DUP4 MSTORE PUSH1 0x1 DUP2 MSTORE PUSH1 0x31 PUSH1 0xF8 SHL SWAP1 DUP5 ADD MSTORE DUP2 MLOAD DUP1 DUP5 ADD SWAP2 SWAP1 SWAP2 MSTORE PUSH32 0x91FB209E6D613990B5B7E5694DE549D357201C31AB716F643D4D56B46DC06688 DUP2 DUP4 ADD MSTORE PUSH32 0xC89EFDAA54C0F20C7ADF612882DF0950F5A951637E0307CDCB4C672F298B8BC6 PUSH1 0x60 DUP3 ADD MSTORE PUSH1 0x80 DUP2 ADD DUP6 SWAP1 MSTORE ADDRESS PUSH1 0xA0 DUP1 DUP4 ADD SWAP2 SWAP1 SWAP2 MSTORE DUP3 MLOAD DUP1 DUP4 SUB SWAP1 SWAP2 ADD DUP2 MSTORE PUSH1 0xC0 SWAP1 SWAP2 ADD SWAP1 SWAP2 MSTORE DUP1 MLOAD SWAP2 ADD KECCAK256 PUSH1 0x5 SSTORE POP PUSH2 0x113 CALLER DUP4 PUSH1 0x1 PUSH1 0x1 PUSH1 0xE0 SHL SUB PUSH2 0x12C AND JUMP JUMPDEST POP POP PUSH1 0x0 DUP1 SLOAD PUSH1 0x1 PUSH1 0x1 PUSH1 0xA0 SHL SUB NOT AND CALLER OR SWAP1 SSTORE PUSH2 0x230 JUMP JUMPDEST PUSH2 0x145 DUP2 PUSH1 0x2 SLOAD PUSH2 0x1CF PUSH1 0x20 SHL PUSH2 0xAB5 OR SWAP1 SWAP2 SWAP1 PUSH1 0x20 SHR JUMP JUMPDEST PUSH1 0x2 SSTORE PUSH1 0x1 PUSH1 0x1 PUSH1 0xA0 SHL SUB DUP3 AND PUSH1 0x0 SWAP1 DUP2 MSTORE PUSH1 0x3 PUSH1 0x20 SWAP1 DUP2 MSTORE PUSH1 0x40 SWAP1 SWAP2 KECCAK256 SLOAD PUSH2 0x177 SWAP2 DUP4 SWAP1 PUSH2 0xAB5 PUSH2 0x1CF DUP3 SHL OR SWAP1 SHR JUMP JUMPDEST PUSH1 0x1 PUSH1 0x1 PUSH1 0xA0 SHL SUB DUP4 AND PUSH1 0x0 DUP2 DUP2 MSTORE PUSH1 0x3 PUSH1 0x20 SWAP1 DUP2 MSTORE PUSH1 0x40 DUP1 DUP4 KECCAK256 SWAP5 SWAP1 SWAP5 SSTORE DUP4 MLOAD DUP6 DUP2 MSTORE SWAP4 MLOAD SWAP3 SWAP4 SWAP2 SWAP3 PUSH32 0xDDF252AD1BE2C89B69C2B068FC378DAA952BA7F163C4A11628F55A4DF523B3EF SWAP3 DUP2 SWAP1 SUB SWAP1 SWAP2 ADD SWAP1 LOG3 POP POP JUMP JUMPDEST PUSH1 0x0 DUP3 DUP3 ADD DUP4 DUP2 LT ISZERO PUSH2 0x229 JUMPI PUSH1 0x40 DUP1 MLOAD PUSH3 0x461BCD PUSH1 0xE5 SHL DUP2 MSTORE PUSH1 0x20 PUSH1 0x4 DUP3 ADD MSTORE PUSH1 0x1B PUSH1 0x24 DUP3 ADD MSTORE PUSH32 0x536166654D6174683A206164646974696F6E206F766572666C6F770000000000 PUSH1 0x44 DUP3 ADD MSTORE SWAP1 MLOAD SWAP1 DUP2 SWAP1 SUB PUSH1 0x64 ADD SWAP1 REVERT JUMPDEST SWAP4 SWAP3 POP POP POP JUMP JUMPDEST PUSH2 0xB45 DUP1 PUSH2 0x23F PUSH1 0x0 CODECOPY PUSH1 0x0 RETURN INVALID PUSH1 0x80 PUSH1 0x40 MSTORE CALLVALUE DUP1 ISZERO PUSH2 0x10 JUMPI PUSH1 0x0 DUP1 REVERT JUMPDEST POP PUSH1 0x4 CALLDATASIZE LT PUSH2 0x10B JUMPI PUSH1 0x0 CALLDATALOAD PUSH1 0xE0 SHR DUP1 PUSH4 0x70A08231 GT PUSH2 0xA2 JUMPI DUP1 PUSH4 0xA9059CBB GT PUSH2 0x71 JUMPI DUP1 PUSH4 0xA9059CBB EQ PUSH2 0x2F1 JUMPI DUP1 PUSH4 0xD01CC618 EQ PUSH2 0x31D JUMPI DUP1 PUSH4 0xD505ACCF EQ PUSH2 0x343 JUMPI DUP1 PUSH4 0xDD62ED3E EQ PUSH2 0x394 JUMPI DUP1 PUSH4 0xF851A440 EQ PUSH2 0x3C2 JUMPI PUSH2 0x10B JUMP JUMPDEST DUP1 PUSH4 0x70A08231 EQ PUSH2 0x279 JUMPI DUP1 PUSH4 0x7ECEBE00 EQ PUSH2 0x29F JUMPI DUP1 PUSH4 0x95D89B41 EQ PUSH2 0x2C5 JUMPI DUP1 PUSH4 0x9E812C7B EQ PUSH2 0x2CD JUMPI PUSH2 0x10B JUMP JUMPDEST DUP1 PUSH4 0x30ADF81F GT PUSH2 0xDE JUMPI DUP1 PUSH4 0x30ADF81F EQ PUSH2 0x21D JUMPI DUP1 PUSH4 0x313CE567 EQ PUSH2 0x225 JUMPI DUP1 PUSH4 0x3644E515 EQ PUSH2 0x243 JUMPI DUP1 PUSH4 0x40C10F19 EQ PUSH2 0x24B JUMPI PUSH2 0x10B JUMP JUMPDEST DUP1 PUSH4 0x6FDDE03 EQ PUSH2 0x110 JUMPI DUP1 PUSH4 0x95EA7B3 EQ PUSH2 0x18D JUMPI DUP1 PUSH4 0x18160DDD EQ PUSH2 0x1CD JUMPI DUP1 PUSH4 0x23B872DD EQ PUSH2 0x1E7 JUMPI JUMPDEST PUSH1 0x0 DUP1 REVERT JUMPDEST PUSH2 0x118 PUSH2 0x3CA JUMP JUMPDEST PUSH1 0x40 DUP1 MLOAD PUSH1 0x20 DUP1 DUP3 MSTORE DUP4 MLOAD DUP2 DUP4 ADD MSTORE DUP4 MLOAD SWAP2 SWAP3 DUP4 SWAP3 SWAP1 DUP4 ADD SWAP2 DUP6 ADD SWAP1 DUP1 DUP4 DUP4 PUSH1 0x0 JUMPDEST DUP4 DUP2 LT ISZERO PUSH2 0x152 JUMPI DUP2 DUP2 ADD MLOAD DUP4 DUP3 ADD MSTORE PUSH1 0x20 ADD PUSH2 0x13A JUMP JUMPDEST POP POP POP POP SWAP1 POP SWAP1 DUP2 ADD SWAP1 PUSH1 0x1F AND DUP1 ISZERO PUSH2 0x17F JUMPI DUP1 DUP3 SUB DUP1 MLOAD PUSH1 0x1 DUP4 PUSH1 0x20 SUB PUSH2 0x100 EXP SUB NOT AND DUP2 MSTORE PUSH1 0x20 ADD SWAP2 POP JUMPDEST POP SWAP3 POP POP POP PUSH1 0x40 MLOAD DUP1 SWAP2 SUB SWAP1 RETURN JUMPDEST PUSH2 0x1B9 PUSH1 0x4 DUP1 CALLDATASIZE SUB PUSH1 0x40 DUP2 LT ISZERO PUSH2 0x1A3 JUMPI PUSH1 0x0 DUP1 REVERT JUMPDEST POP PUSH1 0x1 PUSH1 0x1 PUSH1 0xA0 SHL SUB DUP2 CALLDATALOAD AND SWAP1 PUSH1 0x20 ADD CALLDATALOAD PUSH2 0x3F0 JUMP JUMPDEST PUSH1 0x40 DUP1 MLOAD SWAP2 ISZERO ISZERO DUP3 MSTORE MLOAD SWAP1 DUP2 SWAP1 SUB PUSH1 0x20 ADD SWAP1 RETURN JUMPDEST PUSH2 0x1D5 PUSH2 0x406 JUMP JUMPDEST PUSH1 0x40 DUP1 MLOAD SWAP2 DUP3 MSTORE MLOAD SWAP1 DUP2 SWAP1 SUB PUSH1 0x20 ADD SWAP1 RETURN JUMPDEST PUSH2 0x1B9 PUSH1 0x4 DUP1 CALLDATASIZE SUB PUSH1 0x60 DUP2 LT ISZERO PUSH2 0x1FD JUMPI PUSH1 0x0 DUP1 REVERT JUMPDEST POP PUSH1 0x1 PUSH1 0x1 PUSH1 0xA0 SHL SUB DUP2 CALLDATALOAD DUP2 AND SWAP2 PUSH1 0x20 DUP2 ADD CALLDATALOAD SWAP1 SWAP2 AND SWAP1 PUSH1 0x40 ADD CALLDATALOAD PUSH2 0x40C JUMP JUMPDEST PUSH2 0x1D5 PUSH2 0x4A6 JUMP JUMPDEST PUSH2 0x22D PUSH2 0x4CA JUMP JUMPDEST PUSH1 0x40 DUP1 MLOAD PUSH1 0xFF SWAP1 SWAP3 AND DUP3 MSTORE MLOAD SWAP1 DUP2 SWAP1 SUB PUSH1 0x20 ADD SWAP1 RETURN JUMPDEST PUSH2 0x1D5 PUSH2 0x4CF JUMP JUMPDEST PUSH2 0x277 PUSH1 0x4 DUP1 CALLDATASIZE SUB PUSH1 0x40 DUP2 LT ISZERO PUSH2 0x261 JUMPI PUSH1 0x0 DUP1 REVERT JUMPDEST POP PUSH1 0x1 PUSH1 0x1 PUSH1 0xA0 SHL SUB DUP2 CALLDATALOAD AND SWAP1 PUSH1 0x20 ADD CALLDATALOAD PUSH2 0x4D5 JUMP JUMPDEST STOP JUMPDEST PUSH2 0x1D5 PUSH1 0x4 DUP1 CALLDATASIZE SUB PUSH1 0x20 DUP2 LT ISZERO PUSH2 0x28F JUMPI PUSH1 0x0 DUP1 REVERT JUMPDEST POP CALLDATALOAD PUSH1 0x1 PUSH1 0x1 PUSH1 0xA0 SHL SUB AND PUSH2 0x538 JUMP JUMPDEST PUSH2 0x1D5 PUSH1 0x4 DUP1 CALLDATASIZE SUB PUSH1 0x20 DUP2 LT ISZERO PUSH2 0x2B5 JUMPI PUSH1 0x0 DUP1 REVERT JUMPDEST POP CALLDATALOAD PUSH1 0x1 PUSH1 0x1 PUSH1 0xA0 SHL SUB AND PUSH2 0x54A JUMP JUMPDEST PUSH2 0x118 PUSH2 0x55C JUMP JUMPDEST PUSH2 0x2D5 PUSH2 0x581 JUMP JUMPDEST PUSH1 0x40 DUP1 MLOAD PUSH1 0x1 PUSH1 0x1 PUSH1 0xA0 SHL SUB SWAP1 SWAP3 AND DUP3 MSTORE MLOAD SWAP1 DUP2 SWAP1 SUB PUSH1 0x20 ADD SWAP1 RETURN JUMPDEST PUSH2 0x1B9 PUSH1 0x4 DUP1 CALLDATASIZE SUB PUSH1 0x40 DUP2 LT ISZERO PUSH2 0x307 JUMPI PUSH1 0x0 DUP1 REVERT JUMPDEST POP PUSH1 0x1 PUSH1 0x1 PUSH1 0xA0 SHL SUB DUP2 CALLDATALOAD AND SWAP1 PUSH1 0x20 ADD CALLDATALOAD PUSH2 0x590 JUMP JUMPDEST PUSH2 0x277 PUSH1 0x4 DUP1 CALLDATASIZE SUB PUSH1 0x20 DUP2 LT ISZERO PUSH2 0x333 JUMPI PUSH1 0x0 DUP1 REVERT JUMPDEST POP CALLDATALOAD PUSH1 0x1 PUSH1 0x1 PUSH1 0xA0 SHL SUB AND PUSH2 0x59D JUMP JUMPDEST PUSH2 0x277 PUSH1 0x4 DUP1 CALLDATASIZE SUB PUSH1 0xE0 DUP2 LT ISZERO PUSH2 0x359 JUMPI PUSH1 0x0 DUP1 REVERT JUMPDEST POP PUSH1 0x1 PUSH1 0x1 PUSH1 0xA0 SHL SUB DUP2 CALLDATALOAD DUP2 AND SWAP2 PUSH1 0x20 DUP2 ADD CALLDATALOAD SWAP1 SWAP2 AND SWAP1 PUSH1 0x40 DUP2 ADD CALLDATALOAD SWAP1 PUSH1 0x60 DUP2 ADD CALLDATALOAD SWAP1 PUSH1 0xFF PUSH1 0x80 DUP3 ADD CALLDATALOAD AND SWAP1 PUSH1 0xA0 DUP2 ADD CALLDATALOAD SWAP1 PUSH1 0xC0 ADD CALLDATALOAD PUSH2 0x60B JUMP JUMPDEST PUSH2 0x1D5 PUSH1 0x4 DUP1 CALLDATASIZE SUB PUSH1 0x40 DUP2 LT ISZERO PUSH2 0x3AA JUMPI PUSH1 0x0 DUP1 REVERT JUMPDEST POP PUSH1 0x1 PUSH1 0x1 PUSH1 0xA0 SHL SUB DUP2 CALLDATALOAD DUP2 AND SWAP2 PUSH1 0x20 ADD CALLDATALOAD AND PUSH2 0x7F6 JUMP JUMPDEST PUSH2 0x2D5 PUSH2 0x813 JUMP JUMPDEST PUSH1 0x40 MLOAD DUP1 PUSH1 0x40 ADD PUSH1 0x40 MSTORE DUP1 PUSH1 0xA DUP2 MSTORE PUSH1 0x20 ADD PUSH10 0x84C2C4F24098CAC2E6D PUSH1 0xB3 SHL DUP2 MSTORE POP DUP2 JUMP JUMPDEST PUSH1 0x0 PUSH2 0x3FD CALLER DUP5 DUP5 PUSH2 0x822 JUMP JUMPDEST POP PUSH1 0x1 SWAP3 SWAP2 POP POP JUMP JUMPDEST PUSH1 0x2 SLOAD DUP2 JUMP JUMPDEST PUSH1 0x1 PUSH1 0x1 PUSH1 0xA0 SHL SUB DUP4 AND PUSH1 0x0 SWAP1 DUP2 MSTORE PUSH1 0x4 PUSH1 0x20 SWAP1 DUP2 MSTORE PUSH1 0x40 DUP1 DUP4 KECCAK256 CALLER DUP5 MSTORE SWAP1 SWAP2 MSTORE DUP2 KECCAK256 SLOAD PUSH1 0x0 NOT EQ PUSH2 0x491 JUMPI PUSH1 0x1 PUSH1 0x1 PUSH1 0xA0 SHL SUB DUP5 AND PUSH1 0x0 SWAP1 DUP2 MSTORE PUSH1 0x4 PUSH1 0x20 SWAP1 DUP2 MSTORE PUSH1 0x40 DUP1 DUP4 KECCAK256 CALLER DUP5 MSTORE SWAP1 SWAP2 MSTORE SWAP1 KECCAK256 SLOAD PUSH2 0x46C SWAP1 DUP4 PUSH4 0xFFFFFFFF PUSH2 0x884 AND JUMP JUMPDEST PUSH1 0x1 PUSH1 0x1 PUSH1 0xA0 SHL SUB DUP6 AND PUSH1 0x0 SWAP1 DUP2 MSTORE PUSH1 0x4 PUSH1 0x20 SWAP1 DUP2 MSTORE PUSH1 0x40 DUP1 DUP4 KECCAK256 CALLER DUP5 MSTORE SWAP1 SWAP2 MSTORE SWAP1 KECCAK256 SSTORE JUMPDEST PUSH2 0x49C DUP5 DUP5 DUP5 PUSH2 0x8CD JUMP JUMPDEST POP PUSH1 0x1 SWAP4 SWAP3 POP POP POP JUMP JUMPDEST PUSH32 0x6E71EDAE12B1B97F4D1F60370FEF10105FA2FAAE0126114A169C64845D6126C9 DUP2 JUMP JUMPDEST PUSH1 0x12 DUP2 JUMP JUMPDEST PUSH1 0x5 SLOAD DUP2 JUMP JUMPDEST PUSH1 0x1 SLOAD PUSH1 0x1 PUSH1 0x1 PUSH1 0xA0 SHL SUB AND CALLER EQ PUSH2 0x52A JUMPI PUSH1 0x40 DUP1 MLOAD PUSH3 0x461BCD PUSH1 0xE5 SHL DUP2 MSTORE PUSH1 0x20 PUSH1 0x4 DUP3 ADD MSTORE PUSH1 0x13 PUSH1 0x24 DUP3 ADD MSTORE PUSH19 0x37B7363C9030B63637BBB2B21036B4B73A32B9 PUSH1 0x69 SHL PUSH1 0x44 DUP3 ADD MSTORE SWAP1 MLOAD SWAP1 DUP2 SWAP1 SUB PUSH1 0x64 ADD SWAP1 REVERT JUMPDEST PUSH2 0x534 DUP3 DUP3 PUSH2 0x987 JUMP JUMPDEST POP POP JUMP JUMPDEST PUSH1 0x3 PUSH1 0x20 MSTORE PUSH1 0x0 SWAP1 DUP2 MSTORE PUSH1 0x40 SWAP1 KECCAK256 SLOAD DUP2 JUMP JUMPDEST PUSH1 0x6 PUSH1 0x20 MSTORE PUSH1 0x0 SWAP1 DUP2 MSTORE PUSH1 0x40 SWAP1 KECCAK256 SLOAD DUP2 JUMP JUMPDEST PUSH1 0x40 MLOAD DUP1 PUSH1 0x40 ADD PUSH1 0x40 MSTORE DUP1 PUSH1 0x9 DUP2 MSTORE PUSH1 0x20 ADD PUSH9 0x848284B2988A82A69 PUSH1 0xBB SHL DUP2 MSTORE POP DUP2 JUMP JUMPDEST PUSH1 0x1 SLOAD PUSH1 0x1 PUSH1 0x1 PUSH1 0xA0 SHL SUB AND DUP2 JUMP JUMPDEST PUSH1 0x0 PUSH2 0x3FD CALLER DUP5 DUP5 PUSH2 0x8CD JUMP JUMPDEST PUSH1 0x0 SLOAD PUSH1 0x1 PUSH1 0x1 PUSH1 0xA0 SHL SUB AND CALLER EQ PUSH2 0x5E9 JUMPI PUSH1 0x40 DUP1 MLOAD PUSH3 0x461BCD PUSH1 0xE5 SHL DUP2 MSTORE PUSH1 0x20 PUSH1 0x4 DUP3 ADD MSTORE PUSH1 0xA PUSH1 0x24 DUP3 ADD MSTORE PUSH10 0x37B7363C9030B236B4B7 PUSH1 0xB1 SHL PUSH1 0x44 DUP3 ADD MSTORE SWAP1 MLOAD SWAP1 DUP2 SWAP1 SUB PUSH1 0x64 ADD SWAP1 REVERT JUMPDEST PUSH1 0x1 DUP1 SLOAD PUSH1 0x1 PUSH1 0x1 PUSH1 0xA0 SHL SUB NOT AND PUSH1 0x1 PUSH1 0x1 PUSH1 0xA0 SHL SUB SWAP3 SWAP1 SWAP3 AND SWAP2 SWAP1 SWAP2 OR SWAP1 SSTORE JUMP JUMPDEST TIMESTAMP DUP5 LT ISZERO PUSH2 0x64A JUMPI PUSH1 0x40 DUP1 MLOAD PUSH3 0x461BCD PUSH1 0xE5 SHL DUP2 MSTORE PUSH1 0x20 PUSH1 0x4 DUP3 ADD MSTORE PUSH1 0x7 PUSH1 0x24 DUP3 ADD MSTORE PUSH7 0x11561412549151 PUSH1 0xCA SHL PUSH1 0x44 DUP3 ADD MSTORE SWAP1 MLOAD SWAP1 DUP2 SWAP1 SUB PUSH1 0x64 ADD SWAP1 REVERT JUMPDEST PUSH1 0x5 SLOAD PUSH1 0x1 PUSH1 0x1 PUSH1 0xA0 SHL SUB DUP1 DUP10 AND PUSH1 0x0 DUP2 DUP2 MSTORE PUSH1 0x6 PUSH1 0x20 SWAP1 DUP2 MSTORE PUSH1 0x40 DUP1 DUP4 KECCAK256 DUP1 SLOAD PUSH1 0x1 DUP1 DUP3 ADD SWAP1 SWAP3 SSTORE DUP3 MLOAD PUSH32 0x6E71EDAE12B1B97F4D1F60370FEF10105FA2FAAE0126114A169C64845D6126C9 DUP2 DUP7 ADD MSTORE DUP1 DUP5 ADD SWAP7 SWAP1 SWAP7 MSTORE SWAP6 DUP14 AND PUSH1 0x60 DUP7 ADD MSTORE PUSH1 0x80 DUP6 ADD DUP13 SWAP1 MSTORE PUSH1 0xA0 DUP6 ADD SWAP6 SWAP1 SWAP6 MSTORE PUSH1 0xC0 DUP1 DUP6 ADD DUP12 SWAP1 MSTORE DUP2 MLOAD DUP1 DUP7 SUB SWAP1 SWAP2 ADD DUP2 MSTORE PUSH1 0xE0 DUP6 ADD DUP3 MSTORE DUP1 MLOAD SWAP1 DUP4 ADD KECCAK256 PUSH2 0x1901 PUSH1 0xF0 SHL PUSH2 0x100 DUP7 ADD MSTORE PUSH2 0x102 DUP6 ADD SWAP7 SWAP1 SWAP7 MSTORE PUSH2 0x122 DUP1 DUP6 ADD SWAP7 SWAP1 SWAP7 MSTORE DUP1 MLOAD DUP1 DUP6 SUB SWAP1 SWAP7 ADD DUP7 MSTORE PUSH2 0x142 DUP5 ADD DUP1 DUP3 MSTORE DUP7 MLOAD SWAP7 DUP4 ADD SWAP7 SWAP1 SWAP7 KECCAK256 SWAP6 DUP4 SWAP1 MSTORE PUSH2 0x162 DUP5 ADD DUP1 DUP3 MSTORE DUP7 SWAP1 MSTORE PUSH1 0xFF DUP10 AND PUSH2 0x182 DUP6 ADD MSTORE PUSH2 0x1A2 DUP5 ADD DUP9 SWAP1 MSTORE PUSH2 0x1C2 DUP5 ADD DUP8 SWAP1 MSTORE MLOAD SWAP2 SWAP4 SWAP3 PUSH2 0x1E2 DUP1 DUP3 ADD SWAP4 PUSH1 0x1F NOT DUP2 ADD SWAP3 DUP2 SWAP1 SUB SWAP1 SWAP2 ADD SWAP1 DUP6 GAS STATICCALL ISZERO DUP1 ISZERO PUSH2 0x765 JUMPI RETURNDATASIZE PUSH1 0x0 DUP1 RETURNDATACOPY RETURNDATASIZE PUSH1 0x0 REVERT JUMPDEST POP POP PUSH1 0x40 MLOAD PUSH1 0x1F NOT ADD MLOAD SWAP2 POP POP PUSH1 0x1 PUSH1 0x1 PUSH1 0xA0 SHL SUB DUP2 AND ISZERO DUP1 ISZERO SWAP1 PUSH2 0x79B JUMPI POP DUP9 PUSH1 0x1 PUSH1 0x1 PUSH1 0xA0 SHL SUB AND DUP2 PUSH1 0x1 PUSH1 0x1 PUSH1 0xA0 SHL SUB AND EQ JUMPDEST PUSH2 0x7E0 JUMPI PUSH1 0x40 DUP1 MLOAD PUSH3 0x461BCD PUSH1 0xE5 SHL DUP2 MSTORE PUSH1 0x20 PUSH1 0x4 DUP3 ADD MSTORE PUSH1 0x11 PUSH1 0x24 DUP3 ADD MSTORE PUSH17 0x494E56414C49445F5349474E4154555245 PUSH1 0x78 SHL PUSH1 0x44 DUP3 ADD MSTORE SWAP1 MLOAD SWAP1 DUP2 SWAP1 SUB PUSH1 0x64 ADD SWAP1 REVERT JUMPDEST PUSH2 0x7EB DUP10 DUP10 DUP10 PUSH2 0x822 JUMP JUMPDEST POP POP POP POP POP POP POP POP POP JUMP JUMPDEST PUSH1 0x4 PUSH1 0x20 SWAP1 DUP2 MSTORE PUSH1 0x0 SWAP3 DUP4 MSTORE PUSH1 0x40 DUP1 DUP5 KECCAK256 SWAP1 SWAP2 MSTORE SWAP1 DUP3 MSTORE SWAP1 KECCAK256 SLOAD DUP2 JUMP JUMPDEST PUSH1 0x0 SLOAD PUSH1 0x1 PUSH1 0x1 PUSH1 0xA0 SHL SUB AND DUP2 JUMP JUMPDEST PUSH1 0x1 PUSH1 0x1 PUSH1 0xA0 SHL SUB DUP1 DUP5 AND PUSH1 0x0 DUP2 DUP2 MSTORE PUSH1 0x4 PUSH1 0x20 SWAP1 DUP2 MSTORE PUSH1 0x40 DUP1 DUP4 KECCAK256 SWAP5 DUP8 AND DUP1 DUP5 MSTORE SWAP5 DUP3 MSTORE SWAP2 DUP3 SWAP1 KECCAK256 DUP6 SWAP1 SSTORE DUP2 MLOAD DUP6 DUP2 MSTORE SWAP2 MLOAD PUSH32 0x8C5BE1E5EBEC7D5BD14F71427D1E84F3DD0314C0F7B2291E5B200AC8C7C3B925 SWAP3 DUP2 SWAP1 SUB SWAP1 SWAP2 ADD SWAP1 LOG3 POP POP POP JUMP JUMPDEST PUSH1 0x0 PUSH2 0x8C6 DUP4 DUP4 PUSH1 0x40 MLOAD DUP1 PUSH1 0x40 ADD PUSH1 0x40 MSTORE DUP1 PUSH1 0x1E DUP2 MSTORE PUSH1 0x20 ADD PUSH32 0x536166654D6174683A207375627472616374696F6E206F766572666C6F770000 DUP2 MSTORE POP PUSH2 0xA1E JUMP JUMPDEST SWAP4 SWAP3 POP POP POP JUMP JUMPDEST PUSH1 0x1 PUSH1 0x1 PUSH1 0xA0 SHL SUB DUP4 AND PUSH1 0x0 SWAP1 DUP2 MSTORE PUSH1 0x3 PUSH1 0x20 MSTORE PUSH1 0x40 SWAP1 KECCAK256 SLOAD PUSH2 0x8F6 SWAP1 DUP3 PUSH4 0xFFFFFFFF PUSH2 0x884 AND JUMP JUMPDEST PUSH1 0x1 PUSH1 0x1 PUSH1 0xA0 SHL SUB DUP1 DUP6 AND PUSH1 0x0 SWAP1 DUP2 MSTORE PUSH1 0x3 PUSH1 0x20 MSTORE PUSH1 0x40 DUP1 DUP3 KECCAK256 SWAP4 SWAP1 SWAP4 SSTORE SWAP1 DUP5 AND DUP2 MSTORE KECCAK256 SLOAD PUSH2 0x92B SWAP1 DUP3 PUSH4 0xFFFFFFFF PUSH2 0xAB5 AND JUMP JUMPDEST PUSH1 0x1 PUSH1 0x1 PUSH1 0xA0 SHL SUB DUP1 DUP5 AND PUSH1 0x0 DUP2 DUP2 MSTORE PUSH1 0x3 PUSH1 0x20 SWAP1 DUP2 MSTORE PUSH1 0x40 SWAP2 DUP3 SWAP1 KECCAK256 SWAP5 SWAP1 SWAP5 SSTORE DUP1 MLOAD DUP6 DUP2 MSTORE SWAP1 MLOAD SWAP2 SWAP4 SWAP3 DUP8 AND SWAP3 PUSH32 0xDDF252AD1BE2C89B69C2B068FC378DAA952BA7F163C4A11628F55A4DF523B3EF SWAP3 SWAP2 DUP3 SWAP1 SUB ADD SWAP1 LOG3 POP POP POP JUMP JUMPDEST PUSH1 0x2 SLOAD PUSH2 0x99A SWAP1 DUP3 PUSH4 0xFFFFFFFF PUSH2 0xAB5 AND JUMP JUMPDEST PUSH1 0x2 SSTORE PUSH1 0x1 PUSH1 0x1 PUSH1 0xA0 SHL SUB DUP3 AND PUSH1 0x0 SWAP1 DUP2 MSTORE PUSH1 0x3 PUSH1 0x20 MSTORE PUSH1 0x40 SWAP1 KECCAK256 SLOAD PUSH2 0x9C6 SWAP1 DUP3 PUSH4 0xFFFFFFFF PUSH2 0xAB5 AND JUMP JUMPDEST PUSH1 0x1 PUSH1 0x1 PUSH1 0xA0 SHL SUB DUP4 AND PUSH1 0x0 DUP2 DUP2 MSTORE PUSH1 0x3 PUSH1 0x20 SWAP1 DUP2 MSTORE PUSH1 0x40 DUP1 DUP4 KECCAK256 SWAP5 SWAP1 SWAP5 SSTORE DUP4 MLOAD DUP6 DUP2 MSTORE SWAP4 MLOAD SWAP3 SWAP4 SWAP2 SWAP3 PUSH32 0xDDF252AD1BE2C89B69C2B068FC378DAA952BA7F163C4A11628F55A4DF523B3EF SWAP3 DUP2 SWAP1 SUB SWAP1 SWAP2 ADD SWAP1 LOG3 POP POP JUMP JUMPDEST PUSH1 0x0 DUP2 DUP5 DUP5 GT ISZERO PUSH2 0xAAD JUMPI PUSH1 0x40 MLOAD PUSH3 0x461BCD PUSH1 0xE5 SHL DUP2 MSTORE PUSH1 0x4 ADD DUP1 DUP1 PUSH1 0x20 ADD DUP3 DUP2 SUB DUP3 MSTORE DUP4 DUP2 DUP2 MLOAD DUP2 MSTORE PUSH1 0x20 ADD SWAP2 POP DUP1 MLOAD SWAP1 PUSH1 0x20 ADD SWAP1 DUP1 DUP4 DUP4 PUSH1 0x0 JUMPDEST DUP4 DUP2 LT ISZERO PUSH2 0xA72 JUMPI DUP2 DUP2 ADD MLOAD DUP4 DUP3 ADD MSTORE PUSH1 0x20 ADD PUSH2 0xA5A JUMP JUMPDEST POP POP POP POP SWAP1 POP SWAP1 DUP2 ADD SWAP1 PUSH1 0x1F AND DUP1 ISZERO PUSH2 0xA9F JUMPI DUP1 DUP3 SUB DUP1 MLOAD PUSH1 0x1 DUP4 PUSH1 0x20 SUB PUSH2 0x100 EXP SUB NOT AND DUP2 MSTORE PUSH1 0x20 ADD SWAP2 POP JUMPDEST POP SWAP3 POP POP POP PUSH1 0x40 MLOAD DUP1 SWAP2 SUB SWAP1 REVERT JUMPDEST POP POP POP SWAP1 SUB SWAP1 JUMP JUMPDEST PUSH1 0x0 DUP3 DUP3 ADD DUP4 DUP2 LT ISZERO PUSH2 0x8C6 JUMPI PUSH1 0x40 DUP1 MLOAD PUSH3 0x461BCD PUSH1 0xE5 SHL DUP2 MSTORE PUSH1 0x20 PUSH1 0x4 DUP3 ADD MSTORE PUSH1 0x1B PUSH1 0x24 DUP3 ADD MSTORE PUSH32 0x536166654D6174683A206164646974696F6E206F766572666C6F770000000000 PUSH1 0x44 DUP3 ADD MSTORE SWAP1 MLOAD SWAP1 DUP2 SWAP1 SUB PUSH1 0x64 ADD SWAP1 REVERT INVALID LOG2 PUSH5 0x6970667358 0x22 SLT KECCAK256 0x2F SLOAD TIMESTAMP 0x2F SWAP11 SWAP11 PUSH11 0x3ACA12553D08FD9F5E43D6 0xD1 0xD6 DUP7 LT SDIV 0xEB PUSH18 0xFB54FBC6E76BF64736F6C63430006060033 GASLIMIT 0x49 POP CALLDATACOPY BALANCE ORIGIN DIFFICULTY PUSH16 0x6D61696E28737472696E67206E616D65 0x2C PUSH20 0x7472696E672076657273696F6E2C75696E743235 CALLDATASIZE KECCAK256 PUSH4 0x6861696E 0x49 PUSH5 0x2C61646472 PUSH6 0x737320766572 PUSH10 0x6679696E67436F6E7472 PUSH2 0x6374 0x29 "},"gasEstimates":{"creation":{"codeDepositCost":"577000","executionCost":"infinite","totalCost":"infinite"},"external":{"DOMAIN_SEPARATOR()":"1065","PERMIT_TYPEHASH()":"221","admin()":"1147","allowance(address,address)":"1305","allowedMinter()":"1126","approve(address,uint256)":"22365","balanceOf(address)":"1147","decimals()":"252","mint(address,uint256)":"infinite","name()":"infinite","nonces(address)":"1169","permit(address,address,uint256,uint256,uint8,bytes32,bytes32)":"infinite","setAllowedMinter(address)":"21957","symbol()":"infinite","totalSupply()":"1066","transfer(address,uint256)":"infinite","transferFrom(address,address,uint256)":"infinite"},"internal":{"_approve(address,address,uint256)":"infinite","_burn(address,uint256)":"infinite","_mint(address,uint256)":"infinite","_transfer(address,address,uint256)":"infinite"}},"methodIdentifiers":{"DOMAIN_SEPARATOR()":"3644e515","PERMIT_TYPEHASH()":"30adf81f","admin()":"f851a440","allowance(address,address)":"dd62ed3e","allowedMinter()":"9e812c7b","approve(address,uint256)":"095ea7b3","balanceOf(address)":"70a08231","decimals()":"313ce567","mint(address,uint256)":"40c10f19","name()":"06fdde03","nonces(address)":"7ecebe00","permit(address,address,uint256,uint256,uint8,bytes32,bytes32)":"d505accf","setAllowedMinter(address)":"d01cc618","symbol()":"95d89b41","totalSupply()":"18160ddd","transfer(address,uint256)":"a9059cbb","transferFrom(address,address,uint256)":"23b872dd"}},"storageLayout":{"storage":[{"astId":7,"contract":"Contract:BabyLeash","label":"admin","offset":0,"slot":"0","type":"t_address"},{"astId":9,"contract":"Contract:BabyLeash","label":"allowedMinter","offset":0,"slot":"1","type":"t_address"},{"astId":20,"contract":"Contract:BabyLeash","label":"totalSupply","offset":0,"slot":"2","type":"t_uint256"},{"astId":24,"contract":"Contract:BabyLeash","label":"balanceOf","offset":0,"slot":"3","type":"t_mapping(t_address,t_uint256)"},{"astId":30,"contract":"Contract:BabyLeash","label":"allowance","offset":0,"slot":"4","type":"t_mapping(t_address,t_mapping(t_address,t_uint256))"},{"astId":32,"contract":"Contract:BabyLeash","label":"DOMAIN_SEPARATOR","offset":0,"slot":"5","type":"t_bytes32"},{"astId":39,"contract":"Contract:BabyLeash","label":"nonces","offset":0,"slot":"6","type":"t_mapping(t_address,t_uint256)"}],"types":{"t_address":{"encoding":"inplace","label":"address","numberOfBytes":"20"},"t_bytes32":{"encoding":"inplace","label":"bytes32","numberOfBytes":"32"},"t_mapping(t_address,t_mapping(t_address,t_uint256))":{"encoding":"mapping","key":"t_address","label":"mapping(address => mapping(address => uint256))","numberOfBytes":"32","value":"t_mapping(t_address,t_uint256)"},"t_mapping(t_address,t_uint256)":{"encoding":"mapping","key":"t_address","label":"mapping(address => uint256)","numberOfBytes":"32","value":"t_uint256"},"t_uint256":{"encoding":"inplace","label":"uint256","numberOfBytes":"32"}}},"userdoc":{"methods":{}}}